:1000000068970020A16D0000074401008D6D00007D
:100010008D6D00008D6D00008D6D00008D6D0000F8
:100020000000000000000000000000003D6F000024
:100030008D6D000000000000A56E00008D6D0000B9
:100040008D7100008D7100008D7100008D710000B8
:100050008D7100008D7100008D7100008D710000A8
:100060008D7100008D7100008D7100008D71000098
:100070008D7100008D7100008D7100008D71000088
:1004C80081F0004102E000BF83F0004330B54FEAFD
:1004D80041044FEA430594EA050F08BF90EA020F6A
:1004E8001FBF54EA000C55EA020C7FEA645C7FEAFD
:1004F800655C00F0E2804FEA5454D4EB5555B8BF20
:100508006D420CDD2C4480EA020281EA030382EA90
:10051800000083EA010180EA020281EA0303362D22
:1005280088BF30BD11F0004F4FEA01314FF4801CF5
:100538004CEA113102D0404261EB410113F0004F07
:100548004FEA03334CEA133302D0524263EB4303BE
:1005580094EA050F00F0A780A4F10104D5F1200E5C
:100568000DDB02FA0EFC22FA05F2801841F10001B7
:1005780003FA0EF2801843FA05F359410EE0A5F18B
:1005880020050EF1200E012A03FA0EFC28BF4CF0BC
:10059800020C43FA05F3C01851EBE37101F0004572
:1005A80007D54FF0000EDCF1000C7EEB00006EEB7F
:1005B8000101B1F5801F1BD3B1F5001F0CD3490809
:1005C8005FEA30004FEA3C0C04F101044FEA445260
:1005D80012F5800F80F09A80BCF1004F08BF5FEAE7
:1005E800500C50F1000041EB045141EA050130BDC7
:1005F8005FEA4C0C404141EB0101013C28BFB1F5D9
:10060800801FE9D291F0000F04BF01460020B1FA23
:1006180081F308BF2033A3F10B03B3F120020CDAF6
:100628000C3208DD02F1140CC2F10C0201FA0CF0D4
:1006380021FA02F10CE002F11402D8BFC2F1200C39
:1006480001FA02F120FA0CFCDCBF41EA0C019040EF
:10065800E41AA2BF01EB0451294330BD6FEA040438
:100668001F3C1CDA0C340EDC04F11404C4F1200223
:1006780020FA04F001FA02F340EA030021FA04F335
:1006880045EA030130BDC4F10C04C4F1200220FA8C
:1006980002F001FA04F340EA0300294630BD21FACA
:1006A80004F0294630BD94F0000F83F4801306BF90
:1006B80081F480110134013D4EE77FEA645C18BF84
:1006C8007FEA655C29D094EA050F08BF90EA020F1B
:1006D80005D054EA000C04BF1946104630BD91EA13
:1006E800030F1EBF0021002030BD5FEA545C05D116
:1006F8004000494128BF41F0004130BD14F5800455
:100708003CBF01F5801130BD01F0004545F0FE41C8
:1007180041F470014FF0000030BD7FEA645C1ABFFD
:10072800194610467FEA655C1CBF0B46024650EA34
:10073800013406BF52EA033591EA030F41F4002160
:1007480030BD00BF90F0000F04BF0021704730B5E6
:100758004FF4806404F132044FF000054FF00001BB
:1007680050E700BF90F0000F04BF0021704730B57C
:100778004FF4806404F1320410F0004548BF404251
:100788004FF000013EE700BF42004FEAE2014FEAA6
:1007980031014FEA02701FBF12F07F4393F07F4F81
:1007A80081F06051704732F07F4208BF704793F084
:1007B8007F4F04BF41F40021704730B54FF4607497
:1007C80001F0004521F000411CE700BF50EA01029A
:1007D80008BF704730B54FF000050AE050EA010243
:1007E80008BF704730B511F0004502D5404261EBB3
:1007F80041014FF4806404F132045FEA915C3FF4F4
:10080800D8AE4FF003025FEADC0C18BF03325FEA90
:10081800DC0C18BF033202EBDC02C2F1200300FA41
:1008280003FC20FA02F001FA03FE40EA0E0021FA66
:1008380002F11444BDE600BF70B54FF0FF0C4CF454
:10084800E06C1CEA11541DBF1CEA135594EA0C0F06
:1008580095EA0C0F00F0DEF82C4481EA030621EA41
:100868004C5123EA4C5350EA013518BF52EA03357C
:1008780041F4801143F4801338D0A0FB02CE4FF02E
:100888000005E1FB02E506F00042E0FB03E54FF05E
:100898000006E1FB03569CF0000F18BF4EF0010E56
:1008A800A4F1FF04B6F5007F64F5407404D25FEA52
:1008B8004E0E6D4146EB060642EAC62141EA555105
:1008C8004FEAC52040EA5E504FEACE2EB4F1FD0C47
:1008D80088BFBCF5E06F1ED8BEF1004F08BF5FEAC5
:1008E800500E50F1000041EB045170BD06F0004677
:1008F80046EA010140EA020081EA0301B4EB5C0424
:10090800C2BFD4EB0C0541EA045170BD41F480111B
:100918004FF0000E013C00F3AB8014F1360FDEBF40
:10092800002001F0004170BDC4F10004203C35DA1C
:100938000C341BDC04F11404C4F1200500FA05F39F
:1009480020FA04F001FA05F240EA020001F0004240
:1009580021F0004110EBD37021FA04F642EB0601B6
:100968005EEA430E08BF20EAD37070BDC4F10C04E0
:10097800C4F1200500FA04F320FA05F001FA04F2A4
:1009880040EA020001F0004110EBD37041F1000190
:100998005EEA430E08BF20EAD37070BDC4F120059B
:1009A80000FA05F24EEA020E20FA04F301FA05F203
:1009B80043EA020321FA04F001F0004121FA04F2AB
:1009C80020EA020000EBD3705EEA430E08BF20EA7B
:1009D800D37070BD94F0000F0FD101F000464000B5
:1009E80041EB010111F4801F08BF013CF7D041EA37
:1009F800060195F0000F18BF704703F0004652003B
:100A080043EB030313F4801F08BF013DF7D043EA0B
:100A18000603704794EA0C0F0CEA135518BF95EAC1
:100A28000C0F0CD050EA410618BF52EA4306D1D148
:100A380081EA030101F000414FF0000070BD50EA67
:100A4800410606BF1046194652EA430619D094EAF1
:100A58000C0F02D150EA013613D195EA0C0F05D1DB
:100A680052EA03361CBF104619460AD181EA03012F
:100A780001F0004141F0FE4141F470014FF00000E7
:100A880070BD41F0FE4141F4780170BD70B54FF082
:100A9800FF0C4CF4E06C1CEA11541DBF1CEA135502
:100AA80094EA0C0F95EA0C0F00F0A7F8A4EB0504E4
:100AB80081EA030E52EA03354FEA013100F08880DB
:100AC8004FEA03334FF0805545EA131343EA1263A4
:100AD8004FEA022245EA111545EA10654FEA002659
:100AE8000EF000419D4208BF964244F1FD0404F512
:100AF800407402D25B084FEA3202B61A65EB03056E
:100B08005B084FEA32024FF480104FF4002CB6EB2A
:100B1800020E75EB030E22BFB61A754640EA0C00AA
:100B28005B084FEA3202B6EB020E75EB030E22BFEA
:100B3800B61A754640EA5C005B084FEA3202B6EB2B
:100B4800020E75EB030E22BFB61A754640EA9C00EA
:100B58005B084FEA3202B6EB020E75EB030E22BFBA
:100B6800B61A754640EADC0055EA060E18D04FEA78
:100B7800051545EA16754FEA06164FEAC30343EA18
:100B880052734FEAC2025FEA1C1CC0D111F4801FE5
:100B98000BD141EA00014FF000004FF0004CB6E7DE
:100BA80011F4801F04BF01430020B4F1FD0C88BF7D
:100BB800BCF5E06F3FF6AFAEB5EB030C04BFB6EB88
:100BC800020C5FEA500C50F1000041EB045170BD7B
:100BD8000EF0004E4EEA113114EB5C04C2BFD4EBA8
:100BE8000C0541EA045170BD41F480114FF0000E2C
:100BF800013C90E645EA060E8DE60CEA135594EAA8
:100C08000C0F08BF95EA0C0F3FF43BAF94EA0C0FAA
:100C18000AD150EA01347FF434AF95EA0C0F7FF41F
:100C280025AF104619462CE795EA0C0F06D152EA73
:100C380003353FF4FDAE1046194622E750EA410657
:100C480018BF52EA43067FF4C5AE50EA41047FF468
:100C58000DAF52EA43057FF4EBAE12E74FF0FF3CCD
:100C680006E000BF4FF0010C02E000BF4FF0010C9E
:100C78004DF804CD4FEA410C7FEA6C5C4FEA430C17
:100C880018BF7FEA6C5C1BD001B050EA410C0CBF66
:100C980052EA430C91EA030F02BF90EA020F0020C8
:100CA800704710F1000F91EA030F58BF994208BF2F
:100CB80090422CBFD8176FEAE37040F001007047EC
:100CC8004FEA410C7FEA6C5C02D150EA013C07D143
:100CD8004FEA430C7FEA6C5CD6D152EA033CD3D08E
:100CE8005DF8040B704700BF8446104662468C4688
:100CF8001946634600E000BF01B5FFF7B7FF0028BB
:100D080048BF10F1000F01BD4DF808EDFFF7F4FFE3
:100D18000CBF012000205DF808FB00BF4DF808ED6E
:100D2800FFF7EAFF34BF012000205DF808FB00BF91
:100D38004DF808EDFFF7E0FF94BF012000205DF8B3
:100D480008FB00BF4DF808EDFFF7CEFF94BF012068
:100D580000205DF808FB00BF4DF808EDFFF7C4FF61
:100D680034BF012000205DF808FB00BF4FEA410CAA
:100D78007FEA6C5C02D150EA013C0AD14FEA430C8D
:100D88007FEA6C5C02D152EA033C02D14FF00000CA
:100D980070474FF0010070474FEA410212F5001208
:100DA80015D211D56FF47873B3EB625212D94FEAAA
:100DB800C12343F0004343EA505311F0004F23FA94
:100DC80002F018BF404270474FF00000704750EAE9
:100DD800013005D111F0004008BF6FF000407047A6
:100DE8004FF00000704700BF4FEA4102B2F1E04304
:100DF80024BFB3F5001CDCF1FE5C0DD901F0004CFA
:100E08004FEAC0024CEA5070B2F1004F40EB830049
:100E180008BF20F00100704711F0804F21D113F175
:100E28003872BCBF01F00040704741F480114FEAAE
:100E38005252C2F11802C2F1200C10FA0CF320FA37
:100E480002F018BF40F001004FEAC1234FEAD32354
:100E580003FA0CFC40EA0C0023FA02F34FEA4303BE
:100E6800CCE77FEA625307D150EA01331EBF4FF047
:100E7800FE4040F44000704701F0004040F0FE4062
:100E880040F40000704700BF53B94AB9002908BFB1
:100E980000281CBF4FF0FF314FF0FF3000F00CB8B6
:100EA800ADF1080C6DE904CE00F010F8DDF804E0AF
:100EB800DDE9022304B07047704700BF034613F80A
:100EC800012B002AFBD1181A013870472DE9F04789
:100ED80086468C460846089E154674461946002BD9
:100EE80040F0C1808542B2FA82F245D94AB1C2F1D6
:100EF800200300FA02FC954094402EFA03F343EADB
:100F08000C0C4FEA154EA8B2230CBCFBFEF80EFBE6
:100F180018CC08FB00F943EA0C43994528D9EB188B
:100F280008F1FF3704D2994502D9A8F102072B44EA
:100F3800A3EB0903A4B2B3FBFEFC0EFB1C330CFBB2
:100F480000F044EA0344A04214D92C190CF1FF33F1
:100F580004D2A04202D9ACF102032C44241A43EA79
:100F680007401EB1D440002334607360BDE8F087A9
:100F78004746DDE76346F1E792BB431B01214FEA91
:100F8800154EAFB2200CB3FBFEFC0EFB1C330CFB62
:100F980007F840EA0343984561D9EB180CF1FF3094
:100FA80004D2984502D9ACF102002B44A3EB080304
:100FB800A4B2B3FBFEFC0EFB1C330CFB07F744EAA0
:100FC8000344A7424DD92C190CF1FF3304D2A74290
:100FD80002D9ACF102032C44E41B43EA0040C0E709
:100FE800C2F120039540944020FA03F12EFA03F34E
:100FF8004FEA154E9040AFB20343B1FBFEFC0EFB27
:101008001C10190C0CFB07F841EA0041884522D94D
:1010180069180CF1FF3004D2884502D9ACF10200FE
:101028002944A1EB08019BB2B1FBFEFC0EFB1C118D
:101038000CFB07F743EA01439F420ED9EB180CF16A
:10104800FF3104D29F4202D9ACF102012B44DB1BD1
:1010580041EA004193E76046E3E76146F7E7604607
:10106800A4E76346B8E7834206D916B900210846C3
:101078007CE7C6E900E0F9E7B3FA83F78FB9834262
:1010880001D3724508D8BEEB020460EB03030120CC
:101098009C461EB9002169E73846FAE7C6E9004CC4
:1010A800F8E7C7F1200CBB400EFA07F522FA0CF45A
:1010B8002EFA0CF1BA401C4320FA0CF3B8404FEA60
:1010C800144901431FFA84FEB3FBF9F809FB1830F1
:1010D8000B0C08FB0EFA43EA00439A4540D9E31883
:1010E80008F1FF3004D29A4502D9A8F1020023443E
:1010F800A3EB0A0389B2B3FBF9F809FB183308FB21
:101108000EFE41EA03418E452CD9611808F1FF33E0
:1011180004D28E4502D9A8F10203214443EA0040D3
:10112800A1EB0E01A0FB02984145CE46434602D3EF
:1011380006D14D4504D20138B9EB020E68EB040321
:10114800002EA7D0B5EB0E0261EB030101FA0CFCEF
:1011580022FA07F3F9404CEA0303C6E9003199E79C
:101168004046C5E74346D9E72DE9F04F8246174682
:101178001C4600259FB00391387810B9284600F026
:10118800A9BD252809D00399D0470028C0F2A28517
:101198007B1C01350593059FEEE71822002110A856
:1011A80015F0DDFC7B78252B00F0BC8000239846E9
:1011B8009E469C461846791C0E4611F8012B2B2A90
:1011C80000F0E38000F2DA80202A00F0E180232A90
:1011D80000F0E1802BB19DF8483043F040038DF8D2
:1011E8004830B8F1000F05D09DF8483043F020038F
:1011F8008DF84830BEF1000F05D09DF8483043F017
:1012080010038DF84830BCF1000F05D09DF8483028
:1012180043F008038DF8483028B19DF8483043F072
:1012280004038DF848309DF8483003F04401442900
:1012380003D16FF386138DF848309DF848302A2A79
:1012480043F080030E968DF8483040F0A9809DF851
:10125800493043F001038DF84930731C1A782E2A5F
:101268000CBF012100219DF8492061F341028DF84E
:1012780049200CD15A1C0E925A782A2A40F0A08094
:101288009DF84920023342F004028DF849201A786B
:101298006C2A00F0C18000F2A380682A00F0A980BF
:1012A8006A2A00F0C2804C2A00F0C78013F8012B8C
:1012B800782A05938DF84B2000F209816D2A00F2F7
:1012C800C980692A00F20381572A00F2E280412A84
:1012D80004D0A2F14503022B00F2F98004219DF805
:1012E8004A3002F0DF02A2F1410961F30203D9F1A9
:1012F80000029DF8491042EB090262F3C7110A0681
:101308008DF84A308DF84910CBB200F11F8103F0F7
:101318007802182A40F009816FF3C6038DF8493026
:101328000023F8E08DF84B30BB1C05939DF849303D
:101338009DF84A20DE0702F0070040F1098154F8C1
:10134800041B0029049108DA9DF8481041F00401B3
:101358008DF84810049949420491590740F10081D9
:1013680054F8046B002E80F2FF809DF849306FF32B
:1013780041038DF849304FF0FF36F5E02D2A0DD0A6
:10138800302A7FF427AF012316E74FF0010C13E74B
:101398004FF0010E10E74FF001080DE701200BE7B1
:1013A8000EA803F099FA0E9BB3423FF457AF9DF88D
:1013B80048201390C00F60F341028DF848204DE794
:1013C8000EA803F089FA9DF848301490C3F3400240
:1013D80042EAD07262F341038DF848300E9B56E71B
:1013E800742A26D07A2A7FF461AF06219DF8492015
:1013F8000CE05A78682A9DF8492006D1012161F34A
:10140800C6028DF84920023350E7022161F3C60273
:101418008DF84920013349E75A786C2A9DF849200C
:1014280001D10421EBE70321F0E705219DF84920CC
:10143800ECE707219DF84920E8E7BDF8482022F4A9
:10144800F04222F0020242F4804242F00202ADF879
:101458004820DFE76E3AD3B201229A4040F2824335
:101468001A429DF8493039D112F0240F61D1D107C1
:101478002DD503219DF84A2003F07803A3F14008F5
:1014880061F30202D8F100038DF84A2043EB080308
:1014980041E00120A2F15801C9B200FA01F111F4AA
:1014A800624F7FF41BAF40F6010319429DF84930A3
:1014B8001AD111F4043F0AD09DF84A2060F30202C1
:1014C80003F07803402B8DF84A207FF429AF9DF86C
:1014D800483043F001038DF8483021E702219DF898
:1014E8004A2061F30202EBE702209DF84A1003F05C
:1014F800780360F30201402B8DF84A1002BF9DF873
:10150800481041F001018DF84810632A7FF408AFB4
:10151800003B18BF01239DF84820C2F340010B434C
:1015280063F341028DF8482000E713F0380FCED15D
:10153800F6E603219DF84A2013F0780F61F30202C2
:1015480014BF012300238DF84A20E4E70123E2E7D2
:101558009DF948100029ACBF4FF0FF311399FBE605
:101568009E077FF508AF149E00230428CDE91333A6
:101578009DF8493007D1990705D49DF949100029EC
:10158800ACBF06260D2602F00702012AC3F3C303E7
:1015980032D1DA1E042A04D8DFE802F020454520BB
:1015A80020002268012B4FEAE271CDE910211BD1FE
:1015B8009DF94020D117CDE9102104349DF8482029
:1015C800069292074FD03A465046059B039912F06F
:1015D80057FB0028C0F27E830544DCE554F8042B51
:1015E800D117CDE91021E9E7022BE6D111B242F378
:1015F800C032CDE91012E0E7022A24D1DA1E042A0B
:1016080004D8DFE802F0181010181800012B4FF06A
:10161800000154F8042B14D0022BCDE91021CDD1B0
:1016280092B21092CAE7073424F00704F4E80201E2
:10163800CDE91001C2E754F8042B10920022119250
:10164800BCE7D2B2CDE7042A08D1073424F0070456
:10165800D4E900010834CDE91001AFE7032AADD180
:1016680054F8042BDDE79DF84B80B8F1780F3FF66E
:1016780092ADB8F1570F5CD8B8F1250F00F0A480EF
:10168800B8F1240F7FF687ADB8F1410F04D0A8F167
:101698004503022B3FF67FADDDE91023002BC0F296
:1016A8004D810699080700F14C81C1F300194FEAF2
:1016B8004919C3F30A51C3F31303002940F04481C5
:1016C80052EA030014BF4FF0010C4FF0000CD8028F
:1016D80040EA5250D702CDE90C70B8F1460F47EAFC
:1016E800010740EAE17008BF4FF06608384300F090
:1016F800B781BCF1000F10D01B0343EA1253170344
:101708003A4618464FF0000C002880F25681BCF18A
:10171800000F40F05981CDE90C730D9BA1F2FE3BFF
:1017280043F000430D930021DDE90C230F4605200B
:1017380060E1A8F15802202A3FF62DAD01A151F829
:1017480022F000BF171900009F1100009F11000030
:101758009F1100009F1100009F1100009F110000C1
:101768009F1100009F110000A11600009F110000AA
:10177800C3180000D7180000A1160000A116000029
:10178800A11600009F110000D71800009F1100004B
:101798009F1100009F1100009F1100001D190000FB
:1017A80017190000671800009F1100009F11000022
:1017B800E11700009F110000171900009F11000099
:1017C8009F1100001719000040460399D0470028D0
:1017D800C0F280820135DEE4002E109F3BDB3146EB
:1017E800384615F0A5FA002F3FF4D5AC4FF00009A4
:1017F8003E18F31B9DF84A2012F01001069100F0E4
:101808005E82023312F04002DDF84C80089218BF65
:10181800149A434418BF9B18049ACDF81C80002AD8
:1018280040F36882D31A9DF8482004935007C2F306
:10183800800B00F15F82510640F14F82B9F1000F31
:1018480007D048460399D0470028C0F24382D946BA
:101858000135302242E23846FFF730FBC6E71098E0
:10186800002800F027820DF175030093002117ABC3
:1018780012AA03F047F84FF000090746BDF84A30AE
:1018880003F0EF0343F4F04343F01003ADF84A309C
:10189800002E0CDB9DF848200DF17503DB1B6FF360
:1018A80086129E428DF8482001D9F31A1393002F0F
:1018B8003FF471AC0DF175066DE0109B4FF0000917
:1018C8008DF85C300DF15D06012317AF92E7069B9A
:1018D8001F0754BFC3F300194FF02B09DDE910238C
:1018E80058BF4FEA4919002B06DA4FF02D0952422A
:1018F80063EB4303CDE91023DDE910010DF1750316
:10190800009312AA17AB02F0FDFF0746C0E74FF09D
:101918000009F1E7109A072B3FF63DACDFE803F02A
:101928000C04060C08080C0C157034E4158032E41D
:10193800EB17C2E900532EE415602CE44FF02D0993
:10194800B7E64FF02B09B4E640F2FF70814231D17F
:10195800A34908F101085FFA88F811F80810134341
:1019680001F003011ED101290BBF492369234E2130
:101978006E210CBF462266228DF85C309DF84830F7
:101988008DF85D106FF386138DF85E208DF8483062
:101998000DF15F0617AFF31BB9F1000F3FF42AAF43
:1019A800013327E7012915BF6E234E236121412109
:1019B8001A46E1E74FF0000C89E692184FF0010C47
:1019C80001F1FF3140419FE6CDE90C20A5E6520820
:1019D80042EAC3725B08B3F1333F59460BF1010B7E
:1019E800F5D201F1020B012100FB03FCA2FB00234D
:1019F800013F63441BF1020FE9DB09B1CDE90C2378
:101A0800DDE90C32BBF1000F2DDCCBF10401A1F1B3
:101A180020000BF11C0B02FA0BFB22FA00F0CA4063
:101A2800CB40079208F0DF0243EA0B03472A43EA58
:101A380000037BD1F91C01DBBE422ADAA8F10208B7
:101A4800002E5FFA88F87ADD9DF84820013E92065C
:101A580075D4B6F1000B18BF4FF0010B721C26E0CD
:101A68004FF0000B5FE6023342F100020CA80BF1C5
:101A7800FF3B0137CDE90C3212F0D3F8DDE90C3227
:101A8800DB185241002A0BF1FF3BF9DACDE90C32A1
:101A9800B6E79DF84820F61B90064DD4B6F1000B2A
:101AA80018BF4FF0010BF2194FF066084AD4102AFC
:101AB800A8BF10229FED487B10208DED0E7B0B9068
:101AC800DDE90E01002A3FD1079A1B1842EB0101FC
:101AD800B1F1805F47D2CDE90C31069BB8F1660FB2
:101AE80003F0200240F0C680002F47DC30238DF839
:101AF8005C30002A76D1002E40F3BD812E238DF86C
:101B08005D3087B17B42B342A8BF3346002B1393A5
:101B1800A6EB0306D4BF002301239DF84A2063F3F4
:101B280045128DF84A200DF15E0340E0B8F1660FCA
:101B38004FF0000BB7D091E74FF0000BB3E74FF031
:101B4800000B8BE70022B5E7400840EAC17049085E
:101B5800CDE90E010EA8CDE9082312F062F8089A23
:101B6800099B013AACE75B0843EAC1730CA8490832
:101B7800CDE90C31013712F054F8AEE717AB0B99E9
:101B880000290BDD0BA90CA8CDE9063212F061F88B
:101B9800069B013F079A03F8010BF0D11397AAB9E6
:101BA800002E40F366812E2103F8011B0027002E2A
:101BB80021DD0B9A002A1EDD0BA90CA8069312F052
:101BC80048F8069B013E03F8010BF0E72E2203F8C4
:101BD800012BEBE7AFF300800000000000000008D5
:101BE8005F5202002E238DF85D30002F9BD0002E0F
:101BF80088DC0DF15E03BBF1000F4FD114961E4631
:101C080008F0DF03452B24D1002FBABF7F422D23D4
:101C18002B23632FC8BF64227370C4BFB7FBF2F3D2
:101C280002FB13774FF00A02C8BF03F13001B7FB7C
:101C3800F2F3C8BFB17003F1300102FB137386F8E9
:101C4800008003F13003D4BF02360336317073705D
:101C58000236139B002B2BDC149B002BD4BF0023D4
:101C680001239DF84A2063F3861200238DF84A2049
:101C780033708FE60BA90CA8069211F0EAFF069ABA
:101C880030288DF85C0018BF07F1FF3712B9002E15
:101C980040F3F1802E238DF85D3044E71E4616F898
:101CA800012C013B302AF9D02E2A08BF1E46A7E78F
:101CB8000123D6E7714E81460523771F9AE5110760
:101CC80048BF01339EE5104609920399D047002882
:101CD800099A05DA1FB0BDE8F08F2022DDF810B0B0
:101CE800594600290BF1FF3BEDDC049BCDF810B001
:101CF8002B445D1AB9F1000F05D048460399D04727
:101D08000028E7DB0135089B002B77D09DF9493087
:101D1800002B28DB3B46DFF8689118789B4619F8BA
:101D28000020013352073FD49DF84A30EF1B980634
:101D38005F4407D44246002A08F1FF383BDC079B82
:101D48003B449F1A9BF800002E280AD10399D047DC
:101D58000028BFDBB8F1000F07F1010731DC0BF1F8
:101D6800010B5D4638E0B94699F80000C84670286E
:101D780009F1010913D1EF1B149D47443D44EB1BA6
:101D8800002B33DC334642465046039911F078FF66
:101D980000289FDB3844049E0546064464E0039906
:101DA800D0470028E0DA95E706930399D047002842
:101DB800069BB2DA8EE730200399D0470028B9DABB
:101DC80088E730200399D04708F1FF38C0E7039926
:101DD800D0470028FFF67EAF2878A84619F80030CB
:101DE80001355907F3D4A7EB0B07C5E73020039952
:101DF800D0470028FFF66EAF0137C0E79DF84A309C
:101E0800DA0601D41B0706D530200399D0470028ED
:101E1800FFF660AF0135069B3BB103999DF84B0077
:101E2800D0470028FFF656AF0135A84406E0302019
:101E38000399D0470028FFF64DAF0135A8EB0503FD
:101E4800002BF4DC33463A465046039911F018FF4C
:101E58000028FFF63FAF28449DE720200399D0478C
:101E68000028FFF637AF0135731B002BF5DCFFF7B1
:101E780092B91746BFE60DF15D03BCE69224020055
:101E880060520200000000002DE9F04F2DED028B9A
:101E9800154687B000F14202044601919200002BDA
:101EA80000F0A18035B91A60284607B0BDEC028B56
:101EB800BDE8F08F19681A60914201D20025F3E756
:101EC8002E460FF22C19D9E9008900274FF0000A95
:101ED800019BDFF82CB128606B602046FEF742FCBE
:101EE800BC4241EC100B52DDCDE904013846FEF747
:101EF80039FC41A3D3E90023FEF79EFC9DED040BBA
:101F080053EC102BFEF7C2FD019B41EC180B3BB1C3
:101F180018EE903A03F10043029003939DED028B73
:101F2800B0EE480AF0EE680A00F01AF9424651ECA1
:101F3800100B4B46FEF780FC52465B46FEF7C6FA8E
:101F480041EC100B00F060F951EC100BFEF724FF88
:101F5800B0EE480AF0EE680AA6F8080100F0D4F9D5
:101F6800424651EC100B4B46FEF766FC52465B4668
:101F7800FEF7ACFA41EC100B00F046F951EC100BEF
:101F8800FEF70AFF0137A6F80A010436A5E710F0A4
:101F9800FBFB00F039F9042659EC108B05F1080712
:101FA80094FBF6F306FB1342AAB1022E0FD0042EBF
:101FB8000FD002363046FEF7D5FB02460B464046A8
:101FC8004946FEF7ABFE002818BF2646E8E7032679
:101FD800F0E70226EEE7012B1C46C7E900637FF70E
:101FE80063AF0837DCE71D465EE700BFAFF300804C
:101FF80000000000C0FFDF40182D4454FB2119C029
:102008000000E03F000000002DE9F04F2DED028BAD
:1020180010F0010687B01546029112D1441004F160
:10202800420004EB4402800002EBD272521000F12D
:102038000C07059007EB82021BB11F681A609742D4
:1020480006D20025284607B0BDEC028BBDE8F08F0C
:10205800002DF6D005F10C021318A0F58470184471
:102068006B60A8602A60204605ABFFF70DFF4FF0B4
:10207800000A04EBD477DFF8E0B07F10B742E1DD67
:1020880001363046FEF76EFB804620468946FEF74D
:1020980069FB02460B4640464946FEF7F7FC5246A6
:1020A8005B46FEF713FA28A3D3E90023FEF7C4FB27
:1020B800029B41EC180B3BB118EE903A03F1004338
:1020C800009001939DED008BB0EE480AF0EE680A8F
:1020D80000F046F81EA3D3E9002351EC100BFEF7DD
:1020E800ABFB52465B46FEF7F1F941EC100B00F0F2
:1020F8008BF84FEA8609AB6851EC100BA9F104097B
:1021080003EB09080393FEF747FE039BB0EE480A6A
:10211800F0EE680A23F8090000F0F6F80CA3D3E9FA
:10212800002351EC100BFEF787FB52465B46FEF787
:10213800CDF941EC100B00F067F851EC100BFEF7ED
:102148002BFEA8F8020099E7182D4454FB2109C07A
:1021580000000000C0FFDF400000E03F000000007A
:102168001FB553EC102B23F000412548814206D8B7
:102178009FED211B05B05DF804EB00F0D5BC2148AC
:10218800814208D910461946FEF79EF941EC100B1A
:1021980005B05DF804FB684600F0CAFA00F00300D9
:1021A80001280BD0022815D0D8B99DED021B9DED52
:1021B800000B00F0B9FC51EC100BE7E79DED021B9A
:1021C8009DED000B01F0D4F853EC102B104603F1F1
:1021D8000041DBE79DED021B9DED000B00F0A4FC28
:1021E800F2E79DED021B9DED000B012001F0C0F808
:1021F800E1E700BFAFF3008000000000000000002E
:10220800FB21E93FFFFFEF7F51EC100BC1F30A53AD
:102218002DE9F041A3F2FF360C4605468046132E01
:1022280035DC002E17DA34A3D3E90023FEF74EF984
:1022380000220023FEF790FD50B1002C56DA24F05E
:1022480000442C430025AC422D4C08BF4FF00044FD
:102258002146284624E02B4F374101EA0703034370
:102268001ED025A3D3E90023FEF730F9002200236E
:10227800FEF772FD0028EBD0002C4FF00005BEBF22
:102288004FF480133341E41824EA0704E0E7332EBF
:102298000ADDB6F5806F03D102460B46FEF716F944
:1022A80041EC100BBDE8F081A3F213434FF0FF3768
:1022B800DF400742F4D010A3D3E90023FEF706F964
:1022C80000220023FEF748FD0028C1D0002C0ADABE
:1022D800142E01D1013406E0C6F134060123B340BF
:1022E8001D444545F6D325EA0705B1E700252C46E8
:1022F800AEE700BFAFF300809C7500883CE4377EF2
:102308000000F0BFFFFF0F001FB553EC102B23F0A8
:1023180000412548814207D800209FED211B05B0C8
:102328005DF804EB01F024B82048814208D9104632
:102338001946FEF7C9F841EC100B05B05DF804FB2F
:10234800684600F0F5F900F0030001280CD00228D7
:1023580011D0E8B901209DED021B9DED000B01F0A5
:1023680007F851EC100BE6E79DED021B9DED000B05
:1023780000F0DAFBF5E79DED021B9DED000B012057
:1023880000F0F6FF53EC102B104603F10041D2E7A2
:102398009DED021B9DED000B00F0C6FBF2E700BFB0
:1023A8000000000000000000FB21E93FFFFFEF7F75
:1023B80038B52DED028B55EC104B00F049F8224B47
:1023C800B0EE408AF0EE608A93F90030013312D003
:1023D80045EC104B15F061FA68B12046294612A366
:1023E800D3E90023FEF7B8FC60B112F07FF822238E
:1023F8009FED0F8B0360B0EE480AF0EE680ABDEC63
:10240800028B38BD0CA3D3E9002320462946FEF7EA
:1024180085FC0028EFD012F069F822239FED088B85
:102428000360E8E7AFF30080EF39FAFE422E8640FA
:10243800000000000000F07F51302DD5104987C002
:102448000000000000000000080400200000000058
:102458002DE9FF4755EC104B25F00042AA49EE0F35
:102468008A4233D9A9498A4214D82046294690A3DA
:10247800D3E90023FEF770FC00BB204629468EA353
:10248800D3E90023FEF74AFC002800F0A0800024CE
:1024980000250EE0C5F313032246234307D02B463D
:1024A80020462946FEF712F804460D4601E0002EA4
:1024B800EDD145EC104B04B0BDE8F08780A3D3E91B
:1024C800002310461946FEF7B7F9EDE7904B9A42FC
:1024D80040F2A9808F4B9A4279D88F4B20462946E3
:1024E800F70003EBC603C6F1010AD3E90023FDF7A1
:1024F800EBFF8A4B804689463B44AAEB060A93EDDC
:10250800007B8DED007BDDE9002340464946FDF761
:10251800DBFF04460D4622462B4620462946FEF799
:102528008BF906460F4668A3D3E90023FEF784F922
:1025380067A3D3E90023FDF7C7FF32463B46FEF702
:102548007BF965A3D3E90023FDF7C0FF32463B467C
:10255800FEF772F962A3D3E90023FDF7B5FF32460F
:102568003B46FEF769F960A3D3E90023FDF7AEFF08
:1025780032463B46FEF760F902460B46204629469E
:10258800FDF7A2FF02460B4606460F46204629469F
:10259800FEF752F9CDE90201BAF1000F5CD1002231
:1025A8004FF0804330463946FDF78EFF02460B4612
:1025B800DDE90201FEF76AFA22462B46FDF784FFA1
:1025C80002460B4600205649FDF77EFF6CE7554B47
:1025D8002046294603EBC60645A3D3E90023FEF7A8
:1025E8002BF9D6E90023FDF771FFFEF7D5FB8246EC
:1025F800FEF7B8F806460F463FA3D3E90023FEF7D7
:102608001BF902460B4620462946FDF75DFF80462A
:102618008946304639463AA3D3E90023FEF70CF938
:10262800CDE900016FE7404B9A4210D82046294671
:1026380023A3D3E90023FDF749FF0022384BFEF717
:102648008BFB38B10022364B204629462AE74FF04B
:10265800000A60E782465EE732463B4600204FF0BC
:102668008041FDF731FF02460B46DDE90201FEF726
:102678000DFA02460B46DDE90001FDF725FF42464B
:102688004B46FDF721FF02460B4600202449FDF783
:102698001BFF6FF47F72924502DB01EB0A5103E7DF
:1026A8000AF57A7A00224FF0B87301EB0A510AE76B
:1026B800EF39FAFE422E864051302DD5104987C099
:1026C8009C7500883CE4377ED0A4BE726937663EAC
:1026D800F16BD2C541BDBB3E2CDE25AF6A56113F1A
:1026E80093BDBE166CC1663F3E5555555555C53F01
:1026F800FE822B654715F73F0000E0FE422EE63FBD
:10270800763C7935EF39EA3D412E8640FFFFEF7F71
:10271800422ED63FB1A2F03F90870100808701008A
:102728000000F03FA0870100FFFF2F3E00000000DF
:102738002DE9F04F57EC106B27F00048C44B8DB0D3
:1027480004469845049707D80022002380ED000B23
:10275800C0E90223002528E0BE4B984578D8049BA1
:102768003046BD4D3946002BABA3D3E9002338DDF5
:10277800FDF7AAFEA84506460F461AD0A8A3D3E936
:102788000023FDF7A1FE02460B46804689463046E7
:102798003946FDF799FEA2A3D3E900230125FDF7E9
:1027A80093FEC4E90089C4E9020128460DB0BDE8DA
:1027B800F08F9DA3D3E90023FDF786FE06460F465A
:1027C8009BA3D3E90023FDF77FFE02460B46804614
:1027D800894630463946FDF777FE95A3D3E90023AD
:1027E800DCE7FDF773FEA84506460F4618D08CA314
:1027F800D3E90023FDF76AFE02460B468046894668
:1028080030463946FDF760FE85A3D3E90023FDF77E
:102818005DFE4FF0FF35C4E90089C4E90201C4E751
:1028280081A3D3E90023FDF751FE06460F4680A396
:10283800D3E90023FDF74AFE02460B468046894647
:1028480030463946FDF740FE79A3D3E90023DEE799
:10285800824B984500F2D18015F017F857EC106BB1
:1028680075A3D3E9002330463946FDF7E5FF00227A
:102878007B4BFDF72BFEFEF78FFA0546FDF772FF3F
:1028880002460B46CDE9022363A3D3E90023FDF7F3
:10289800D3FF02460B4630463946FDF715FE824601
:1028A8008B465FA3D3E90023DDE90201FDF7C4FFEE
:1028B8001F2D06460F460CDC6A1E6A4B53F8223061
:1028C800434506D032463B4650465946FDF7FCFD87
:1028D8000EE03B46324650465946FDF7F5FD4FEAB5
:1028E80028530593C1F30A53C3EB1853102B02DC8A
:1028F800C4E9000139E04CA3D3E90023DDE9020172
:10290800FDF79AFF06460F4602460B4650465946C3
:10291800FDF7DAFD02460B46804689465046594681
:10292800FDF7D2FD32463B46FDF7CEFD06460F4683
:102938003FA3D3E90023DDE90201FDF77DFF32461D
:102948003B46FDF7C1FD02460B4606460F4640468C
:102958004946FDF7B9FD059AC1F30A53D31A312B3D
:1029680020DCC246CB46C4E90001D4E900895046C0
:10297800594642464B46FDF7A7FD3B463246FDF712
:10298800A3FD049B002BC4E90201BFF60EAF09F1B9
:102998000043C4F80080A060636001F10043E36075
:1029A8006D4202E726A3D3E90023DDE90201FDF722
:1029B80043FF06460F4602460B4640464946FDF78A
:1029C80083FD02460B4682468B4640464946FDF744
:1029D8007BFD32463B46FDF777FD06460F461AA3B8
:1029E800D3E90023DDE90201FDF726FF32463B4625
:1029F800FDF76AFD06460F4664E71B4B984535D937
:102A080032463B4630463946FDF75EFDC4E90201D1
:102A1800C4E900019EE600BF00004054FB21F93FD5
:102A28003163621A61B4D03D0000601A61B4D03DD0
:102A38007370032E8A19A33B83C8C96D305FE43FC6
:102A48000000002E8A19A33BC14920259A837B39AF
:102A5800FB21E93F7BD90240FB21F93FFB213941AA
:102A68000000E03FAC150200FFFFEF7F4FEA28555A
:102A780030460DF13009A5F21645A8EB05514FF087
:102A880003080F46FEF788F9FDF76CFE02460B4671
:102A980030463946CDE90623FDF716FD0022204BC6
:102AA800FDF7CAFE0F460646FEF776F9FDF75AFE11
:102AB80002460B463046394600260027CDE9082352
:102AC800FDF702FD0022164BFDF7B6FECDE90A011F
:102AD80032463B46C24608F1FF3879E90201FEF763
:102AE80013F90028F4D10F4B2A46214606A8019372
:102AF80002230093534600F0DFF8049B0546002BA1
:102B0800BFF653AED4E9002101F10043C4E9002324
:102B1800D4E9022101F10043C4E9022340E700BFE0
:102B2800000070412C1602002DE9F74F57EC106B8E
:102B380027F00048B8F1795F8DED001B06D23046CA
:102B48003946FEF729F9002800F0888032463B46CE
:102B580030463946FDF770FE04460D460022504BBC
:102B6800FDF76AFE82468B46204629463EA3D3E9F6
:102B78000023FDF761FE3EA3D3E90023FDF7A6FC81
:102B880022462B46FDF758FE3BA3D3E90023FDF769
:102B98009BFC22462B46FDF74FFE39A3D3E90023C1
:102BA800FDF794FC22462B46FDF746FE36A3D3E9F3
:102BB8000023FDF789FC22462B46FDF73DFE34A392
:102BC800D3E90023FDF782FC22462B46FDF734FEAD
:102BD80022462B46FDF730FE04460D463046394660
:102BE800DDE90023FDF728FE0B460246294620466C
:102BF800FDF76AFC2B4B06460F46984510D802464F
:102C08000B4650465946FDF75FFC02460B4600202E
:102C18002549FDF759FC41EC100B03B0BDE8F08FD6
:102C2800224B0024002020499845224694BFA8F54D
:102C380000151F4D2B46FDF747FC22468046894666
:102C48002B4650465946FDF73FFC32463B46FDF7BA
:102C58003BFC02460B4640464946DAE79FED0E0B21
:102C6800DBE700BFAFF30080D43888BEE9FAA8BD1F
:102C7800C4B1B4BD9EEE213EAD529C804F7E923EC3
:102C88009015CB19A001FA3E7751C1166CC1563F79
:102C98004C5555555555A53F000000000000F03F24
:102CA8000000E03F3233D33F0000F03F0000E93F2F
:102CB8000000D23F000000002DE9F04F2DED028BFF
:102CC800ADF51B7D12F1140F4FF000050993A8BF55
:102CD800D41EBD4BB8BF0024019122AEA6990A901C
:102CE80053F821300493099B03F1FF330693A4BFE3
:102CF800182394FBF3F46FF0170304FB033303EB7F
:102D0800020B049B069A03EB0208A71AA79B9FEDE8
:102D1800AA8B03EB8709454513DD22AA099B0DF50C
:102D2800E47A4FF0000802EBC305049B984530DCB9
:102D3800DDF828902F4600269FED9F7B8DED027BC6
:102D48001BE0EF4207D459F82500FDF70BFD0135CC
:102D5800E6E80201DFE751EC180BF8E7D7E90023B2
:102D6800F9E802010136FDF767FD02460B46DDE989
:102D78000201FDF7ABFBCDE90201069B083F9E422D
:102D8800ECDD08F1010808359DED027BAAEC027B19
:102D9800CBE7049B0EAADDF8109002EB83030C939B
:102DA800A79B03EB84030B934FEAC9030DF1380A81
:102DB8004F460D939AABD04603EBC90313ED287B1E
:102DC80072AB03EBC9068DED027B002FA6F1080656
:102DD80077DC58469DED020B00F086FB00224FF091
:102DE8007F5355EC104B20462946FDF725FD41EC55
:102DF800100BFFF709FA0022744B51EC100BFDF78A
:102E08001BFD02460B4620462946FDF75DFB0D4695
:102E18000446FDF7C1FF0890FDF7A4FC02460B46E7
:102E280020462946FDF750FBBBF1000F06460F462A
:102E38006BDD09F1FF310EABCBF11800089C53F89C
:102E4800213043FA00F2144482409B1A0EAA0894D7
:102E580042F82130CBF1170213410293029B002B59
:102E680062DD089B00226FF07F400133144608930F
:102E7800914500F3B780BBF1000F07DDBBF1010FEF
:102E880000F0C980BBF1020F00F0D080029B022B3A
:102E98004AD132463B4600204D49FDF715FB064610
:102EA8000F46002C40D058469FED450B00F01CFB08
:102EB8003046394653EC102BFDF706FB06460F4605
:102EC80032E00022434B013FDDE90201FDF7B4FC8B
:102ED800FDF762FFFDF746FC00223F4B04460D4616
:102EE800FDF7AAFC02460B46DDE90201FDF7ECFA04
:102EF800FDF752FF294648F8040B2046D6E900237F
:102F0800FDF7E4FACDE902015FE706D109F1FF33E5
:102F18000EAA52F82330DB159FE700222F4BFDF74E
:102F280011FF002843D10290002200233046394681
:102F3800FDF7EAFE002800F0CB8009F1FF330022FC
:102F480004998B427ADA002A00F0958009F1FF395A
:102F58000EABABF1180B53F82930002BF6D05846BE
:102F68004E464FF0000ADFF86CB09FED150B00F0ED
:102F7800BBFA09F1010372AA4FEAC30802EBC307BF
:102F880055EC104B002E80F2DB804C46002CC0F232
:102F98000981134B4FF0000A4FF0000B00261F4623
:102FA80072ABA9EB040503EBC4030693EEE002231E
:102FB800029356E7AFF30080000000000000000015
:102FC800000000000000F03FE41A0200000020406A
:102FD8000000F03F0000703E000070410000E03F3C
:102FE800B0870100514651F8043B54B96BB1013226
:102FF800C3F18073914541F8043C0ADD0B680AF17E
:103008000801C31A41F8043C012301328A461C46D0
:103018002EE701242FE709F1FF320EAB53F82230D7
:10302800C3F316030EA941F822302FE709F1FF3246
:103038000EAB53F82230C3F31503F3E70EA951F88A
:103048002310013B0A437BE7013453F8042D002A7F
:10305800FAD00D9B22AA09F101074C4403F51A7313
:103068000DEB0305099B4B44983D02EBC306BC429C
:1030780004DAA14698E60C9B0124E6E70B9B4FF087
:10308800000853F82700FDF76DFBDDF828909FED49
:10309800AC7BE6E80201B2468DED027B069B9845C3
:1030A80005DD01379DED027BA5EC027BDFE77AE9C0
:1030B8000223F9E80201FDF7BFFB02460B4608F1BF
:1030C8000108DDE90201FDF701FACDE90201E5E7B2
:1030D800CBF1000047EC106B00F006FA00229A4B87
:1030E80055EC104B20462946FDF72CFE00B3002274
:1030F800964B20462946FDF79FFB0BF1180BFDF771
:103108004BFE0646FDF72EFB00228F4BFDF794FB86
:103118000B46024629462046FDF7D6F9FDF73CFE48
:103128000EAB43F8290009F1010943F8296016E7B5
:1031380020462946FDF730FE0EAB43F829000EE77E
:103148000EAB53F82600013EFDF70CFB22462B463A
:10315800FDF772FB52465B4667E9020120462946A5
:10316800FDF76AFB04460D460CE706990136F1E8BF
:1031780002230691F7E80201FDF75EFB02460B46C3
:1031880050465946FDF7A2F982468B46049B9E425B
:1031980001DCB542E9DA4AAB013C03EBC505C5E9F8
:1031A80000ABF3E6A69B022B0BDC002B38DC5AD0D5
:1031B800089B03F007000DF51B7DBDEC028BBDE8F5
:1031C800F08FA69B032BF3D108F51A73CA460DEBB3
:1031D8000304A4F5A4742546BAF1000FA5F1080567
:1031E80067DC4D46012DA4F1080400F383804AAB47
:1031F8000020002103EB0804B9F1010F00F39880C7
:10320800029BDDE94A78DDE94C56002B40F0A080AE
:10321800019BC3E90078C3E90256C3E90401C7E783
:103228004AAB4C46002000219844002C32DA029B1D
:10323800002B35D0024601F10043019C4CADC4E996
:103248000023012402460B46DDE94A01FDF73CF95B
:10325800A14528DA029B13B101F100431946019BED
:10326800C3E90201A4E74AAB002000219844B9F160
:10327800000F08DA029B13B101F100431946019BC4
:10328800C3E9000194E778E9022309F1FF39FDF762
:103298001DF9ECE778E90223013CFDF717F9C4E7CB
:1032A80002460B46C9E7F5E802230134FDF70EF99B
:1032B800CEE795ED007B0AF1FF3A8DED047B95EDA5
:1032C800027BDDE9040153EC172B8DED067BFDF73E
:1032D800FDF802460B4606460F46DDE90401FDF7F8
:1032E800F3F8DDE90623FDF7F1F8C5E90067C5E95C
:1032F800020171E794ED007BD4E902AB013D52462F
:103308005B4651EC170B8DED047BFDF7DFF80246A9
:103318000B4606460F46DDE90401FDF7D5F852468F
:103328005B46FDF7D3F8C4E90067C4E9020159E731
:1033380074E9022309F1FF39FDF7C8F85CE700BF1B
:103348000000000000000000000070410000703E16
:10335800019B08F10044019A1F605C609D6006F1C2
:1033680000431061D36001F10043536120E700BFBF
:103378002DE9F04F55EC104B25F0004385B0804601
:10338800B3F1795F8DED021B05D220462946FDF782
:1033980003FD002852D022462B4620462946FDF739
:1033A8004BFA82468B4602460B4620462946FDF7D5
:1033B80043FA42A3D3E90023CDE900015046594618
:1033C800FDF73AFA3FA3D3E90023FDF77DF852460B
:1033D8005B46FDF731FA3DA3D3E90023FDF776F804
:1033E80052465B46FDF728FA3AA3D3E90023FDF7D6
:1033F8006BF852465B46FDF71FFA38A3D3E9002362
:10340800FDF764F806460F46B8F1000F1BD10246D7
:103418000B4650465946FDF70FFA25A3D3E900237A
:10342800FDF752F8DDE90023FDF706FA02460B46E0
:1034380020462946FDF74AF804460D4645EC104B50
:1034480005B0BDE8F08F00221B4BDDE90201FDF756
:10345800F3F98046894632463B46DDE90001FDF72F
:10346800EBF902460B4640464946FDF72DF8524611
:103478005B46FDF7E1F9DDE90223FDF725F806468D
:103488000F460BA3D3E90023DDE90001FDF7D4F9CA
:1034980002460B4630463946FDF718F802460B46F9
:1034A80020462946FDF710F8C6E700BFAFF30080B5
:1034B800495555555555C53F0000E03F7CD5CF5A75
:1034C8003AD9E53DEB9C2B8AE6E55A3E7DFEB1579D
:1034D800E31DC73ED561C119A0012A3FA6F8101106
:1034E8001111813F0000000070B555EC104BC5F379
:1034F8000A5206462B4692B925F00043234339D099
:10350800334B204629460022FDF796F9314B0446F5
:103518000D469E420FDA26A3D3E900231FE040F2AE
:10352800FF718A420BD1224620462946FCF7CEFF7E
:1035380004460D461EE0C1F30A520B46363A3244A1
:1035480040F2FE718A420DDD002D1BA1D1E9000178
:1035580002DA1BA1D1E9000117A3D3E90023FDF783
:103568006BF9E5E7002A08DD23F0FF4323F4E003C5
:1035780043EA025545EC104B70BD12F1350F08DADD
:10358800002D0BA1D1E90001C5DA0FA1D1E9000195
:10359800C1E723F0FF433632204623F4E00343EA31
:1035A800025500220C4B2946D9E700BFAFF3008033
:1035B80059F3F8C21F6EA5019C7500883CE4377E5C
:1035C8009C7500883CE437FE59F3F8C21F6EA5814C
:1035D80000005043B03CFFFF0000903C03462DE93B
:1035E800F04119790068DB8803F03002302A066957
:1035F800D0E901470ED1214940F2F733204A21484A
:1036080010F05EFB204810F05BFB40F2F7311C48DD
:1036180010F04DFB03F00602042A09D11B4940F2C1
:10362800FE33174A174810F04BFB40F2FE31EEE725
:1036380001252468DA0705FA01F554BF43F4B013ED
:1036480083F4D013254223F480120CD1104940F2A0
:1036580011430B4A0B4810F033FB0E4810F030FBB7
:1036680040F21141D3E73468DB074CBF2C43AC432D
:1036780034603B68BDE8F041184700BF791B020081
:10368800481B0200B21B0200CF1B02000C1C0200E8
:103698003F1C02007D1C0200034610B50A4619793A
:1036A8000123006803FA01F1436804691B681942A1
:1036B8000ED10E4940F2A2630D4A0E4810F000FBED
:1036C8000D4810F0FDFA40F2A261094810F0EFFA37
:1036D8002368194218BF82F0010222B18368DB68AF
:1036E800BDE81040184783681B69F9E73F1C0200D2
:1036F800481B0200B21B02007D1C02002DE9F04F9E
:1037080087B000AFA84811F0CEFC58B9A74A0121EC
:10371800A74810F0EDFC6FF0120420461C37BD4698
:10372800BDE8F08FA04811F0BEFC08B9A14AEEE749
:103738009D4811F0B8FC08B99F4AE8E79F48FFF791
:103748004DFF041E06DA23469D4A0121984810F0D1
:10375800D8FCE2E79B48FFF741FF041E02DA9A4AC9
:103768002346F2E79948FFF739FF041E02DA984A20
:103778002346EAE700219148FFF78EFF0021914890
:10378800FFF78AFF00219148FFF786FF00220023F8
:10379800DFF870828F4DC8E90023C5E900230023B4
:1037A8008D4E336000F0B6FA04460028B5D100F01B
:1037B80073F904460028B0D10321884A7C4810F0E8
:1037C80097FC00F0E3FA041E27DBDFF83C9210F0C8
:1037D8000AF9D8E900239042994112DB804B1B7803
:1037E80033B100217748FFF757FF00237C4A137055
:1037F8007C4C23782BB100217448FFF74DFF002340
:103808002370642207F1140107F1100000F0DEFABA
:10381800041E05DA744A234697E7744A234694E758
:10382800D7E904325408002B7DD0D4B10020002100
:1038380003EB440C33F9022B9C45C2FB8201F9D1FE
:1038480022460023FDF720FB4FF0804400239842D6
:1038580071EB040247D30022944653EA040E47D181
:103868001446D9F8002002F14603A34206D91821CC
:10387800A31A93FBF1F31344C9F800305C48D9F854
:1038880000200378002B63D102F1780BA3454CD2BA
:1038980032680132012A326048D90121554A017043
:1038A8004648136033607B60FFF7F6FE10F09BF824
:1038B80010F5487041F10001EA468AB0C5E90001F7
:1038C8006A46D9F80010C2E9071B05214A48C2E92F
:1038D800050442F8101F7B684FF42351344802F066
:1038E800C3F9D54622E09B0843EA8473A408AEE7EF
:1038F80012EB030E4CEB040A70454FEA520271EBCF
:103908000A0B42EACC724FEA5C0C07D3B0EB0E0EFE
:10391800704661EB0A01D2184CEB040C9B0843EA91
:103928008473A40899E71C469BE733607969386972
:1039380007F10F02C1F34F0100F004F910F1100F65
:1039480004463FF444AF002860DA2C4A0346FCE6FC
:1039580002F1460BA345274A1BD913680133222BD2
:103968001360E3D900231946037014481360EA462C
:103978003360FFF791FE8AB06A46D9F80010C2E9B1
:10398800071B05211E48C2E9050442F8101F002341
:10399800A2E70023136010F026F810F5487041F1F3
:1039A8000001C5E90001C1E7B87901008F1C0200D8
:1039B800F0830100A81C0200C11C0200008801005D
:1039C800DA1C0200F8870100FC1C0200F0870100E5
:1039D8001E1D0200D01F0020982C0020401D020050
:1039E8009275002091750020B61D02008F1D0200FF
:1039F800907500209C2C0020D41D02002E1E020071
:103A0800011E0200D81F0020F0000020FC7B002CC3
:103A18003FF4DDAE0FF0E7FF2B6883467B606B68F1
:103A28008A463B607B68164A83423B6815488B414F
:103A3800ACBF01230023032110F063FB01211248CE
:103A4800FFF72AFE0121114B19707B685B453B6823
:103A580073EB0A030DDB0E48FFF71EFE0D4B1C70BF
:103A68000FF0C1FF10F5FA7041F10001C8E900013B
:103A7800ADE600210648FFF70FFE0024EEE700BF81
:103A8800511E0200F0830100F887010092750020A2
:103A9800F08701009175002038B500F037F91E4D08
:103AA800286048B91D4920231D4A1E4810F008F90E
:103AB80020211B4810F0FBF811F07CFC044640B1B3
:103AC80001210346184A194810F01BFB6FF001004A
:103AD80038BD286811F05FFC154A0346108038B9D4
:103AE800144929230E4A0F4810F0EAF82921E0E783
:103AF800B0F5007F07D910492A23094A094810F070
:103B0800DFF82A21D5E70D4A1480084803210C4A1A
:103B180010F0F7FA2046DBE7A82C00209F1E0200D1
:103B2800731E0200B21B0200A81E020030840100AE
:103B38008E750020CD1E0200E21E02008C7100204E
:103B4800C11F02002DE9F74F89461746064648B9B6
:103B58005F4975235F4A604810F0B2F875215D48E7
:103B680010F0A5F83AB95D4976235A4A5A4810F038
:103B7800A7F87621F3E70025DFF8808115704D4519
:103B880080F0A180564BB8F800A0B3F800B0A9EBBC
:103B98000504ABEB0A03A4B29BB29C4228BF1C46A7
:103BA800504B620003EB4A00A24406EB45011FFAA2
:103BB8008AFA12F0ADFF2C44D3454A4BA8F800A06E
:103BC800A5B2DCD1DFF838A119465A46DAF8000068
:103BD80011F0B0FB7E28034615D068B1424A012196
:103BE800424810F08EFA00233046A8F8003000F062
:103BF80039F94FF0FF300EE0DAF8000011F0AEFBB3
:103C08007E2804460AD100233046A8F8003000F088
:103C180029F96FF00F0003B0BDE8F08F10B1344AF6
:103C28000346DCE711F025FBDAF80030DFED317AE6
:103C3800B3F84820DB6CDFF8CCA003EB820393EDEC
:103C4800007AB4EEE77AF1EE10FACCBF0122002236
:103C5800DFF8B4B0DAF800C0DBF80030CCF3401E6F
:103C6800A3EB0E031344032B42EA4C02CBF80030BB
:103C7800CAF8002004D800233B70A8F800307EE77B
:103C88004FF47A7CA0FB0C0E47F6122200230CFBA3
:103C980001E1FDF7F9F8184BCBF800405A68CAF86B
:103CA800004001921A68B0EB020C019A61EB020223
:103CB800BCF5966F72F10002DDDBC3E90001012358
:103CC800A8F800403B70304600F0CCF80020A2E78E
:103CD800EF1F0200731E0200B21B0200FC1F02004D
:103CE8008E7500208E7100200820020030840100AB
:103CF800272002003333333FE01F00208C7100205F
:103D0800A82C0020A42C0020A02C002000487047DC
:103D1800F400002030B5174D87B001AC0FCD0FC4AB
:103D28002B682360144C204611F0BDF948B90121D5
:103D3800124A134810F0DCF96FF01204204607B05D
:103D480030BDA368204600211B6801AA9847041EBD
:103D580006DA012123460B4A094810F0D2F9EDE7AB
:103D68004FF47A530321084A054810F0CAF9002491
:103D7800E4E700BF908401000C7A0100642002008F
:103D8800D08301007C2002009520020010B500229B
:103D98000A48114683681B699847041E07DA0121FF
:103DA8002346074A074810F0ACF9204610BD032106
:103DB800054A044810F09CF90024F6E70C7A010043
:103DC800BC200200D0830100D12002007FB54FF44F
:103DD800A06306461D48029383680D469B6802AAA5
:103DE80001A99847041E08DA01212346184A1948F0
:103DF80010F087F9204604B070BD00220023164851
:103E080003A908F065F8041E0ADA01212346134ABB
:103E1800104810F076F90199114808F0E5F8E9E73B
:103E280000230198039950F83320121421F8132025
:103E38000133A02BF7D10199094808F0D5F8039B65
:103E4800002433604FF4A0732B60D3E70C7A010091
:103E5800ED200200D0830100580400200121020057
:103E6800780400200146014808F0BEB85804002034
:103E7800B2F5802F2DE9F04110D2042A28D84549FF
:103E880040F21A23444A45480FF01AFF44480FF0FD
:103E980017FF40F21A2140480FF009FF0823D21AF1
:103EA800CC1D114424F0070421F00701091B172930
:103EB8004FEAD1060ED83B4940F22323364A374809
:103EC8000FF0FEFE36480FF0FBFE40F22321E2E73A
:103ED8000423E4E70025046031462046A660E56037
:103EE8000FF0C8FDB6F5004F2CBF08230423421D70
:103EF80092000833D11DDB0803EBD103B3424FEA2C
:103F0800D10739D801302946A2F1100204F1100076
:103F1800B8BF2A4612F023FE3A46294620460FF03B
:103F2800A5FD2B462A46294620460FF076FDA6EB2E
:103F380007082046294601220FF080FD42463946EF
:103F48000FF094FD3B462A46394620460FF065FDA2
:103F5800314620460FF08AFD43462A463146204620
:103F68000FF05BFD3146204601220FF067FD394610
:103F7800BDE8F0410FF08DBD0B494FF40E73064AB2
:103F880006480FF09DFE06480FF09AFE4FF40E719A
:103F980081E700BFFC2102002E210200B21B0200B3
:103FA8001D220200362202005F2202002DE9F04F96
:103FB80091B0009302F004030293C2F3C2030133E9
:103FC800840705460E46DDF868900392059340F095
:103FD800F881041D30B1072909D86FF01B0011B012
:103FE800BDE8F08F01F007063444C6F108064FF02B
:103FF80000084FF0040B009B4FF0FF32591E474654
:104008004346DA46CDF8108001920DB10098206041
:104018000598002800F3D7809948009A824203D374
:1040280098488242C0F0CF80039AA4EB050E92070D
:104038004FEA9E0040F1E2804FF0000CCCE07A2875
:104048005CD84B280CD8472858D829282AD825289E
:1040580051D053D8202877D023384342434173E0C6
:104068004C382E284AD8DFE800F06F4949494949B9
:104078004949494949494B49494949494949495996
:10408800494B4B5959596F4B6C496F49184B184953
:1040980049807D4B49494B497D00002000234FF062
:1040A800040B39E001222A38C0B202FA00F010EA03
:1040B8000E0F49D110F0625C30D110EA020343D0F0
:1040C8006046013C5C44B4FBFBF40BFB04F4002D9C
:1040D80060D0AAEB050CA444B4453FF67EAF002897
:1040E8006AD1BAF1040F45D159F8040B20604FF09A
:1040F800040A043428E0019B013B0193002323E0D8
:1041080011F8013C6C2B32D1002011F8023C6C2BC9
:104118000346C4D14FF0080BDA46D2E709F1070984
:1041280029F00709073424F00704F9E802AB35B190
:1041380006982044B0423FF650AFC4E900AB0023D4
:1041480008344FF0080BDA4611F8010F002800F088
:10415800C080002B7FF473AF2528F5D1019B013374
:10416800019301234FF0040BEDE7184696E7002072
:104178000346A6E7BAF1080F40F09D8009F1070948
:1041880029F00709B9EC027B84ED007B4FF0080A9F
:104198000834D9E780B9BAF1040F02D109F104094A
:1041A800A5E7BAF1080F40F0868009F1070929F060
:1041B800070909F10809E9E705980138059059F850
:1041C800040B009021E7039A90074CD54FF0010C9F
:1041D800A4EB050E4FEA9E00BEF5007F1FD32A49C7
:1041E8004FF41F73294A2A480FF06AFD29480FF037
:1041F80067FD4FF41F7125480FF059FD0F2F10D898
:10420800002D4BD007F140020DEB020C019A0CF87F
:10421800200C0CF8102C04980130049022E00F2F89
:104228000CD9194940F28123184A19480FF048FD62
:1042380019480FF045FD40F28121DCE7D5B107F1BF
:1042480040020DEB020E019AC0B20EF8200C0EF8D7
:10425800102CBCF1000FDED060F07F000EF8200CAF
:1042680008F101080137C5F108024FF6DA7E043477
:10427800069269E7BCF1000F10D00136F2E700BFE3
:10428800E878010094530200424102008A220200A9
:10429800B21B0200B8220200D9220200029A02369A
:1042A800002ADFD10098CDE90631FCF707FEDDE9E9
:1042B80006310644D6E740F2C623434A43494448F8
:1042C8000FF0FEFC514643480FF0FAFC40F2C621BD
:1042D80091E7631BB3F5806F0CD33C4940F2D223BE
:1042E800394A3B480FF0ECFC3B480FF0E9FC40F240
:1042F800D22180E71DB9A6F10804E0186FE6029AFA
:104308009B0828602B709DF81030C2B1EB7085F8BF
:104318000280B8F1000F05D0002208A8C5F1010CF1
:1043280097420ED14FF0000AC5F101030DF12009A3
:1043380001930DF1300B574512D1601B4FE66B709E
:10434800E5E710F8013B190608D50CEB040EB64555
:1043580003F07F033FF641AE04F8013B0132DFE78B
:10436800B8F1000F03D099F90020002A17DB029B4F
:10437800D3B11AF80B2004F8012B0022019B18195D
:104388001044B0423FF629AE99F80000009904F8AD
:10439800010B2046039212F0BBFB039A14440AF166
:1043A800010A09F10109C6E799F8002055F82230F9
:1043B8000093029B009845F82230FCF77FFD421CD1
:1043C800DCE76FF00D000AE68A2202004241020093
:1043D800B21B0200F3220200082302002DE9F04F6D
:1043E80097B000AF89460446D7F880B0FA623B62BE
:1043F80058B9A94940F29933A84AA9480FF060FC76
:1044080040F29931A5480FF052FCCBF3C00390F865
:1044180002A07B6141B9457800780AEB800020440E
:104428004D4517D8A0EB0409E378FB61BAF1000FFA
:1044380002D01BF0010F16D1FB6953BBFB6A1BB1FD
:10444800494620463A6A98474D4628465C37BD4655
:10445800BDE8F08F461C3046FCF730FD0130304493
:1044680009F10109DCE7626823787A62FA6A99003F
:10447800B96104EB8301002A40F002810E464FF037
:1044880000084D4601EB0A094E454CD101EB0A06DE
:1044980010E01BF0020FD1D023789A00BA6162684D
:1044A80004EB83017A62FA6A002A77D14D46904676
:1044B80001EB0A061BF0050F0CBF02230123FB6268
:1044C800FB6906EB430A0BF00203BB625645BCD0FE
:1044D80016F8021B16F8013C54F82390714B9945C5
:1044E80002D3714B994536D37B69002B40D0786A4B
:1044F8000FF042FB00283BD0E9468AB06A466B4B76
:1045080053617B6AC2E906314FF400731384684B28
:1045180042F8103F00234FF41251664801F0A4FB03
:10452800023DCD46D2E716F8013BF96254F8230064
:10453800FCF7C4FCD7F88430F96A01304BB1D7F8DE
:10454800883098453EBFD7F8843023F8180008F122
:104558000108054498E77B6923B1786A0FF00CFBE2
:104568000028C9D11BF0010F05D1FB6AED1AADE790
:10457800BB6A002BAAD04846FCF7A0FCD7F88430C9
:1045880053B1D7F8883098453FBFD7F88420431CEB
:1045980022F8183008F10108054497E7BAF1000F2E
:1045A80074D01BF0040674D0D046002607F14800EA
:1045B80052463B61B96212F0ABFAB96A3B6901EB4A
:1045C8000A02BA62FA69F9695200FA60BA6A02EB39
:1045D80041023A610BF00202BA60BA6A39698A424A
:1045E8006AD162781BF0020F18BF00217A6208BFF7
:1045F8004FEA5801B2181BF0010FD2B240F0E58023
:104608001BF0040F14BF404600207B616270A0704D
:10461800E17020463A6AB969FB6A9847051EFFF6B9
:1046280014AF7B69414623707B6A3A6A6370FB6901
:1046380084F802A0E37007F14800FB6A9847B0F1DC
:104648000008C0F2F680BB69A9EB0A01C91AFB6829
:104658003A6AC91AD7E90A0398470028C0F2EB80DA
:104668004FF0000BA84408EB000507F1380AB345E2
:10467800C0F0AD8000213A6A0846FB6A9847E4E634
:1046880056464FF0000807F1380091E75646D046E5
:1046980095E7B04693E700BF1F2302008A22020075
:1046A800B21B0200E8780100945302003A2302008A
:1046B80004000001B8830100BA6A12F8021B12F85C
:1046C800015CBA6254F825005C4A904202D35C4A05
:1046D800904218D37A693AB1786A7B600FF04CFA45
:1046E8007B6800287FF479AFBA68002A4CD00F2E77
:1046F80040D9544940F24D43534A54480FF0E0FA28
:1047080040F24D417EE67A693AB1786A7B600FF0F3
:1047180033FA7B6800287FF460AF1BF0010F0BD0E1
:104728000F2E27D9474940F24343474A47480FF0DD
:10473800C7FA40F2434165E61BF0040F3FF44DAF62
:10474800B8F10F0F09D9424940F246433E4A3F4863
:104758000FF0B6FA40F2464154E608F1280207F194
:10476800300008F1010102EB000808F8105C5FFA5C
:1047780081F832E706F1280207F13000711C16189B
:1047880006F8205CCEB228E7B8F10F0F09D93049F6
:104798004FF48A632C4A2D480FF092FA4FF48A613D
:1047A80030E608F1280207F1300C08F101009444C2
:1047B80007F1580208F1020852FA80F00CF8101CB0
:1047C8005FFA88F800F8105C07E700201DE71BF87F
:1047D8000A3054F8239087F83730D7F884302BB351
:1047E800D7F888309B4521D2D7F8843033F81B801E
:1047F80001213A6AFB6A07F13700984700281ADB5B
:104808000544B8F1000F06D14846FCF757FB00F104
:1048180001081FFA88F8414648463A6AFB6A9847F1
:10482800002808DB05440BF1010B20E74FF00008D6
:10483800DEE7454609E6054607E600BFE8780100D9
:1048480094530200DD2302008A220200B21B0200F8
:10485800FC230200014B1860704700BF8C01002048
:1048680030B5002587B0CDE903010446009503A9BA
:1048780005480595FCF778FCDDE904309842B8BF97
:10488800255407B030BD00BFCF3B0100044608B532
:10489800084611461A46A0470A4B1B7873B90A49BD
:1048A80040F24633094A0A480FF00AFA09480FF05D
:1048B80007FA40F2463105480FF0F9F909F0D6FB3E
:1048C80002F0D6FAA8750020582402002D24020010
:1048D800B21B02006B240200F0B5024601680A27E9
:1048E8000020074E0B461C780131355D6D0701D459
:1048F8001360F0BD07FB0043A3F13000F2E700BFEF
:10490800605202002DE9F84F15469A46D378234A9B
:104918006F2B12F803B081460F460BF0030B2BD018
:1049280026D8582B0CBF10260A26DDF828803246D8
:10493800002348463946FCF7A7FA092A08F1FF3848
:10494800D4B21ED83034B145E4B277F1000788F804
:10495800004001D3D04511D82B789B0605D5082EE9
:1049680015D1AB7843F00803AB704046BDE8F88F2B
:1049780003F0F703702BD5E70826D6E781460F46E4
:10498800D5E7BBF1010F0CBF37345734DBE7102EE6
:10499800EBD1AB7843F01003E6E700BF60520200AA
:1049A80038B50D4604462022002112F0D8F800221E
:1049B800EB68E361AB68A3612B6823626B68A26252
:1049C80063622A6923B1591E194208BF42F00102E5
:1049D80022610122002104F12C0010F0B7FB48B13C
:1049E800054906482F23064A0FF06AF92F21044883
:1049F8000FF05DF938BD00BFB9240200B21B0200F8
:104A0800932402002DE9F04F002789B0CDE9012356
:104A1800436A04468B428846BA460597079754D39B
:104A280000F11406EFF31185202383F31288BFF3F6
:104A38006F8F3046A94609F0F7FD58B988234D4ACB
:104A48004D494E480FF03CF931464D480FF038F9C2
:104A5800882163E0304609F00BFE079A2AB13946EF
:104A680020460FF016FA0023079306A920460FF0F8
:104A780034F906998346414530D32268236A204693
:104A880013F8221003EB820A21F0030103F8221025
:104A9800216842460FF045F9E3682060984218D033
:104AA8004FF0000B304609F0CDFD50B389F3118863
:104AB800BFF36F8F059929B1A2690AB120469047C3
:104AC80000230593BBF1000FACD1504609B0BDE8F7
:104AD800F08F236943F008032361E1E718B120460A
:104AE8000FF039F9DEE7DDE90132134339D00391DC
:104AF80010F05BFB0399A0BB9DBB304609F0A2FDFB
:104B080078B94FF49A731B4A1E491C480FF0D8F81D
:104B180031461D480FF0D4F84FF49A7115480FF03C
:104B2800C6F885F31188BFF36F8F04F12C00DDE917
:104B3800012307F061FF8346EFF31189202383F3F4
:104B48001288BFF36F8F304609F06EFD00283FF4DE
:104B580075AFBBFA8BFB304609F08AFD4FEA5B1B49
:104B6800A0E7204607AB05AA27680FF013F983468C
:104B780098E700BFC2240200EF240200B21B020023
:104B8800042502001A250200312502002DE9F04112
:104B98000446C36908460E46984704F114050746BB
:104BA800EFF31188202383F31288BFF36F8F284611
:104BB80009F03AFD68B988231A4A1B491B480FF0C7
:104BC8007FF829461A480FF07BF8882115480FF01E
:104BD8006EF8284609F04CFD33783A4643F0010355
:104BE8003370616820460FF09CF8606020460FF033
:104BF8006BF9284609F026FD68B94FF49A73094AFB
:104C08000C490A480FF05CF829460B480FF058F891
:104C18004FF49A71DAE788F31188BFF36F8FBDE814
:104C2800F08100BFC2240200EF240200B21B020080
:104C3800042502001A250200312502002DE9F0475B
:104C48000446002700F11406EFF31188202383F3AC
:104C58001288BFF36F8F304609F0E6FC054668B945
:104C680088233A4A3A493B480FF02AF831463A48ED
:104C78000FF026F8882135480FF019F8304609F06A
:104C8800F7FC2369A16813F0080F02D16368994201
:104C980000D9636A5B1A002B41D0206A10F82130D2
:104CA80000EB810913F003023CD0022A04D150F82A
:104CB80021205FEA920A05D1DA0720D44846E36941
:104CC80098478246A168524620460FF02AF8514676
:104CD800A06020460FF033F82F46304609F0B2FCAA
:104CE80010BB4FF49A73194A1C491A480EF0E8FF92
:104CF80031461B480EF0E4FF4FF49A71BBE743F0CE
:104D0800020300F82130E3694846A5689847294618
:104D1800024620460FF005F80025A060DDE71D4695
:104D2800A946DAE71546FBE788F31188BFF36F8FCA
:104D3800002D89D137B1B9F1000F03D104F12C004E
:104D480007F0DCFD4846BDE8F08700BFC22402003A
:104D5800EF240200B21B0200042502001A250200FB
:104D6800312502002DE9F0410446C36908460D4685
:104D7800984704F114060746EFF31188202383F3BC
:104D88001288BFF36F8F304609F04EFC68B988234C
:104D9800274A284928480EF093FF314627480EF045
:104DA8008FFF882122480EF082FF304609F060FC10
:104DB8002B786FF300032B7023699B0705D5E268F6
:104DC800236A03EB82039D4222D12B786FF34103C0
:104DD8002B70D4E90231994204D13A4620460EF0AC
:104DE800A0FFA060394620460EF0A9FF304609F022
:104DF80029FC90B94FF49A730D4A11490E480EF0E8
:104E08005FFF31460F480EF05BFF4FF49A71C9E718
:104E18002B6867F39F032B60E8E788F31188BFF3DB
:104E28006F8F04F12C00BDE8F04107F067BD00BFAB
:104E3800C2240200EF240200B21B02000425020073
:104E48001A2502003125020070B5044600F1140548
:104E5800EFF31186202383F31288BFF36F8F284660
:104E680009F0E2FB68B988231A4A1B491B480EF06F
:104E780027FF29461A480EF023FF882115480EF00F
:104E880016FF284609F0F4FB2369A06813F0080F01
:104E980002D16368984213D9646A241A284609F033
:104EA800D1FB78B94FF49A730A4A0E490B480EF0B1
:104EB80007FF29460C480EF003FF4FF49A71DDE70F
:104EC8001C1AEBE786F31188BFF36F8F201E18BFFB
:104ED800012070BDC2240200EF240200B21B0200B0
:104EE800042502001A250200312502002DE9F84F99
:104EF8000446A38B08461907154612D4022803F066
:104F0800070165D120460EF0ECFF88B1013804286E
:104F180000F23781DFE810F05C0035018200D40030
:104F2800040101280CBF43F0100143F02001A183C4
:104F38001434204609F086FB002840F09D819A49E8
:104F48004FF49A73994A9A480EF0BAFE2146B1E096
:104F580003F00702501F01281ED80020062A2768E0
:104F6800C4E9000014D13A4603E0E08B0130E08345
:104F78001268002AF9D123F0070343F00202204601
:104F8800A2830EF0AEFF90B342F02002A2832EE07F
:104F980023F007039AB2F2E7042A33D123F0070378
:104FA8009AB22046A2830EF09CFF10B142F0200274
:104FB800A283A38B03F00709894540F0EC80A18BFD
:104FC800CA0640F1508121F01003A38301F00701C4
:104FD800D4F81880A38BB8F1000FB9DA002227683B
:104FE80023F00703C4E9002243F00103A383A38B42
:104FF80003F00709894540F0CF80002FDFD0002655
:10500800B24644E06B4940F21B136B4A68480EF005
:1050180057FE40F21B1168480EF049FE49B1674936
:105028004FF4AB73644A62480EF04AFE4FF4AB711A
:10503800F1E723684BB9624940F257135E4A5C486E
:105048000EF03EFE40F25711E5E723691E684EB99F
:105058005C494FF4AD73584A55480EF031FE4FF491
:10506800AD71D8E70F4688464FF00609A38B23F0A9
:10507800070343F006039BB2A383A268002A40F00B
:105088008D80002F40F08D80002E98D0BA4643F0D6
:10509800080304F1140B5846A38309F0D3FA002837
:1050A80040F09A8040494FF49A73404A40480EF0C5
:1050B80007FE594644480EF003FE4FF49A71ADE0DE
:1050C800022909D0414940F25D133B4A38480EF0A5
:1050D800F7FD40F25D119EE7E78B4FB13C494FF475
:1050E800AF73354A32480EF0EBFD4FF4AF7192E7DB
:1050F80023695E684EB9334940F261132E4A2C4841
:105108000EF0DEFD40F2611185E7A38BB84623F06F
:10511800070343F004039BB24FF00409A383ACE7F1
:10512800012909D02B494FF4B273234A20480EF0C5
:10513800C7FD4FF4B2716EE723684BB9204940F2BE
:1051480065131D4A1A480EF0BBFD40F2651162E76F
:1051580023699E684EB91B494FF4B473164A144824
:105168000EF0AEFD4FF4B47155E70027A38BB84697
:1051780023F0070343F005039BB24FF00509A3830F
:105188007BE70C4940F26B130B4A09480EF098FD77
:1051980040F26B113FE7002700266EE74FF0010A47
:1051A80075E7924673E700BF1A250200C224020081
:1051B800B21B02004241020051250200762502007E
:1051C80082250200A525020031250200BC25020027
:1051D800D2250200E125020085F31188BFF36F8F05
:1051E800BAF1000F1CD177BB16B120462549B0474C
:1051F800EFF31185202383F31288BFF36F8F58468E
:1052080009F012FA38BB88231F4A204920480EF0BB
:1052180057FD59461F480EF053FD88211A48FBE6F2
:10522800A1680029DFD00D680029DCD043464A4632
:105238002046D1F804A0D0471DB12B6829461D4649
:10524800F2E72B46FAE7394643464A4620463F6886
:105258000EF073FEC7E7584609F00AFAA38B23F04D
:105268000803A383ABE68B067FF562AE21F020032B
:10527800A38301F0070145E685F31188BFF36F8F1B
:10528800BDE8F88FA1520000C2240200EF240200FA
:10529800B21B020004250200F8B504460D4600F1D1
:1052A8001406EFF31187202383F31288BFF36F8F5F
:1052B800304609F0B9F968B988230C4A0C490D48F9
:1052C8000EF0FEFC31460C480EF0FAFC8821074827
:1052D8000EF0EDFC304609F0CBF9A5613A462046C0
:1052E800BDE8F8400121FFF701BE00BFC22402005B
:1052F800EF240200B21B0200042502002DE9F0474A
:1053080004460F460EF009FE051E68DB04F1140979
:10531800EFF3118A202383F31288BFF36F8F484677
:1053280009F082F9804660B98823384A38493948F3
:105338000EF0C6FC494638480EF0C2FC88213348B6
:1053480042E0484609F094F94FF6FF72E38BA68BCA
:10535800934206F0070645D0022E15D13546013393
:10536800E383484609F06EF9002841D14FF49A7357
:10537800264A2A4927480EF0A3FC494628480EF039
:105388009FFC4FF49A71DAE7062E13D8DFE806F08F
:10539800092D1212090409006FF085054FF0000865
:1053A800DFE700233B60636883B9C4E9007786B10F
:1053B8003546F3E71B4917484FF4E4731A4A0EF0D1
:1053C8007FFC4FF4E47118480EF071FC1F606760B1
:1053D800EDE7524602212046FFF788FD354628466C
:1053E800BDE8F0876FF00A05D8E76FF00405D5E748
:1053F8008AF31188BFF36F8FB8F1000FEFD0002345
:105408003246394620460EF098FDE8E7C2240200ED
:10541800EF240200B21B0200042502001A25020034
:1054280031250200E125020051250200F8B50546A4
:1054380000F11406EFF31187202383F31288BFF3DA
:105448006F8F304609F0F0F860B98823254A26495D
:1054580026480EF035FC314625480EF031FC8821EF
:1054680020482BE0304609F003F9AC8B04F0070420
:10547800022C17D0012C0CBF6FF004046FF08504C8
:10548800304609F0DFF838BB4FF49A73154A1949CA
:1054980016480EF015FC314617480EF011FC4FF473
:1054A8009A71DDE7EB8B5BB91449104840F2EF13B2
:1054B800134A0EF005FC40F2EF1111480EF0F7FB0D
:1054C800013B9BB2EB83002BDAD13A4621462846B2
:1054D800FFF70CFD2046F8BD87F31188BFF36F8FE7
:1054E800F8E700BFC2240200EF240200B21B02004A
:1054F800042502001A25020031250200F7250200C2
:105508005125020008B54268034602F00302032A47
:10551800816002D02AB1002000E0006800225A60B1
:1055280008BD054905484523054A0EF0C9FB452134
:1055380003480EF0BCFB00BF42410200B21B020050
:105548000526020030B5002289B00F490F480FF038
:1055580092FE002200230024CDE906230E230C4DE1
:10556800CDE903344FF400622846CDE90144094BE4
:105578000949009407F00CFE0849284607F044FD45
:10558800204609B030BD00BFF1560000D8260020E3
:10559800C8210020315A0000287600202B2602005E
:1055A8002DE9F047044607464FF00109DFF850801F
:1055B80014B93846BDE8F08794FAA4F5B5FA85F52C
:1055C80009FA05F32E0108EB05156FEA030A24EA28
:1055D80003042B7B002BEBD058F806301B694BB922
:1055E8004644736804222846196807EA0A070EF039
:1055F8000FFDDDE7284698470028D9D1F0E700BF1E
:10560800388401002DE9F047DFF8D8902E4C804609
:10561800A9EB04038F2B0F460BD92C494FF4A67323
:105628002B4A2C480EF04CFB4FF4A67128480EF07C
:105638003EFB29480EF0D0FC064678B300252846E4
:10564800BDE8F087237B83B12368DB680BB1204674
:105658009847636883F806A023681B69B3B9636831
:105668000422204619680EF0D3FC013610344C454C
:1056780018D91A494FF4AC73154A16480EF020FB96
:1056880017480EF01DFB4FF4AC71CFE72046984742
:105698000028E4D00AFA06F31D43E6E705464FF072
:1056A800010AE4E7CED3B8F1000FC8D0002DC5D069
:1056B8002846FFF775FF0546002FF7D0002140F276
:1056C800391008F03FFCF1E7388401006026020039
:1056D80033260200B21B0200F46600209026020066
:1056E800B126020048840100014807F007B900BF4D
:1056F8006C050020014B53F820007047AC100200E5
:1057080008B5034608462BB1044A136000F0C8FDEB
:10571800002008BD6FF01500FBE700BF90010020D6
:1057280010B5044C237813B9034807F0E7F80123B0
:10573800237010BD937500206C05002010B5044639
:1057480009480EF049FC3CB1084BD3E8EF1F01397A
:10575800C3E8E21F002AF8D105480FF098FDBDE81C
:105768001040044807F0CAB8EC660020F066002034
:10577800D82600206C05002000200146034BD3E802
:10578800EF0FC3E8E21F002AF9D17047EC6600204A
:1057980070B5FFF7F1FF05460F4C104EB44219D90A
:1057A8000F494FF403730F4A0F480EF089FA0F4858
:1057B8000EF086FA4FF403710A480EF078FA63681F
:1057C8005B792BB123685B6813B12946204698475B
:1057D8001034E3E7F3D370BD388401004884010036
:1057E8009026020033260200B21B0200B1260200F6
:1057F80010B5044C04492046FFF7D2F8034B1C604F
:1058080010BD00BF1804002098100200E0660020B8
:105818000023154A10B51370144A15491360154A28
:1058280015481360FFF76CFFFFF7E2FF134B1449AD
:1058380018468B4215D9134940F22713124A1348C8
:105848000EF03EFA12480EF03BFA40F227110E48CD
:105858000EF02DFA1A1A5C681211013222711033F7
:10586800E7E7F7D310BD00BF94750020EC66002071
:1058780040420F00F0660020DD3F0100388401003F
:10588800488401009026020033260200B21B020061
:10589800B12602000146002200230148FFF7B2B8F2
:1058A800180400200148FFF7C9B900BF18040020F8
:1058B800024B01461868FFF755BA00BFE0660020A2
:1058C8000148FFF7C1BA00BF1804002070B52F4B7C
:1058D8001878002859D0FFF7E5FF0546002844D17D
:1058E8002B4B2C4C1B68002B19DD0FF0C2FC4FF41E
:1058F8007A75A0FB050647F61222002305FB016115
:10590800FBF7C2FAD4E90032C01A40F2E93361EB7E
:105918000201984271F1000101D3FFF739FFD4E980
:10592800003213F57A7342F10002C4E90032BDE88F
:105938007040FFF7C5BF63685B7923B123682946C8
:1059480020461B6898471034B44211D912494FF4C5
:105958000073124A12480EF0B3F912480EF0B0F96B
:105968004FF400710D480EF0A2F90F4C0F4EEBE703
:10597800E1D32846FFF79CFF0D4BD3E8EF1F013911
:10598800C3E8E21F002AABD0F7E770BD937500208B
:10599800EC660020D0260020902602003326020064
:1059A800B21B0200B12602003884010048840100BD
:1059B800F066002070B5154D297829BB0120FFF746
:1059C80021FE134C134EB44217D9134940F2C513A4
:1059D800124A13480EF074F912480EF071F940F2A9
:1059E800C5110E480EF063F963685B791BB1236833
:1059F80020469B6898471034E5E7F5D3FFF766FF24
:105A08000028FBD101232B7070BD00BF94750020C6
:105A180038840100488401009026020033260200E1
:105A2800B21B0200B12602002DE9F047374B384F70
:105A3800FB1A1B090AD1374940F2A933364A3748BD
:105A48000EF03EF940F2A931334819E0002108462A
:105A5800FFF7D8FD0446A8B140F21B684FF00009D3
:105A68002F4B1B789BB92F4940F246332E4A2B48BF
:105A78000EF026F92D480EF023F940F246312A4857
:105A88000EF015F94FF0FF384FF0FF39E8E708F04E
:105A9800EDFA274B186030B1264B1B68092B02DD45
:105AA800254806F02BFF0025DFF88CA044B12046DE
:105AB800FFF776FD044618B94FF0FF384FF0FF396D
:105AC800FFF704FF064628B935B942464B4650460B
:105AD80006F092FF3546E9E70C4D08E0F5D22B6851
:105AE8009B691BB100222846114698471035BD42D4
:105AF800F4D9124940F29D33074A08480EF0E0F8FD
:105B08000F480EF0DDF840F29D319DE73884010022
:105B180048840100D026020033260200B21B02008E
:105B2800A8750020582402002D2402006B240200CE
:105B3800E8660020F06600206C0500209026020030
:105B4800B126020013B52C480EF046FA2B4B1B78F1
:105B5800002B35D0EFF31184202383F31288BFF391
:105B68006F8F274808F060FD68B98823254A2649C1
:105B780026480EF0A5F8224925480EF0A1F88821FC
:105B880020480EF094F81E4808F072FDFFF79EFEBC
:105B98001B4808F057FD68B94FF49A73194A1D4914
:105BA8001A480EF08DF816491B480EF089F84FF484
:105BB8009A71E5E784F31188BFF36F8F02B010BDC7
:105BC800164B1B68002BF9D050B90022002314484B
:105BD800CDE9002347F61222002309F0CFF8EDE7BC
:105BE8000928EBD10E480FF052FB0E4802B0BDE871
:105BF800104006F083BE00BFF066002094750020B8
:105C0800E4660020C2240200EF240200B21B020056
:105C1800042502001A25020031250200E86600204A
:105C2800D82600206C05002010B5064B04461B68DA
:105C380098472146A0600448FEF7A8FFBDE8104039
:105C4800FFF780BF9001002018040020044A054B8C
:105C58009B1AB1EBD30F34BF52F8310000207047C4
:105C6800B0830100388401002DE9F04F8FB0C1F3F3
:105C78004A2804AF0D469146B8607B600C0DB8F118
:105C8800000F68D000264FF0040B4FF00A0A07F106
:105C98001403C7F80C80C7E907667E620193CDF844
:105CA80008B0CDF800A007F11C0332464846F96851
:105CB800FEF794FBB0F5006F03461CD36C468AB020
:105CC800D9F8041004AB2C481A46C3E9050140F280
:105CD800FF71D9614FF400711984284B42F8103FC5
:105CE8004FF4125133462648FFF7BEFFA5462C371E
:105CF800BD46BDE8F08FC0F30A0804F11700184448
:105D080020F0070080083B60FFF7C4FD68F35325C7
:105D1800044640B33B6800F11001C7E9083607F1B3
:105D28001403F961CDE900A3CDF808B04846154A37
:105D3800F96807F11C03FEF751FB002813DA124932
:105D480012484FF4A373124A0DF0BAFF4FF4A3712F
:105D58000F480DF0ACFF04F1170020F00700800891
:105D6800FFF798FD044668F353252A4620467B68CA
:105D7800B9680EF06DF9BAE7F926020004000001CF
:105D8800D88301002B40010065270200B21B0200E6
:105D9800382702002DE9F04F87B00446DDE9106A84
:105DA800DDE9127993469846039127B33B4652465C
:105DB80010210020CDF80090CDF81490FEF7F6F8E9
:105DC800051E0BDA264940F26513264A26480DF0CF
:105DD80077FF40F2651123480DF069FFB5F5006FB4
:105DE8000ADB40F2FF730221204A214807B0BDE8D0
:105DF800F04F0EF086B93D4606F11700284420F012
:105E080007008008FFF746FD04F007040BF0070BB6
:105E1800E40044EA8B1444EA452444EA065406465E
:105E2800A0B19FB13B4652462946CDF800901030AC
:105E3800FEF7BCF8002809DA09494FF4C473094A87
:105E480009480DF03DFF4FF4C471C4E743462246AC
:105E58003046039907B0BDE8F04F0EF0F9B800BF1F
:105E68006427020038270200B21B02006E270200D6
:105E7800D8830100406820B1034BC01A40F3CF001B
:105E880070474FF0FF307047B08301000EB403B580
:105E980003AB53F8042B0146044801930EF062F952
:105EA80002B05DF804EB03B0704700BFD55E000098
:105EB800CA0605D48B064CBF02490349FFF7E6BF63
:105EC800704700BF5A440200A627020038B54B6845
:105ED80005461A68CB680C469A4202D108460EF06D
:105EE80034F96368D3E8EF2F511CC3E8E01F00289A
:105EF800F8D1A3689D5463681A68E3689A4209D97F
:105F0800054906487223064A0DF0DAFE7221044854
:105F18000DF0CDFE002038BDD8270200B21B0200CC
