:1000000028030120E5100000B7640000D1100000B3
:10001000D1100000D1100000D1100000D11000005C
:10002000000000000000000000000000511200006D
:10003000D110000000000000E9110000D110000004
:10004000E9130000E9130000E9130000E9130000C0
:10005000E9130000E9130000E9130000E9130000B0
:10006000E9130000E9130000E9130000E9130000A0
:10007000E9130000E9130000E9130000E913000090
:1004C000E9130000E913000053B94AB9002908BF35
:1004D00000281CBF4FF0FF314FF0FF3000F00CB888
:1004E000ADF1080C6DE904CE00F008F8DDF804E089
:1004F000DDE9022304B07047704700BF2DE9F047E3
:1005000086468C460846089E154674461946002BBA
:1005100040F0C1808542B2FA82F245D94AB1C2F1B7
:10052000200300FA02FC954094402EFA03F343EABC
:100530000C0C4FEA154EA8B2230CBCFBFEF80EFBC8
:1005400018CC08FB00F943EA0C43994528D9EB186D
:1005500008F1FF3704D2994502D9A8F102072B44CC
:10056000A3EB0903A4B2B3FBFEFC0EFB1C330CFB94
:1005700000F044EA0344A04214D92C190CF1FF33D3
:1005800004D2A04202D9ACF102032C44241A43EA5B
:1005900007401EB1D440002334607360BDE8F0878B
:1005A0004746DDE76346F1E792BB431B01214FEA73
:1005B000154EAFB2200CB3FBFEFC0EFB1C330CFB44
:1005C00007F840EA0343984561D9EB180CF1FF3076
:1005D00004D2984502D9ACF102002B44A3EB0803E6
:1005E000A4B2B3FBFEFC0EFB1C330CFB07F744EA82
:1005F0000344A7424DD92C190CF1FF3304D2A74272
:1006000002D9ACF102032C44E41B43EA0040C0E7EA
:10061000C2F120039540944020FA03F12EFA03F32F
:100620004FEA154E9040AFB20343B1FBFEFC0EFB08
:100630001C10190C0CFB07F841EA0041884522D92F
:1006400069180CF1FF3004D2884502D9ACF10200E0
:100650002944A1EB08019BB2B1FBFEFC0EFB1C116F
:100660000CFB07F743EA01439F420ED9EB180CF14C
:10067000FF3104D29F4202D9ACF102012B44DB1BB3
:1006800041EA004193E76046E3E76146F7E76046E9
:10069000A4E76346B8E7834206D916B900210846A5
:1006A0007CE7C6E900E0F9E7B3FA83F78FB9834244
:1006B00001D3724508D8BEEB020460EB03030120AE
:1006C0009C461EB9002169E73846FAE7C6E9004CA6
:1006D000F8E7C7F1200CBB400EFA07F522FA0CF43C
:1006E0002EFA0CF1BA401C4320FA0CF3B8404FEA42
:1006F000144901431FFA84FEB3FBF9F809FB1830D3
:100700000B0C08FB0EFA43EA00439A4540D9E31864
:1007100008F1FF3004D29A4502D9A8F1020023441F
:10072000A3EB0A0389B2B3FBF9F809FB183308FB02
:100730000EFE41EA03418E452CD9611808F1FF33C2
:1007400004D28E4502D9A8F10203214443EA0040B5
:10075000A1EB0E01A0FB02984145CE46434602D3D1
:1007600006D14D4504D20138B9EB020E68EB040303
:10077000002EA7D0B5EB0E0261EB030101FA0CFCD1
:1007800022FA07F3F9404CEA0303C6E9003199E77E
:100790004046C5E74346D9E72DE9F041514D9CB0AD
:1007A00017AC0FCD0FC42B684F48236005F072FDC6
:1007B000202364224FF4FA5100934C48022305F0A1
:1007C00069FD4B4805F066FD4A4C204606F070FD79
:1007D00030B9494805F05EFD00201CB0BDE8F0814D
:1007E000A568002120462B6817AA9847011E03DA46
:1007F000424805F04FFDEFE70022204611462B69E5
:100800009847011E15DB3E4E3E4D4FF4C8530D93E5
:10081000A3680CA920469B680DAA9847011E0ADA16
:10082000394805F037FD002140F6354006F054FE0A
:10083000EBE73648DDE70022DDF830E0DFF8C0C046
:10084000304F33480EF104085EF8323058F8321059
:100850001B1409142CF8023B5B1A03EBD37301320F
:100860005B10B2F5487F27F8021B20F8023BEBD162
:1008700014AB304600930DF12A0211AB0EA905F01E
:10088000BCFB15AB284600930BAA12AB0FA905F0D1
:10089000B4FB16AB00930DF12E0213AB10A91C484C
:1008A00005F0ABFB169B0E990893139BBDF92A200C
:1008B0000793BDF92E3017480693109B0593159B9F
:1008C0000493129B0393BDF92C3002930F9B019369
:1008D000149B0093119B05F0DDFC0C990E4806F06B
:1008E00017FD92E7208700005489000072890000FC
:1008F000A2890000507D0000F0890000108A0000ED
:10090000A0E3002060DD00204E8A0000318A000054
:1009100020D700206A8A0000CC020020014B1B680F
:10092000184700BFF0000020014B1860704700BF5F
:10093000F000002030B585B004460D46102200219D
:10094000684607F0DCF802238DF80230044B2A4693
:1009500021466846019305F0F5F805B030BD00BFAB
:100960001D09000080B505460E461746984603F05F
:100970005BFE034607F04EF90446DFF81890424646
:1009800049F8003039463046A84754F8090000F0CD
:1009900015FC00BF080000002DE9F047058B044658
:1009A0002807904611D4022905F0070540F0CC80B5
:1009B000204605F07CFC78B10138218B042811D841
:1009C000DFE800F0C2106D85950001290CBF45F0ED
:1009D000100545F02005258388F31188BFF36F8F3C
:1009E000BDE8F08701F0070AAA4500F0A5800027BE
:1009F000B9463E46A368002B00F0BC8041F00801D8
:100A0000218388F31188BFF36F8FA168002900F05C
:100A1000BA800D68002900F0B68033465246204661
:100A2000D1F80480C047002D76D02B6829461D469A
:100A3000F0E701F007035A1F012A1BD8002221F01A
:100A40000701062B276889B2C4E9002209D13B4679
:100A500003E0628B013262831B68002BF9D141F005
:100A600002012046218305F022FC00287AD041F0C3
:100A7000200176E0042B0AD121F0070189B220463B
:100A8000218305F014FC10B141F020012183218B5A
:100A900001F0070AAA454FD00027B946AAE7236903
:100AA00021F0070141F00601062DD3F800902183C3
:100AB0002DD1B9F1000F3FD041F00801218388F317
:100AC0001188BFF36F8F20463949C84729E021F0CC
:100AD0000701236941F0040189B2042DD3F8049081
:100AE0002183E6D000274FF0040A3E4682E721F03A
:100AF0000701236941F0050189B2052DD3F808905B
:100B00002183D6D000274FF0050A3E4672E7002722
:100B10004FF0060A3E466DE72B4687E7B9F1000F16
:100B2000D1D1EFF31188202383F31288BFF36F8FA5
:100B3000238B23F008032383258BEA062ED525F08B
:100B40001003238305F007056669218B002EBFF68D
:100B500070AF00232768C4E9003321F0070141F09A
:100B600001012183218B4FF0000901F0070AAA45FA
:100B70007FF440AF002F9CD041F00801218388F31F
:100B80001188BFF36F8F002FC8D03D6839463346B8
:100B90005246204605F0B7FB2F46F4E7AB067FF53B
:100BA0001BAF25F02003238305F0070500E700BFF6
:100BB00033630000014B036000207047688700002A
:100BC00008B5044805F066FB034805F063FB002008
:100BD00008BD00BF988A0000CD8A000008B5034810
:100BE000034A0021121A05F05EFC08BD78030020BC
:100BF000E8E90020074808B5074A0849121A05F035
:100C000054FCBDE808400648064A0749121A05F098
:100C10004CBC00BF6000002078030020E88F00007B
:100C20006000002060000020E88F000038B5054615
:100C30000C4699B1D1E901230F48096805F02AFB58
:100C4000D4E90423E1680D4805F024FBE1690C4870
:100C500005F020FBA1690B4805F01CFB012D05D117
:100C6000EFF305810848103905F014FB21462846AA
:100C7000BDE8384002F08ABEFB8A00002B8B0000E2
:100C80005B8B00006B8B00009A8B000030BFFFF77E
:100C9000FDBF00BF2DE9F04105460B4EDFF82C806B
:100CA000324606EB0807CC1B2046094906F01AFF1E
:100CB000A01942460021083C06F021FFC5F8B440C7
:100CC00007F10800BDE8F08100000000040000000A
:100CD00020870000054B5A699B689A421FBF044A4F
:100CE000536843F080535360704700BFB4D0002076
:100CF00000ED00E010B5204C204805F0CBFAA36AC7
:100D0000990137D51E4805F0C5FA1E20A36ADA01FD
:100D100003D51C4805F0BEFA1F20174CA36ADB025E
:100D200003D5194805F0B6FA0220A36A1C0303D5BF
:100D3000164805F0AFFA21200F4CA36A590303D5DA
:100D4000134805F0A7FA2220A36A9A0303D5114895
:100D500005F0A0FA2320084CA36ADB0303D50E4854
:100D600005F098FA2420A36A6FEA03436FEA13435D
:100D7000A36210BD1D20C9E700ED00E0AE8B0000AE
:100D8000C78B0000DB8B0000F68B0000218C00007D
:100D9000408C0000668C0000818C000070B5244CF3
:100DA000064624480D4605F075FAA36AD90435D5E0
:100DB000214805F06FFA1720A36A1A0503D51F48CA
:100DC00005F068FA18201A4CA36A9B050FD51C4839
:100DD00005F060FAA16BA36A180407D5194805F05D
:100DE00059FA1EB1A36A23F40043A3621920104CE0
:100DF000A36A590503D5144805F04CFA1A20A36AD2
:100E0000DA050DD5114805F045FA1B20084A936A0A
:100E100043F47F43936200232B7070BD1620CBE711
:100E2000A36A9B04F2D50A4805F034FA1C20EDE7CA
:100E300000ED00E0AD8C0000C48C0000D68C0000FA
:100E4000EA8C0000048D00001A8D0000368D000031
:100E50004F8D000070B5264C064626480D4605F01D
:100E600019FAA36AD80640D5234805F013FA1120D1
:100E7000A36A190703D5214805F00CFA12201C4C6F
:100E8000A36A9A070FD51E4805F004FA616BA36A9E
:100E90001B0607D51B4805F0FDF91EB1A36A23F018
:100EA0008003A3621320124CA36ADE0703D5164801
:100EB00005F0F0F91420A36A9C0603D5134805F049
:100EC000E9F915200A4B9A6AD10658BF9A6A9A6ABC
:100ED000920642BF5A6A22F400525A629A6A42F05B
:100EE000FF029A6200232B7070BD1020C0E700BF84
:100EF00000ED00E07F8D0000968D0000D68C000094
:100F0000CA8D0000E38D0000FA8D00004F8D0000B7
:100F10002DE9F0415B4B04465F6800258AB0C7F3BA
:100F2000080685F31188BFF36F8F02F07F43B3F19A
:100F30007F4F06D102F00C03082B13D1524805F065
:100F4000A9F900252C464FF00008F31E8DF8078004
:100F5000092B00F28580DFE803F00A797D75838331
:100F60008383838110074CBF0C460125EBE747487C
:100F7000444E05F08FF98DF80780F36A9A0704D57F
:100F8000434805F087F900232FE0F36A002B01DACC
:100F90004048F6E7F36A5B00F5D53F4805F07AF97B
:100FA0007369A26943F480737361BFF34F8FBFF31A
:100FB0006F8F736932F8022C23F480737361BFF36F
:100FC0004F8FBFF36F8F4DF602739A4208D0B36A0A
:100FD000DBB24BB301200DF10701FFF73BFF33E01C
:100FE00021682E4805F056F923689DF80720C2B9FC
:100FF00002AE04F12007324620686168083403C25B
:10100000BC421646F7D1099AB5B3C2F3080121B91B
:101010006FEA52226FEA42220992184602A9FFF7AC
:1010200005FE0AB0BDE8F081B36A13F47F4F05D026
:1010300001200DF10701FFF7B1FE05E0B36AB3F53A
:10104000803FA0D3FFF756FE0346CEE700200DF108
:101050000701C2E700200DF10701ECE7104890E717
:10106000104B17F4F87F1049104818BF1946A6F125
:10107000100205F00FF986E722F4FF7222F0010258
:10108000CAE700BF00ED00E0488E0000748E00004B
:101090008C8E0000AE8E0000BD8E0000DD8E000044
:1010A000FA8E00002F8E00001A8E00001F8F0000A5
:1010B000064B5A6942F010025A615A6942F4806242
:1010C0005A615A6922F008025A61704700ED00E047
:1010D000EFF30880EFF3098101B57246FFF718FFBF
:1010E00001BD00BF002080F31488BFF36F8F002084
:1010F00080F30A8880F30B88104880F3088800206A
:101100000F49087001F09CFD00200E490860BFF3F4
:101110004F8F00F02DF8202080F311880A484FF4FB
:101120000061401880F30988EFF31480022108431E
:1011300080F31488BFF36F8F00F0F0F828030120CC
:10114000E3E9002094ED00E0E8E9002000231846E0
:101150000649D1F89020C2F30722934200DB704782
:10116000C1F89830C1F8A0000133F6E700ED00E0C7
:1011700010B572B6002484F31388FFF7E7FF234607
:101180004FF0FF300C4A03F120010133102B42F8DD
:101190002100F8D100234FF0FF30074A03F160012E
:1011A0000133102B42F82100F8D162B6BFF34F8F04
:1011B000BFF36F8F10BD00BF00E100E0084B9B68DC
:1011C00083420BD1EFF3058343B1064B5A6842F0DB
:1011D00080525A605A6A22F400425A6203F02ABAD4
:1011E000B4D0002000ED00E016498A684FF03000CE
:1011F0001044EFF3098C80E8F01F202080F3128860
:10120000BFF36F8F104F4FF000664A698A603E60EF
:10121000D2F8B4000D4C2060D2F8B8000023C2F818
:10122000B83080F3118802F1300090E8F01F8CF3A1
:10123000098802F1000004B505F048F9BDE8044052
:1012400070470000B4D0002004ED00E040CE002044
:101250001EF0040F0CBFEFF30880EFF309808169E3
:1012600011F8021C0229FFD001B5724605F01FF9E2
:1012700001BD00BF00B2002807DB01234109034A7A
:1012800000F01F00834042F82130704700E100E089
:1012900000B200280CDB01220649430900F01F00C0
:1012A0008240203341F82320BFF34F8FBFF36F8F6D
:1012B000704700BF00E100E0054B420953F82220CF
:1012C000012300F01F0003FA00F01040704700BF38
:1012D00000E100E000B2002801F10101ACBF00F123
:1012E0006040064B4FEA4111C9B2ABBF00F5614007
:1012F00000F00F0080F800131954704714ED00E05F
:10130000044B054A23F07F039360BFF34F8FBFF375
:101310006F8F70470000000000ED00E008B5FFF798
:10132000EFFF074AD2F8883023F47003C2F8883000
:10133000FFF754FCFFF75EFC00F048F802F0EEFB0C
:1013400000ED00E042F8203C009B0B4942F81C3CB9
:10135000019B21F0010142F8183C029B42F8081C55
:1013600042F8143C4FF0807342F8043C0023203ACA
:101370000265C0F8B83070476509000000B50E4B33
:1013800015469860D0F8B4200C4B0E461A60D0F881
:10139000A43083F30B882C4686F309880020044B85
:1013A00098472046002100220023024C20470000DD
:1013B000DD64000065090000B4D0002040CE0020AC
:1013C0001022014B1A61704700ED00E0002320213C
:1013D0000448C2180133B3F5917F82F80013F8D1A5
:1013E000704700BF00E100E008B5EFF30583064A4F
:1013F000103B02EBC30152F8330049688847BDE84F
:101400000840FFF767BC00BF6C7D00001FB5094CAA
:10141000094A23460121094800F0FAF80023039302
:10142000074B0121E41A01A80193029400F0FAF895
:1014300004B010BD00FC07200000002068870000F9
:101440007803002010B50C7A0B6804F01F0223F01B
:101450001F031A43CB68640923F01F03054943EABD
:10146000440343F00103C1F89800C1F89C20C1F87F
:10147000A03010BD00ED00E010B5074BD3F8903060
:10148000C3F30723013B984202D8FFF7DBFF10BDEF
:101490006FF01500FBE700BF00ED00E02DE9F04F15
:1014A0000F46144606464FF000084D4D85B0B8452E
:1014B00080F29280D6F80490B9F1000F36D0B9F1DD
:1014C0001F0F40F2878019F01F0F40F08380D6F87D
:1014D00000A01AF01F0F7DD1504605F022F8834678
:1014E00009EB0A00013805F01CF8834572D11BF1A5
:1014F000160F6FD05C456DDDC5F898B0D5F89C101F
:10150000C5F898B0D5F8A03021F01F0143F01F0AAC
:10151000D6E900321A44994202F1FF391ED1CA4578
:1015200008D131465FFA8BF005F004F808F10108A4
:101530000C36BCE73146C5F898B0D5F89C3022F09F
:101540001F0203F01F031343C5F89C30E0B204F000
:10155000F1FF10F1160F3DD0441CE7E7C5F898B035
:10156000D5F8A020013B23F01F0302F01F02134314
:10157000CA453146E0B2C5F8A030E8D004F0DAFF41
:1015800010F1160F26D0C5F898B0D5F89C209DF81C
:1015900008300AF1FF3A62F304038DF80830D5F8F9
:1015A000A0309DF808205B0863F347128DF80820EF
:1015B000D6E900321344009323F01F035344A3EBF6
:1015C0000903013023F01F036946C0B20393FFF7FC
:1015D00053FFBEE76FF01504204605B0BDE8F08F5D
:1015E00000ED00E00522044BC3F89420BFF34F8FB9
:1015F000BFF36F8F704700BF00ED00E0BFF35F8F58
:101600000022024BC3F89420704700BF00ED00E0B9
:1016100010B5034C2278FFF741FF207010BD00BFCA
:10162000E0E900202DE9F74F294D8A4606464FF0A4
:101630000008AB46274FD0451BDAD6F80490B9F125
:10164000000F3FD031680846019104F06AFF01990C
:10165000044609EB0100013804F063FF84424FF0B7
:1016600014021D4B08D002FB08F36FF015024BF873
:10167000032003B0BDE8F08F14F1160F2C60F8D0F2
:101680001978A142F5DD02FB08B0C7F89840C7F809
:101690009840D7F89C4000F10801007B64F30400F7
:1016A0000871D7F8A0000C79400860F347140C715A
:1016B000D7F89C1021F01F016960D7F8A01021F025
:1016C0001F01296108F1010814350C36B3E700BF8A
:1016D00044CE002000ED00E0E0E90020F0B55249E2
:1016E000524CD1F890302568C3F307239D4287B050
:1016F00000F296800020FFF781FF4D4BC1F8C0300B
:10170000854216D14B4C01A82570FFF753FA0025EE
:101710000646494FAE4213D1002023784249D1F802
:101720009020C2F30722934274DBFFF75BFF002097
:1017300043E0616801EB0011FFF784FE0130DFE751
:101740000199280101EB0513DA683A40B2F5800FE0
:1017500042D007D8B2F5801F15D0B2F5001F2ED0A9
:101760000135D7E7B2F1006F43D0B2F1805FF7D116
:101770005A689B680958013B22F01F00034423F07C
:101780001F03012032E05A689B680958013B22F090
:101790001F0003440120844623F01F0340EA4C103D
:1017A000CDE902218DF8100002A920780593FFF7FA
:1017B00063FE00282ADA6FF0150007B0F0BD5A6802
:1017C0009B680958013B22F01F0003444FF0020CB4
:1017D000012023F01F03E1E75A689B680958013B89
:1017E00022F01F000344062023F01F034FF0000CDB
:1017F000D4E75A689B680958013B22F01F00034454
:101800004FF0030C012023F01F03C7E723780133B7
:101810002370A5E7C1F89830C1F8A00001337EE736
:101820004FF0FF30C9E700BF00ED00E07487000013
:10183000AAFF4400E0E900200000F0FF08B5024BD9
:101840001B689847002008BD58CE0020034B044A6F
:101850001860937843F002039370704758CE0020CD
:10186000F400002008B50549054A21F007010548A4
:10187000521A04F0B5FC002008BD00BF2F03012060
:1018800000FC07205CCE002008B5244A244B1A60D7
:1018900000F060F84FF47A612248D0F82436C3F3A0
:1018A0000802C3F309434B4382F480721E49883215
:1018B00001FB02334FF4FA215B00B3FBF1F201FBB1
:1018C00012331A49B3F57A3F28BF0132C1F804290F
:1018D000D0F820364FF47A60C3F30802C3F309430B
:1018E000434342F21C5082F4807202F2172200FB42
:1018F00002334FF47A701B0AB3FBF0F200FB123391
:101900000020B3F5FA7F4FF0010328BF0132C1F880
:101910001C27C1F80009C1F8003608BD0020A10746
:101920007802002000C0FF00F82A0080000012505A
:1019300048B1054B054A1B68B3FBF2F35843044B0F
:1019400043F00103184770477802002040420F001F
:10195000508700000122024BC3F80424704700BFE7
:10196000002008E0084B70B5C31A0D4607499B10CC
:10197000044659434022064804F003FE2B46014624
:101980002046BDE8704018477CCE0020B76DDBB61E
:10199000A87C0000402373B50B4C0093041B0B463E
:1019A0000D460A49A41061430646094A094804F055
:1019B00014FE011E05DA30462B4602B0BDE8704029
:1019C000184702B070BD00BF7CCE0020B76DDBB6FB
:1019D00045660000A87C00002DE9F04700220121A7
:1019E00007464FF48770FFF775FC124801F0A8F91D
:1019F0000446D0B901F0CEF925464FF01C0A4FF04D
:101A00000C08DFF834903E6949460AFB056004F093
:101A10009DFC031E0CDB012308FB05661D44032D02
:101A2000F365F0D12046BDE8F0876FF00404F9E7D4
:101A30001C46F7E7691B00009C8700001FB50022C9
:101A40000123CDE902236B46084ACDF800D0CDF83A
:101A500004D004F0F0FD002805DB43F60952002312
:101A6000684602F0CBFA05B05DF804FB636600003F
:101A700010B5EFF31184202383F31288BFF36F8F27
:101A8000074A136823F00201DB07116002D401202A
:101A900005F09EF984F31188BFF36F8F10BD00BF6E
:101AA000F4CE00200C22104B014602FB0033002034
:101AB00030B4D3E915525865EFF31180202484F334
:101AC0001288BFF36F8FDC6D04F0C00444F0020491
:101AD000DC6580F31188BFF36F8F1DB12B4630BCDE
:101AE0000248184730BC70477CCE0020A87C00001C
:101AF00010B4EFF31182202383F31288BFF36F8FAA
:101B00001648016841F002040460C80707D482F354
:101B10001188BFF36F8F012010BC05F04DB910493B
:101B2000D1F80C14C903F2D5EFF3118083F31288B6
:101B3000BFF36F8F0B49CB6D03F0C00343F002037B
:101B4000CB6580F31188BFF36F8F82F31188BFF3E9
:101B50006F8F002010BCFFF7A5BF00BFF4CE0020A0
:101B600000E010507CCE0020042805D007280AD0C1
:101B700002280AD1012004E0044BD86D10F00700C0
:101B800003D1FFF78FBF0220FBE770477CCE002018
:101B9000C3B21C20014A03FB002070477CCE00200A
:101BA0002DE9F041012207463449D1E8EF3FC1E871
:101BB000E02F0028F9D133B9314932484B60CB606E
:101BC0008A6004F0D6FB7B1E012B28D8012F06D19A
:101BD0002D4BD3F8503403F00303012B1FD005F035
:101BE00005FC0546E8B9294B1B78D3B1042206460B
:101BF000254BC3F80823244CDFF89480D4F84C24F8
:101C0000D4F84C34D20315D503F00303012B01D0D3
:101C1000012F0FD16DB386F31188BFF36F8FBDE82D
:101C2000F081EFF31186202383F31288BFF36F8FC7
:101C30000125E0E7C5B1304604F064FCD4F8403437
:101C400013F0FF03DAD1D4F80821002AD6D0C4F863
:101C50000831D4F808314FF480420123C4F84034ED
:101C6000C8F8A0212361C9E70021202005F034FC39
:101C7000E4E70422044BC3F80423D0E778CE002025
:101C800068CE002098CE002000E01050E3E900204C
:101C900000E100E008B5074805F00AFB38B1064846
:101CA000FFF7D4FD0448FEF73FFE002008BD6FF0AB
:101CB0001200FBE7347D0000BD1C00000A2838B587
:101CC0000446074D04D1AB680D2128465B68984750
:101CD000AB6803485B68E1B29847204638BD00BF57
:101CE000347D00002DE9F04340F206354768D00608
:101CF00048BF4FF0030C3B7C02EA050558BFC2F316
:101D0000401C87B001F01F06B5F5837F144646EAF4
:101D100043168DF803C046D00DD8062D45D005D802
:101D2000A5B1022D12D06FF0150039E0B5F5807F16
:101D3000F9D101250AE040F20222954237D0B5F5EB
:101D4000407F36D0B5F5007FEDD104250123220375
:101D500003FA01F12FD57B685960B86880BB7F2EEC
:101D600006F01F034FEA561173D83C4A52F821205F
:101D700084F4803102EB8302D2F88030C1F3004159
:101D8000C4F3404423F4706344EA410423F00F0396
:101D90001C4344EA8C0444EA0524C2F88040002035
:101DA00007B0BDE8F0830925D0E70825CEE7062572
:101DB000CCE70525CAE7630344BF7B689960CCE79D
:101DC00031460DF1020205F0E5F914F4403F80467A
:101DD0000CD13146B86805F0F6F9B8F1000FDED144
:101DE0009DF80210B86801F0CBFAD8E74FF000096F
:101DF00001ABCDE90199CDE90439CDF80C9031461C
:101E0000B86803AA05F00AF94845C8DB14F40033A2
:101E100014D09DF8033084F48034C4F300448DF86A
:101E20000E308DF80C508DF80D404B463146B86899
:101E300003AA01F0F3F90028CFDAB0E7CDE90433C3
:101E40000DF1030303933146B86803AA05F0E6F8E1
:101E5000F1E7203350F82330FFDE00BFD0870000C9
:101E60007F2870B54FEA50110CD80D4A52F8216006
:101E700046B13269516829B1012500F01F030C6891
:101E80009D4001B970BD8A682A4002D030464B6837
:101E900098471CB1236821461C46F2E72346FAE71F
:101EA000C087000038B54568A868C0B105F085F95D
:101EB0000146A0B9A86801F02BFA044688B9024689
:101EC0000949A86805F063F922460121DB20FFF7E4
:101ED00001FA2246012140F20D10FFF7FBF9002024
:101EE00038BD6FF00400FBE7611E0000F0B54468E8
:101EF0001646A068227C01F01F0587B045EA42150E
:101F000000286CD0B6F5001F04D1294605F0AFF9C2
:101F1000002055E06268607CB6F5800F50624FF09B
:101F2000000001AA0190506039D1B3F1007F14BFC5
:101F3000052304238DF804300023CDE90423039303
:101F4000E3680DF1030723FA01F111F0010139D122
:101F5000B6F1A07F36D105F01F037F2D4FEA551053
:101F600003F120033ED8214A52F8202052F82330B2
:101F7000DB0727D43A462946A06805F00BF916304E
:101F800018D002972946A06803AA05F047F8002850
:101F900016DB01222946A06805F017F9B8E7B3F16E
:101FA000C06F05D0B3F1007F14BF01230223C1E746
:101FB0000323BFE73946A06801F0ECF90028E0DA16
:101FC00007B0F0BD3A462946A06805F0E3F80028BE
:101FD000D8D19DF80310A06801F0D2F9D2E76FF0D4
:101FE0008500EDE751F82330FFDE00BFD087000009
:101FF000F7B5044600220121E820FFF76BF9012321
:102000002569666885F8C83077680021384601AAD6
:1020100004F0EDFD00281BDB019B3A681979186874
:1020200000F09EFB002813DB04230C2209490A4818
:10203000C5F8BC6005F0BCF904230C220749084828
:1020400005F0B6F902202469FFF7A2FD2060002008
:1020500003B0F0BD28D0002068CF0020F8CF0020CA
:10206000BCCF00200023F0B589B00F460446CDE96F
:102070000033029301F0020280B9744D95F8C83024
:1020800022BB724B93F8C820032A6AD14222704BBC
:10209000C3F8082301225A6009B0F0BD038A9B00EF
:1020A0000193002A3FD0694D95F8C820D5F8C0307B
:1020B000032A04BF012285F8C820EBB9284604F0A2
:1020C0003CFB95F8CD305A072DD50FE0032B04BF0C
:1020D000012385F8C830D5F8C030002B33D15B48D8
:1020E00004F02BFB95F8CD305907CAD5574B18682B
:1020F00004F096F9BCB9C4E742689A4206D0D5F814
:10210000C410E8690293009105F002F900234F48DA
:10211000C5F8C03004F011FB95F8CD305E0702D54C
:10212000286804F07DF92568FDB9636853B3474A10
:10213000A168D2F8C00000919842029366D10123B1
:1021400082F8CB30A2E700234048C5F8C03004F045
:10215000F4FA95F8CD30580793D5286804F060F963
:102160008FE7042283F8C82090E7384EE168029593
:1021700096F8CB50009115B3306F05F0C9F863683D
:10218000002B41D1FB0787D5304C1422002103A836
:1021900005F0B5FC94F8C93063B194F8CA30002B4F
:1021A0003BD0D4F8C0300493D4F8C4300593012355
:1021B000ADF81C3003A9254804F0E0FA6CE70022D2
:1021C0000023694606F1940005F001F900280CDAB5
:1021D00004230099306F86F8C83005F099F86368D9
:1021E000002B3FF453AF0125A1E796F8C930002B2F
:1021F0009BD196F8CA50002D97D0012386F8CB309A
:102200006368002B93D141E7002590E7D06905F082
:102210007FF8002D7FF43AAFB4E7204603A904F01D
:1022200098FA0028C6D194F8C830032B4FF0010368
:1022300008D1D4F8C02084F8CA300492D4F8C4205D
:102240000592B5E784F8CC3026E700BF28CF002000
:1022500000800E502DE9F04F04698B4694F8C8A019
:102260001546BAF1010FD0F804908DB004D06FF08C
:1022700015000DB0BDE8F08F5368029343BB2046B4
:1022800004F053FC0BF1FF33012B1DD894F8CD3033
:10229000029A029962F3000384F8CD302C2204F1F3
:1022A000140005F02CFCBBF1020F0BD194F8CD30DB
:1022B0002C226FF34103002184F8CD3004F1680033
:1022C00005F01DFC0020D4E7BBF1000FEED0F9E7CC
:1022D000D36813F00306CAD1082BC8D91778182F72
:1022E00000F0C18007D8082F00F0BF80102FBED1AA
:1022F000CDF804A003E0202FB9D10323019395F872
:10230000028008F00703042BB1D87449744AC95CF1
:10231000D25C06917349C95C08917349C95C099103
:102320007249C95C0A917249CB5C039318F0380377
:1023300004939CD195F80180B8F1010F03D1039B60
:10234000012B00F09480904591D8049A08F1FF3356
:102350001344DBB20B93012303FA08F3013B079309
:10236000EB7803F00603062B03D0002B7FF47FAF3E
:102370009A4699F81D30012BD9F8083018BFD9F8C2
:102380001820D3F8703508BF5A4A002B0ADBD9F859
:1023900014603EB102EB56023005310B0023FEF70C
:1023A00093F80603BAF1000F14D10299049B794304
:1023B0004344594399F81C300805012B14BFD9F840
:1023C00018204C4A002302EB5102090BFEF77CF85F
:1023D00003030593B9F81C3094F8CD20003B18BFD7
:1023E000012363F3820284F8CD2095F90320EB7872
:1023F000002AFFF63CAF5B063FF539AF0BF1FF3328
:10240000012B37D9BBF1000F7FF45CAF0FCD04F186
:1024100068070FC72B683B60069B84F87CA084F894
:102420007D30019BC4F8886084F87E309DF81C30B4
:10243000C4F880300B9B84F88430089B84F8853086
:10244000059BC4F88C30099B84F890300A9B84F873
:102450009130039B84F8923094F8CD3043F002031E
:1024600084F8CD302EE7022348E7019647E7039B27
:1024700004936AE7AC4604F11407BCE80F000FC7E9
:10248000DCF80030BBF1020F3B60069B84F828A00B
:1024900084F82930019B666384F82A30079B4FEA51
:1024A000034303F47F03E3620B9B84F83030089B03
:1024B00084F83130059BA363099B84F83C300A9B68
:1024C00084F83D30039B84F83E3094F8CD3043F0DF
:1024D000010384F8CD3099D0F4E600BF908F00005E
:1024E000958F00008B8F0000868F0000818F000089
:1024F0007C8F000000366E012DE9F041022906466E
:102500000D4617460469D0F8048008D194F8CD3000
:1025100003F00303032B1AD06FF00400C0E001297D
:102520000ED194F8CD3013F0010FF5D0042F00F246
:10253000E380DFE817F02600B700B700D900CC0031
:102540000029E9D194F8CD3013F0020FEDE7E36AEA
:10255000D4F8801081EA1342D2B2002ADCD10B43B6
:102560001822E362C4F8803004F17C0104F12800F1
:1025700005F0CDFA0028CFD1226A636F9A42D5D0F8
:10258000CAE794F8C830012BC6D1002384F8C9509B
:10259000A4F8CA3084F8CC303569766895F8C9302B
:1025A0003768012BD5F8BC300CBF05F1280405F1C4
:1025B0007C04986819692378C0F804356378C0F8FA
:1025C0002835A378C0F824356368C0F82C35237A01
:1025D000C0F83035637AC0F834352369C0F818354F
:1025E000A37DC0F83C35E368C0F81035237D003B7F
:1025F00018BF0123C0F82035637DB3FA83F35B096C
:10260000C0F83835D0F80C35E26823F00103002A11
:1026100018BF43F00103C0F80C350F600027C0F865
:102620000471D0F80431C0F81871D0F81831C0F82E
:102630000871D0F80831C0F30830FEF71BFE022302
:1026400085F8C8302369B268B3F1004F94BF002108
:102650000121337F581E4342434143EA0123C2F81C
:102660001C35E268737FB2F1004F94BF0022012253
:102670005C1E6342B168634143EA0223C1F814352A
:1026800095F8CD305E0741D52C4B2868AB6003230D
:102690002F61EB60291D03F06CFEB8422FDB002098
:1026A000BDE8F08194F8C830022B7FF435AF94F880
:1026B000C930AB4220D1022F4FF003032CD1B5FA21
:1026C00085F56D0984F8C83084F8CA50E7E794F8B6
:1026D000C830042B7FF420AF2946306904F025FA76
:1026E000012384F8C830DAE794F8C830022B19D1F6
:1026F00094F8C930AB4217D06FF01500D0E72846E8
:1027000004F01BF8012385F8C83005E7284604F0DB
:1027100062F900EAE070C3E784F8C830012384F866
:10272000CA30BCE7012BD7D00122422184F8CB204C
:10273000D8F80830C3F808139A60CDE7036B00009F
:10274000036803F01F027F2B02604FEA53129ABF07
:10275000024B53F822000020704700BF7088000031
:102760002DE9F04F1546074640F2FF19DFF84CA25D
:10277000DFF84CB285B000EB8101B94203D10020F3
:1027800005B0BDE8F08F3A68C2F3C323082BC2F34B
:10279000080400F20F814C4508BF4FF0FF34B2F13E
:1027A000D05F1AF803804FEA126339D3383B162BF7
:1027B00002D96FF08500E3E7162BFAD801A252F890
:1027C00023F000BF8B290000B3270000B3270000CF
:1027D000B3270000B3270000B3270000B327000091
:1027E000B3270000B3270000B3270000B327000081
:1027F000B3270000B3270000B3270000B327000071
:1028000061290000672900006D290000732900007C
:10281000792900007F290000852900003529000062
:10282000192BC6D801A252F823F000BF952800004A
:10283000B1280000352900002F290000BF28000022
:10284000CB2800002F290000B3270000B327000089
:10285000B3270000B3270000B3270000B327000010
:10286000B3270000B3270000B3270000B327000000
:10287000B3270000B3270000B3270000B3270000F0
:10288000B32700003B2900004F2900005529000014
:102890005B290000C5F80446661C14D0012603A875
:1028A0000394FFF74DFF039B06FA03F3436004E034
:1028B000C5F80C46621C06D00026324613E0631CA5
:1028C000C5F8004674D1043757E7C5F80446621CC2
:1028D000F9D0012603A80394FFF732FF0122039BDE
:1028E00002FA03F383603B68039403F4004000287A
:1028F00018BF002203A818BF012601930092FFF71A
:102900001FFF039C019B00EB8400D0F88040C3F3C1
:10291000412C009A4FEA082343EA8C03134304EA4C
:102920000B04234343EA4603C0F88030CBE7C5F8E5
:102930000846BFE7C5F81046AEE7C5F86045601C1D
:102940003B68C0D0C3F30043002BA7D1C1E7C5F853
:102950006445F4E7C5F86845F1E7C5F86C45EEE76E
:10296000C5F87445B3E7C5F87445A3E7C5F87845DD
:10297000ADE7C5F878459DE7C5F87C459AE7C5F809
:102980008045A4E7C5F87045A1E703A80394FFF7C5
:10299000D7FE039B00EB8300D0F8803023F0E043A8
:1029A00043F08043C0F88030631C8CD0012684E75C
:1029B00000268FE76FF01500E2E600BFA48F00004D
:1029C000F0F0FCFF2DE9F04104460D46476804F0A5
:1029D0000DFD88B12021EFF311831A4681F312888F
:1029E000BFF36F8F60680068D0F83001D0B983F30F
:1029F0001188BFF36F8FEEE71E4B1B78002BE9D0D9
:102A00004FF02008642663681B68D3F83031FBB9A7
:102A1000012004F09AF9013EF5D10021202004F0B4
:102A20005BFDEFE77B6A00201D706368796A1B68B5
:102A3000C3F83C170121C3F84017C3F83001D3F89D
:102A40003001196582F31188BFF36F8FBDE8F08103
:102A5000EFF311831A4688F31288BFF36F8F616812
:102A60000968D1F830110029DCD183F31188BFF354
:102A70006F8FD2E7E3E9002070B40D4CD4E9006514
:102A8000901B63EB0501400940EAC16041018919CF
:102A900045EBD065C4E90015002400250549C1E9CE
:102AA0000023054BC3E9004570BC01F0C7BF00BF60
:102AB00098030020800300209003002008B5002226
:102AC0000121E420FEF706FC164A0020D2F8183750
:102AD00023F44033C2F8183700F0BEFD002820DB95
:102AE0000120114900F044FE00281ADB00F08CFDA3
:102AF0000E4B20F01F00C3E900010D4B0022C3E97B
:102B000000014FF0FF304FF0FF310A4BC3E90001E5
:102B1000094B0A49187A00F089FD67220020084B0A
:102B20001A6008BD00200E50740200209803002097
:102B300078030020800300206C020020792A000026
:102B400090D0002008B500F05FFD064AD2E90032BF
:102B5000C01A054B61EB0201C3E90001400940EADC
:102B6000C16008BD9803002090030020F7B5224BF8
:102B70000146224F187A224BD7E90056D3E90023A9
:102B80009E4208BF954211D1B1F1806F0ED249012A
:102B9000012938BF012101224D1946F10006C7E97C
:102BA000005603B0BDE8F04000F06CBE154BDFF8F6
:102BB00058C0D3E90043DCE9002CA41843EB0C0C0B
:102BC0004FF0200E22466346C1FB0E23954276EB62
:102BD0000301C7E900230DD2291B66EB0C04C829A9
:102BE00074F10004B4BF01210021009100F012FE35
:102BF00003B0F0BD0021F8E76C020020880300203C
:102C000080030020980300209003002003689A07A7
:102C10000CD50368DB070DD50922074BC3F80C253B
:102C20000F22C3F8042501221A60FEE7034B03605C
:102C3000EF3B0360704700BF00801050F000FA5077
:102C400008B50123304AC2F80038A2F55722D2F85D
:102C500000242E4AD2F84023292A01D0332A02D157
:102C60002B4AC2F80C342B48FFF7D0FF0830FFF78F
:102C7000CDFF0830FFF7CAFF0830FFF7C7FF00F5A8
:102C8000F470FFF7C3FF244AD2F88C3043F440635A
:102C9000C2F88C300022D30003F57F0303F54043D4
:102CA000D3F8001401310AD0D3F8001439B1D3F8A5
:102CB00000140132D3F80434402A0B60EBD1174BD7
:102CC000D3F80026D2071AD4154B1349D3F8182588
:102CD00022F00302C3F81825D3F81825C3F81825E5
:102CE000D1F88C2042F44062C1F88C200022C3F855
:102CF000A0250C4AD2F80034012BFBD008BD6FF0A0
:102D00000102C3F80026DFE70000125000C0FF00F8
:102D10000030055000F50E5000ED00E000E01050CE
:102D200000E0045000900450014B1B68184700BF9E
:102D300094D00020014B07201B68184794D0002036
:102D400010B5104C2379D3B9012323710E4B002801
:102D5000206018BF184600F0FFF890B923680B48B0
:102D6000002B08BF184600F041F850B92368084806
:102D7000002B08BF1846BDE8104000F085B96FF081
:102D8000770010BD94D00020292D0000B56D000003
:102D9000352D000008B5074B1B6853B14FF4877001
:102DA000FEF78AFA28B9BDE808404FF48770FEF7AD
:102DB00061BA08BD94D0002038B504230A4C42F211
:102DC0001075C4F80833012363610023C4F8083187
:102DD000D4F80831D4F84C34DB0304D5012003F0D7
:102DE000B4FF013DF6D138BD00E01050064A13791A
:102DF0003BB9012110601171044A1846C2F84034F1
:102E000070476FF0770070479CD0002000E01050B2
:102E100010B51D4B1D4CD3F84C14D3F84C2411F4B1
:102E2000803F18D002F00302012A03D00AB1FFF755
:102E3000C3FF0022144BC3F840240022C3F808212A
:102E4000D3F8082101221A61226872B9D3F8082147
:102E5000002AFBD011E0D3F84824D107E9D5D3F8F4
:102E600050249207E3D422681AB10422C3F8042341
:102E700010BDD3F80821002AFBD00022C3F8082196
:102E8000D3F80831F4E700BF00E010509CD00020D8
:102E9000F8B50125184C194ED4F80C3303F00C0387
:102EA00003B9F8BDB3FA83F30027C3F11F039A00F7
:102EB00002F5807292B202F1A04202F58712176009
:102EC00005FA03F1022B1268D8B2C4F8081310D126
:102ED000D4F84C34D4F84C349B070AD10423C4F8FA
:102EE0004054C4F804332561D4F80C3303F00C03C8
:102EF000D6E733689847F7E700E010509CD00020F1
:102F0000712238B5114B0021C3F8082301225A6001
:102F1000C3F80011D3F800110D49D1F84013292945
:102F200001D0332900D1DA6042F21074074DD5F890
:102F30000C3413F4803305D0012003F006FF013C6C
:102F4000F5D138BD034A5371FBE700BF00E01050D4
:102F500000C0FF00A4D00020054B0246187918B924
:102F60001A6001221A7170476FF07700704700BF36
:102F7000A4D000200022174BC3F81021D3F8101161
:102F8000C3F81821D3F81811C3F81421D3F8142169
:102F9000114AD2F84023292A01D0332A01D1012233
:102FA0009A600022C3F80021D3F8002101221A60A0
:102FB0000A4A126852B9074BD3F80021002AFBD005
:102FC0000022C3F80021D3F8003170477122C3F802
:102FD0000423704700E0105000C0FF00A4D0002080
:102FE000F8B50126194C1A4DD4F80C3303F07103CF
:102FF00003B9F8BDB3FA83F30021C3F11F039A00AC
:1030000002F5807292B202F1A04202F587121160BD
:1030100006FA03F7042B1268D8B2C4F8087308D074
:10302000062B10D02B689847D4F80C3303F07103AB
:10303000DEE702236B71C4F81411D4F81431202395
:10304000C4F80433EEE76971ECE700BF00E010500C
:10305000A4D0002038B580230A4C42F21075C4F881
:1030600008330123A3620023C4F81C31D4F81C31B7
:10307000D4F86C34DB0304D5012003F066FE013D77
:10308000F6D138BD00E01050054B0246187918B94A
:103090001A6001221A7170476FF07700704700BF05
:1030A000ACD0002000220C4BC3F81C21D3F81C210B
:1030B00001225A62094A12681AB18022C3F8042315
:1030C0007047D3F81C21002AFBD00022C3F81C2132
:1030D000D3F81C31704700BF00E01050ACD0002086
:1030E000094BD3F8042312060DD5D3F81C2152B195
:1030F0000022C3F81C21D3F81C218022C3F8082326
:10310000024B1B681847704700E01050ACD00020FD
:10311000036803F01F027F2B02604FEA53129ABF2D
:10312000024B53F822000020704700BFD0880000F7
:10313000034A4309D35C00F01F001844C0B2704733
:10314000B88F0000F0B58446002587B0DFF848E06E
:10315000124F019102AE1EF8013B06AA02EBD30208
:1031600012F8144C03F00703DC4014F0010406D1FC
:103170000135042DEFD10024204607B0F0BD97E8BB
:103180000F0086E80F0056F82520136A4CF825300A
:103190001362002BECD0EFE7C88F000034870000EB
:1031A000F7B504460846FFF7C3FF06B204EB460630
:1031B000B38A0D46DB072BD5204603F00CFF2946CA
:1031C000204603F078FE58B1204603F08AFE002224
:1031D000276800B207EB8003C3F81025C3F8102559
:1031E0002946204603F0A6FE002101A8B1820195E0
:1031F000FFF78EFF019B00EB8300D0F88020064B89
:10320000134043F00203C0F88030084603B0F0BD1D
:103210006FF01500FAE700BFF0F0FCFF2DE9F04376
:10322000044685B0084616461D46FFF781FF0F4647
:10323000804636B3204603F049FE18B9204603F015
:103240003AFE28BB0FFA88F904EB4909B9F81430A3
:1032500013F01C0F02D07378012B19D001238DF8C5
:103260000F3000233846CDE90063721CB31C0DF10A
:103270000F0103F0C8FDB9F8143043F00303A9F8B7
:103280001430002D40D03946204603F01FFE20B9EF
:103290006FF0150005B0BDE8F0830022297823689F
:1032A0004FEA810C03EB8103C3F81025C3F8102506
:1032B0000FFA88F204EB4202938A23F4604323F06E
:1032C000200393826E78FEB12468A8786444D4F811
:1032D00010550E4B36042B40C4F8103541F6F073F0
:1032E00006F4403603EA07130005D4F810553343BB
:1032F00000F4801003432B43C4F81035938A43EA4B
:10330000413343F0200393820020C3E70FE0ECFF3A
:1033100070B590F8B040054690F8B1604CBB84227F
:103320002146143004F0EBFB2146134A2B6852F877
:1033300036608E4213D1002440F20D10C3F8444190
:10334000D3F844210D4A934208BFDB20FDF792FFDA
:103350000123204685F8B030C5F89C3070BDCAB254
:10336000920002F58070442A04BF1C501A580131A3
:10337000DFE76FF07700F1E7E088000000A00D5074
:1033800090F8B100024B03EB800003F0FABC00BFE1
:103390007C02002010B5064B90F8B1000C4603EB00
:1033A000800003F0D4FC0028A4BF2070002010BDD2
:1033B0007C0200202DE9F04F814659F8043B8DB086
:1033C000D3F8141390F8B14000936C4BC9B241F498
:1033D0000031804653F83420009803F0D5FD810376
:1033E00005463BD51022002108A804F088FB634B5A
:1033F00008A803EBC4035B6819460193FFF7A2FE1C
:10340000042303EBC40303934FF0000B5C4B0DF15B
:10341000200A0293029A594912F8013B0292039A38
:1034200002EBD3028A5C03F0070322FA03F3DA0704
:103430001AD40BF1010BBBF1040F0AF1040AE9D114
:103440004FF400310022009803F09EFD019908A876
:10345000FFF778FE0028D7D125F400350124002D90
:1034600075D10DB0BDE8F08F464B5B440493DAF89C
:1034700000100029DDD091FAA1F1B1FA81F1049B8D
:103480001C7841EA44142046FFF752FE08EB400046
:10349000878AC808BB08059301231AF8002001F0A9
:1034A000070103FA01F122EA01020AF8002007A845
:1034B0000794FFF72DFE079A059B203250F8222033
:1034C000C7F382065B073746C2F3014223D548465D
:1034D000D6B221463A4603F00EFD07A80794FFF73F
:1034E00017FE079B203350F82330C3F301439E425D
:1034F00007D10021204603F0CFFC3146204603F0DF
:10350000CBFC07A80794FFF703FE0122079B02FAF2
:1035100003F30362ABE7022A0DD10321204603F037
:10352000BBFC06F00503012BEBD13A462146484689
:1035300003F0E1FCE5E702212046059203F0ACFC34
:10354000032EF2D0059A032ADBD1022EECE795FA7E
:10355000A5F3B3FA83F3009904FA03F225EA02050E
:1035600003F5A27251F8222008EB43034846B3F852
:10357000A010C2F3014203F0BEFC70E7E088000037
:10358000C88F0000C88F00000123034A03FA00F02F
:1035900093680343936070476000002073B504464E
:1035A0000191EFF31186202383F31288BFF36F8F0D
:1035B0000B4D019B6A6801A81340019303F0C7FB00
:1035C000002807DB01226B68824023EA02036B605C
:1035D0002070002086F31188BFF36F8F02B070BD9A
:1035E00060000020074B027AD3F8101521F001018A
:1035F0000A43C3F810250268C3F8A4264268C3F83A
:10360000AC26704700200E504FF0FF306FF0404165
:1036100030B5054CD4E90023904271EB0305F9D392
:103620001046C3F3130130BD40270E5030B50C25B2
:10363000074B1C1894F8544005FB0433C3E90312EC
:1036400018750123034A8340C2F8243330BD00BFFC
:103650006000002000200E50F0B53D4D85B02C7864
:10366000002C6FD13B4A01AB07CA83E807003A49F7
:103670001846D1F8102522F00202C1F81025FFF7F4
:10368000B1FF0723672202F001012144013BCCB2C4
:103690004FEA5202F7D1052C57D119464FF0010CD1
:1036A0002B4E00246720CFB204E00CFA02F220EA8D
:1036B0000200013490FAA0F25FFA84FEBE45B2FA2D
:1036C00082F2F2D30131327505292A4482F854700E
:1036D00006F10C06E5D10121002420489A0801FAE0
:1036E00002F212F0670F18BF1C500433302BF5D1D3
:1036F000E420FDF7BFFD184B1949D3F8102503F559
:10370000C07322F00202C3F8902340F6FF72C3F8A0
:10371000A82100221A60A3F5807004338B42026056
:10372000F8D101240C4B0F4A1C660F4B5D201B681F
:10373000B3FBF2F358430D4B2343984700202C7002
:1037400005B0F0BD6FF07700FAE76FF08B00F7E798
:10375000600000204487000000200E5000210E5021
:10376000B0210E5040420F00780200206087000018
:1037700038B5254B0C46D3F8102595073DD4D3F822
:10378000102542F00202C3F81025C0B1D3F8482733
:1037900012F0010202BFD3F8481741F00101C3F84B
:1037A0004817194BD3F84017D3F844174900F9D4F8
:1037B0002AB9D3F8482722F00102C3F84827134B4F
:1037C000134A1B681049B3FBF2F303EB4313BBB17D
:1037D000D1F84027D1F8445715F080450BD14FF070
:1037E000FF312046FFF7DAFE002803DB2078FFF7E1
:1037F000CBFE284638BD013BE9E76FF07700F9E7DB
:103800006FF07300F6E700BF00200E507802002032
:1038100040420F0070B51D461446184A9DF81060CE
:10382000131893F8543000B20C3302EBC30142F882
:1038300033404D60C5F31301AEB10201104E02F1E9
:10384000A04202F562228000C2F820450644C2F878
:103850002415336833B1FFF7D7FEA042A94101D246
:103860000023336070BD030103F1A04303F562231D
:10387000C3F82045C3F82415F4E700BF600000201A
:1038800000210E50F0B50E4D2B1893F85430000166
:103890000C3355F8334005EBC3077E68641800F11C
:1038A000A04021F0004146F1000641EAC27100F556
:1038B000622045F833407E60C0F82815F0BD00BF97
:1038C00060000020F7B5284B284CD3F82C6304F196
:1038D00088070EB903B0F0BD96FAA6F00123B0FA3E
:1038E00080F08340DA43224926EA0306231893F83E
:1038F0005450830019440C2303FB0543DB6873B366
:10390000D7E8EF3F03EA020CC7E8EECFBEF1000FA5
:10391000F6D1C340DB0719D5020102F1A04202F53E
:103920006222D2F82435D2F82025D1F800C0BCF1AB
:10393000000FCED04FF0000CC1F800C00C2101FBED
:10394000054529690091E9688847C2E705F10C033C
:1039500004EBC30C54F83320DCF80430E5E70A68C4
:10396000002AB6D00B60B4E700200E5060000020A3
:1039700000210E50044B40EA0120C3F80005D3F8A3
:103980000024D207FBD5704700E0045038B5EFF3B0
:103990001185202383F31288BFF36F8F064B9C6839
:1039A00003F099FC85F31188BFF36F8F2046BDE8C3
:1039B0003840FDF703BC00BFB4D0002038B50A4B37
:1039C00053F82040013053F82050A54200D838BDAC
:1039D000606830B1037EDB0701D403F051FC08348A
:1039E000F3E723689847FAE7F0880000012270B5F2
:1039F000294B032086B01A70FFF7E0FF03F0FFFDAC
:103A00000420FFF7DBFF254C254D2646AE4204F18E
:103A1000300410D300F014FD204C224EAC4226D3CB
:103A200000F022FDFCF7B8FE1F4A137B23F00103D0
:103A3000137306B070BD54F80C3C059354F8103C59
:103A4000049354F8143C039354F8183C029354F82C
:103A50001C3C019354F8203C009354E90A2354E998
:103A60000C0100F0F1FA54F8303C5E65CDE7D4E982
:103A70000A23B3F1FF3F08BFB2F1FF3F05D052EA7E
:103A80000301206803D100F0ABFD3034C6E73146B6
:103A9000183000F043FFF8E7E3E900207C860000DF
:103AA0007C860000D174000060040020C02370B543
:103AB000144E86B003FB0066134B012205930F23BF
:103AC000CDE903320023CDE9013314234FF4A07272
:103AD0000E4D0F4903FB0055044602FB00110D4B30
:103AE0003046009500F0B0FA737B2C7423F0040389
:103AF0007373094B013403EBC423EE606B6006B0B3
:103B000070BD00BFA0030020CC8F0000B4D0002007
:103B1000E8F1002081730000E8E90020BFB5002033
:103B2000FFF74CFF284B03F5006282F3088883F30C
:103B30000A880024E023254D254F85F82230EC77B4
:103B40002C766C76AC7685F820406B6A43F4E023E3
:103B50006B6285F82340FDF7ABFAFDF731FC4FF0BF
:103B6000FF33AB62EB62FDF7B9FDFDF74FFC19487F
:103B700000F0D2FA0120FFF721FF0220164DFFF7D7
:103B80001DFF00F0A5FC154B15495D61154B4FF469
:103B90008052059301232846CDE90343CDE9014432
:103BA0003B46009400F050FA06466A7B284622F015
:103BB00004026A7303F05AFC2046FFF777FF3A4687
:103BC00031462846FDF7DAFBE8E9002000ED00E089
:103BD000ED3900002005002060040020B4D0002052
:103BE00028F30020D18F0000002038B5054C064D89
:103BF000AC4200D338BD204603F070FB0028F9DB4F
:103C00001C34F5E7CC020020E802002073B50C4616
:103C1000EFF31181202585F31288BFF36F8FC568FC
:103C20005DB125602B68C360836901338361002027
:103C300081F31188BFF36F8F11E052EA030603D1BD
:103C40006FF00B002560F3E7CDE900230246083052
:103C500000F03CFB18B9034B9B681B69236002B062
:103C600070BD00BFB4D000202DE9F34104460E46DC
:103C70009DF8200004F10808EFF31187202181F35B
:103C80001288BFF36F8F256AE1688D4243D22568A1
:103C9000AC421AD0CDB1284603F07DFB05F11800E7
:103CA00003F081FCA26800243146286903F01AFF62
:103CB0002846C5F8BC4003F0D9FB4046394600F021
:103CC00099FB204602B0BDE8F081A268A8B1314658
:103CD000E06903F007FFE369A26813446269E361E6
:103CE000934201D12369E3610020236A01332362F7
:103CF00087F31188BFF36F8FE4E7A16923699942C5
:103D000008BF6369314608BFA361A069801AA0613A
:103D100003F0E8FEE8E752EA03010AD0064940460C
:103D200089680E61CDE900233946224600F0CEFABB
:103D3000C8E76FF02200DBE7B4D00020F7B50446F7
:103D4000084604F10807EFF31186202181F3128859
:103D5000BFF36F8F216A00293AD0A268A16903F0EE
:103D6000C1FEA369A268256813446269A3619342F6
:103D700004BF2369A361236AAC4203F1FF332362CA
:103D800034D02846002D32D003F005FB05F1180091
:103D900003F009FCA2682969E06903F0A3FEE36966
:103DA000A268284613446269E361934204BF236911
:103DB000E361236A013323620024C5F8BC4003F0A9
:103DC00055FB3846314600F015FB204603B0F0BDE8
:103DD00052EA030110D00A4989680861CDE900233D
:103DE00031462246384600F071FAEFE7002086F3AC
:103DF0001188BFF36F8FE9E76FF02200F7E700BF8C
:103E0000B4D000202DE9F341044617461E46EFF3D7
:103E10001188202383F31288BFF36F8FC368334A5E
:103E20007BB180689168884219D057EA060318D19F
:103E300088F31188BFF36F8F6FF00F0002B0BDE8F9
:103E4000F081916891F90E100133E360936821616C
:103E5000A36088F31188BFF36F8F0020EEE721691C
:103E6000F2E791F90E1090F90E306FF07E02994250
:103E7000A8BF19469142B8BF11468B422DDD03F011
:103E8000ADFA054622464146CDE90076184800F0D5
:103E90001DFA0028E1D0EFF31186202383F3128866
:103EA000BFF36F8FA068D0B1236821699C420AD00C
:103EB0004BB193F90E309942A8BF19466FF07E03BB
:103EC0009942B8BF194603F089FA40B13146084813
:103ED00000F090FA6FF00A00B0E70025D2E7002D5D
:103EE000F4D186F31188BFF36F8FF3E7B4D00020CD
:103EF000E4E90020F8B583680546002B40D0234A4A
:103F0000926893423FD1C368012B03D9013BC36040
:103F10000020F8BDEFF31187202383F31288BFF34D
:103F20006F8F0169806803F059FA2C68A54207D1A8
:103F30000023C5E9023387F31188BFF36F8FE7E7EA
:103F4000002CF5D0D4E90032002613605A60637B60
:103F5000C4E9006623F002036373A66004F118004D
:103F600003F021FBAC6094F90E3020462B61C4F8BD
:103F7000BC6003F07BFA3946054800F03BFAC7E71E
:103F80006FF01500C5E74FF0FF30C2E7B4D0002056
:103F9000E4E9002070B5EFF31186202383F3128843
:103FA000BFF36F8F0468A0421BD0D4B1D4E90032B4
:103FB000002513605A60637BC4E9005523F00203B7
:103FC0006373A56004F1180003F0EDFA2046C4F80D
:103FD000BC5003F04BFA3146BDE87040064800F093
:103FE00009BAD0E902329A4218BF0133836086F3DE
:103FF0001188BFF36F8F70BDE4E9002013B5EFF3B4
:104000001181202484F31288BFF36F8F846844B138
:10401000013C846081F31188BFF36F8F002002B0F0
:1040200010BD52EA030406D181F31188BFF36F8FEC
:104030006FF00F00F3E7CDE900230246014800F0DE
:1040400045F9ECE7E4E900202DE9F04F984685B00A
:1040500000F15803C0E91633129B002503730423B3
:10406000D61D26F007064373119B01EB060A0F4687
:10407000C0E90655514685608373C5730446DDF873
:1040800038B0DDF84C90FCF705FE109B073020F0AF
:104090000700C4E92976C4F8AC0002930F9BAAEB91
:1040A0000006CDE900B33246434639462046FDF7C7
:1040B00049F90F9BC4E91C8BA367109B656584F8C5
:1040C0006C50E367EFF31183202282F31288BFF371
:1040D0006F8F104F3A6A3C62C4F8802083F31188D6
:1040E000BFF36F8FB9F1000F11D01F22494604F1C1
:1040F000840003F01CFD84F8A350BB680BB1D3F817
:10410000B0303046C4F8B03005B0BDE8F08F84F868
:104110008490F2E7B4D0002040F2011383810023A1
:10412000C0E92933C0F8B030014B9860704700BF38
:10413000B4D000206FF00A01094A9368C3F8BC109C
:104140000849C3F8B8004B6843F080534B60002324
:1041500083F31188BFF36F8F9368D3F8BC00704767
:10416000B4D0002000ED00E070B590F90D20437B45
:10417000002A36DBD90634D11B4C63F07F0322467C
:10418000437352F8183FE169934207D1C0E9002117
:104190000860E06111E09942F8D01B68002BF5D06F
:1041A00090F90E5093F90E60B542F4D0AE42F2DDB4
:1041B0005968C0E9003108605860A569954200D08F
:1041C00005B9E568A3685A7BD20604D1DA897F2A4B
:1041D00001D9AA6932B1AB4202D0284600F0FCFAFC
:1041E000656170BD6361FCE7B4D0002038B590F91B
:1041F0000D200146002A437B04DA03F07F0343735A
:1042000003F0FAF80D4D2A4652F8184FAB68944265
:1042100000D004B9EC688B4207D05A7BD20604D197
:10422000DA897F2A01D9A2692AB1A34202D02046A5
:1042300000F0D2FA23466B6138BD00BFB4D0002035
:10424000B3F1FF3F08BFB2F1FF3F03D0024918307E
:1042500000F064BB704700BFD174000038B5194C42
:10426000A168E0690B68814214BF1A4600224968C0
:104270000B605960A368E1692AB9134AC3E90021B8
:104280000B60E3610CE093F90E0092F90E50A84226
:1042900014D0854212DD5168C3E900210B605360E0
:1042A000A569094B9D4200D005B9E568A3689D4208
:1042B00002D0284600F090FA656138BD9142DCD00A
:1042C0001268D9E7B4D00020CCD00020F8B5DDE9E1
:1042D00006670D4B0C46986811460C4A1060EFF3C8
:1042E0001182202282F31288BFF36F8F9D682846C7
:1042F00003F094F8284632463B46FFF7A1FF2046DC
:10430000BDE8F840FFF716BFB4D00020D8D0002099
:10431000F8B50446EFF31187202383F31288BFF327
:104320006F8F437B49B203F01F02002A0CBF0126A6
:10433000002639D103F07F032D4D437303F05CF861
:104340002A46437B817363F07F03437352F8183F1F
:10435000934227D1E869C4E900200460EC610FE0D2
:104360009842F8D01B68002BF5D093F90EC0614538
:10437000F6D08C45F4DD5968C4E900310C605C600E
:10438000AC69944200D004B9EC68AB689C4202D09E
:10439000204600F021FA6C6187F31188BFF36F8F1C
:1043A0003046F8BDE869DEE79B071ED5856803F057
:1043B00023F881732B689D4209D16B68C4E90053CF
:1043C0001C606C60E8E76A689342F6D01B68002BBB
:1043D000F3D093F90E209142F5D08A42F3DD5A686A
:1043E000C4E9003214605C60D6E78173D4E700BF93
:1043F000B4D0002049B9EFF3058030B9054B5A69B4
:104400009B689A4201D0FFF795BE81F31188BFF3F4
:104410006F8F7047B4D00020034648B9EFF3058290
:1044200032B9064A51699268914201D0FFF782BEC3
:1044300083F31188BFF36F8F704700BFB4D00020A3
:10444000EFF31181202383F31288BFF36F8F054BA5
:104450009A68D37B013BD37381F31188BFF36F8FCD
:10446000704700BFB4D0002070B5EFF31186202351
:1044700083F31288BFF36F8F144DAB68DA7B013280
:10448000DA732A4652F8184F944200D004B9EC6807
:104490005A7BD20604D1DA897F2A01D9A2692AB1CE
:1044A000A34202D0204600F097F923466B6186F3C1
:1044B0001188BFF36F8FEFF31180202383F31288ED
:1044C000BFF36F8FBDE87040FFF7A6BFB4D00020E8
:1044D000024B03F11802C3E906227047B4D0002052
:1044E00070B5EFF31186202383F31288BFF36F8F2B
:1044F0001B4CA168E0690B68814214BF1A46002278
:1045000049680B605960A368E1692AB9154AC3E993
:1045100000210B60E3610CE093F90E0092F90E505C
:10452000A84218D0854216DD5168C3E900210B600E
:104530005360A5690B4B9D4200D005B9E568A3689F
:104540009D4202D0284600F047F965613046BDE83B
:104550007040FFF7EFBD8A42D8D01268D5E700BFA0
:10456000B4D00020CCD00020F8B550EA01030646B4
:104570000C4603D1FFF7B4FF0020F8BDEFF311871D
:10458000202383F31288BFF36F8F124D124BA8685C
:104590001860FFF72BFEA868234632460F491830F3
:1045A00000F0BCF9AA680446537B384643F0040384
:1045B0005373FFF7BFFDAB68D3E90A23B3F1004F94
:1045C00008BF002AD8D103F016F8201A20EAE070BC
:1045D000D3E700BFB4D00020D8D00020D1740000B1
:1045E00038B50446EFF31185202383F31288BFF317
:1045F0006F8F437B5B070FD5183002F0D4FF637BCE
:10460000204623F004036373FFF7AEFD2946BDE89F
:1046100038400448FFF7EEBE85F31188BFF36F8F73
:1046200038BD00BFE4E90020014B9868704700BF27
:10463000B4D000202DE9F8430446077BEFF3118541
:10464000202383F31288BFF36F8F437B190705D5AF
:1046500085F31188BFF36F8FBDE8F883D90943F064
:10466000080260D14273A36813B1204602F0CCFE69
:1046700004F1180002F097FFA66D04F15808B04548
:1046800011D04FF0000976B1304602F0BDFE06F1C0
:10469000180002F088FF3046C6F8BC90FFF764FDB2
:1046A000A66DB045EFD1DFF8C480D8F808309C4241
:1046B00041D1EFF30589B9F1000918BF4FF00109A5
:1046C000D8F818602A4A964200D00EB9D8F80C6083
:1046D000B34202D0304600F07FF82046C8F814609C
:1046E00001F0F9FE204600F0C9F8B9F1000F02D040
:1046F0002048FFF711FDD8F808309C4231D1EFF384
:10470000058373BB227BD20718D42846FFF712FD1E
:10471000FB07A1D5002383F31188BFF36F8F042318
:10472000184602DF98E703F07F0343F00803437362
:1047300002F062FE97E74FF00009C1E785F31188A8
:10474000BFF36F8F83F31188BFF36F8F0423184675
:1047500002DFEFF31180202383F31288BFF36F8F02
:10476000D4E785F31188BFF36F8FD1E7B4D0002071
:10477000CCD0002020050020427B034612F01F020F
:1047800010D10A4988420DD00949086868B1D98911
:104790007F2909D893F90E20064B1B689A42B8BFAF
:1047A000002070470020704710467047A00300208B
:1047B00084020020DCD000200122044BC01A044BEC
:1047C000C0105843034B1A54704700BFE005002047
:1047D000ABAAAAAAE4E9002070B50D4B0D4D1E7CD2
:1047E000FFF7CAFF06EB460305EBC3050446284660
:1047F00002F0D9FE0022084B9A553CB1621E2846B1
:10480000BDE870400549D31700F088B870BD00BFFF
:10481000B4D00020E0050020E4E90020B947000002
:1048200038B5EFF31185202383F31288BFF36F8F20
:104830000F4B104A9C681068A04206D1FFF7CCFFCE
:1048400085F31188BFF36F8F38BD00211B7C116089
:10485000094AD35C002BF3D02046FFF78DFF0028D8
:10486000EED0637BDB0601D1FFF7F8FC2046E5E7DD
:10487000B4D00020D8D00020E4E90020EFF311816B
:10488000202383F31288BFF36F8F0C4A136A83428D
:1048900008D1D3F88030136281F31188BFF36F8F92
:1048A00070471346002BF7D0D3F880208242F8D10E
:1048B000D0F88020C3F88020EEE700BFB4D00020FD
:1048C000024B1868984208BF0020704788020020F9
:1048D000034B1B680BB9FEF735B90020704700BFCA
:1048E000E0D0002030B570B10B4B5B6898420AD025
:1048F000036843B1D3E90421D0E90445121941EB1F
:104900000501C3E90421D0E9003213605A60002395
:10491000C0E9003330BD00BF88020020B3F1FF3F83
:1049200008BFB2F1FF3F2DE9F84F044699461546FE
:104930001F467AD08160EFF31188202383F3128819
:10494000BFF36F8FB9F1000FDFF8E4A020DBFFF7B2
:10495000BFFFDAE90027013549F100092D1849EBBD
:10496000E07306464FF00109C4E90453AD1843EB68
:104970000707FFF7A5FF0346DFF8B8E0DEF804A05D
:10498000EBB9C4E900EACAF80040CEF8044028E0D8
:104990006FF00103DAE900125B1A4FF0FF3161EBAF
:1049A00002025B1B62EB0902012B72F10001BCBF2A
:1049B000012300224FF00009C0E90432D9E7D3E90E
:1049C000041CD4E904208A4270EB0C0B24DA891A07
:1049D0005A686CEB0000C3E90410C4E900321460AB
:1049E0005C60FFF76DFF84420ED1134B1B685BB90F
:1049F000B9F1000F02D1FFF76BFF0646304602F017
:104A0000BBFD0021FEF7B2F888F31188BFF36F8F6A
:104A100028463946BDE8F88F521A60EB0C009A45DB
:104A2000C4E90420ADD01B68AAE700252F46EFE7B4
:104A3000F805002088020020E0D000202DE9F04792
:104A4000EFF31185202383F31288BFF36F8FDFF814
:104A5000A0900026C9F800000027FFF731FFDFF81B
:104A60009480D9F80030D8E900ECD91750B1D0E9DA
:104A70000442A34271EB020A1BDAE41A62EB010260
:104A8000C0E90442002413EB0E034CEB0101204665
:104A9000C8E90031C9F8004002F06EFD2146FEF77A
:104AA00065F885F31188BFF36F8FBDE8F047FFF716
:104AB000B7BE14EB0E024CEBE473C0E90467C8E91F
:104AC0000023FFF70FFF85F31188BFF36F8F836813
:104AD0009847EFF31185202383F31288BFF36F8F7C
:104AE000D9F800301B1BC9F80030FFF7E9FEB8E722
:104AF000E0D00020F805002010B5EFF3118420234A
:104B000083F31288BFF36F8FFFF7E2FE0346054A77
:104B1000D2E90001181841EBE37184F31188BFF367
:104B20006F8F10BDF805002038B5064C064DAC421D
:104B300001D3002038BD2046D4E9011202F060FD07
:104B40001434F4E7E8020020E8020020F8B50D4E26
:104B50000D4C0E4D33680E48984767782B680C480B
:104B6000984733680B489847022F08D12478E31FF1
:104B70005C425C412B68074898472046F8BD0024FA
:104B8000F8E700BFB8020020E4D00020B402002003
:104B90004C0300203803002070B51D4E1D4C3368B7
:104BA0001D4898472378590744BF23F00403237016
:104BB00023789A0705D500F0C1F8237823F0020383
:104BC0002370164D14482B6898473368144898474B
:104BD000637813B1134802F048FD00230421114803
:104BE000637000F0CBF82B680D48984733680A488B
:104BF00098472378DB0705D502F034FD237823F0AE
:104C0000010323702B680448BDE87040184700BFBB
:104C1000B8020020E4D0002038030020B4020020B5
:104C20004C030020E8D000202DE9F041FFF78EFF73
:104C300018B100242046BDE8F081364F36483B6865
:104C40009847044620B16FF08F04FFF7A5FFF1E706
:104C5000324D2B78D80706D402F002FD04462B789B
:104C600043F001032B702E4E2B483368984710B148
:104C7000002CE8D0E9E7002CE7D13B6826489847AC
:104C800004460028DFD12B78990706D400F04EF8AF
:104C900004462B7843F002032B7033681E48984774
:104CA0000028E5D1002CD0D13B681B48984700284C
:104CB000C9D13368184895F8008098470028C2D1B8
:104CC0003B681848984704460028BCD16B7843B924
:104CD00018F0010F05D0144802F0C5FC0223044669
:104CE0006B7033680F4898470028C1D1002CACD1B5
:104CF0003B68094898470028A5D12B7806485A07F1
:104D00005CBF43F004032B7033689847002890D0B1
:104D100099E700BFB802002038030020E4D000204B
:104D2000B40200204C030020E8D000200122024BF6
:104D3000002083F880257047ECD000202DE9F04159
:104D40000A4C002526464FF0010803272046C4F8E8
:104D500020802777013502F066FC202D04F12C0419
:104D6000F4D1002386F88035BDE8F081ECD0002036
:104D7000014B1B68184700BF9002002010B50A467F
:104D8000044619B1024B00211B68984710BD00BFB3
:104D90009402002010B50D4C206802F015FE0C4A5C
:104DA0001368591C11605BB90A4A5920D2F80034C3
:104DB00043F00703C2F80034FCF75CFA00F02EFC65
:104DC0002068BDE8104002F005BE00BF9C02002034
:104DD00070D600200090055038B5164D286802F0B6
:104DE000F3FD154B1C68013C1C60ECB95920FCF725
:104DF0004FFA0722114BC3F80823D3F8002422F0FE
:104E00000702C3F80024C3F80041D3F80021C3F817
:104E10000441D3F804214FF00072C3F80841D3F8DD
:104E20000831074BC3F888212868BDE8384002F0F4
:104E3000D1BD00BF9C02002070D60020009005501C
:104E400000E100E070B5104D104E2B68B3420DD05C
:104E5000FFF7A0FF00F03AFD00F0CCFD40B102F0FA
:104E600011FC0446FFF7B8FF44B92E60002405E0AA
:104E700000F0D4FA044618B1FFF7AEFF204670BD2B
:104E800002F003FDEDE700BF9802002011736500FA
:104E90000022074BC3F81021C3F80C21C3F80021EE
:104EA000C3F80421C3F80821C3F81821704700BFD4
:104EB0000090045008B5FFF7EBFF01230360104B8F
:104EC0000A6832B9D3F80C211AB9D3F80821002A9C
:104ED000F6D00B687BB90B4B99420ED0A3F58473C7
:104EE000D3F80831002B0CBF4FF0FF306FF00200F9
:104EF000FFF7CEFF08BD0020FAE74FF0FF30F7E7DD
:104F0000009004500891045038B505460C4691B104
:104F10000021012002F0ADF908480949C0F8005508
:104F2000C0F80445FFF7C6FF00210446084602F01A
:104F3000A0F9204638BD6FF00104FAE70090045054
:104F400000910450034B0449C3F800050348FFF7E0
:104F5000B1BF00BF0090045004910450049004506D
:104F600010B504460021012002F083F9064B0749E1
:104F7000C3F800450648FFF79DFF00210446084698
:104F800002F077F9204610BD0090045008910450BB
:104F90000890045038B50C4659B1074D0749C5F87B
:104FA00000050748FFF786FF10B9D5F808352360DC
:104FB00038BD6FF00100FBE70090045010910450E1
:104FC0000C9004502DE9F047804600244FF0100962
:104FD0001E4E94B00DF1270525F01F0506F1200A9D
:104FE000012210211A4802F0B8FB2B1900935246F7
:104FF000102320211548CDF8049000F04DFA074603
:10500000F8B9D6E90C321034013342F10002302CE9
:10501000C6E90C32E4D1B8F1000F04D02246414673
:10502000284602F08DFB2E46084C0FCE0FC496E8A2
:105030000F00203584E80F0095E80F00103484E855
:105040000F00384614B0BDE8F08700BF000600200E
:1050500020060020F0B5194D194FAB6B8DB0BB4247
:1050600029D0184E306802F0AFFC402300221946C8
:10507000284602F07CFB3021684602F099FB04468A
:1050800078B96846FFF79EFF044690B93023024680
:105090001946684602F06BFB01220023C5E90C2388
:1050A000AF63306802F096FC204602F0EBFA0DB0D8
:1050B000F0BD0E24F5E70020F9E700BF0006002050
:1050C000B4A5B4A5A00200202DE9F04F99B00DF1D0
:1050D000570802F10F0982460E46144628F01F08B1
:1050E0004FEA191922B1002969D0B2F5005F66D8DC
:1050F000344F354D386802F067FCD5E90C32134364
:105100000BD15046FFF7A6FF834630B1386802F056
:1051100061FC584619B0BDE8F08FD5E90C2319EBB6
:10512000020943F10003B9F5803F73F1000314D382
:10513000302102A802F03CFBB8B902A8FFF742FFF9
:1051400083460028E2D130230246194602A802F025
:105150000EFB00220023C5E90C23DFF870A03CB948
:105160002046FFF72FFF8346D0E76FF0920BCDE785
:10517000102C4FF001024FF010015046A14628BFFD
:105180004FF0100902F0E9FA102352462021CDE930
:1051900000830D4800F080F983460028B6D14A46C6
:1051A0003046414602F09EFCD5E90C32013342F113
:1051B0000002C5E90C32A4EB09044E44CFE76FF0BE
:1051C000860BA6E7A0020020000600202006002093
:1051D0002DE9F04F89B007460C4615461E4602F0F1
:1051E00031FB78B97B690090C3F3013262F305109B
:1051F0008DF8000010F0300007D1B96889070FD092
:105200006FF0860009B0BDE8F08F102808D1BDF816
:10521000023023F4F87343F4A873ADF8023053E07E
:10522000DBB2F82B02D06FF08500EBE700234FF0E4
:10523000010B984619469C46D7F808E0DFF8CC9158
:1052400059F804AB1EEA0A0F08D00BFA0CF343EA34
:10525000080303F07F08012341EA0A010CF1010C65
:10526000BCF1070FECD12BB19DF8033068F3470375
:105270008DF803303EEA0101D5D17B88FF2B35D074
:1052800005D8802B34D0C02BCDD1022306E0B3F556
:10529000807F2FD0B3F5C07FC5D106239DF80210C3
:1052A00063F306118DF8021010B91EF0030FA7D199
:1052B0003B79022B2BD01FD8012BA1D1BDF80210B6
:1052C00063F3C811ADF80210012A39D0032A23D0A4
:1052D000002A95D13B88B3F5105FA4D1182E03D0D6
:1052E000202E01D0102E8BD1494F2DE00323D5E77E
:1052F0000123D3E70423D1E7032B02D0FF2B7FF454
:105300007FAF0221BDF8023061F3C81385E7BDF815
:10531000023043F4C07380E7412E0ED0202E05D01A
:1053200006D8102E02D0182E7FF46AAF394F0BE04A
:10533000302EFBD0612E7FF463AF0135013EF5E7DF
:10534000302E7FF45DAF344F4FF000080F364FEA38
:105350001619C14515D11F2E1CD81C22002101A8E9
:1053600002F0CDFB4FF0000A4FF0FF39D04518D1C5
:105370001F2E04D9BA20FFF7F3FD002835D10020F5
:1053800040E704EB080002F009FA00283AD008F1DF
:105390000108DEE74146204602F03CFA0028DCD056
:1053A00030E707EB0A124FEA0A130692BAF1000F30
:1053B0001ED1009A0792BDF802202B44C2F3C112FD
:1053C00005920DF1040C03F1100E6246186859683D
:1053D000083303C273459446F7D101A904EB0A00D0
:1053E000FFF792FD38B102F02DFA6FF0920009E755
:1053F000CDF81C90DFE71C2101A802F0C3F90AF1E7
:10540000010AB3E76FF08A00FCE600BF08890000DC
:1054100000FF0720000000201094055010B590B048
:105420001C22002101A802F06AFBF82002F0B6F964
:1054300008B3202200200DEB0201FFF745FE0446D1
:10544000F8B901A84FF4807102F0DAF90E4B0F4958
:1054500004930F4BCDE901130E4BF8210693202343
:105460000DEB0302FFF7B4FE202104460DEB010013
:1054700002F088F905E0F92002F090F90028D8D16F
:105480000446204610B010BD0010C00400240001E6
:10549000014B4E80F800FF7F2DE9F3411D464FF48C
:1054A0008073284C8046002017460E46019300F07A
:1054B00097F901AB23601123234A0121C4E9022398
:1054C00004F11003636040F61103E36104F120036B
:1054D00063612123089AE3621C4B46F000561A6070
:1054E000099A45F0005542F00052C3E9011220220A
:1054F000C4F81080A6612762A5626162DA60BFF31A
:105500005F8F134A1460BFF35F8FBFF35F8F136128
:10551000BFF35F8FBFF35F8F03235363BFF35F8FCF
:10552000BFF35F8F9363BFF35F8F00F039F8431CC5
:105530000446FAD0002000F07DF9204602B0BDE814
:10554000F08100BF84D600200400002074D6002023
:105550000000015038B5BFF35F8F104CE569BFF311
:105560005F8FBFF35F8F10236363BFF35F8F0120F3
:1055700002F045FABFF35F8F00236363BFF35F8FD1
:10558000BFF35F8FE36BBFF35F8F5B06F8D425B18A
:10559000BFF35F8FE561BFF35F8F38BD000001503F
:1055A00008B500F0A7F9104A20B9BFF35F8F906AE1
:1055B000BFF35F8FBFF35F8FD36BBFF35F8F10F0CD
:1055C000240F03F0230304D0FFF7C4FF6FF01F0084
:1055D00008BD4FF0FF30002BFAD1BFF35F8F10638F
:1055E000BFF35F8F1846F3E700000150BFF35F8FF2
:1055F000094A1368BFF35F8F43F48071BFF35F8F75
:105600001160BFF35F8F23F48073BFF35F8F13606C
:10561000BFF35F8F704700BF00100150BFF35F8F73
:105620001522064B5A62BFF35F8FBFF35F8F40F2C4
:1056300037129A62BFF35F8F704700BF00100150AE
:1056400008B5FFF7D3FFBFF35F8F064A1368BFF3B8
:105650005F8F43F00103BFF35F8F1360BFF35F8F72
:1056600008BD00BF0010015070B50026C0E90066FB
:1056700005460C46FFF78EFB01232B70FFF7B6FFA4
:10568000BFF35F8F204BDB68BFF35F8F9B08013B4D
:10569000ACB3226842B19A4205D9FFF79DFB6FF087
:1056A0003F002E7070BD1346D4E90115E068002953
:1056B00008BF4FF40071002808BFF1202469BFF330
:1056C0005F8F114A9360BFF35F8FBFF35F8F1564E5
:1056D000BFF35F8FBFF35F8F5064BFF35F8FBFF384
:1056E0005F8F5163BFF35F8F44F4802444F0010463
:1056F000BFF35F8F1460BFF35F8F0020D2E74FF4DA
:105700000071F1202546DAE70010015070B50378EA
:105710000D461446002B53D0BFF35F8F2D4A136BF9
:10572000BFF35F8F5908C3F34203052B4BD011F031
:10573000060F02D14FF0FF3070BD4368D3B9BFF3FD
:105740005F8F5368BFF35F8F032BF3D9224B23493D
:10575000BFF35F8FD2F88060BFF35F8FBFF35F8FBF
:1057600043F8046BBFF35F8F8B42F1D1FFF768FF03
:1057700001234360BFF35F8F164B9A68BFF35F8FBF
:105780000132B4EB021F21D8BFF35F8F5A68BFF319
:105790005F8FB4EB820FCDD884B1BFF35F8FD3F8A6
:1057A0008020BFF35F8F291D05F8012B8D424FEA42
:1057B000122204F1FF34EFD0002CF5D10020BBE71A
:1057C0006FF02000B8E76FF05100B5E76FF03F00D1
:1057D000B2E700BF0010015010100150201001501E
:1057E00010B50446FFF7D6FA104B186802F0ECF833
:1057F0000CB101232370BFF35F8F00220C4BDA61E1
:10580000BFF35F8FBFF35F8F4FF0FF321A63BFF3B9
:105810005F8FBFF35F8F3422DA61BFF35F8F0122A6
:1058200003F59223C3F8042310BD00BFA402002097
:105830000000015010B5044638B9FFF7CDFABDE8B5
:105840001040074B186802F0C5B803783BB1FFF76A
:10585000C3FA034B186802F0BDF80023237010BD93
:10586000A402002038B5154CD4F80051BDB1BFF3E7
:105870005F8F134B996ABFF35F8FBFF35F8F4FF05A
:10588000FF321A63BFF35F8F0023C4F80031D4F8EE
:1058900000310C4B1868BDE8384002F0AEB8D4F8BF
:1058A000083153B100F076F802F01FF8C4F808513F
:1058B000D4F808310121044BECE738BD00900550C5
:1058C00000000150AC020020A802002008B5074BE0
:1058D000186802F081F8064B186802F07DF8BDE800
:1058E0000840002259201146FBF7F4BCAC0200200E
:1058F000A802002038B5094B1C7864B1084B4FF062
:10590000FF311D68284602F069F84FF0FF31044668
:10591000284602F070F8204638BD00BFE3E90020B9
:10592000AC02002010B5064CE36C3BB9214651F89F
:105930004C3B986902F01AF80123E364014810BD5A
:10594000B4D6002000D7002010B504460E4B1868CE
:1059500002F03AF80D4B1A68236122605A686260BF
:105960009A68A2600A4A12689A660023A364FFF745
:1059700011FA204601F0AAFF0028FAD1204601F0D2
:10598000AAFF0028F5D110BDB0020020B4D6002037
:105990002489000000487047B4D6002010B50446A2
:1059A000054A036912689A6601F0D3FF2046BDE8F4
:1059B000104001F0A2BF00BF3C89000010B50446B2
:1059C000FFF7ECFF0422084BC3F80823FFF704FAA3
:1059D000064A236912689A6600236364044BBDE893
:1059E0001040186801F0F6BF0090055024890000AF
:1059F000B002002010B5104B104C236003F5C043DB
:105A000063602461FFF78EFF98B1236D2046B3F5E4
:105A1000007FCCBF4FF480634FF40073A360FFF7A7
:105A200093FF2046FFF7BAFF2046FFF7C7FF00208D
:105A300010BD0E20FCE700BF00200150B4D60020AE
:105A4000244B0340B3F5806F2FD017DC402B2ED0B2
:105A500008DC102B2DD0202B2DD0181E18BF0120B4
:105A600040007047B3F5807F27D0B3F5007F26D084
:105A7000802B08BF0B2018BF02207047B3F5804F62
:105A80001FD00ADCB3F5805F1DD0B3F5005F1CD0DA
:105A9000B3F5006F08BF0620EDE7B3F5004F16D051
:105AA000B3F5803F08BF0320E5E7112070470A20C7
:105AB00070470C2070470920704708207047072066
:105AC00070471420704705207047042070470F204E
:105AD000704700BFF0FF01002DE9F0434FF00009CF
:105AE00085B00546CDF8049000F10C07EFF311885E
:105AF000202383F31288BFF36F8F8368594003EA32
:105B000002060A4053400E4901AACDE9023901F0CC
:105B100011FD019C3CB12046C4F8BC900021246ECC
:105B200001F0B3FCF6E7DDE9023223EA020338466E
:105B30004146AB60FEF75EFC304605B0BDE8F08341
:105B4000897A00002DE9F04F43688DB015468046F4
:105B5000029383789A0740F10D8100240E78002E7D
:105B600000F00A81252E0BD04B1C039301344146D3
:105B70003046029B98470028C0F2F6800399EDE773
:105B80004E788B1C252E0393F0D00027B946BB46D8
:105B9000BBF11F0F38D8A6F12003102B0AD8DFE87D
:105BA00003F02A0909300909092109090928092DE1
:105BB00009091F00A6F13003092B33D92A2E37D14A
:105BC0001BF0400F55F8043B40F08280002BA7BF2C
:105BD0004BF0200B9946C3F100094BF0280B01E074
:105BE0004BF0010B039B13F8016B0393002ECFD1F5
:105BF00030E04BF0020B4BF0040BF3E74BF0080BDB
:105C0000F0E74BF0100BEDE7BBF17F0F19D8A6F1D1
:105C10003003092BD2D81BF0400F03D00A2101FB1F
:105C20000737DFE70A214BF0200B01FB0939D9E7E1
:105C30002E2E06D11BF0400F40F09E804BF0400B03
:105C4000D0E76C2E31D02BD8682E36D06A2E3CD0BF
:105C50004C2E3AD0002F46F02003B8BF2BF0400264
:105C6000A3F16501BCBF00271FFA82FB022901D9FD
:105C7000612B2FD107350727DFF8ACA225F00705E8
:105C800008351BF0080F66D00AEB070B56465E4539
:105C900063D1A4EB0A0AA9EB070906EB0A026FE13C
:105CA000742E9FD07A2E9DD0D4E71BF0800F18BFA2
:105CB0004BF4007B4BF0800B94E71BF4807F18BF04
:105CC0004BF4007B4BF4807B8CE74BF4207B89E723
:105CD0001F4687E7A6F16301122900F2F080DFE892
:105CE00011F013004F00EE00EE00EE00EE004F004A
:105CF000EE00EE00EE00EE00EE00FE00E900EE0029
:105D0000EE001B00EE00AF0055F8043B01270DF13B
:105D1000180A8DF81830B4E755F804AB834BBAF184
:105D2000000F08BF9A461BF0400F504614BF39467B
:105D30004FF0FF3101F00BFF0746A2E7414620205C
:105D4000029B984700280FDB013EB742F6D34C4434
:105D5000B146A41B98E74E46F7E7414616F8010BFB
:105D6000029B9847002892DA98F8023043F0040327
:105D700088F802304FF0FF3420460DB0BDE8F08FB8
:105D80001BF0800F34D01BF4007F2CD0073525F09A
:105D90000705AA4669685AF8080B2BF01005002978
:105DA000ADB237DA404245F4806561EB41010DF157
:105DB000180B0A235A4601F0D6FEA0EB0B03019301
:105DC0006B0662D5019B25F001019F4289B240F329
:105DD000A180002E00F0998015F0100240F09C8008
:105DE000BB460D4623E0AA465AF8040BC117D4E778
:105DF000AA461BF4807F5AF8041B01D10846F5E738
:105E00001BF4007F19BF48B241F3C01108B241F33F
:105E1000C031C2E750EA0103C9D11BF0400FC6D020
:105E2000002FC4D12BF01102BB46019795B240F26E
:105E3000064115EA01021CBF0BF1010B00222CE008
:105E40002BF010020A231FFA82FB1BF0800C49D0B2
:105E50001BF4007115BF0735AA4625F007055AF84F
:105E6000040B1EBFAA4669685AF8080B50EA0105E0
:105E700045D12BF016051BF0400FADB242D0002FDC
:105E800040D12BF01702019795B215F0100248D0BF
:105E9000019B002E42D103F1010B29075AD4EB07D5
:105EA00006D5D9456FDDA9EB0B030199CB465F18E9
:105EB0005B4649E04BF0100B10237826C5E7782BA2
:105EC00004D1C6F1780343F01003BEE74146252014
:105ED000029B98470028FFF647AF023447E60823A5
:105EE0000026B2E7AA461BF480715AF8040BBDD015
:105EF0001BF400711ABFC0B2614680B2B6E72BF046
:105F0000060295B20DF1180B54E725F01105BB46BA
:105F1000ADB28CE70D46B8E73B460D4603F1020BE8
