:10000000381701202D340100D58302001934010076
:1000100019340100193401001934010019340100A8
:10002000000000000000000000000000C9350100D1
:1000300019340100000000003135010019340100BD
:10004000CD370100CD370100CD370100CD3701009C
:10005000CD370100CD370100CD370100CD3701008C
:10006000CD370100CD370100CD370100CD3701007C
:10007000CD370100CD370100CD370100CD3701006C
:10025000CD3701001FAC0200CD370100CD370100C2
:10026000CD370100CD37010009AC0200CD370100C8
:10027000CD370100CD370100CD370100CD3701006A
:10028000CD370100CD370100CD370100CD3701005A
:10029000CD370100CD370100CD370100CD3701004A
:1002A000CD370100CD370100CD370100CD3701003A
:1002B000CD370100CD370100CD370100CD3701002A
:1002C000CD370100CD370100CD370100CD3701001A
:1002D000CD370100CD370100CD370100CD3701000A
:1002E000CD370100CD370100CD370100CD370100FA
:1002F000CD370100CD370100CD370100CD370100EA
:10030000CD370100CD370100CD370100CD370100D9
:10031000CD370100CD370100CD370100CD370100C9
:10032000CD370100CD370100CD370100CD370100B9
:10033000CD370100CD370100CD370100CD370100A9
:10034000CD370100CD370100CD370100CD37010099
:10035000CD370100CD370100CD370100CD37010089
:10036000CD370100CD370100CD370100CD37010079
:10037000CD370100CD370100CD370100CD37010069
:10038000CD370100CD370100CD370100CD37010059
:10039000CD370100CD370100CD370100CD37010049
:1003A000CD370100CD370100CD370100CD37010039
:1003B000CD370100CD370100CD370100CD37010029
:1003C000CD370100CD370100CD370100CD37010019
:1003D000CD370100F3AB0200CD370100CD3701006E
:1003E000CD370100CD370100CD370100CD370100F9
:1003F000CD370100CD370100CD370100CD370100E9
:10040000CD370100CD370100CD370100CD370100D8
:10041000CD370100CD370100CD370100CD370100C8
:10042000CD370100CD370100CD370100CD370100B8
:10043000CD370100CD370100CD370100CD370100A8
:10044000CD370100CD370100CD370100CD37010098
:10045000CD370100CD370100CD370100CD37010088
:10046000CD370100CD370100CD370100CD37010078
:10047000CD370100CD370100CD370100CD37010068
:10048000CD370100CD370100CD370100CD37010058
:10049000CD370100CD370100CD370100CD37010048
:1004A000CD370100CD370100CD370100CD37010038
:1004B000CD370100CD370100CD370100CD37010028
:0804C000CD370100CD3701002A
:1004C800064A074B02604FF422725B78828008224A
:1004D800C371002382710372704700BFBFCD000053
:1004E800E00D0020064A074B02604FF49C725B7ACD
:1004F80082800822C371FF2382710372704700BF94
:10050800E3C80000E00D0020F8B5C41D002805462A
:1005180024F007040CBF0020204600F0CDFA071E87
:1005280002DA6FF00B00F8BD254EB18870880331F0
:10053800F3790330B27989B280B20AF0B1F80028B1
:10054800EFDB3C4473783178002D04F1030419443F
:1005580024F0030400FB01F10CBF0020204600F04A
:100568002FFC23180DB9002BDBDB717A184679B103
:100578000333002D728923F003040CBF00202046AA
:1005880000F090FC0028CCDB20440DB90028C8DB23
:10059800317A91B1737A83B1C41D002D24F0070418
:1005A8000CBF0020204603F053F90028B9DB0DB139
:1005B8000020B8E72018B6D5B3E7002DF8D1B2E788
:1005C800E00D00201FB572B6194BDC68ECB9BFF31B
:1005D8004F8F1849184BCA6802F4E0621343CB6086
:1005E800BFF34F8F00BFFDE7B2FBF6F22B465D1C51
:1005F800002AF9D1DBB203F110056D4405F80C2C83
:100608000A2233B901A8A047E1E7024600230A26D7
:10061800EDE7013BDBB203F110050DEB0506B0FB7E
:10062800F2F502FB1500303006F80C0C2846E8E716
:10063800E00D002000ED00E00400FA050A4B07B5C4
:10064800DA886846ADF800209A885B88ADF80420FF
:10065800ADF8023001F09AFD18B1FC219C20FFF79B
:10066800B1FF03B05DF804FBE00D002010B50446AF
:1006780028B308F0D3FC10B94FF0FF3010BD07F0D5
:1006880043F9B0F5FA7FF7D80E4B00221A744FF4ED
:100698008072DC601A801B225A809A8040F2032202
:1006A800DA804FF484721A811F225A81EFF3108482
:1006B80072B600F053FC04B962B60020DEE76FF0B2
:1006C8001500DBE7E00D002010B5002840D1234CD1
:1006D800237C032B39D059B1002A3CD00239052993
:1006E80036D8DFE801F0031227352A2D1378637016
:1006F8000020FFF709FF0028B7BF012302236FF08E
:100708000B002374A8BF237410BD13791BB353794E
:100718000BB31188FB291ED853881B3B9BB2E02BD7
:1007280019D81A2917D913689288C4F802300C4BC3
:100738009A80DDE713786372DAE713886381D7E775
:100748001388FF2B07D82372D2E74FF0FF30DBE77F
:100758006FF02C00D8E76FF01500D5E7E00D00200A
:10076800E20D0020F8B50D46064620B319B311F086
:10077800070420D1114F3B7C012B02D16FF00B00F5
:10078800F8BD032B02D14FF0FF30F9E700F060F815
:100798000028F8D02846FFF7B7FE0028EEDB0CF05B
:1007A80064FB3046214601F073FDFFF747FF032342
:1007B80020463B74E4E76FF01500E1E7E00D002008
:1007C80010B5064C237C032B03D101F077FD02F012
:1007D800ABFA0AF067F80020207410BDE00D002085
:1007E80050B1074B03F1140253F8041B934240F82D
:1007F800041BF9D1002070476FF01500704700BF47
:1008080050E0030008B501F00FFD03490120BDE8E1
:10081800084000F049B900BFED04000008B501F038
:1008280017FD03490020BDE8084000F03DB900BFAE
:10083800C904000002680020014B1A60704700BF1D
:10084800F40D0020014B1B68184700BFF40D002071
:10085800024B1868003818BF01207047F40D0020BB
:100868002DE9F7430446264E071D2548376002F058
:1008780073FA0228054607D12149204609F0E3FA10
:10088800284603B0BDE8F0830428F9D13378072B54
:1008980018D13E2000F04AF878B9F37801A93279E6
:1008A800684643EA0223ADF8003009F0DBFC002873
:1008B800DBD053210820FFF785FE052000F078F8EB
:1008C8000028EAD03146204609F0F5FAB0F5817FD4
:1008D80001D37221EEE70028C7D094F8008094F87D
:1008E8000290404600F022F80028BED0B8F13E0F32
:1008F800C6D1484600F05CF80028C1D1B5E700BF72
:10090800F80D0020074B4FF0FF3141F6FF72C3E9A5
:10091800001205490022C1E900221F21C3E9021281
:10092800704700BF600000203C0E00203F280CD814
:1009380001380B4BC0F3421200F01F0053F822306D
:1009480023FA00F000F001007047FF2806D0403875
:10095800044BC0F3421200F01F00EFE7012070477C
:10096800600000203C0E0020074B014600684968E3
:100978001A4603C240F48C2200201A6041F010721B
:1009880042F4FF625A607047600000200246034B41
:100998000068516803C30020704700BF3C0E002068
:1009A8000246024B0068516803C370476800002084
:1009B800431E3828DBB21FBF064A590903F01F033C
:1009C80002EB81021DBF9068D84000F001000020B2
:1009D800704700BF600000200A8870B595B2C67CD9
:1009E800C2F30E020488023602F118033444C35AD3
:1009F800A4B233442344013BB3FBF4F303FB0422C6
:100A0800438892B29342044B8BBF2B40AB431343B2
:100A18009BB20B8070BD00BF0080FFFF4A1E062AF4
:100A280008B50346084604D84FF4D1711520FFF7DE
:100A3800C9FD094A914202D940F2A311F6E711B95A
:100A480003B1196008BD2BB11B680022C3E901215D
:100A58001A1D1A600430F5E7FAFFFF7F10B5114B35
:100A680000EB41041A786389B3FBF2F303FB02231A
:100A7800013A1A44B2F5706F0279807828BF0023D2
:100A88001A440B18B2FBF0F100FB11215B1AB3FBFF
:100A9800F0F100FB113313446FEA43436FEA534309
:100AA800638110BD440E0020024B03EB80035960A4
:100AB800704700BF440E00202DE9F04F10F0070AE0
:100AC80085B0054604D040F261111720FFF77AFD82
:100AD800524F044607F10C06B146B04657F8043B9E
:100AE8008DF80BA03BB101A898479DF80A30082B58
:100AF80001D9E821E9E79DF80B1041BB05B1316048
:100B08004F4506F10406E9D1002D6ED00022DFF82A
:100B180010910227964689F8002058F827A0013F2F
:100B2800BAF1000F54D09AF804609AF802C0FF2E68
:100B38005FD039460023481C37D19C44BCF1FF0FD5
:100B48003ED90AB189F800E040F22711BDE79DF8C7
:100B58000AC04B1D60465A0004EB4303022838BF05
:100B68000220441E40422344BDF808406444CCF1AE
:100B7800000C0340013C04EA0C04B4F5803F01D3A7
:100B8800F821A2E775B19A1A012032609170148099
:100B9800D0709DF80C00107101984FEA104C10812C
:100BA800A2F806C004FB0134AAE758F8210028B1CE
:100BB80090F804B0B34504BF80781B180139BAE730
:100BC800DBB2E6458AF804303CBF5FFA8CFE0122AE
:100BD8007B1CA2D10AB189F800E0022640F6FF6A20
:100BE80058F82670B7B9013EFAD2601B05B0BDE8C7
:100BF800F08F0023E5E707EB410309F101093846C7
:100C0800A3F80AA0FFF72AFF5FFA89F1BB788B42A5
:100C1800F1D8E8E74FF00009F6E700BF480E0020DA
:100C2800440E002038B54FF6FF7302460380184B78
:100C380003EB81031869A8B184780379B3FBF4F155
:100C480004FB1133DBB2194600EB4105B5F90A5034
:100C5800002D0EDB0131B1FBF4F504FB1511C9B20F
:100C68008B42F1D1002038BD6381BDE8384009F0DE
:100C7800F3BC00EB41046389C3F30E031380C2780D
:100C8800002AF1D14FF4D5711720FFF79BFC00BF64
:100C9800440E00201C4B03EB810370B51C6905460C
:100CA80044B3030404D54FF4DC711720FFF78AFC22
:100CB8000146204609F0B3FCFF28014604D020462F
:100CC800BDE8704009F0C8BCA078B5FBF0F300FBA4
:100CD8001353DBB219460A1D04EB4206B6F902604B
:100CE800002E09DB0131B1FBF0F200FB1211C9B291
:100CF8008B42F0D1002070BD8B4201D00023E370FD
:100D080004EB42025580DAE7440E0020094B03EB5E
:100D18008103014610B51C69204609F080FCFF28B4
:100D2800014604D02046BDE8104009F095BC0020DB
:100D380010BD00BF440E0020F8B5104B074603EB6A
:100D4800810301461C69204609F069FCFF28054615
:100D580011D0E288238953EA024606D0014620468C
:100D680009F07AFC01463846B04720462946FFF785
:100D780075FE0020F8BD0520FCE700BF440E0020EA
:100D880038B50E4B0446827903EB8203186908B91B
:100D9800052038BD8278E1799142F9D24B1CE37184
:100DA80000EB41035D89B3F90A30002BF3DBA58022
:100DB80009F052FC20600020EBE700BF440E002041
:100DC80070B5044610F003000E4603D04E211820DB
:100DD800FFF7F8FBFFF722FE054624B1034831462A
:100DE8000460FFF71BFE284670BD00BF600E0020A0
:100DF8002DE9F14FDFF870B01E4607460D46DBF8C7
:100E0800003090469DF828A09DF82C901BB96021D1
:100E18001820FFF7D7FB52460921404609F083FA0C
:100E28004A4684B20921304609F07DFA81B2DBF8DE
:100E38000000214409F0C7FB386018B9286001B0E8
:100E4800BDE8F08F04445346414609222C603868B7
:100E580009F02CFA4B4609223146286801B0BDE852
:100E6800F04F09F023BA00BF600E002070B50E469F
:100E7800044609F06BFA0546304609F067FA044B58
:100E88002A1821461868BDE8704009F0C1BB00BFA8
:100E9800600E0020024B186808B109F088BB704743
:100EA800600E00201F2AF8B5044624D89200134D7E
:100EB800033250B1830703D068210920FFF782FB72
:100EC80022F00303297068602B8122F00302282393
:100ED8000127120403FB01F06B680025120CEEB227
:100EE800B14200D8F8BD14B126181F705E601044D6
:100EF80001352833F3E74FF0FF30F3E7640E0020A5
:100F0800154A002170B553681578C8B2854203D8D0
:100F1800BA210920FFF756FB1C461846013114F880
:100F2800286B0EB92346F0E7002199700124128935
:100F3800996103F126055C709208D96103F11E04DA
:100F4800596824F8022FAC4243F8041F1144F8D121
:100F580000234361037070BD640E0020124B012210
:100F68004FF0FF3000215A60C3F80803C3F800159A
:100F7800C3F804255A6040F6FE72C3F808034FF41C
:100F88008060C3F8001503F560330849C3F80825E5
:100F9800C1F88800BFF34F8FBFF36F8FC1F8880186
:100FA800C3F80825704700BF00A0045000E100E026
:100FB8000A460648192302F8033BC368C1F8033000
:100FC8000369536043699360704700BF700E002047
:100FD800024B5A8C02435A845B6A1847700E0020F1
:100FE800014B00215B6A1847700E002010B5154CA4
:100FF80005F04CFA05F0E8FE208DFFF7F1FF237E9F
:1010080063B12246104904F1190052F80C3BE36021
:1010180063685360A36893600AF0CCFD0B4B228D84
:1010280093E8030002F044FC236B188802F0C6FB27
:10103800A36B94F8341094F835009847002384F88B
:101048003C3010BD700E0020B90F00009C0E00202F
:10105800034B93F83C300BB1FFF7C8BF704700BF94
:10106800700E002070B51F4C0646236D256B236457
:101078004FF4817395F88A20A4F8443094F85430DA
:1010880095F8691003EB82002EB9FF2803D195F873
:1010980068308B4201D005F0A9F895F88A30D3B1B1
:1010A800A06D05F0ABFA0123A16D84F88030206CA7
:1010B800D5E93A23C4E91C2305F00CFE16B93046DD
:1010C80005F0EAFA95F86810002005F02DFB0223D8
:1010D80084F83C3070BD206C05F090FA05F074FE81
:1010E800ECE700BF700E002008B5094B93F83C20D0
:1010F800022A04D040F2A3212720FFF763FADA7A04
:1011080042F00102DA72BDE80840FFF76FBF00BF86
:10111800700E00202DE9F341354C06460F4694F831
:101128003C30012B5FFA83F804D040F22E7127205F
:10113800FFF748FA256B95F87C303BB10021042075
:1011480085F87C10FFF744FF85F87D8095F880309E
:10115800042B0BD127490220FFF73AFFD4F890302F
:101168001B78991E4B424B4184F8983095F88A3089
:10117800ABB1236B012294F8548084F88020D5E920
:101188003A01C4E91C0193F8690009F08DFB0022BB
:101198000346194900920220424605F0D9FC26B1BF
:1011A80002B0BDE8F041FFF721BF002FF8D0D4F816
:1011B8009C30304698470028F2D094F83430002B01
:1011C800EED1638C9A0709D594F89830002BE7D0B4
:1011D800002002B0BDE8F041FFF744BF002BDFD18B
:1011E80094F8A030002BF3D194F8A130EEE700BFBB
:1011F800700E0020000F0020D00E0020064B10B506
:1012080093F83C2002F0FF0422B91C7602F048FB58
:10121800204610BD0C24FBE7700E0020094B0A4A3B
:1012280010B51A60FFF7EAFF20B14FF49F7127202D
:10123800FFF7C8F9054C01F051F8206501F052F8A4
:10124800A06510BDA8000020901A0000700E0020B4
:10125800F0B585B07E4C02AE0A9F86E8030094F88C
:101268003C1001F0FF0511B90AB103B127B940F2EA
:10127800D3112720FFF7A6F996E8030004F12C0CF8
:10128800C4F89C3084F834509DF82C3084F8A3506E
:1012980084F8355084F8A45084F8A55065842585D1
:1012A80084F8A05084F8A15084F89850C4F8885065
:1012B800C4F89050A4F894502564A564A4F84C5040
:1012C80084F8A2306262A7638CE80300256B04F0FF
:1012D800B9FF05F079FD95F9700005F5807705F0FF
:1012E80011F86E6AE86905F013F8304605F078F9E8
:1012F80095F89A0005F016F804F160060BF005F869
:1013080095F8692000F17101012005F0ABF8514B07
:10131800186805F06BF92B69C4F8A8306B69C4F834
:10132800AC3005F1F0031868083353F8041C324652
:10133800BB4203C21646F6D15968474A236BD5F813
:10134800000193F8686003C293F88420A2F1250194
:10135800012903D993F8851025295FD193F85E32C6
:101368002BB1012E03D0012B0CBF0126022605F15B
:101378003007314638460AF0ADFC31460AF016FA15
:10138800AB8F95F86910834228BF0346384684F826
:10139800B0300AF088FC95F88A7095F86910B5F8AD
:1013A80044600AF003FA0FB9043080B2864295F817
:1013B8008A3028BF0646F6B284F8B16084F85460D3
:1013C80093B1012395F8690084F88030D5E93A2370
:1013D800C4E91C2309F068FA002203461F49009259
:1013E8000220324605F0B4FB0120FFF73BFE236BD9
:1013F800D3F8B00105F01EF9002323606360A360F1
:10140800B5F87E3063802B88238095F89A30237155
:10141800EB6E0BB101221A6005B0F0BD203A012A2B
:101428000DD823290DD093F8263113F0010202D1EB
:101438009B079CD50222012E18BF164697E7232941
:1014480095D193F8262193F861301340EDE700BF5A
:10145800700E0020A8000020E80E0020D00E00200A
:10146800014B93F8A4007047700E0020024B93F8CC
:101478002900C0F3C0007047700E0020014B93F89C
:10148800A3007047700E002073B5174C0646D4F8B9
:10149800B4500DB1A36C23B940F21B712720FFF79C
:1014A80091F8B4F844202846216C07F00FFFEB1C94
:1014B800B4F84C201846A16C07F008FF0DF10202A1
:1014C80001A9A064D4F8AC00256409F066F8019875
:1014D80009F04DF80122B4F84C103060D4F8AC0093
:1014E80008F0F4FF02B070BD700E00202DE9F04F37
:1014F80000238BB0AF4C80460491256BCDE90733B0
:1015080094F83C30022B5FFA83FB04D04FF4F96166
:101518002720FFF757F8236C5A781E78A4F84C2038
:1015280003221344A4F84420A36495F88A300028C1
:1015380000F02C81C6F3C007C3B105F063FC831E1D
:10154800DBB2012B04D8FFF751FD0BB0BDE8F08FDB
:1015580060B9B4F84C304BB195F8823003F0010310
:10156800BB4203D1012384F83530ECE7B4F84C10C2
:1015780021B1D4F8AC0008F089FF0146238D95F815
:10158800812043F40073C4F8B410238582EA9603DB
:10159800D8076DD4CDF80C8095F8821001F00103BE
:1015A800BB4200F0A6804FF0000995F889308BB156
:1015B800002795F86800D5E9382384F88070C4E9D5
:1015C8001C2309F071F9FB2203467B49042000978C
:1015D80005F0BEFAD4F8B430002B40F0E880B4F837
:1015E8004C30B3FA83F35B0903EA161384F8A1308D
:1015F800049B002B40F0E680628C94F8A33011071E
:1016080004D594F89820002A40F0DC80012B00F2E1
:10161800D980D4F89C3001209847002800F0D28067
:1016280094F83470002F40F0CD80266B94F8543035
:1016380096F88A2096F8681003EB82038DF81970E3
:10164800ADF81A70FF2B03D196F869308B4202D09F
:10165800FF2004F0CBFD96F88030052B00F2F581D1
:10166800DFE813F00601CD01D101D101E301E30167
:1016780095F880305BB3013B0132DBB285F88120FD
:10168800042B0ED84D4AD35C002B83D0022B0BD1F0
:1016980007A9D4F8A80008F0A2FE88B940F22B6187
:1016A80036E740F2136133E7032B10D100F0BCFE9C
:1016B80010B940F235612BE700210820FFF788FCBC
:1016C800D5E93832013342F10002C5E93832002148
:1016D80095F87D3085F8801023B1102085F87D10AD
:1016E800FFF776FC238D43F40063238500230393DF
:1016F80052E7B4F84C2006F00303EAB1581E01285B
:101708001AD8208D40F48050208594F8B10090427A
:1017180006D294F8343043F0100384F8343042E7AA
:10172800D4F8B40000283FF43EAF94F8A20018B1F2
:101738002020FFF755FC36E70131032B85F882108E
:1017480019D0013B012B0BD8002A3FF42CAFC1461E
:10175800D5E93A32013342F10002C5E93A3224E7C9
:10176800002A3FF420AFD5E93A32013342F10002B2
:10177800C5E93A3217E7238D0120114943F4805314
:1017880085F87C002385FFF723FCECE70BB105F017
:1017980053FB94F8A3304FF000090133CDF80C90B7
:1017A80084F8A330238D43F480632385FDE6012369
:1017B8001AE700BF700E0020D00E00209807030023
:1017C800B80E002004F0BCFFB9F1000F4CD1012382
:1017D8000493238D5A0606D44020FFF701FC238D7D
:1017E80043F040032385039B6BB1B4F80720B4F89A
:1017F80005301343B5F87E2013431EBFB4F80930F3
:101808000133A4F80930B8F1000F00F03281B4F8C0
:1018180005300133A4F80530002384F8A330984834
:1018280001F0BAFF079830B108F0A1FE216B002241
:10183800027201F081FB089B33B1216B00221A72FE
:101848000C22089801F046FB049B002B7FF47BAE2A
:10185800238D1B063FF579AE8020FFF7C1FB238D52
:1018680043F08003238570E608A8FFF70DFEAEE776
:1018780094F8B0300DF11A0109A8A6F85830ADF85F
:101888001A3000F0C3FD40B1099830B1012384F843
:10189800A530042386F8803022E096F8C330002B68
:1018A80040F0A4800DF119020DF11A01D4F8A80036
:1018B80008F073FD002800F09980BDF81A30002B5D
:1018C80000F091809DF81930002B40F0858003804E
:1018D80083704FF0030B86F880B0012384F8A5309D
:1018E800BDF81A3096F880A0A4F89430C31CBAF159
:1018F800020F96F881B0C4F8903096F88230C4F898
:101908008800059309D0AAF10402012A00F2A080F8
:10191800C3784FF0030A022B0ED0D4F8A80008F0C1
:1019280094FD002840F09780BAF1030F04D000F02E
:1019380087FD80F00107FFB2D4F888104FEACB0B7F
:10194800059A0B780BF0080B900003F0F30300F0F6
:10195800040043EA0B03034323F0100343EA07138D
:1019680007F0010723F0030384F8A0704AEA030292
:101978000A700222B4F894304B70A4F88C2096F8C0
:101988008920002A69D0002B67D0A06D04F036FEAC
:101998000022D6E9380184F88020C4E91C01A16D31
:1019A800D4F8880004F0FCFF20B9D4F88810A06DA2
:1019B80005F02EF996F86910012004F0B5FE012310
:1019C80084F8A43084F83C30B9F1000F3FF401AF3B
:1019D80008A8FFF759FDFCE6037803F00303012B81
:1019E8007FF479AF75E74FF0010B74E70023ADF88A
:1019F8001A30012386F880302248002372E700233A
:101A0800ADF81A30F8E7B6F858300DF119020DF1B3
:101A18001A01D4F8A800ADF81A3008F0BEFC002866
:101A28007FF45BAF40F2AA4172E50DF11A0109A8F3
:101A380000F0ECFC08B1099810B940F2B74167E52D
:101A4800012384F8A530052324E740F2BF415FE570
:101A58004FF0010A61E701276EE7D4F8880004F027
:101A6800CDFD05F0B1F90021D4F888000BF024FA77
:101A7800A0E7B4F807300133A4F80730CFE600BF79
:101A88009C0E0020280F0020F1100000F514000023
:101A98001D11000059100000304BF0B55A8885B070
:101AA800B0F85C700C46B0F85A6097429D8828BF21
:101AB8001746964228BF16461B2E2ED0B5F5A47F92
:101AC8002DD040F6480301A99D4228BF1D4608F0C5
:101AD80028FFBDF80A30BB4228BF3B46E380BDF86B
:101AE8000C30AB4228BF2B462381BDF80630B342E9
:101AF80028BF33466380BDF80830AB4228BF2B4669
:101B0800A380FF232370E3881B3B9BB2E02B08D9FB
:101B180040F22D713920FEF755FD1B2FCED105B0AF
:101B2800F0BD63881B3B9BB2E02B02D940F22F71BA
:101B3800F0E72389A3F5A4739BB2B3F5E06F02D94C
:101B480040F23171E6E7A388A3F5A4739BB2B3F51D
:101B5800E06FE4D940F23371DCE700BF2C0F0020BE
:101B680010B501210020FFF7D1F8044670B9012112
:101B7800FFF790F8044620B940F29B313920FEF770
:101B880021FD034B93F906100AF079FE204610BD9B
:101B98002C0F0020024B987DC04300F001007047D5
:101BA80054130020044B987DC0F3400080F00100DE
:101BB80000F00100704700BF5413002008B509F079
:101BC80014FD00F0DDFD00F0ADFB09F0CBFF01F0E6
:101BD80051FE03F0A1FF0022084B1B214FF4A47013
:101BE8001A60074B98801A8059800648064B18607F
:101BF80099805A745A829A829A7508BDAC0000205E
:101C08002C0F002003021B0054130020044B41F644
:101C18004C52C3E902221B221A74FFF7CFBF00BF40
:101C28005413002073B5234D0446AB680363224B5D
:101C380083610AF0B5FC064600F064FB8306297C44
:101C480053BF1B236B88AA881A46A4F85A301B4B2B
:101C5800A4F85C201B6884F8381066871BB194F9D7
:101C6800701020889847164E2046314609F0ADFD81
:101C780001236A8804F110006978E3850332AB8890
:101C8800019192B216F8121C033300919BB204F131
:101C98001401FFF7ADF8236923B940F20471392024
:101CA800FEF790FC636913B940F20571F7E700206D
:101CB80002B070BD5413002000093D00B0000020A0
:101CC80066130020024B1B6803B118470C207047AD
:101CD800AC000020034B5A8802801B7883700020D8
:101CE800704700BF5413002037B5837805461A2B78
:101CF80008D8042B04D9144A22FA03F3DB0705D4C5
:101D080012241AE0292B01D03B2BF9D12888B0F5F1
:101D1800706FF5D2694609F0B7FC88B9019B93F852
:101D2800182102F0FF046AB9AA7883F81921FF2262
:101D380083F81821684608F02DFF204603B030BD0F
:101D48000224FAE70C24F8E7200038040188A1F1FE
:101D58001B039BB2E02B0CD8428844F24810A2F532
:101D6800A4739BB2834204D8034B002059809A8005
:101D780070471220704700BF2C0F0020034B5A8871
:101D88009B88028043800020704700BF2C0F0020F2
:101D980038B50278447802F0010302F0020254EAEE
:101DA800030101D1112038BDBAB98578002DF9D0C9
:101DB800002B18BF002400E01D46204608F084FDD3
:101DC8000028EFD0284608F07FFD0028EAD0054B10
:101DD80000209C74DD749882E5E7002BECD0002489
:101DE8002546EAE75413002013B50088694609F030
:101DF8004BFC18B10224204602B010BD019A92F89B
:101E0800DC31DBB292F8A620002AF3D113F0FB0FE5
:101E1800F0D0019890F82A310BB13A24EBE790F80A
:101E2800CE3003F0FF04002BF7D190F8C5309B07A4
:101E380006D1FF2380F82A31684608F0ABFEDAE7BE
:101E48000249C63009F0B6FED5E700BF85C20000DA
:101E5800F7B5077805460C46EF2F0FD890F9012003
:101E68004378002A0ADB8278900707D113F0100024
:101E78001DD1990603F0030202D51AB1122442E0DB
:101E8800032AFBD01E07F9D42979EA78EE7942EAC9
:101E98000122697942EA0142A97941EA06212E7AAA
:101EA80041EA06418A42E9D81F2A0FD8E6E713F02B
:101EB800600FE3D103F00702052A05D003F00F01F4
:101EC8000D22CA40D107D9D51A07DDD56A7A013A59
:101ED800062AD3D8AA7A032AD0D813F0040102D14B
:101EE800023A012A03D8EA7A012AC7D811B9AA7C8A
:101EF800032AC3D82A7D48B1012ABFD12A7E012AE4
:101F0800BCD830B91124204603B0F0BD022AF5D15F
:101F1800B4E7DB0712D46B782A7D03F01803082B8B
:101F280011D1022AEED101213846FEF7EFFE06460E
:101F380078B10AF058FCB8B10C24E4E700F0A2F933
:101F48000028E8D1DEE7022AEDD02B7F002BEAD06B
:101F5800D8E701213846FEF79DFE064640B3154BEB
:101F680093F906100AF08BFC30460AF078FD2946F2
:101F78002070E87430460AF0C8FCEB7E0446002B5B
:101F8800C1D00028BFD10246B16A684608F09FFB5D
:101F98002246B06A012108F0E5FBB16A68460422CE
:101FA80008F095FB22462146B06A08F0DBFBAAE759
:101FB8000724A8E72C0F002030B502798BB0034620
:101FC800042A4FD84088B0F5804F4BD826490024C2
:101FD8008D5C1144ADF800404A798DF8084042F014
:101FE80010028DF8244042EA45028D7AC97B42EA04
:101FF800850242EAC102694602F01F028DF80020FC
:10200800BDF80020ADF809201A888DF80E00000AE6
:102018008DF80B20120A8DF80D408DF80C208DF8E4
:102028000F008DF810405A7BD3F807008DF8112067
:102038005A79059002A88DF812209A798DF8132004
:10204800B3F80B209B7BADF818208DF81A307F234E
:102058008DF81B304FF00113CDE90734FFF7F8FE78
:102068000BB030BD1220FBE79D070300F7B506460D
:10207800FFF776FD04460AF0FDFC33780546012B90
:1020880061D120460AF02EFC00287BD020460AF0B9
:10209800F1FC18B115B9122003B0F0BD20460AF0C2
:1020A800A2FB08B10C20F7E720460AF0D9FB074647
:1020B8000028F7D1204602F0A5FC0028EBD0ED015E
:1020C80042F2107339462046ADB25D430AF0BEFCB9
:1020D80020460AF0C7FC014658B92A46204601F0B6
:1020E800F5FE08B90020D7E741F6AE413920FEF7E2
:1020F80069FA39460DF10600FEF794FD064608B95F
:102108000D20C9E7394609F0CCFABDF8063031464A
:10211800204633800AF0B2FC01213046FFF782FDE9
:102128002A463146204601F0D1FE024610B141F65A
:10213800D141DBE7144B9B68002BD3D006F58D719A
:1021480030469847CEE7002BA5D120460AF0CAFBB7
:10215800C0B120460AF047FB0028C3D020460AF049
:10216800EFF9054620460AF0EEF90146002899D114
:10217800002DB7D02888FEF7DFFD0028B2D041F641
:10218800F341B3E7422087E72C0F0020027803468B
:1021980072B1427862B142881A2A09D982881A2A09
:1021A80006D90068034A106000209B889380704716
:1021B800122070475413002002680020014B9A60D7
:1021C800704700BF541300200378A3F10A02112AB4
:1021D8009BBF024A0020122013747047541300203A
:1021E80008B5052000F082F803F056FC014B024ABE
:1021F8009A6008BD2C0F0020A11A000008B5012222
:10220800084B1A7002F0EEFB0AF0EFFD09F0EBF94B
:10221800FFF704F8002008F027FABDE8084000F0AE
:1022280093BD00BF380F002010B5064C0649201D8D
:1022380008F0B9FF04F108000449BDE8104008F0AF
:10224800B2BF00BF380F0020B4000020BC0000203F
:1022580010B5084C0849201D08F0A5FF04F1080036
:10226800064908F0A0FF04F10C000549BDE810403C
:1022780008F099BF380F0020C4000020CC000020CF
:10228800D4000020014B1878704700BF380F002099
:1022980010B5064C00F034FD606808F07CFFFFF7CD
:1022A800B5FC00F00FFF0123237410BD380F002088
:1022B800014B187C704700BF380F002010B5064C42
:1022C800A06808F068FFE06808F065FFFFF776FC93
:1022D8000023237410BD00BF380F0020004870474A
:1022E800490F0020004870474B100020C2080449DD
:1022F80000F0070001238340885C03438B54704738
:1023080070000020014BD3E90001704770000020E5
:10231800034B1868C0F30020400040F001007047EC
:102328007000002008B505F0EFFA0023074A32F8DC
:102338002310814205D302EB83029378044A137079
:1023480008BD01330C2BF2D10023F7E7B2070300D5
:102358004D11002010B54468238884F86711A4F84B
:10236800683194F86830012B06D0022B04D040F273
:1023780087310620FEF726F984F86A3194F8693027
:10238800012B01D0022BF2D184F86B3104F5AF7028
:10239800034909F00FFC002384F8243110BD00BF65
:1023A8003BB2000040680749038800F25110A0F8CA
:1023B800093010F8F13CC37210F8F03C037309F0CF
:1023C800F3BB00BF51B20000024B002283F8222069
:1023D8009A8470474E110020044B93F82220012A5A
:1023E8001ABF036001200020704700BF4E11002073
:1023F800054B024693F8221001291BBF01209A843D
:10240800002083F8220070474E110020054B024639
:1024180093F8220020B1136009B19B8C0B80012036
:10242800704700BF4E110020044B002293F8220091
:102438009A8410B1012083F8222070474E110020A1
:10244800034B93F82200B0FA80F04009704700BFB0
:102458004E11002050B90A4A0120134603F8010B17
:102468000868C2F801008A889A807047012805D157
:10247800034B0A68D8719A608A889A81704700BFAE
:102488007411002050B90B4B187888B1D3F801208B
:10249800B3F805300A6001208B807047012806D107
:1024A800044BD87920B19A689B890A60F3E7002029
:1024B800704700BF7411002010B9044B187870479A
:1024C800012806BF014BD8790020704774110020FD
:1024D800F7B58A8800238DF80600ADF8042008684F
:1024E8000B4A8DF807300146147802F5A872019D51
:1024F800D8B2844201D8082007E052F8087F013397
:102508005668AE4208BF8F42F2D103B0F0BD00BF9B
:1025180088110020084B0146002230B55C7803F290
:102528000113D0B2844201D8082004E013F8015FF7
:1025380001328D42F5D130BD88110020F8B52D4CFF
:1025480063782218013B92F80251DBB28342637030
:1025580030D01A010101961C8F1C2644274406F12D
:10256800100C56F804EB664547F804EBF9D18232B3
:1025780082312244214402F1100652F8047BB2420F
:1025880041F8047BF9D1E118221891F8026182F828
:10259800026106267343704303F5857300F5857061
:1025A800E618E35827182350B388BB8091F83A31CE
:1025B80082F83A312846FFF7ADFF082818D123786A
:1025C800013BDBB29D42237012D02B3305F12B0265
:1025D80004EBC30304EBC20293E8030082E80300A0
:1025E8002078FFF797FF08281CBF241884F80251A9
:1025F800F8BD00BF88110020F0B5254D89B095F8C9
:10260800984105F299116846224606F05FFE214678
:10261800684609F009F80446B8B300EB400102A87F
:10262800C9B2FEF70FF9631E95F8A1610124DBB268
:1026380095F8981105E0721CB2FBF1F001FB10222D
:10264800D6B206F120020DEB020010F8202C002A69
:10265800F1D103EB430100F8204C06EB4602203190
:102668002A44694411F8187C82F8A27111F8177C81
:1026780011F8161C82F8A37182F8A411013BAA195B
:10268800DBB282F89941FF2BD2D109B0F0BD00BF6F
:102698008811002070B5064688B00C46002A4ED036
:1026A800294A92F8A131D01890F8991119B9FF2147
:1026B8002820FDF787FF03EB43010133114491F80C
:1026C800A251E57091F8A35191F8A4112571617197
:1026D800002180F8991192F89811B3FBF1F001FBF1
:1026E800103382F8A13192F8C23123B9174902F5A3
:1026F800DD7009F05CFA65790D220021684605F065
:102708003F0545F0400565710AF0EBFEE37804AA41
:1027180069468DF80F30304623798DF80D508DF8C5
:102728000E3004230AF047FE9DF81F3023709DF8F1
:102738001E3063709DF81D30A37008B070BD032172
:102748006018FEF77FF8D6E7881100200126000000
:10275800044B5A78824286BF1B1893F84A0100201E
:10276800704700BF88110020044B5A78824286BF08
:102778001B1893F842010020704700BF8811002001
:10278800064B00224FF461711A8083F8C32183F845
:10279800C421A3F8C61183F8C2217047881100200C
:1027A8002DE9F0478246894617469846FFF790FE7E
:1027B80008280546064603D0FFF7ACFE082860D176
:1027C800324C6378072B5ED8082D15D12678731CF8
:1027D800072E237003D96C212820FDF7F3FE06F19C
:1027E8002B02D9F8000004EBC20344F83200B9F810
:1027F800042083F806A09A80657807F110026B1C04
:10280800290163704B1C234412F8010DBA4203F8E6
:10281800010FF9D1813108F11003214413F8012D7A
:10282800984501F8012FF9D125441021404608F0B8
:1028380081FF102185F84201384608F07BFF85F8B2
:1028480002616678002385F84A013146104885F808
:102858003A3108F0E9FE0128054607D831460D4807
:1028680008F0E2FE002818BF0135EDB284F898514F
:102878000025284684F8A151FFF7BEFE2846BDE88A
:10288800F0871220FBE70720F9E700BF8811002036
:10289800CA120020D2120020064B10B55878013811
:1028A80040B2002800DA10BDC4B22046FFF746FE49
:1028B800601EF5E788110020014B83F8C3017047BB
:1028C80088110020014B93F8C3017047881100203C
:1028D800431E4AF2B7129BB293429DBF024BA3F824
:1028E800C60101200020704788110020014BB3F871
:1028F800C6017047881100200A4B30B55C788442C5
:102908000ED9184490F802012B3003EBC004A579C6
:102918000D7053F8300010600120A388938030BDFB
:102928000020FCE7881100200246074810B590F8FF
:10293800C34124B1417821B1023003F00FF9204698
:1029480010BD0C46FBE700BF881100202DE9F74FAA
:102958002F4C9A46804689466378834256D9231875
:1029680093F8425185F00105F9B193F84A31E3B97A
:1029780045F002070135BAF1000F18D1FA070AD558
:10298800062104EB0810524601FB0841823001F58C
:102998008571FFF77FFEBB0734D504EB081052465C
:1029A80049460230FFF776FE2CE02F46E3E794F81D
:1029B800A1614FF0010B002DE0D0A31993F89911F4
:1029C800019399B90092DAB100F04CFB019B06EB38
:1029D8004601009A4FEA102C83F899B1214481F8F6
:1029E800A201000C81F8A3C181F8A401013694F872
:1029F8009831013DB6FBF3F103FB1166F6B2DAE755
:102A080047F00407384603B0BDE8F08F0027F9E720
:102A180088110020074B5A78824209D91A1892F86F
:102A280042212AB9062202FB003000F58570704762
:102A38000020704788110020064B5A78824281BFD7
:102A48001B1893F83A01B0FA80F0400998BF0020AB
:102A5800704700BF88110020F8B50E4607460621CA
:102A68001546304608F066FE044670B10C4B00224D
:102A7800587803F23913D1B2884202D8012420468B
:102A8800F8BD013203F8015FF5E73146384608F032
:102A9800E7FD0828F3D0024B034483F83A51EDE7E9
:102AA8008811002030B5002442F210758487B0F8F0
:102AB80040404C43B4FBF2F4A0F84040541E05FBE0
:102AC8000343B3FBF2F3C387084BB3FBF2F30133C1
:102AD800A0F84430038F05FB0344036B5943B4FB50
:102AE800F2F4B1FBF2F14463016330BD005A6202B3
:102AF800034B80F870101B680BB1008818477047AB
:102B0800DC0000200B2808B504D940F2C7112920A1
:102B1800FDF758FD014B33F8100008BDE20703002C
:102B28000346084671B13F2B0BD8074AD35C03F024
:102B38007F02914205D08CBF0120002000EAD3100B
:102B480070470120704700BFFA0703002DE9F743DB
:102B58000E4669461546994608F096FD044620B982
:102B6800019F35B9012387F88B30012003B0BDE8F8
:102B7800F083D7F810802946404607F0B8FB014695
:102B88000028F3D0134B5B88AB4221D3404607F0B3
:102B9800EAFC97F88B304946A0F80140002B2A46FA
:102BA80018BF022600F8036B06F090FB2946404642
:102BB80007F0D8FB18B98C212B20FDF703FD6846D8
:102BC80007F0E8FF019BA3F8A24187F88B40CCE708
:102BD8002046CBE75413002083230B70014B1B784E
:102BE800CB7070476C1300202DE9F84FD0F80480A3
:102BF8000D46D8F81460304607F0A7FC044620B903
:102C080040F245111020FDF7DDFC0146304607F083
:102C1800AAFCB4F800B082461FFA8BF9B9F1000F8C
:102C280002D140F24911EDE71E4BC71C1B688BB956
:102C3800B8F80030A5F806B0AB8000236B729AF89C
:102C4800003003F00303012B0FD0022B0DD040F20C
:102C58006311D7E74A463946B8F800009847044652
:102C68000028E5D12046BDE8F88F30462B7207F0E2
:102C780080FC044610B94FF4B671C3E7B9F1FB0FF5
:102C880002D940F27B11BDE7286810B94FF4BE7134
:102C9800B8E74A46394606F019FB304607F0C4FB48
:102CA800E0E700BFE000002038B5134C10220021F7
:102CB800201D0AF016FC0125257404F108031022D2
:102CC800002104F11400C4E901330AF00AFC84F875
:102CD800205004F11803094AC4E90533002363624C
:102CE800A36284F82C30C4F82D30C4F8313084F84D
:102CF80035301360A36338BD6C130020E00000205A
:102D080010B5084C2378FF2B04D04FF4C371102062
:102D1800FDF758FC06F046FA2070BDE81040FFF7B2
:102D2800C3BF00BF7D00002010B5034C207806F01B
:102D380053FAFF23237010BD7D000020014B187843
:102D480006F05ABA7D000020014B024A1A6070470B
:102D5800E4000020F12B00002DE9F341DFF8708139
:102D6800054608F11407D8F80830D8F81840227A30
:102D7800012A22D1D8F8382052B1137A1BB9B921C7
:102D88001020FDF71FFCD8F83840C4B9002083E0B4
:102D98001A7A012AFAD01C464B4AEFF3108172B610
:102DA80050680068506001B962B6A34208BFC8F80D
:102DB8003840237A1BB9E821E2E73A46EDE7267A5C
:102DC800F6B205232372731E0B2B6ED8DFE803F0CF
:102DD8006A062235676D3E6D6D6D6D5B636813B96C
:102DE80040F2F711CCE72046294698470420EFF334
:102DF800108272B6237A052BD9B24FF0000359D14D
:102E08002372D8F83810A14201D1C8F83830B2BBC3
:102E180062B634E0636813B94FF40071B0E729462D
:102E2800204698470346ADF80400C0B2C3F3072311
:102E3800012B2FD0022BDAD11AE0636813B94FF4B3
:102E480002719DE7204698470020D0E763680BB9D8
:102E5800FA2195E70B222A7001221988AA706A7153
:102E680000221869A5F80310AA7107F0DDFA0420FA
:102E7800D8F83830A34202D10023C8F838300028E7
:102E88003FF471AF08E0114B294620461B6898476C
:102E9800034668B9267298B102B0BDE8F08140F2E5
:102EA8003F216DE740F242216AE740F2452167E79A
:102EB8000220DDE711B940F2662161E71846A6E76E
:102EC800002B7FF450AF61E770130020E40000206E
:102ED8006C130020134610B5027A22B140F2ED219E
:102EE8001020FDF76FFB0A4601460248BDE8104076
:102EF80008F03ABE70130020044890F82C301BB933
:102F08000349243008F04DBE704700BF6C13002001
:102F180063BB00000346064890F83C203AB190F89D
:102F2800352022B9034900F82D3B08F03ABE704716
:102F38006C130020E12B00000A4610B5037A23B178
:102F480040F2F5211020FDF73DFB0146072302481A
:102F5800BDE8104008F008BE801300201346027A2E
:102F68000AB1037270470A460146014808F0FCBDE1
:102F7800701300201B234FF01B128384038482618B
:102F88008382C260038539B94FF4A473034AC384AA
:102F98004384C261C3820261704700BF480148018F
:102FA80003460846F0B4B3F85420B3F84840B3F8E1
:102FB80056109442B3F84460DF8F28BF1446B3F824
:102FC8004C20B3F842508A42DC8728BF0A46B3F83F
:102FD80046109142A3F8422038BF1146A64238BF96
:102FE8002646A742A3F84610A3F844601FD1AA1AA0
:102FF80018BF0122B3F84A50B3F85040B3F85270E2
:10300800A5429E8FB3F8401028BF2546B3F84E401E
:10301800BC429D8728BF3C46AE42A3F8404002D13F
:10302800A14200D12AB10449F0BC08F0C3BD012275
:10303800E0E7F0BC704700BFC3BB00000B8BA2F8F1
:1030480009001046A2F80B304B8BA2F80D308B8B81
:10305800A2F80F30CB8B0249A2F8113008F0A4BDBA
:1030680013BC0000094AD2E90003434083EAB011C7
:1030780081EA43214FEAF34311605360044B5843FC
:103088004FEAF06000EB8000704700BFAC130020EF
:10309800BB79379E094AD2E90003434083EAB0115D
:1030A80081EA43214FEAF34311605360044B5843CC
:1030B8004FEAF06000EB8000704700BF80000020FE
:1030C800BB79379E10B50A4C08210948FDF7BAFBB1
:1030D800D4E900321343F7D0064CFFF7DBFF20603A
:1030E800FFF7D8FF236860601843F6D010BD00BF13
:1030F80080000020AC130020174B184A9A60184A29
:103108005A60184A1A60184A9A62184ADA62184AC3
:10311800DA60184A9A61184A1A63184A1A62184AF1
:10312800DA64184A9A64184A5A62184B184A9A601C
:10313800184A5A62184ADA62184A1A61184A5A61D1
:10314800184A9A61184A1A63184A9A64184ADA643B
:10315800184A9A63704700BFE8000020C9BE000003
:10316800F9BE000065BF0000C9C000001DC1000015
:10317800B534000033C100000D370000A135000050
:1031880001C200001DC20000ED350000E80100206A
:10319800E5BE0000D3C1000055C10000F9C0000021
:1031A80079C1000041350000A3C200004BC20000F5
:1031B8003DC20000B9C10000044B054A5A65054BE1
:1031C800054A1A65054A5A65704700BFE80000209D
:1031D8000FC00000E8010020F5BF000075C0000026
:1031E800054B064A9A65064A1A66064B064A9A65C8
:1031F800064ADA65704700BFE80000206DB300009A
:103208000FB40000E8010020B9B20000CFB50000FB
:10321800023A08B5232A00F29A80DFE802F01298F1
:103228001E9B9B2E9830989B3541459898499B9BAF
:103238005D5D747498989898989898989898987BE1
:10324800889102784368012A02D193F8103101E08D
:1032580093F8193102204B700EE04268D2F8BE3163
:10326800C1F80130D2F8C231C1F8053043680D20E9
:10327800D3F80431C1F8093008BD4368E5E700F028
:1032880007FA0028F8D148E0102306204B7059238C
:103298008B700023CB7073230B7130234B71EBE7DA
:1032A800436893F80A31D5E7084600F0DFF9E8E704
:1032B8000278436852B993F810213AB193F80D2176
:1032C8004A7093F80C3103208B70D5E793F80B21E3
:1032D8004A7093F80A31F6E743680920B3F8542096
:1032E8004A70120A8A70B3F81221CA70120A0A7157
:1032F800B3F850204A71120A8A71B3F81031CB71B1
:103308001B0A0B72B8E7436893F826214A7093F8B2
:103318002731D8E7104B1B6823B940F21B515120C5
:10332800FDF750F90246232098470420A4E70A4BEA
:103338001B68002BF1D002462420984705209BE704
:10334800054B1B68002BE8D002462520F5E740F224
:103358001651E4E701208FE7E80200203F289ABFD2
:10336800024B53F820000020704700BFE8000020FF
:103378003F289ABF024B53F820000020704700BF37
:10338800E8010020F7B5456804464FF6FF772E6937
:103398000DF102010DF101023046ADF8027006F0A0
:1033A800FCFF01A9304607F01AF840B1019807F070
:1033B800DEF8616800220272FFF7BEFDE8E7044903
:1033C80005F19E0003B0BDE8F04008F0EDBB00BF7A
:1033D8005DBE0000F0B5044685B00D46FF2600F836
:1033E800A56C10F8A63CF3B1184F3B781BB14821E7
:1033F8001F20FDF7E7F80C21381DFDF723FA3E7072
:10340800002304F8A53C07232A4602F8033BD4F816
:103418000930C5F80330D4F80D305360D4F81130B2
:10342800936005B0F0BD01A80C21FDF70BFAA4F5D7
:103438001B73039AC3F8042101AB03CB44F8AE0C09
:1034480044F8AA1C04F8A66CDAE700BFB4130020FD
:1034580010B5054C23782BB90C21201DFDF7F2F986
:10346800FF23237010BD00BFB4130020024690F85C
:10347800C631BBB990F8C73103F0FF010BB100208A
:103488007047094B18780028F9D01970D9680433A7
:10349800C2F8041103CBC2F8BE01C2F8C211FF235F
:1034A80082F8C63101207047B4130020426838B54D
:1034B80092F8853004460D463BB1132B05D0113BDD
:1034C8000B2B8CBF0120082038BD92F8C43013B9EB
:1034D800204608F07CFC6268D5F80B30C2F8B6319B
:1034E800D5F80F30C2F8BA316368D5F81320C3F89D
:1034F80000211A88A3F87522D5F80120C3F877228D
:10350800D5F80520C3F87B226368B5F80920A3F82D
:103518007F226368002583F8C6516068054900F575
:103528001B7008F03EFB63681522284683F8852047
:10353800CAE700BFDD33000038B54368044693F896
:1035480085201C2A04D040F2D9111F20FDF73AF833
:10355800002293F8C4101D8803F5C97083F8C320AE
:1035680069B10B4983F8C420A3F89C5183F89B21C7
:1035780008F017FB6368002283F8852038BD012214
:1035880083F89B11A3F89C51024983F89E21EFE729
:10359800B5C00000A7C0000038B54568AB6F13F090
:1035A800010419D1D1F801200C4BD1F805101340B2
:1035B8000B4AC5F8D430C3F307630A4043F0080345
:1035C800C5F8D82085F8D73008F001FCAB6F204645
:1035D80043F00103AB6738BD0120FCE72FC904F7AE
:1035E8006FDB0080406810B590F88430042B28D138
:1035F800D1F801304A1CD1F80540C0F8D430C3F3E3
:103608000763C0F8D84043F0080380F8D730002398
:1036180080F8BE3080F8843090F8743103F0FF04ED
:103628000BB1002010BD038800F5B67044724381C9
:10363800D1F801300449C3605368036108F0B1FA56
:10364800EFE70120EEE700BF97C10000406890F85F
:10365800743143B9038800F5B670034943811A23CE
:10366800437208F09EBA704797C1000010B504462F
:10367800FEF748FE044A054B024009200B40C4F8F7
:103688000120C4F8053010BD2FC904F76FDB008096
:1036980037B50C464568FEF735FE0A4B0A4A034023
:1036A8000A4095F8D41000930B4001928DF8003031
:1036B8006B4603CBC4F801000920C4F8051003B019
:1036C80030BD00BF2FC904F76FDB008038B5DB04BD
:1036D800154604D5837C13B10023036338BD046BFE
:1036E8000134046308F0BAFD436B9C42F6D300230F
:1036F800034903632846BDE8384008F05BBA00BFB9
:10370800F3C1000038B54468054694F88430012BAD
:1037180002D0A36F98073AD494F8C5309A0713D407
:103728004A78D80784F8CF204A88A4F8D0208A8815
:10373800A4F8D22043F0020284F8C5200FD5154919
:1037480004F1C60008F036FA94F8C530D90711D448
:10375800A36F9A0708D557214020FCF733FF94F848
:103768002A31002BEBD1EFE743F002032846A36789
:1037780008F02DFB94F88430012B4FF0000301D0A2
:10378800002038BD84F8843084F8BE30F8E7012082
:10379800F7E700BF85C2000070B54568044602F02F
:1037A80099F9054B014685F883001B681BB1204633
:1037B800BDE87040184770BDF0020020024B1B683E
:1037C80003B11847704700BFEC020020F0B51F4D49
:1037D80000242B7814709BB1013B6D68DBB21E1B73
:1037E800012E0FDC05EBC40655F8347076688E425E
:1037F80008BF874227D0B84271EB060612D2147070
:103808000020F0BD1E197710C6F3470655F837C0DB
:1038180005EBC70E8445DEF804708F412CBF334694
:103828003446DCE705EBC30455F8335064688C4232
:1038380008BF854206D0A84271EB040428BF0133B3
:103848001370DDE71C4601201470DAE7D41300205A
:1038580010F0070208B503D063214820FCF7B2FE38
:1038680018B1034B197258601A70C80008BD00BF20
:10387800D4130020014B00221A707047D413002083
:103888000A460648822302F8033B0368C1F803305E
:103898004368536083689360704700BFDD1300205E
:1038A80016220021014809F01CBE00BFDD130020CC
:1038B80082B002AB03E903000D48437DB3B1530660
:1038C80014D50A880C30B1F87E3020F80C2CD1F8C9
:1038D800402220F80A3C40F8082CD1F84422054937
:1038E80040F8042C022202B0FFF738BB02B0704740
:1038F800DD13002089380000094B53F8203003F508
:10390800224370B5B13316464FF47A720C46B3FBB6
:10391800F2F5344403F034F82C44204470BD00BF61
:10392800FC0803002DE9F04F8BB0044698460F467B
:10393800039290F8699007F07AFC824694F8730035
:10394800FFF7E0F8824408F0E0FC94F8853000F1D5
:1039580048061FFA8AFA0293039B002B44D194F875
:10396800DC31032B40D1029B0D2B29D1B4F85C32FA
:10397800BB4225D1D4F8E4312046B4F8B421C4F8C8
:10398800D031A369C4F8D431B4F852321344C4F81E
:10399800D83102F051F8D4E99823A262B4F85E2233
:1039A800A361A285D4F86822226241F64B52934261
:1039B8008CBF0023012384F87230022384F8DC31A1
:1039C80094F8853094F88410252B01D025290BD143
:1039D800B4F85C32FB1A1A0406D4A1F12503204678
:1039E8005942594101F0EEFBB4F8505204F50873FE
:1039F800B4F87EE07D1B0493A7EB0E0E94F869B033
:103A08002DB20FFA8EFE002DBBBFD4E98E2375466A
:103A18004246C4E9922394F8DC31B8BF0122032B53
:103A280000F25581DFE813F00400FA0053001B018F
:103A38000121002007F0DEFE8146A06A5146484475
:103A480003F016FF5146C4F8E001A06903F010FF27
:103A580007A9C4F8E40108A802F082FE079B0093B6
:103A6800DDE90823D4E9920109F09BFA8346204650
:103A780008F063FCA26AD4F8543294F86900D518A7
:103A880002F086FFD4F8E01100F52240203D4FF403
:103A98007A73B13032466D1A3031AD1BB0FBF3F09A
:103AA8004D44A38DA5EB0B0503EB41012D1A94F8AA
:103AB8006900FFF721FFD4F85432C4F8E801EB1A83
:103AC800CC2B59D840F2E4413020FCF77BFDA36AA7
:103AD8005146D4F8D401184403F0CAFE5146C4F83C
:103AE800E001A06903F0C4FEC4F8E401204608F030
:103AF80024FCA36AD4F8D4511D44B4F8B431002B83
:103B080040F08880B8F1000F00F0848094F86900D4
:103B180002F03EFFD4F8E011D4F8403200F522401C
:103B28006D1A94F86920B130203D1D44824B53F83A
:103B380022204FF47A7302F2E732D4E98E9AB2FB6C
:103B4800F3F2A5EB0905B0FBF3F01544AD1B2D1AF4
:103B5800D4F8D821D4F8D03194F8690002FB0313C3
:103B6800A18D3246303301EB4301FFF7C5FE012337
:103B7800C4F8E80184F8DC31A369D4F8E421A93B4E
:103B88009B1A9E1B0023864284F82032D4E9923285
:103B980028BF064604F130005B19C4F8B06142F151
:103BA8000002C4E98C3208F07CF804233044A4F8FD
:103BB800507284F82932C4F82402D4E98C23C4E969
:103BC8009223B4F8A031DB1B1BB2002BD4BF002218
:103BD8000122520084F82822029A0D2A7AD0B8F1DC
:103BE800000F7AD194F8DC31002B00F09280A169A3
:103BF80004F50870D4F8E431C91A07F0A7FD80B2BB
:103C0800002800F08680149B03B1188001200BB0B7
:103C1800BDE8F08FD4F8E0116D1A99E7D4F8E40103
:103C2800A369B4F8B4C11B1AD4F8D811F444D4F871
:103C3800D0215D43D4F8E031ACEB010C30330CF10A
:103C4800FF3C02FB0133A18D324600FB0C3301EB34
:103C580043015846FFF750FEC4F8E8018CE7D4F852
:103C6800E4A1A369B4F8B4C1A3EB0A035D4332B37A
:103C7800BCF1000F23D1D4E99023D4E98E019042FE
:103C880071EB030302D340F22B511DE72A4B203A74
:103C980053F829304FF47A79D4E98E01CDE904013B
:103CA80003F2E73103F522430498B133121AB1FB4A
:103CB800F9F1B3FBF9F30A44D21A921B15440CEB41
:103CC8000E0132460AFB01F130314900C1E740F2EA
:103CD8004351F9E6B8F1000F1BD0B4F8C80110B38E
:103CE800B4F8CA1194F8CC214D1CA4F8CA1101FBF0
:103CF800022290420DDD002B0BDD0023A4F8CA51EF
:103D080084F82832FFF7AEF900F00700013084F894
:103D1800CC0104F5087104F5FC7004F0E9FD20B944
:103D280040F28D51D0E60146DCE7039B83F00103A6
:103D380084F8F43100206AE7FC0803002DE9F34118
:103D4800044618B9DD213020FCF73CFC072900F2B5
:103D5800B880DFE801F00484454540B62FB409F087
:103D6800D3F9C4E94601204600F06EFFD4F80C01EF
:103D7800A43809F010F9204608F07CFE054608BB77
:103D88000146204608F0B3FD00F1AE06D4F80C0158
:103D9800B04209D2301A0321192838BF192009F076
:103DA80085F968B109F0F9F8C4F80C61204608F003
:103DB80071FE4DB1204602B0BDE8F04108F06BBE7F
:103DC8000125F1E70025F1E7D4E94623C4E94023BA
:103DD80002B0BDE8F08102B0BDE8F04102F0CCBC11
:103DE80008F090FD042307460E4684F8113109F0C7
:103DF800D0F80722A7FB023502FB0655D4F80421A8
:103E08000192D4F8002113EB0208019BD4F8E820B2
:103E180045EB030532B157EA060203D0404571EB82
:103E2800050216D2022284F81021D4F82021D4F8F1
:103E38002431121A63EB010C94F830E1BEF1000F43
:103E480009D1012A7CF1000E0DDA204600F004FFAA
:103E580005E00122E7E7012A7CF1000CF5DB0023ED
:103E680084F82831B4E7404571EB050E0FD23E4384
:103E78000DD0B8EB000365EB01019A427CEB010021
:103E880005DB012B71F10000A4BF1A468C460E49D0
:103E9800012304F1C000914284F829314FF0000356
:103EA80084F8083173EB0C03B8BF0A4604F5847133
:103EB80004F096FD00288BD140F2CA6143E7FB214C
:103EC80041E7FF213FE700BF0040420F2DE9F843DB
:103ED80004460E46154690F8283103F0FF07002BDC
:103EE80040F0948000F1C00839467822404609F035
:103EF800F8FA22464649404609F078F9C4F8E860DD
:103F0800FF2384F8283166B1FFF7C4F800F00700F2
:103F180032464049013086F8CC0106F5FC7009F0BC
:103F280065F940F202434FF00009A4F8103184F813
:103F3800089103F0F3FC00F14906204608F09AFDC9
:103F48000146B6B2C0B307F072F900F5CD61284654
:103F580089B203F08DFC2844AE3DC4F80C0109F089
:103F680018F83018A4F81E9041F10001C4E9460180
:103F7800012084F8EC0008F028FE2D1AC4F8F0504F
:103F88004FF0FF356FF000414046D4E94623C4E9BD
:103F98004851002504F58471C4E93E23C4E940234F
:103FA80084F8295142F2107204F01AFD38BB40F22D
:103FB800C9113020FCF706FB2046DFF85C9008F0BA
:103FC80096FCAE30C4F80C01B9F8000048B1E08B9B
:103FD80038B1FFF75FF8B9F80030B0FBF3F202FB35
:103FE8001300064408F0D5FF361841F10001C4E972
:103FF8004661002DC4D0AD1941F10001C4E729463E
:10400800204608F04AFD3846BDE8F8830C27FAE751
:10401800453D00005DC3000000140020F0B50023FA
:1040280085B0CDE9003301238DF806306846FCF7EA
:10403800A7FE70B10123114EB3700023CDE90233FE
:1040480002A8FCF79DFE044638B10023B37005B002
:10405800F0BD009808F077FAE8E7029D95F8DC31A2
:10406800002BEDD005F5FC77384604F0A1FC384666
:1040780009F0E2F885F8DC41E2E700BF001400200F
:10408800044B0022DA709A7042F210721A80FFF71D
:10409800C5BF00BF00140020014BD870704700BF97
:1040A8000014002008B502F059F8044B5A688242FF
:1040B8002ABF9878002080F0010008BD0014002075
:1040C800F7B5044606297AD8DFE801F00427152554
:1040D8002B3074003B4B9B7803F0FF025BB90092D6
:1040E8000123B0F8A411FFF71DFC38B140F2E661D6
:1040F8003020FCF767FA042384F8DC3102F01CFA5C
:1041080004F0E2FB0023B4F87E20A4F85232A4F8AD
:10411800F22184F8F53103B0F0BD032380F8DC31D7
:10412800F9E708F0BFFEC4E99001F4E790F86900E8
:1041380008F0F3F87730D4F8E4319528A569214FD1
:104148008CBF0020C0F19600C218954288BFED1AB6
:10415800FB7894BF00252D1A1BB9236B9D4228BFFD
:104168001D46D4F8B06104F1300007F09AFD06440A
:10417800022008F071FF0221AD1B25EAE575854292
:1041880028BF0546284608F091FF10B12E4408F0D4
:1041980004FF01234FF480723146204607F0DEFD0C
:1041A800D4F8B0317860A069184403B0BDE8F04095
:1041B80008F0F1BE03B0BDE8F04008F0BEB840F228
:1041C800B47195E700140020014B1880704700BFB8
:1041D800001400200346074A1068D3F84920C0F8A5
:1041E8000320B3F84D20A0F8072093F8481007F0F3
:1041F800FBBB00BF0814002070B504460E461346EA
:10420800807D6588324615F0040118BF04F1570116
:10421800FEF79CFB4107054621D4C2070BD50123B5
:10422800A07D84F84830FEF7F5FB0368C4F84930F0
:104238008388A4F84D30AB0701D4012070BD094B29
:1042480001211868D4F8573084F85610C0F809309E
:10425800B4F85B30A0F80D3007F0CFFBEDE7002095
:10426800ECE700BF0814002038B5C38C04460F4D96
:104278000133C3F30E03C3842B7C2BB102F03AFA4B
:1042880001F0C4FC00232B7400232B7194F86930CF
:104298002BB101212046BDE8384008F022BA637CE2
:1042A80013B1E28C9A42F4D20021F3E708140020FB
:1042B80010B5074C2379012B05D1237C1BB102F0E3
:1042C80019FA01F0A3FCA069BDE81040FFF7CCBFC4
:1042D8000814002070B5254C2379012B04D040F632
:1042E80071412D20FCF76EF998B90125237C1BB18B
:1042F80002F000FA01F08AFC002D36D0A06908F01F
:104308003DF968B302F0C2F8E369BDE870409B6804
:1043180018472168A26911F8095B02F1490392F86C
:104328004820E80907F062F90028DED0002120685B
:1043380007F088FB0028D8D02379A069012B02D088
:1043480040F64B41CDE7237905F00F01E26903F10F
:1043580080435269013B52F8233098470546C5E728
:10436800A069BDE87040FFF77FBF70BD081400204A
:104378000346074A906903B909B9FFF775BF13796E
:10438800D26903F180431269023B52F8233018477F
:104398000814002003292DE9F043054685B0174687
:1043A80007D14388980723D40024204605B0BDE8E8
:1043B800F083428890F86830D107DBB2F4D5002B3F
:1043C800F2D14FF00108DFF8D49099F81060C6B127
:1043D80007F050F90828387016D002AA0DF1070125
:1043E800FEF78AFA38B940F6E6612D20FCF7EAF8BC
:1043F8004FF00208E7E702A99DF8070007F07BFFE6
:1044080006463B78082B08D1D9F8001011F8030BA1
:10441800C0F3801007F06FFF0646D9F8001005F1C9
:10442800500395F84F2011F8030BC0F3801007F0E4
:10443800DDF8D9F80010044611F8030BC0F380101A
:1044480007F00EF98146FEF7F7FA40B1B9F1080F07
:104458001BD04846FEF77CF980F00103D8B23A78C1
:10446800082A14D01CB9AC7DA21A544254416A8857
:1044780053079AD4002897D176B9EC7C444518BFE5
:10448800002C0CBF012400248FE70020E7E780F010
:1044980001022240D4B2EAE7344686E70814002035
:1044A8002DE9F04F85B00823052104460DF10702D8
:1044B8008DF80730FFF76EFF064620B90026304614
:1044C80005B0BDE8F08F734F396807F112037A7CA5
:1044D80011F8030BC0F3801007F088F88046002815
:1044E800ECD13B6840F2E249A169184691F88C206A
:1044F80010F8035B02EA55121D4602F0010281F82A
:104508008C20D3F80320C1F803208288A1F8072063
:1045180015F81F1BA269C1F38011917002A9D3F885
:104528001F00029028790871D3F80F00D061587DD8
:104538001D7D000440EA0520DD7C28435062B3F865
:10454800190082F8728009FB00F090619D7DC5EB2F
:10455800451005EB800505EB85056D009585B3F8DD
:10456800170009FB00F09062B3F81B001084B3F841
:104578001D00508493F8243003F01F005B0982F873
:10458800980082F87330A56994F912A005F18C009F
:1045980007F086F940F20113A5F868304FF0FF0BD9
:1045A80085F86AB0414605F13000FEF7E3FC514654
:1045B8002846FEF79DFAA36984F8738004F17E010A
:1045C8001A8884F891B0A4F874204FF6FF729DF809
:1045D8000700A4F892209A69B2FBF9F2A4F88A209D
:1045E8001A8CA4F88C205A8CA4F88E2093F8732087
:1045F80084F89020627D5AB394F84820012A27D184
:1046080094F84E2002F0C002402A21D1D4F8492063
:10461800C4F87E20B4F84D208A8008289A7803F1DF
:10462800030504F1840184F8772004F17802D3F8B3
:10463800033027D0C4F88430AB888B8004F177012D
:10464800FEF75AF940B940F6D1312D20FBF7BAFFF1
:104658000022C4F87E20DFE794F8773043F00203A5
:1046680084F8773004F16A000B4907F09AFA0B4B8B
:104678000022A0691B683A71002B3FF420AF214645
:1046880098471CE7A367AB8893800023C4F884305D
:104698008B80E7E70814002013C80000F802002008
:1046A800032937B5044604D0052957D0012003B0A3
:1046B80030BD08230DF107028DF80730FFF76AFEB9
:1046C8000028F3D0237C2A4D03B39DF8070094F803
:1046D800B630DBB92378082804F1B90284F8B7307A
:1046E8002DD004F1B801FEF707F920B940F65C7146
:1046F8002D20FBF767FF94F8B83043F0020384F8E5
:10470800B8301C4904F1AE0007F04BFA2B680422BC
:1047180020461A7006225A70FFF75CFD616B94F808
:104728003820286807F07FF9032328682B7101F0E7
:1047380065FF0021286808F0BFFB0020B7E728685C
:10474800034613F8031BC1F3801184F8B810D0F89E
:104758000310C4F8B9109B889380D2E7064B1B68F6
:10476800002BEAD0984780F00100C0B29FE700BF55
:1047780008140020FBC70000F4020020F8B5044626
:104788000F4619B300F12005284608F0FBF9A0B937
:1047980063881A072ED5284608F009FA06462846DF
:1047A80008F0F0F9301AC0B208F00FFA494A9368D5
:1047B80003442846936008F0C4F9284608F0C6F96F
:1047C80001F0B0FD2179252001F010FD414E0023B4
:1047D80094F856203068037043706388103B0D2BA3
:1047E80068D8DFE803F063675F0C6744676767674B
:1047F800676767442046BDE8F840FFF735BD0623E4
:104808004370202303702046FFF7E4FC638823F0FD
:1048180008039BB2152B05D094F83020E16A306864
:1048280007F0F2F8306801F0E9FE0021306808F07E
:1048380043FB022321790020337101F09FFD0546D7
:1048480007B9F06063881B0704D508F0BBF9054475
:10485800C4F8F4506388103B0D2B36D8DFE803F01A
:1048680038352F2F352F353535353535352F0C2340
:1048780021214370034603F8091B52B1D4F857208D
:104888000121C0F80920B4F85B209A8007F0B5F838
:10489800B9E7226DC0F80920B4F854209A8094F83A
:1048A8004F10F3E7062303704370ACE7022303704D
:1048B8000623F9E740F24D612D20FBF783FE2179AD
:1048C8000120BDE8F84001F02FBF40F6E441F3E7CE
:1048D800F8BD00BF0814002038B543880446102BE3
:1048E80004D10121BDE83840FFF748BF0B4D2B7CB0
:1048F80023B101F065F9402001F0F0FE286801F0CD
:104908007DFE608810F0040002D1217901F00CFFCF
:10491800002001F0C1FE01232B7138BD08140020CE
:10492800024B01219869FFF729BF00BF0814002036
:1049380010B5124C237C1BB101F0DCFE01F066F9C6
:10494800A06907F01BFE38B12379012B09D040F686
:1049580075312D20FBF736FEA069BDE81040FFF742
:1049680083BC2379E26903F18043A069D268013BE3
:10497800BDE8104052F82330184700BF0814002043
:10498800074810B5037903F0FF0433B91422214610
:10499800043008F0A6FD204610BD0C24FBE700BF3C
:1049A8000814002010B50023094C2371FDF796FC6C
:1049B8002060FFF7E5FF20B14FF43F712D20FBF792
:1049C80001FEE36913B940F2FF21F7E710BD00BF0C
:1049D80008140020014B024ADA61704708140020CD
:1049E800A44C0000034B044A1A60044B044A1A60A2
:1049F800704700BFF4020020A9440000F80200201C
:104A08009BC60000F8B5057D0446AF1EFFB2002D19
:104A18003AD0012F2DD800F1500190F84F0006F040
:104A28001FFE0828064624D0FDF79EFE10BB023D57
:104A380018BF0125012F84F84850A6758CBF0027A0
:104A480001276775FDF752FF054608F0A2FA002214
:104A5800144B84F85620E5FB0301C4E91001114604
:104A68002046FFF7C9FB70B940F297412D20FBF7AC
:104A7800A9FD0826022D09D104F149010020FDF7FE
:104A880001FD60B90020F8BD0826F5E704F14901E9
:104A98000120FDF7F7FC0028F4D00125CAE700251E
:104AA800C8E700BF40420F00F0B5444E85B0044649
:104AB800327902F0FF0312B90278FF2A04D140F6D6
:104AC800CF112D20FBF77EFDB36080F869303C4B99
:104AD800684604F1200500933A4B01933A4B029340
:104AE800F3695B68039301F081FD01F0ABFB01F012
:104AF80001FE01F08BF8354801F00AFC344801F05A
:104B08006FFD284608F01DF8284608F01FF801F048
:104B180009FC2179252001F069FB94F9120001F0C4
:104B2800F1FB04F12C01A06A05F03AFE074604F1F6
:104B38003401A06A05F05BFE0546DFB1237FCBB1E7
:104B4800B4F92650ED43ED0F637D13B963885B0715
:104B580009D56FF00043D4E910129A4208BFB1F1A9
:104B6800FF3F0DD19DB930680330FDF7DDFE30748D
:104B780005B0F0BD002DE7D0657F002DE0D1E3E75B
:104B880008F007FAD4E9102390429941EAD30122A8
:104B980029462046FFF730FB50B1FDF7A7FE054632
:104BA80008F0F7F90B4BE5FB0301C4E91001DAE75C
:104BB800002DD8D040F60D2183E700BF081400204F
:104BC80039490000DD42000079430000D6BE898ED5
:104BD8005555550040420F0073B50446FFF764FF72
:104BE80000212046FFF7CAFD236E0BB101221A608F
:104BF8006388DB0721D50023114EA569CDE9003371
:104C0800FF2373746846FCF7BBF8B0B9009CA54253
:104C1800F8D005F10A036A7A04F10A01607A06F00D
:104C2800E5FC0028EED0A3787374D4F80330C6F8F6
:104C38001230044BB4F807209A8002B070BD00BF50
:104C4800081400201A140020024B9861DB691B68C5
:104C5800184700BF0814002043881B0710B50446F6
:104C68000ED583693C2208496A3042721B88438109
:104C7800FF2380F827304FF6FF73038506F091FF76
:104C8800FF2384F8693010BD13C800005FC8000016
:104C9800E148000065C80000A9460000E14B00009B
:104CA800B942000029490000944C0000984C0000CB
:104CB800A04C00000138022808B503D9C4212F20D0
:104CC800FBF780FC13290A4B05D811290CD81029A9
:104CD80007D0D221F3E71529FBD103EB4003D8888D
:104CE80001E033F8100008BD03EB40039889FAE7A8
:104CF8007A0803002D4A38B50346148950681C43C6
:104D0800402B148104D10421BDE83840FFF7D8B9FD
:104D1800802B01D10521F7E703F00304032C04D10C
:104D280040F6AC213120FBF74DFCDD0706D50C68B9
:104D3800D1602478062C0FD00B2C19D09C0706D5EF
:104D480009680978052911741DD00B2927D09B06FD
:104D580044BF0823537438BD90F88540182CEDD112
:104D680000240025C0E93845012480F88940E5E79A
:104D780090F88540122C01BF002480F88940012456
:104D880080F8C440DAE790F885101629DFD10024AE
:104D980000250121C0E93A4580F88A10D7E790F844
:104DA80085101129D3D10021F6E700BF281400206F
:104DB8000C4A0346517C89B9506833B9B0F8581089
:104DC800828F91420AD8FFF76DB913891B0707D55F
:104DD80090F88600073818BF0120704700207047F8
:104DE800012070472814002073B5044640680D461A
:104DF800836F13F0300F4AD1B1F805101A2904D97E
:104E0800B5F80730B3F5A47F06D22978204602B05A
:104E1800BDE8704007F00DB8B5F801201A2AF4D99A
:104E2800B5F80360B6F5A47FEFD33030009606F0EE
:104E38004AFF184B1A8992070DD51B7C142B0AD1EF
:104E48006268936F43F010039367204606F0BFFF34
:104E5800002002B070BD636893F884201D2AEFD04B
:104E680093F81B31002BEBD1636893F81A31002BB0
:104E7800E6D16268936F114602F59F7243F02003F2
:104E880031F8300B42F8C63CFEF7D8F8DDE70120D0
:104E9800DFE700BF2814002013B5044601A8FDF77A
:104EA8009BFA20B940F6B1013120FBF78BFB222297
:104EB8000021019808F015FB01992246064801F8DF
:104EC800034FFEF7A5F9FDF793FA10B940F6B801BC
:104ED800EAE702B010BD00BF281400202DE9F8430E
:104EE8006A4D06466C68002840F08C802B891A07AA
:104EF8002DD594F80E31FE2B04D140F2D15131203A
:104F0800FBF760FBFE2384F80E3194F885301A2BEA
:104F180006D184F8C300284606F063FF84F885604C
:104F280094F88430202B0AD194F88530A3F120021C
:104F3800062A2AD92E2B28D0212384F8843094F8E5
:104F48008630072B02BF0223AB7484F80E312B89FD
:104F5800DB071CD42B895F077CD4990740F1848038
:104F6800287C01226B680D2883F80F2179D011283D
:104F780000F08580072800F08480FEF7F9F90346E1
:104F880000286FD140F2C451B9E72E23D5E7D5F8F0
:104F98000480E96898F88530D1F80090113B99F8B9
:104FA80000700B2B09D8BB1EDBB2092B6BD840F263
:104FB800333222FA03F3D80765D509793846FDF765
:104FC800AFFD20B93946314806F033FF3AE0012FEA
:104FD80001D9162F22D198F8840006F017FF40B1A6
:104FE80098F88430202B04D0212B07D12E2388F861
:104FF80084303846FEF7B2F903461CE0162F14BF7A
:10500800022620266B7C1B0705D594F88530113BBA
:105018000B2B98BF08263046BDE8F883112F15D012
:1050280005D8072F14D00D2FE3D1194B05E0142F05
:10503800DFD1184B1B68002BC4D0EA6849461348D7
:1050480012799847002885D00646DBE7124BF4E72B
:10505800124BF2E794F88620062A04BF0122AA74AC
:105068007BE70F4B094898472B89DA06CAD594F88D
:1050780085300A2BC6D10B2384F88530C2E7094B4B
:10508800F0E7094BEEE70826BCE700BF281400202C
:105098005DCD0000FC020020A5CD0000B550000049
:1050A80079CC0000C9CC0000F9CC000070B54D786F
:1050B8000446A5F10E03DBB2152B0DD8012140F2F1
:1050C800512201FA03F6164208D14268152B92F8CC
:1050D800842027D0082B07D0002070BD0246284620
:1050E800BDE8704007F075BD212A01D02E2AF3D102
:1050F800204606F063FE636893F88520222AEBD0E9
:1051080093F8D5201A21204622F0010283F8D520F1
:10511800626892F8D53023F0080382F8D530FDF79D
:1051280019F9D9E7282AD7D1024B1B68002BD3D00D
:105138009847D1E7040300202DE9F041A0F10E04BF
:1051480000291346E4B208BF1F21172C0AD80126EC
:1051580040F25127A6403E4207D116F4600F23D1F2
:10516800082C07D00020BDE8F0810021BDE8F041FF
:1051780007F02FBD546894F88420212A08D11846D6
:10518800FDF7E8F8002384F8843084F8BE30E9E7B6
:105198002E2AE7D194F88520A2F120010629F1D919
:1051A8002E2AEFD02A21EAE7054A1468002CD9D024
:1051B8000A46014618462346BDE8F041184700BF95
:1051C80000030020F7B5012390F85E6204460D46FF
:1051D80090F85F7201908DF800304EBB90F868101F
:1051E80047BB94F8693084F8681084F86930FF2365
:1051F80084F86A30134B1B680BB12046984794F823
:105208002431012B01D03E4303D000216846FDF72D
:10521800A1F804F235112046FDF7C2FE062120460A
:10522800FEF74EFF45B1002384F8843003B0F0BD8B
:105238003146D5E73B46D6E784F8855084F82451B3
:10524800F4E700BF08030020F7B5464D0026012209
:10525800044668602A702E816E74AE74FF2180F84F
:10526800AB11B0F8A211D1B190F80E31FE2B16D1C6
:1052780090F818319BB190F88630063B93420ED9CE
:1052880090F819310221A0F8B86080F8103107F0C1
:10529800FEFC022084F8AA61FFF7FEFD03E094F803
:1052A8000E01FE28F8D1B4F8A61104F17807E38DB1
:1052B8000139B4F8A821384689B2B1FBF3F3134495
:1052C800A4F8A831B4F8B4300B44A4F8B43007F00B
:1052D80030FD20B1D4F8A8300B44C4F8A830B4F895
:1052E800A2310026012B9CBF0133A4F8A23109B1D9
:1052F80084F8AF6194F8853084F8AA610A3B012BE1
:1053080011D8B4F87E30B4F85C229B1A1B040AD476
:1053180004F25E2104F18C0006F0C2FA84F885607C
:10532800FF2384F8BF30B4F8A6212146384606F09A
:10533800FEFA20B140F6B8113120FBF743F994F892
:105348008530094A113B0B2B8CBF002301230193A5
:10535800064B0093064B95E80300FBF779FF03B073
:10536800F0BD00BF28140020FD4C00007D53000054
:10537800B94D00002DE9F84FB54F0E4680463989E2
:105388007C688D0504F1780954BFB4F8B420002373
:10539800484653BF0132A4F8B43084F8AF31A4F8BA
:1053A800B42007F0C6FC30B10B4604F596722146CE
:1053B8004846FEF78BF93B8903F4C0632BB194F898
:1053C8008830002B46D0032B4BD094F888203B899B
:1053D800012A04D1180544BF022284F88820B8F1B4
:1053E800000F40F09480590657BFB4F8C8214246D0
:1053F800013292B2A4F8C82103F00A020A2A0CD199
:105408003A7C022A09D123F0080330463B81FFF792
:1054180065FD30430823C6B23B813046FFF75EFD89
:105428007D68304395F80E31C6B2FE2B3CD1DEBB09
:1054380095F88630063B012B36D995F81831ABB173
:1054480095F8193101220221A5F8B86085F81031C4
:10545800284628E1012184F888102046FEF730FE0E
:10546800B3E70223012184F88830F6E795F885A090
:10547800AAF1100A5FFA8AFABAF10C0F40F2EA8030
:10548800AB6FDA0702D532460921E1E7980740F108
:10549800928032460C21284607F0F9FB95F8C53072
:1054A80043F0010385F8C530B4F8A83194F8AC513D
:1054B8000133A4F8A831002D00F0ED81FBF7D6FFE9
:1054C80010B10023A4F8A83194F88810012940F2FB
:1054D800178294F88630072B40F0F581B4F8B43081
:1054E800022B40F20D82B4F8B6500135ADB2B4F8D3
:1054F8007E302B44A4F8A03194F8AD31002B00F095
:1055080003820123B4F87E201344A4F8A4313B8914
:105518007D685B0657BFB5F8B4310023B5F8A621FE
:105528009B1858BF9BB2A5F8B43195F8183123B928
:1055380095F88630063B012B06D8B5F8B830B5F893
:10554800A6211344A5F8B83095F8BE1031B1B5F8C6
:10555800BA30B5F8A6211344A5F8BA3095F9C22097
:10556800002AC1BFB5F8C030B5F8A6011B18A5F8C8
:10557800C03095F8A73063B9B8F1000F40F05582F4
:10558800BB7C022B40F0078295F81031062B18BF20
:10559800162395F8A62022B92D4885F8A730FDF7DF
:1055A800F1FE284607F028FC002384F8AB31BDE85B
:1055B800F84FFCF739BF590702D53246132147E7A0
:1055C8001A0706D595F80831324685F810310721B3
:1055D8003EE713F0300F35D095F81B31002B48D13A
:1055E80095F81A31CBB195F8853005F58D7105F22E
:1055F8005E22252B24D095F88430A3F12500434260
:105608004341284606F051FBAB6F23F0200343F0DB
:105618001003AB67002385F81A31AB6FDA0628D57B
:1056280005F235112846FDF7BBFCB5F852300022CB
:105638001521A5F81031B5F85630A5F8123107E74D
:105648000123DEE75B0614D50022242100E700BF12
:1056580028140020D7F804B09BF88530113B0B2B99
:105668000ED8DFE803F01D0D0D0D232C0D0D0D0DCB
:105678000D55786890F88530222B4FD0312B4AD0C1
:1056880095F88430002B59D195F88530103B0C2BB8
:105698005CD995F8B230002B58D001221221D7E6F8
:1056A80000220B21584607F0F2FAFDE65846FDF7AE
:1056B800DDFE00283FF4F8AE00220421F2E79BF853
:1056C8005832012B08D100220521584607F0DFFA8D
:1056D80000238BF85832E7E69BF85832022BD9B2F0
:1056E8007FF4E2AE9BF8C45025B1062300228BF864
:1056F8001031EAE703210622B34806F081FB9BF844
:10570800D4302A4613F0040F0CBF0D211121DCE719
:1057180000220621C6E700221121C4E790F82431AF
:10572800022B02D100221721BDE790F82431012B6A
:10573800A6D190F82531002BF4D0A1E7092B05D18B
:1057480095F80931012285F8103140E7BAF10C0FBC
:105758007FF6AAAE7D6895F884A0BAF1000F7FF4B1
:10576800A3AE95F82B313BB101220E21284607F054
:105778008EFA85F82BA1AEE795F82A3183B195F812
:10578800C5A01AF0030B0BD14AF0010A01220C2123
:10579800284607F07CFA85F8C5A085F82AB19AE76B
:1057A80095F81A3133B395F81B311BBB95F8853042
:1057B80005F58D7105F25E22252B19D095F88430F8
:1057C800A3F1250043424341284606F06EFA002320
:1057D80085F81A3101221421284607F058FAB5F83D
:1057E8005230A5F81031B5F85630A5F812315BE6FD
:1057F8000123E9E795F82431012B3FD195F82531AC
:10580800002B3BD195F88530A3F12002062A35D923
:105818002E2B33D095F86800012806D0022804D032
:1058280040F287310620FAF7CDFE95F86910012974
:1058380001D00229F4D1022895F826210BD0012A9B
:1058480014BF0022012242B90A3B042B7FF62CAE7A
:1058580001221621FCE5022AF2E7022995F8272100
:105868000AD0012A14BF00220122002AECD000210C
:105878005548FCF76FFD17E6022AF3E7534B1B6800
:10588800002B3FF411AE50489847FE2801463FF4DC
:105898000BAE0122DCE5FBF7E3FD08B1A4F8A85143
:1058A800FBF7ECFD00283FF40FAE94F8AF3101335D
:1058B800DBB2022B84F8AF3182BF0023A4F8A831F1
:1058C80084F8AF3100E694F8B2301BB194F8843014
:1058D8000F2B15D1B4F8B6504846B4F8B430ED1AC9
:1058E800033D07F026FA68B1D4F8AC30D4F8A82004
:1058F800033B9B1A9D42A8BF1D46012D3FF7F6ADFD
:105908000125F4E52B46F5E7012D7FF6FAAD94F86D
:10591800853013B10B2B7FF4F4AD94F88430002B51
:105928007FF4EFAD94F88630002B7FF4EAAD0229BE
:105938007FF4E7AD94F8AF31002B7FF4E2AD206936
:10594800B4F82E9004F07AFD00283FF4DAAD94F80C
:105958000E31FE2B7FF4D5ADB4F8A231012B7FF6C2
:10596800D0ADB4F8A821238C9A42BFF4CAAD013D4A
:105978009B1AADB29BB2B5FBF9F59D4228BF1D46F7
:1059880005FB09F3003D03F1010318BF01259BB294
:1059980084F8AA51B6E5012B09D195F88730002B78
:1059A8007FF4F7AD00212846FEF78AFBFCE57EB1BF
:1059B800F00638D4310738D4B20638D4B30738D112
:1059C80040F62D2131202EE7281400200C0300205A
:1059D80039B1B5F8BA10B5F8BC30994201D32223D1
:1059E800D7E5002A05DDB5F8C020B5F8BC309A42E5
:1059F800F5D2B5F8B820B5F8B6309A420AD295F87B
:105A08008820B5F8B43052B1B5F8B6209A42C9D852
:105A18000823BEE595F81831002BE0D1EFE7052BF8
:105A2800C0D93E23B5E51E23B3E53D23B1E52323C5
:105A3800AFE52A23ADE500BFD0F86432826993420E
:105A480010B5044604D1D0F86812026A914215D004
:105A5800228804F5C0700F49A4F88A2140F2E24276
:105A6800B3FBF2F3A4F88C31B4F86832A4F88E31A1
:105A7800B4F86A32A4F8903106F09CF80221204666
:105A880005F00FFE002384F88530032384F888305E
:105A980010BD00BF45BF000008B5FDF78DFB024BE8
:105AA800024A1A6008BD00BFFC020020F14D000048
:105AB800074B93F900301844142804DC10F17F0FC9
:105AC80003DB40B27047142070476FF07E007047C8
:105AD8003D1400207F2307B50DF107008DF807302E
:105AE80000F016FE03469DF9070053B1094B5B7899
:105AF8005B425BB21844142806DC10F17F0F05DB0B
:105B080040B203B05DF804FB1420FAE76FF07E00A2
:105B1800F7E700BF3D140020024B00221A705A70AC
:105B2800704700BF3D140020064BD3F8000138B180
:105B3800D3F8040120B1D3F80801B0FA80F0400985
:105B4800704700BF00A00450034B00221A705A701F
:105B580010229A70704700BF40140020F8B506461E
:105B6800022014460D4600F0CDF8114B114A0127CA
:105B78005C60191D9A6002F1807203342D011F7058
:105B8800DC601D83C3E904260022243303F80A2CB1
:105B98000D2203F8092C084AC2F83015074903C931
:105BA80083E80300C2F80875C2F83835F8BD00BFAD
:105BB800401400200300000B00A004508C080300D0
:105BC80008B5022000F09EF80D4B01221A70002241
:105BD8000C4BC3F80021C3F80421C3F808210A4A72
:105BE800C3F8802003F56433C3F88C20A3F57C3315
:105BF800C3F88C21A3F500530822C3F8042508BD77
:105C08004014002000A0045003000080154A08B585
:105C18001378FBB100231449C1F8803001F56431D1
:105C2800C1F88C30A1F57C31C1F88C3108210F4BBB
:105C3800C3F80815FFF778FF88B101235370938ED6
:105C4800FF2B03D9BA213B20FAF7BCFCDBB29370D7
:105C5800002313700020BDE8084000F053B810235B
:105C68005070F4E74014002000A0045000200450B5
:105C7800094B1A7862B1094BD3F8002152B1D3F815
:105C8800040140B1D3F80801B0FA80F04009704728
:105C980058787047022070474014002000A0045034
