:020000024000BC
:10A000000878012079940500377C060065940500E6
:10A010006594050065940500659405006594050048
:10A02000000000000000000000000000DD950500B9
:10A0300065940500000000007D950500659405000D
:10A04000619705006197050061970500619705001C
:10A05000619705006197050061970500619705000C
:10A0600061970500619705006197050061970500FC
:10A0700061970500619705006197050061970500EC
:10A2500061970500CBA30600619705006197050093
:10A260006197050061970500B5A306006197050099
:10A2700061970500619705006197050061970500EA
:10A2800061970500619705006197050061970500DA
:10A2900061970500619705006197050061970500CA
:10A2A00061970500619705006197050061970500BA
:10A2B00061970500619705006197050061970500AA
:10A2C000619705006197050061970500619705009A
:10A2D000619705006197050061970500619705008A
:10A2E000619705006197050061970500619705007A
:10A2F000619705006197050061970500619705006A
:10A300006197050061970500619705006197050059
:10A310006197050061970500619705006197050049
:10A320006197050061970500619705006197050039
:10A330006197050061970500619705006197050029
:10A340006197050061970500619705006197050019
:10A350006197050061970500619705006197050009
:10A3600061970500619705006197050061970500F9
:10A3700061970500619705006197050061970500E9
:10A3800061970500619705006197050061970500D9
:10A3900061970500619705006197050061970500C9
:10A3A00061970500619705006197050061970500B9
:10A3B00061970500619705006197050061970500A9
:10A3C0006197050061970500619705006197050099
:10A3D000619705009FA3060061970500619705003E
:10A3E0006197050061970500619705006197050079
:10A3F0006197050061970500619705006197050069
:10A400006197050061970500619705006197050058
:10A410006197050061970500619705006197050048
:10A420006197050061970500619705006197050038
:10A430006197050061970500619705006197050028
:10A440006197050061970500619705006197050018
:10A450006197050061970500619705006197050008
:10A4600061970500619705006197050061970500F8
:10A4700061970500619705006197050061970500E8
:10A4800061970500619705006197050061970500D8
:10A4900061970500619705006197050061970500C8
:10A4A00061970500619705006197050061970500B8
:10A4B00061970500619705006197050061970500A8
:08A4C00061970500619705009A
:10A4C800064A074B02604FF422725B7882800822AA
:10A4D800C371002382710372704700BF29600500B1
:10A4E80078080120064A074B02604FF49C725B7A99
:10A4F80082800822C371FF2382710372704700BFF4
:10A508004D5B050078080120F8B5C41D00280546F4
:10A5180024F007040CBF0020204600F079FA071E3B
:10A5280002DA6FF00B00F8BD254EB1887088033150
:10A53800F3790330B27989B280B209F0CDF90028F5
:10A54800EFDB3C4473783178002D04F1030419449F
:10A5580024F0030400FB01F10CBF0020204600F0AA
:10A56800DBFB23180DB9002BDBDB717A184679B1B8
:10A578000333002D728923F003040CBF002020460A
:10A5880000F03CFC0028CCDB20440DB90028C8DBD7
:10A59800317A91B1737A83B1C41D002D24F0070478
:10A5A8000CBF0020204603F0D1F80028B9DB0DB11C
:10A5B8000020B8E72018B6D5B3E7002DF8D1B2E7E8
:10A5C800780801201FB572B6194BDC68ECB9BFF3E7
:10A5D8004F8F1849184BCA6802F4E0621343CB60E6
:10A5E800BFF34F8F00BFFDE7B2FBF6F22B465D1CB1
:10A5F800002AF9D1DBB203F110056D4405F80C2CE3
:10A608000A2233B901A8A047E1E7024600230A2637
:10A61800EDE7013BDBB203F110050DEB0506B0FBDE
:10A62800F2F502FB1500303006F80C0C2846E8E776
:10A638007808012000ED00E00400FA050A4B07B590
:10A64800DA886846ADF800209A885B88ADF804205F
:10A65800ADF8023001F010FD18B1FC219C20FFF785
:10A66800B1FF03B05DF804FB7808012010B504467B
:10A6780028B308F09BFB10B94FF0FF3010BD07F06E
:10A6880023F8B0F5FA7FF7D80E4B00221A744FF46E
:10A698008072DC601A801B225A809A8040F2032262
:10A6A800DA804FF484721A811F225A81EFF31084E2
:10A6B80072B600F0FFFB04B962B60020DEE76FF067
:10A6C8001500DBE77808012010B5002840D1234C9D
:10A6D800237C032B39D059B1002A3CD002390529F3
:10A6E80036D8DFE801F0031227352A2D1378637076
:10A6F8000020FFF709FF0028B7BF012302236FF0EE
:10A708000B002374A8BF237410BD13791BB35379AE
:10A718000BB31188FB291ED853881B3B9BB2E02B37
:10A7280019D81A2917D913689288C4F802300C4B23
:10A738009A80DDE713786372DAE713886381D7E7D5
:10A748001388FF2B07D82372D2E74FF0FF30DBE7DF
:10A758006FF02C00D8E76FF01500D5E778080120D6
:10A768007A080120F8B50D46064620B319B311F052
:10A77800070420D1114F3B7C012B02D16FF00B0055
:10A78800F8BD032B02D14FF0FF30F9E700F060F875
:10A798000028F8D02846FFF7B7FE0028EEDB0BF0BC
:10A7A8009CFC3046214601F0E9FCFFF747FF0323F4
:10A7B80020463B74E4E76FF01500E1E778080120D4
:10A7C80010B5064C237C032B03D101F0EDFC02F0FD
:10A7D8002BFA09F083F90020207410BD78080120B5
:10A7E80050B1074B03F1140253F8041B934240F88D
:10A7F800041BF9D1002070476FF01500704700BFA7
:10A80800FAFB060008B501F085FC03490120BDE804
:10A81800084000F0F5B800BFEDA4040008B501F049
:10A828008DFC03490020BDE8084000F0E9B800BFEE
:10A83800C9A4040002680020014B1A60704700BFD9
:10A848008C080120014B1B68184700BF8C080120A9
:10A85800024B1868003818BF012070478C08012087
:10A86800074B4FF0FF3141F6FF72C3E9001205496B
:10A878000022C1E900221F21C3E90212704700BF6C
:10A8880000000120900801203F280CD801380B4B0C
:10A89800C0F3421200F01F0053F8223023FA00F0F0
:10A8A80000F001007047FF2806D04038044BC0F381
:10A8B800421200F01F00EFE701207047000001205E
:10A8C80090080120074B0146006849681A4603C2F0
:10A8D80040F48C2200201A6041F0107242F4FF62AA
:10A8E8005A607047000001200246034B0068516817
:10A8F80003C30020704700BF900801200246034BA5
:10A908000068516803C30020704700BF0800012099
:10A918000138064BC0F3421200F01F0003EB82031C
:10A928009B6823FA00F000F0010070470000012046
:10A938000A8870B595B2C67CC2F30E020488023646
:10A9480002F118033444C35AA4B233442344013BEC
:10A95800B3FBF4F303FB0422438892B29342044B03
:10A968008BBF2B40AB4313439BB20B8070BD00BF22
:10A978000080FFFF4A1E062A08B50346084604D889
:10A988004FF4D1711520FFF71DFE094A914202D9F3
:10A9980040F2A311F6E711B903B1196008BD2BB154
:10A9A8001B680022C3E901211A1D1A600430F5E76B
:10A9B800FAFFFF7F10B5114B00EB41041A78638949
:10A9C800B3FBF2F303FB0223013A1A44B2F5706FAA
:10A9D8000279807828BF00231A440B18B2FBF0F1E3
:10A9E80000FB11215B1AB3FBF0F100FB1133134498
:10A9F8006FEA43436FEA5343638110BD980801200F
:10AA0800024B03EB80035960704700BF9808012090
:10AA18002DE9F04F10F0070A85B0054604D040F242
:10AA28006F111720FFF7CEFD524F044607F10C06B1
:10AA3800B146B04657F8043B8DF80BA03BB101A8CE
:10AA480098479DF80A30082B01D9F521E9E79DF8C8
:10AA58000B1041BB05B131604F4506F10406E9D141
:10AA6800002D6FD00022DFF810910227964689F852
:10AA7800002058F827A0013FBAF1000F55D09AF8E6
:10AA880004609AF802C0FF2E60D039460023481CA3
:10AA980038D19C44BCF1FF0F3FD90AB189F800E0D6
:10AAA8004FF49A71BDE79DF80AC04B1D60465A00E5
:10AAB80004EB4303022838BF0220441E40422344CB
:10AAC800BDF808406444CCF1000C0340013C04EAA2
:10AAD8000C04B4F5803F02D340F20511A1E775B12B
:10AAE8009A1A0120326091701480D0709DF80C0081
:10AAF800107101984FEA104C1081A2F806C004FBAF
:10AB08000134A9E758F8210028B190F804B0B345FA
:10AB180004BF80781B180139B9E7DBB2E6458AF82B
:10AB280004303CBF5FFA8CFE01227B1CA1D10AB124
:10AB380089F800E0022640F6FF6A58F82670B7B98F
:10AB4800013EFAD2601B05B0BDE8F08F0023E5E7AF
:10AB580007EB410309F101093846A3F80AA0FFF7FA
:10AB680029FF5FFA89F1BB788B42F1D8E8E74FF00B
:10AB78000009F6E79C0801209808012038B54FF62F
:10AB8800FF7302460380184B03EB81031869A8B1D1
:10AB980084780379B3FBF4F104FB1133DBB2194673
:10ABA80000EB4105B5F90A50002D0EDB0131B1FB70
:10ABB800F4F504FB1511C9B28B42F1D1002038BD60
:10ABC8006381BDE8384008F063BE00EB4104638947
:10ABD800C3F30E031380C278002AF1D14FF4E57154
:10ABE8001720FFF7EFFC00BF980801201C4B03EB70
:10ABF800810370B51C69054644B3030404D54FF4BA
:10AC0800EC711720FFF7DEFC0146204608F023FE12
:10AC1800FF28014604D02046BDE8704008F038BE41
:10AC2800A078B5FBF0F300FB1353DBB219460A1DFD
:10AC380004EB4206B6F90260002E09DB0131B1FBD4
:10AC4800F0F200FB1211C9B28B42F0D1002070BDA6
:10AC58008B4201D00023E37004EB42025580DAE70F
:10AC680098080120094B03EB8103014610B51C69C4
:10AC7800204608F0F0FDFF28014604D02046BDE834
:10AC8800104008F005BE002010BD00BF9808012044
:10AC9800F8B5104B074603EB810301461C692046B3
:10ACA80008F0D9FDFF28054611D0E288238953EA28
:10ACB800024606D00146204608F0EAFD014638461D
:10ACC800B04720462946FFF775FE0020F8BD05204D
:10ACD800FCE700BF9808012038B50E4B044682797E
:10ACE80003EB8203186908B9052038BD8278E17939
:10ACF8009142F9D24B1CE37100EB41035D89B3F932
:10AD08000A30002BF3DBA58008F0C2FD206000208C
:10AD1800EBE700BF9808012070B5044610F0030067
:10AD28000E4603D04E211820FFF74CFCFFF722FEF9
:10AD3800054624B1034831460460FFF71BFE284648
:10AD480070BD00BFB40801202DE9F14FDFF870B0E5
:10AD58001E4607460D46DBF8003090469DF828A0B1
:10AD68009DF82C901BB960211820FFF72BFC524648
:10AD78000921404608F0F7FB4A4684B209213046CB
:10AD880008F0F1FB81B2DBF80000214408F037FD40
:10AD9800386018B9286001B0BDE8F08F0444534604
:10ADA800414609222C60386808F0A0FB4B4609226E
:10ADB8003146286801B0BDE8F04F08F097BB00BFE6
:10ADC800B408012070B50E46044608F0DFFB0546BE
:10ADD800304608F0DBFB044B2A1821461868BDE80A
:10ADE800704008F031BD00BFB4080120024B18685C
:10ADF80008B108F0F8BC7047B40801201F2AF8B55C
:10AE0800044624D89200134D033250B1830703D06F
:10AE180068210920FFF7D6FB22F003032970686038
:10AE28002B8122F0030228230127120403FB01F0DF
:10AE38006B680025120CEEB2B14200D8F8BD14B10F
:10AE480026181F705E60104401352833F3E74FF071
:10AE5800FF30F3E7B8080120154A002170B55368A0
:10AE68001578C8B2854203D8BA210920FFF7AAFB92
:10AE78001C461846013114F8286B0EB92346F0E732
:10AE88000021997001241289996103F126055C70EB
:10AE98009208D96103F11E04596824F8022FAC42C4
:10AEA80043F8041F1144F8D100234361037070BDB7
:10AEB800B8080120124B01224FF0FF3000215A60E0
:10AEC800C3F80803C3F80015C3F804255A6040F610
:10AED800FE72C3F808034FF48060C3F8001503F549
:10AEE80060330849C3F80825C1F88800BFF34F8FBD
:10AEF800BFF36F8FC1F88801C3F80825704700BFFA
:10AF080000A0044000E100E00A460648192302F8C0
:10AF1800033BC368C1F80330036953604369936016
:10AF2800704700BFC4080120024B5A8C02435A8460
:10AF38005B6A1847C4080120014B00215B6A184767
:10AF4800C408012010B5154C05F0D0F905F046FEEF
:10AF5800208DFFF7F1FF237E63B12246104904F1EB
:10AF6800190052F80C3BE36063685360A368936070
:10AF780009F04AFF0B4B228D93E8030002F01AFCFC
:10AF8800236B188802F098FBA36B94F8341094F89C
:10AF980035009847002384F83C3010BDC4080120D0
:10AFA80011AF0400F0080120034B93F83C300BB1BB
:10AFB800FFF7C8BF704700BFC408012070B51B4C1D
:10AFC8000646236D256B23644FF4817394F854006F
:10AFD800A4F8443095F88B3095F8691000EB83009D
:10AFE8002EB9FF2803D195F868308B4201D005F0BF
:10AFF80051F895F88B309BB1A06D05F031FAA16D31
:10B00800206C05F071FD16B9304605F077FA95F811
:10B018006810002005F0BAFA022384F83C3070BDAD
:10B02800206C05F01DFA05F0D9FDECE7C4080120F5
:10B03800F0B590F869000B46124A87B0012801F173
:10B04800780103F1880392F8542051E9026706D089
:10B05800022814D040F22C410620FFF7B3FA03244B
:10B0680001200025CDE90003CDE90450CDE90224F3
:10B078003B463246022005F06DFC07B0F0BD0424C3
:10B08800EEE700BFC408012008B5094B93F83C203F
:10B09800022A04D040F2E6212720FFF793FADA7A51
:10B0A80042F00102DA72BDE80840FFF74BBF00BF6B
:10B0B800C4080120F7B5184C0646E56D0DB1A36C20
:10B0C80023B940F2E7712720FFF77CFAB4F84C3037
:10B0D80001F003012F466B702B7823F003030B4319
:10B0E80007F8033B3846B4F84C20A16C07F0B6FFCC
:10B0F8000DF1020201A9206E2564A76408F069FB1E
:10B10800019808F054FB0122B4F84C103060206E0E
:10B1180008F0FCFA03B0F0BDC40801202DE9F041A5
:10B128002A4C06460F4694F83C30012B5FFA83F808
:10B1380004D040F62F012720FFF744FA256B95F835
:10B148007C303BB10021042085F87C10FFF7ECFE31
:10B1580085F87D8095F88030042B0AD11C4902209F
:10B16800FFF7E2FEE36E1B78991E4B424B4184F8D1
:10B17800743095F88B3023B105F17801206BFFF717
:10B1880057FF1EB1BDE8F041FFF7DCBE002FF9D034
:10B19800A36F304698470028F4D094F83430002B39
:10B1A800F0D1638C9A0708D594F87430002BE9D055
:10B1B8000020BDE8F041FFF701BF002BE2D194F871
:10B1C8007C30002BF4D194F87D30EFE7C4080120DF
:10B1D800300901202DE9F04F00238FB0B34C07460A
:10B1E8000791256BCDE90B3394F83C30022B04D042
:10B1F8004FF40C612720FFF7E5F9236C5A781E7885
:10B20800A4F84C20032206F003081344A4F84420B1
:10B21800A36495F88B30002800F0DD80C6F3C009E0
:10B22800C3B105F0F9FC831EDBB2012B04D8FFF78C
:10B2380089FE0FB0BDE8F08F60B9B4F84C304BB15F
:10B2480095F8823003F001034B4503D1012384F8BC
:10B258003530ECE7B4F84C1019B1206E08F036FA26
:10B26800014695F88120238D0132E16543F400738E
:10B27800D2B2238582EA960A1AF0010A1FD00697ED
:10B2880095F8822002F00103994558D04FF0000943
:10B2980095F88A30002B00F0C08095F8683005F1E9
:10B2A800F00C05F5807E012BD5E9380100F0A4806B
:10B2B800022B00F0018140F22C4106209BE795F813
:10B2C800803053B3013B85F88120DBB2042B0ED8C4
:10B2D800774AD35C002BD2D0022B0BD10BA9D4F820
:10B2E800840008F09CF988B940F2F76182E740F2DF
:10B2F800D6617FE7032B10D101F00CF810B940F2AA
:10B30800017177E751460820FFF70EFED5E938327C
:10B31800013342F10002C5E93832002195F87D3049
:10B3280085F8801023B1102085F87D10FFF7FCFD0B
:10B33800238D43F40063238500230693A0E7B4F824
:10B348004C30E3B108F1FF31012918D8218D41F4BF
:10B358008051218594F88810994206D294F83430A7
:10B3680043F0100384F8343090E7E16D00298DD064
:10B3780094F8891019B12020FFF7DEFD86E7013225
:10B38800B8F1030F85F882201AD008F1FF32012A9C
:10B398000BD8002B3FF47AAFB946D5E93A320133DE
:10B3A80042F10002C5E93A3272E7002B3FF46EAF72
:10B3B800D5E93A32013342F10002C5E93A3265E78C
:10B3C800238D01203B4943F4805385F87C00238575
:10B3D800FFF7AAFDECE70BB105F038FC94F88A30CA
:10B3E8004FF000090133CDF8189084F88A30238D86
:10B3F80043F4806323854BE7032200234FF0010ABF
:10B408000392FB220093CDE9043ACDE901E20B4611
:10B4180002466146042005F09DFAE36D002B4DD1EC
:10B42800B4F84C30B3FA83F35B0903EA161384F8D3
:10B438007D30079B002B43D1628C94F88A3011072A
:10B4480003D594F87420002A3AD1012B38D8A36F79
:10B4580001209847A0B394F834608EBBD4F830A08C
:10B4680094F854309AF88B209AF8681003EB82030A
:10B47800FF2B03D19AF869308B4202D0FF2004F0E9
:10B4880009FE0022D4F830B08DF82920ADF82A2022
:10B498009BF88020052A00F24081DFE812F068005E
:10B4A8001C011F011F013101310100BFC408012027
:10B4B800F8C106000C09012004229EE70123B4E725
:10B4C80005F06EF8B9F1000F4CD101230793A04C99
:10B4D800238D5A0606D44020FFF72EFD238D43F016
:10B4E80040032385069B6BB1B4F80720B4F80530F8
:10B4F8001343B5F87E2013431EBFB4F80930013357
:10B50800A4F80930002F00F01C81B4F8053001338D
:10B51800A4F80530002384F88A308E4802F0BAF87F
:10B528000B9830B108F043F900220272294601F065
:10B5380083FC0C9B33B100221A720C2229460C980A
:10B5480001F048FC079B002B7FF471AE238D1B068E
:10B558003FF56FAE8020FFF7EFFC238D43F08003AB
:10B56800238566E641460CA8FFF7A4FDADE794F8ED
:10B578008B200DF12A010DA8ABF85820ADF82A2030
:10B5880000F0BAFE38B10D9828B104228BF880205B
:10B59800BDF82A2016E09BF8C320002A40F09580C9
:10B5A8000DF129020DF12A01D4F8840008F015F8EC
:10B5B800002800F08A80BDF82A20002A76D10121CF
:10B5C8008BF880106066A4F87020002A00F0A8802C
:10B5D80003309BF88130E06608939BF882309BF833
:10B5E80080B00993BBF1020F09D0ABF10402012A24
:10B5F80000F2988003784FF0030B022B0ED0D4F89A
:10B60800840008F042F8002840F08F80BBF1030F57
:10B6180004D000F08BFE80F00106F6B2616E089A45
:10B628000B78D000099A03F0F30300F008000343F5
:10B63800900000F00400034323F0100343EA0613CC
:10B6480006F0010623F0030384F87C60404E4BEAC1
:10B6580003020A700222B4F870304B70A4F8682014
:10B668009AF88A20002A62D0002B60D0A06D04F0DE
:10B67800F7FE0022A16D606E05F090F818B9616EB2
:10B68800A06D05F0CFF99AF86910012004F07EFF4B
:10B69800012386F88C3086F83C30B9F1000F3FF46E
:10B6A80016AF41460CA8FFF705FD10E79DF82910D5
:10B6B80019B903220180817068E7017801F003015C
:10B6C80001290CBF032102217AE70022ADF82A20C4
:10B6D80001228BF880202048002273E7BBF858200D
:10B6E8000DF12A01D4F88400ADF82A200DF12902C1
:10B6F80007F073FF00287FF44BAF40F20D5179E556
:10B708000DF12A010DA800F0F7FD08B10D9810B948
:10B7180040F21C516EE5052238E740F2265169E5F2
:10B72800104656E74FF0010B69E7012676E7706E81
:10B7380004F096FE05F052FA0021706E0AF0F5FC4E
:10B74800A1E7B4F807300133A4F80730E5E600BFF5
:10B75800C4080120F008012042090120064B10B559
:10B7680093F83C2002F0FF0422B91C7602F01AF884
:10B77800204610BD0C24FBE7C4080120094B0A4AE7
:10B7880010B51A60FFF7EAFF20B14FF4A471272023
:10B79800FEF718FF054C00F017FD206500F018FDB6
:10B7A800A06510BDB411012094B90400C40801209B
:10B7B800F7B56A4C089FCDE9000194F83C1001F0F8
:10B7C800FF0511B90AB103B127B94FF40871272051
:10B7D800FEF7F8FE04F12C0CA36784F834509DF8AA
:10B7E800243084F88A5084F8355084F88C50658465
:10B7F800258584F87C5084F87D5084F874506566FB
:10B80800E566A4F870502564A564A4F84C5084F843
:10B8180089306262A763DDE900018CE80300256BCB
:10B8280004F064FC05F0DAF995F9700004F0BCFC4A
:10B838006E6AE86904F0BEFC304604F003FE95F831
:10B848009B0004F0C1FC09F098FE95F8692000F10E
:10B858006501012004F036FD414B186804F0F8FD3D
:10B868002B69C4F884306B692366236B93F88520B1
:10B8780093F86860A2F12901012903D993F8861089
:10B88800292951D193F85E322BB1012E03D0012B17
:10B898000CBF0126022605F130073146384609F06B
:10B8A80043FB314609F03DF8AB8F95F869108342A8
:10B8B80028BF0346384684F88B3009F01EFB95F8FC
:10B8C8008B7095F86910B5F8446009F02AF80FB93B
:10B8D800043080B2864228BF0646F3B284F8883026
:10B8E80084F8543095F88B3023B105F17801284657
:10B8F800FFF79EFB0120FFF761FB236BD3F8B00134
:10B9080004F0CAFD002323606360A360B5F87E30AD
:10B9180063802B88238095F89B302371EB6E0BB1E5
:10B9280001221A6003B0F0BD243A012A0DD8272954
:10B938000DD093F8263113F0010202D19B07AAD546
:10B948000222012E18BF1646A5E72729A3D193F88E
:10B95800262193F861301340EDE700BFC4080120A9
:10B96800B4110120014B93F88C007047C4080120E2
:10B97800024B93F82900C0F3C0007047C4080120A7
:10B98800014B93F88A007047C408012091B0040065
:10B99800DDB1040025B10400B1AF0400304BF0B5AF
:10B9A8005A8885B0B0F85C700C46B0F85A60974277
:10B9B8009D8828BF1746964228BF16461B2E2ED0B4
:10B9C800B5F5A47F2DD040F6480301A99D4228BFB4
:10B9D8001D4608F0B4F8BDF80A30BB4228BF3B4604
:10B9E800E380BDF80C30AB4228BF2B462381BDF85D
:10B9F8000630B34228BF33466380BDF80830AB42F7
:10BA080028BF2B46A380FF232370E3881B3B9BB2F0
:10BA1800E02B08D940F2E7613920FEF7D3FD1B2F50
:10BA2800CED105B0F0BD63881B3B9BB2E02B02D999
:10BA380040F2E961F0E72389A3F5A4739BB2B3F55B
:10BA4800E06F02D940F2EB61E6E7A388A3F5A4739F
:10BA58009BB2B3F5E06FE4D940F2ED61DCE700BFDB
:10BA68005409012010B501210020FFF7FBF8044616
:10BA780070B90121FFF7BAF8044620B94FF459719B
:10BA88003920FEF79FFD034B93F906100AF02CF8B6
:10BA9800204610BD54090120024B987DC04300F098
:10BAA800010070477C0D0120044B987DC0F34000D5
:10BAB80080F0010000F00100704700BF7C0D0120FC
:10BAC80008B508F0A5FE00F0D1FD00F0A1FB09F0D3
:10BAD80073F901F04DFE03F0D7FF0022084B1B213C
:10BAE8004FF4A4701A60074B98801A805980064852
:10BAF800064B186099805A745A829A829A7508BDC2
:10BB0800B81101205409012003021B007C0D0120FB
:10BB1800044B41F64C52C3E902221B221A74FFF768
:10BB2800CFBF00BF7C0D012073B5234D0446AB6821
:10BB38000363224B836109F068FE064600F058FB58
:10BB48008306297C53BF1B236B88AA881A46A4F84E
:10BB58005A301B4BA4F85C201B6884F838106687A1
:10BB68001BB194F9701020889847164E204631462C
:10BB780008F0E6FE01236A8804F110006978E3857D
:10BB88000332AB88019192B216F8121C033300916C
:10BB98009BB204F11401FFF7D7F8236923B940F2E7
:10BBA800BE613920FEF70EFD636913B940F2BF612B
:10BBB800F7E7002002B070BD7C0D012000093D00B0
:10BBC800BC1101208E0D0120024B1B6803B11847E0
:10BBD8000C207047B8110120034B5A8802801B784B
:10BBE80083700020704700BF7C0D012037B5837833
:10BBF80005461A2B08D8042B04D9144A22FA03F351
:10BC0800DB0705D412241AE0292B01D03B2BF9D1EC
:10BC18002888B0F5706FF5D2694608F0BBFE88B980
:10BC2800019B93F8182102F0FF046AB9AA7883F8F7
:10BC38001921FF2283F81821684608F0B9F8204630
:10BC480003B030BD0224FAE70C24F8E720003804DA
:10BC58000188A1F11B039BB2E02B0CD8428844F267
:10BC68004810A2F5A4739BB2834204D8034B00206A
:10BC780059809A8070471220704700BF54090120EC
:10BC8800034B5A889B88028043800020704700BF7E
:10BC98005409012038B50278447802F0010302F013
:10BCA800020254EA030101D1112038BDBAB98578DE
:10BCB800002DF9D0002B18BF002400E01D462046B7
:10BCC80007F010FF0028EFD0284607F00BFF0028E8
:10BCD800EAD0054B00209C74DD749882E5E7002BC0
:10BCE800ECD000242546EAE77C0D012013B5008836
:10BCF800694608F06BFE044620B9019890F82A318D
:10BD08001BB13A24204602B010BD90F8CE3003F0A3
:10BD1800FF04002BF5D190F8C5309B0706D1FF230F
:10BD280080F82A31684608F043F8EBE70249C63044
:10BD380009F06AF8E6E700BFD9540500F7B50778B7
:10BD480005460C46EF2F0FD890F901204378002ABA
:10BD58000ADB8278900707D113F010001DD19906ED
:10BD680003F0030202D51AB1122442E0032AFBD0E1
:10BD78001E07F9D42979EA78EE7942EA012269792D
:10BD880042EA0142A97941EA06212E7A41EA0641AE
:10BD98008A42E9D81F2A0FD8E6E713F0600FE3D1EB
:10BDA80003F00702052A05D003F00F010D22CA404F
:10BDB800D107D9D51A07DDD56A7A013A062AD3D828
:10BDC800AA7A032AD0D813F0040102D1023A012A30
:10BDD80003D8EA7A012AC7D811B9AA7C032AC3D89A
:10BDE8002A7D48B1012ABFD12A7E012ABCD830B9A0
:10BDF8001124204603B0F0BD022AF5D1B4E7DB07D1
:10BE080012D46B782A7D03F01803082B11D1022A6B
:10BE1800EED101213846FEF725FF064678B109F034
:10BE280017FEB8B10C24E4E700F0A2F90028E8D125
:10BE3800DEE7022AEDD02B7F002BEAD0D8E70121DC
:10BE48003846FEF7D3FE064640B3154B93F9061065
:10BE580009F04AFE304609F037FF29462070E87499
:10BE6800304609F087FEEB7E0446002BC1D000283F
:10BE7800BFD10246B16A684607F045FD2246B06A5E
:10BE8800012107F08BFDB16A6846042207F03BFDEB
:10BE980022462146B06A07F081FDAAE70724A8E7F1
:10BEA8005409012030B502798BB00346042A4FD8D3
:10BEB8004088B0F5804F4BD8264900248D5C11444A
:10BEC800ADF800404A798DF8084042F010028DF82C
:10BED800244042EA45028D7AC97B42EA850242EA59
:10BEE800C102694602F01F028DF80020BDF800204B
:10BEF800ADF809201A888DF80E00000A8DF80B207D
:10BF0800120A8DF80D408DF80C208DF80F008DF871
:10BF180010405A7BD3F807008DF811205A79059004
:10BF280002A88DF812209A798DF81320B3F80B2007
:10BF38009B7BADF818208DF81A307F238DF81B30C5
:10BF48004FF00113CDE90734FFF7F8FE0BB030BD11
:10BF58001220FBE7FDC10600F7B50646FFF782FD94
:10BF6800044609F0BCFE33780546012B61D1204612
:10BF780009F0EDFD00287BD0204609F0B0FE18B18D
:10BF880015B9122003B0F0BD204609F061FD08B1D3
:10BF98000C20F7E7204609F098FD07460028F7D15E
:10BFA800204602F0A3FC0028EBD0ED0142F210730A
:10BFB80039462046ADB25D4309F07DFE204609F0C2
:10BFC80086FE014658B92A46204601F0F3FE08B914
:10BFD8000020D7E741F66D413920FEF7F3FA3946DC
:10BFE8000DF10600FEF7CAFD064608B90D20C9E79F
:10BFF800394608F0FAFCBDF8063031462046338051
:10C0080009F071FE01213046FFF78EFD2A463146C0
:10C01800204601F0CFFE024610B141F69041DBE721
:10C02800144B9B68002BD3D006F58D71304698478A
:10C03800CEE7002BA5D1204609F089FDC0B12046E6
:10C0480009F006FD0028C3D0204609F0AEFB0546DE
:10C05800204609F0ADFB0146002899D1002DB7D044
:10C068002888FEF715FE0028B2D041F6B241B3E7A2
:10C07800422087E7540901200278034672B14278CA
:10C0880062B142881A2A09D982881A2A06D9006810
:10C09800034A106000209B889380704712207047E5
:10C0A8007C0D012002680020014B9A60704700BF98
:10C0B8007C0D01200378A3F10A02112A9BBF024AD2
:10C0C80000201220137470477C0D012008B505204C
:10C0D80000F082F803F098FC014B024A9A6008BD10
:10C0E80054090120A5B9040008B50122084B1A70AB
:10C0F80002F0ECFB09F0AEFF08F088FBFFF73EFB0F
:10C10800002007F0CDFBBDE8084000F09DBD00BF52
:10C118006009012010B5064C0649201D08F040F9B9
:10C1280004F108000449BDE8104008F039B900BF1F
:10C1380060090120480001205000012010B5084C7A
:10C148000849201D08F02CF904F10800064908F0F8
:10C1580027F904F10C000549BDE8104008F020B9A2
:10C1680060090120580001206000012068000120BA
:10C17800014B1878704700BF6009012010B5064CC4
:10C1880000F03EFD606808F003F9FFF7C1FC00F01D
:10C1980019FF0123237410BD60090120014B187C8D
:10C1A800704700BF6009012010B5064CA06808F070
:10C1B800EFF8E06808F0ECF8FFF782FC002323743E
:10C1C80010BD00BF600901200048704771090120B7
:10C1D80000487047730A0120C208044900F00700AC
:10C1E80001238340885C03438B547047100001206F
:10C1F800014BD3E90001704710000120034B186878
:10C20800C0F30020400040F00100704710000120FA
:10C2180008B505F059FA0023074A32F8231081427D
:10C2280005D302EB83029378044A137008BD0133E7
:10C238000C2BF2D10023F7E712C20600750B012080
:10C2480010B54468238884F86711A4F8683194F815
:10C258006830012B06D0022B04D040F211310620A1
:10C26800FEF7B0F984F86A3194F86930012B01D0EF
:10C27800022BF2D184F86B3104F5AF70034908F052
:10C28800C3FD002384F8243110BD00BF35440500E8
:10C2980040680749038800F25110A0F8093010F8E7
:10C2A800F13CC37210F8F03C037308F0A7BD00BF5F
:10C2B8004B440500024B002283F822209A847047E1
:10C2C800760B0120044B93F82220012A1ABF036041
:10C2D80001200020704700BF760B0120054B024665
:10C2E80093F8221001291BBF01209A84002083F8AB
:10C2F80022007047760B0120054B024693F8220076
:10C3080020B1136009B19B8C0B800120704700BFDE
:10C31800760B0120044B002293F822009A8410B176
:10C32800012083F822207047760B0120034B93F8F5
:10C338002200B0FA80F04009704700BF760B012058
:10C3480050B90A4A0120134603F8010B0868C2F8DD
:10C3580001008A889A807047012805D1034B0A6832
:10C36800D8719A608A889A81704700BF9C0B012017
:10C3780050B90B4B187888B1D3F80120B3F80530C1
:10C388000A6001208B807047012806D1044BD879B8
:10C3980020B19A689B890A60F3E70020704700BFC4
:10C3A8009C0B012010B9044B18787047012806BF70
:10C3B800014BD879002070479C0B0120F7B58A887B
:10C3C80000238DF80600ADF8042008680B4A8DF8A4
:10C3D80007300146147802F5A872019DD8B284424C
:10C3E80001D8082007E052F8087F01335668AE42AA
:10C3F80008BF8F42F2D103B0F0BD00BFB00B0120DF
:10C40800084B0146002230B55C7803F20113D0B224
:10C41800844201D8082004E013F8015F01328D42FC
:10C42800F5D130BDB00B0120F8B52D4C637822183A
:10C43800013B92F80251DBB28342637030D01A019B
:10C448000101961C8F1C2644274406F1100C56F84F
:10C4580004EB664547F804EBF9D182328231224475
:10C46800214402F1100652F8047BB24241F8047BE1
:10C47800F9D1E118221891F8026182F802610626C2
:10C488007343704303F5857300F58570E618E35828
:10C4980027182350B388BB8091F83A3182F83A3193
:10C4A8002846FFF7ADFF082818D12378013BDBB2F7
:10C4B8009D42237012D02B3305F12B0204EBC303EA
:10C4C80004EBC20293E8030082E803002078FFF738
:10C4D80097FF08281CBF241884F80251F8BD00BF34
:10C4E800B00B0120F0B5254D89B095F8984105F2BB
:10C4F80099116846224606F0B1FD2146684608F0C3
:10C50800A6F90446B8B300EB400102A8C9B2FEF789
:10C5180099F9631E95F8A1610124DBB295F8981189
:10C5280005E0721CB2FBF1F001FB1022D6B206F155
:10C5380020020DEB020010F8202C002AF1D103EBA9
:10C54800430100F8204C06EB460220312A44694496
:10C5580011F8187C82F8A27111F8177C11F8161CD2
:10C5680082F8A37182F8A411013BAA19DBB282F800
:10C578009941FF2BD2D109B0F0BD00BFB00B01200B
:10C5880070B5064688B00C46002A4ED0294A92F863
:10C59800A131D01890F8991119B9FF212820FEF778
:10C5A80011F803EB43010133114491F8A251E570EE
:10C5B80091F8A35191F8A41125716171002180F8B7
:10C5C800991192F89811B3FBF1F001FB103382F83E
:10C5D800A13192F8C23123B9174902F5DD7008F08C
:10C5E80010FC65790D220021684605F03F0545F0ED
:10C5F800400565710AF0B9F8E37804AA69468DF830
:10C608000F30304623798DF80D508DF80E30042305
:10C618000AF015F89DF81F3023709DF81E306370DE
:10C628009DF81D30A37008B070BD03216018FEF797
:10C6380009F9D6E7B00B0120EDC40400044B5A7881
:10C64800824286BF1B1893F84A010020704700BF3A
:10C65800B00B0120044B5A78824286BF1B1893F80E
:10C6680042010020704700BFB00B0120064B00229A
:10C678004FF461711A8083F8C32183F8C421A3F8A9
:10C68800C61183F8C2217047B00B01202DE9F0478D
:10C698008246894617469846FFF790FE08280546C1
:10C6A800064603D0FFF7ACFE082860D1324C637809
:10C6B800072B5ED8082D15D12678731C072E2370FA
:10C6C80003D96C212820FDF77DFF06F12B02D9F84C
:10C6D800000004EBC20344F83200B9F8042083F8E0
:10C6E80006A09A80657807F110026B1C2901637017
:10C6F8004B1C234412F8010DBA4203F8010FF9D17B
:10C70800813108F11003214413F8012D984501F8EF
:10C71800012FF9D125441021404608F0C8F810210E
:10C7280085F84201384608F0C2F885F80261667853
:10C73800002385F84A013146104885F83A3108F057
:10C7480086F80128054607D831460D4808F07FF8D5
:10C75800002818BF0135EDB284F898510025284605
:10C7680084F8A151FFF7BEFE2846BDE8F0871220E5
:10C77800FBE70720F9E700BFB00B0120F20C01200E
:10C78800FA0C0120064B10B55878013840B2002841
:10C7980000DA10BDC4B22046FFF746FE601EF5E77A
:10C7A800B00B0120014B83F8C3017047B00B012087
:10C7B800014B93F8C3017047B00B0120431E4AF2A6
:10C7C800B7129BB293429DBF024BA3F8C60101204A
:10C7D80000207047B00B0120014BB3F8C601704729
:10C7E800B00B01200A4B30B55C7884420ED918444E
:10C7F80090F802012B3003EBC004A5790D7053F8B3
:10C80800300010600120A388938030BD0020FCE731
:10C81800B00B01200246074810B590F8C34124B177
:10C82800417821B1023003F051F9204610BD0C4681
:10C83800FBE700BFB00B01202DE9F74F2F4C9A46BC
:10C84800804689466378834256D9231893F8425123
:10C8580085F00105F9B193F84A31E3B945F00207CB
:10C868000135BAF1000F18D1FA070AD5062104EBF1
:10C878000810524601FB0841823001F58571FFF727
:10C888007FFEBB0734D504EB0810524649460230F8
:10C89800FFF776FE2CE02F46E3E794F8A1614FF00E
:10C8A800010B002DE0D0A31993F89911019399B9C0
:10C8B8000092DAB100F056FB019B06EB4601009AA4
:10C8C8004FEA102C83F899B1214481F8A201000C99
:10C8D80081F8A3C181F8A401013694F89831013D8B
:10C8E800B6FBF3F103FB1166F6B2DAE747F004078B
:10C8F800384603B0BDE8F08F0027F9E7B00B0120F8
:10C90800074B5A78824209D91A1892F842212AB953
:10C91800062202FB003000F5857070470020704742
:10C92800B00B0120064B5A78824281BF1B1893F83E
:10C938003A01B0FA80F0400998BF0020704700BF64
:10C94800B00B0120F8B50E460746062115463046BD
:10C9580007F0ADFF044670B10C4B0022587803F283
:10C968003913D1B2884202D801242046F8BD0132D9
:10C9780003F8015FF5E73146384607F084FF0828D9
:10C98800F3D0024B034483F83A51EDE7B00B012092
:10C99800034B80F870101B680BB10088184770476C
:10C9A800C01101200B2808B504D940F20D11292027
:10C9B800FDF708FE014B33F8100008BD42C206001F
:10C9C80030B5002442F210758487B0F840404C43DB
:10C9D800B4FBF2F4A0F84040541E05FB0343B3FB3C
:10C9E800F2F3C387084BB3FBF2F30133A0F84430EA
:10C9F800038F05FB0344036B5943B4FBF2F4B1FB0B
:10CA0800F2F14463016330BD005A620203460846EE
:10CA180071B13F2B0BD8074AD35C03F07F029142D8
:10CA280005D08CBF0120002000EAD31070470120F8
:10CA3800704700BF5AC206002DE9F7430E46694603
:10CA48001546994607F0A6FF044620B9019F35B957
:10CA5800012387F88C30012003B0BDE8F083D7F8B4
:10CA680010802946404606F062FD01460028F3D0B2
:10CA7800134B5B88AB4221D3404606F094FE97F8EF
:10CA88008C304946A0F80140002B2A4618BF0226E0
:10CA980000F8036B06F0E2FA2946404606F082FDEC
:10CAA80018B98B212B20FDF78DFD684607F080F91A
:10CAB800019BA3F8A24187F88C40CCE72046CBE73E
:10CAC8007C0D0120FF230B7002234B7083238B7096
:10CAD800014B1B78CB707047940D01202DE9F84F5E
:10CAE800D0F804800C46D8F81460304606F04DFEA5
:10CAF800054620B940F253111020FDF763FD0146A9
:10CB0800304606F050FEB5F800B082461FFA8BF7A3
:10CB180017B940F25711EFE7224B00F103091B68E0
:10CB2800D3B998F8003098F801202370637802F0A0
:10CB38000F02A4F802B023F00F03134323F0C0033D
:10CB480063709AF8003003F00303012B0FD0022B17
:10CB58000DD040F27511CFE73A464946B8F80000C3
:10CB6800984705460028DCD12846BDE8F88F62784A
:10CB7800304663F30512627006F01BFE054610B9D5
:10CB880040F27F11B8E7FB2F02D94FF4C771B3E722
:10CB98003A464946201D06F061FA304606F064FD23
:10CBA800E2E700BFC411012038B5134C1022002160
:10CBB800201D09F0DAFD0125257404F1080310226F
:10CBC800002104F11400C4E9013309F0CEFD84F812
:10CBD800205004F11803094AC4E9053300236362AD
:10CBE800A36284F82C30C4F82D30C4F8313084F8AE
:10CBF80035301360A36338BD940D0120C4110120A2
:10CC080010B5084C2378FF2B04D04FF4CC711020BA
:10CC1800FDF7D8FC06F08EF92070BDE81040FFF74C
:10CC2800C3BF00BF1D00012010B5034C207806F0DB
:10CC38009BF9FF23237010BD1D000120014B1878BC
:10CC480006F0A2B91D000120014B024A1A60704784
:10CC5800C8110120E5CA04002DE9F341DFF8688115
:10CC6800054608F11407D8F80830D8F81840227A91
:10CC7800012A22D1D8F8382052B1137A1BB9BF2122
:10CC88001020FDF79FFCD8F83840C4B9002083E095
:10CC98001A7A012AFAD01C464C4AEFF3108172B670
:10CCA80050680068506001B962B6A34208BFC8F86E
:10CCB8003840237A1BB9EE21E2E73A46EDE7267AB7
:10CCC800F6B205232372731E0B2B6ED8DFE803F030
:10CCD8006A062235676D3E6D6D6D6D5B636813B9CD
:10CCE80040F20B21CCE72046294698470420EFF371
:10CCF800108272B6237A052BD9B24FF0000359D1AE
:10CD08002372D8F83810A14201D1C8F83830B2BB24
:10CD180062B634E0636813B94FF40571B0E7294689
:10CD2800204698470346ADF80400C0B2C3F3072372
:10CD3800012B2FD0022BDAD11AE0636813B94FF414
:10CD480007719DE7204698470020D0E763680BB934
:10CD5800FE2195E70B222A7001221988AA706A71B0
:10CD680000221869A5F80310AA7106F07DFC0420BA
:10CD7800D8F83830A34202D10023C8F83830002848
:10CD88003FF471AF08E0124B294620461B689847CC
:10CD9800034668B9267298B102B0BDE8F08140F246
:10CDA80053216DE740F256216AE740F2592167E7BF
:10CDB8000220DDE711B940F27A2161E71846A6E7BB
:10CDC800002B7FF450AF61E7940D0120980D0120EE
:10CDD800C8110120134610B5027A22B140F2013180
:10CDE8001020FDF7EFFB0A4601460248BDE8104057
:10CDF80007F0E4BF980D0120044890F82C301BB9C7
:10CE08000349243007F0F7BF704700BF940D012095
:10CE1800B74D05000346064890F83C203AB190F813
:10CE2800352022B9034900F82D3B07F0E4BF7047CD
:10CE3800940D0120CDCA04000A4610B5037A23B127
:10CE480040F209311020FDF7BDFB014607230248D7
:10CE5800BDE8104007F0B2BFA80D01201346027AC2
:10CE68000AB1037270470A460146014807F0A6BF97
:10CE7800980D01201B234FF01B12838403848261C9
:10CE88008382C260038539B94FF4A473034AC3840B
:10CE98004384C261C3820261704700BF48014801F0
:10CEA80003460846F0B4B3F85420B3F84840B3F842
:10CEB80056109442B3F84460DF8F28BF1446B3F885
:10CEC8004C20B3F842508A42DC8728BF0A46B3F8A0
:10CED80046109142A3F8422038BF1146A64238BFF7
:10CEE8002646A742A3F84610A3F844601FD1AA1A01
:10CEF80018BF0122B3F84A50B3F85040B3F8527043
:10CF0800A5429E8FB3F8401028BF2546B3F84E407F
:10CF1800BC429D8728BF3C46AE42A3F8404002D1A0
:10CF2800A14200D12AB10449F0BC07F06DBF01222B
:10CF3800E0E7F0BC704700BF174E05000B8BA2F866
:10CF480009001046A2F80B304B8BA2F80D308B8BE2
:10CF5800A2F80F30CB8B0249A2F8113007F04EBF70
:10CF6800674E0500094AD2E90003434083EAB0113D
:10CF780081EA43214FEAF34311605360044B58435D
:10CF88004FEAF06000EB8000704700BFD40D01202D
:10CF9800BB79379E094AD2E90003434083EAB011BE
:10CFA80081EA43214FEAF34311605360044B58432D
:10CFB8004FEAF06000EB8000704700BF20000120BE
:10CFC800BB79379E10B50A4C08210948FDF73AFC91
:10CFD800D4E900321343F7D0064CFFF7DBFF20609B
:10CFE800FFF7D8FF236860601843F6D010BD00BF74
:10CFF80020000120D40D0120174B184A9A60184AC6
:10D008005A60184A1A60184A9A62184ADA62184A24
:10D01800DA60184A9A61184A1A63184A1A62184A52
:10D02800DA64184A9A64184A5A62184B184A9A607D
:10D03800184A5A62184ADA62184A1A61184A5A6132
:10D04800184A9A61184A1A63184A9A64184ADA649C
:10D05800184A9A63704700BFCC1101201D51050082
:10D068004D510500B95105001D53050071530500C8
:10D07800B1D304008753050009D604009DD40400E9
:10D088005554050071540500E9D40400CC12012060
:10D098003951050027540500A95305004D530500D3
:10D0A800CD5305003DD40400F75405009F540500F6
:10D0B800915405000D540500044B054A5A65054B6B
:10D0C800054A1A65054A5A65704700BFCC11012008
:10D0D80063520500CC12012049520500C9520500CF
:10D0E800054B064A9A65064A1A66064B064A9A6529
:10D0F800064ADA65704700BFCC110120D14505000A
:10D1080073460500CC1201201D450500F5470500B2
:10D11800023A08B5232A00F29A80DFE802F0129852
:10D128001E9B9B2E9830989B3541459898499B9B10
:10D138005D5D747498989898989898989898987B42
:10D14800889102784368012A02D193F8103101E0EE
:10D1580093F8193102204B700EE04268D2F8BE31C4
:10D16800C1F80130D2F8C231C1F8053043680D204A
:10D17800D3F80431C1F8093008BD4368E5E700F089
:10D1880005FA0028F8D148E0112306204B705923EE
:10D198008B700023CB701F230B7130234B71EBE78F
:10D1A800436893F80A31D5E7084600F0DDF9E8E767
:10D1B8000278436852B993F810213AB193F80D21D7
:10D1C8004A7093F80C3103208B70D5E793F80B2144
:10D1D8004A7093F80A31F6E743680920B3F85420F7
:10D1E8004A70120A8A70B3F81221CA70120A0A71B8
:10D1F800B3F850204A71120A8A71B3F81031CB7112
:10D208001B0A0B72B8E7436893F826214A7093F813
:10D218002731D8E7104B1B6823B940F20D51512034
:10D22800FDF7D0F90246232098470420A4E70A4BCB
:10D238001B68002BF1D002462420984705209BE765
:10D24800054B1B68002BE8D002462520F5E74FF474
:10D25800A161E4E701208FE7CC1301203F289ABFA2
:10D26800024B53F820000020704700BFCC1101206A
:10D278003F289ABF024B53F820000020704700BF98
:10D28800CC120120F7B5456804464FF6FF772E69A2
:10D298000DF102010DF101023046ADF8027006F001
:10D2A8009CF901A9304606F0BAF940B1019806F098
:10D2B8007EFA616800220272FFF7BEFDE8E70449C2
:10D2C80005F19E0003B0BDE8F04007F097BD00BF30
:10D2D800B1500500F0B5044685B00D46FF2600F8AC
:10D2E800A56C10F8A63CF3B1174F3B781BB15F2132
:10D2F8001F20FDF767F90C21381DFDF7A3FA3E70D2
:10D30800002304F8A53C07232A4602F8033BD4F877
:10D318000930C5F80330D4F80D305360D4F8113013
:10D32800936005B0F0BD01A80C21FDF78BFAA4F5B8
:10D33800B473039A1A6001AB03CB44F8AE0C44F8FB
:10D34800AA1C04F8A66CDBE7DC0D012010B5054C1F
:10D3580023782BB90C21201DFDF774FAFF232370C5
:10D3680010BD00BFDC0D0120024690F8C631BBB9E4
:10D3780090F8C73103F0FF010BB100207047094B4B
:10D3880018780028F9D01970D9680433C2F8041144
:10D3980003CBC2F8BE01C2F8C211FF2382F8C6311E
:10D3A80001207047DC0D0120426838B592F88630BC
:10D3B80004460D463BB1132B05D0113B0F2B8CBFF8
:10D3C8000120082038BD92F8C43013B9204607F070
:10D3D80028FE6268D5F80B30C2F8B631D5F80F30A0
:10D3E800C2F8BA316368D5F81320C3F800211A8847
:10D3F800A3F87522D5F80120C3F87722D5F80520BF
:10D40800C3F87B226368B5F80920A3F87F22636814
:10D41800002583F8C6516068054900F51B7007F0C0
:10D42800EAFC63681622284683F88620CAE700BF0C
:10D43800DDD2040038B54368044693F88620202AD4
:10D4480004D04FF410711F20FDF7BCF8002293F8A8
:10D45800C4101D8803F5C97083F8C32069B10B494E
:10D4680083F8C420A3F89C5183F89B2107F0C3FCE0
:10D478006368002283F8862038BD012283F89B1157
:10D48800A3F89C51024983F89E21EFE70953050050
:10D49800FB52050038B54568AB6F13F0010419D18C
:10D4A800D1F801200C4BD1F8051013400B4AC5F8F0
:10D4B800D430C3F307630A4043F00803C5F8D82003
:10D4C80085F8D73007F0ADFDAB6F204643F0010378
:10D4D800AB6738BD0120FCE72FC904F76FDB00807C
:10D4E800406810B590F88530042B28D1D1F8013068
:10D4F8004A1CD1F80540C0F8D430C3F30763C0F81C
:10D50800D84043F0080380F8D730002380F8BE30B5
:10D5180080F8853090F8743103F0FF040BB10020D7
:10D5280010BD038800F5B67044724381D1F801300C
:10D538000449C3605368036107F05DFCEFE701200D
:10D54800EEE700BFEB530500406890F8743143B92B
:10D55800038800F5B670034943811A23437207F024
:10D568004ABC7047EB53050010B50446FEF740FE71
:10D57800044A054B024009200B40C4F80120C4F8B6
:10D58800053010BD2FC904F76FDB008037B50C4696
:10D598004568FEF72DFE0A4B0A4A03400A4095F8F3
:10D5A800D41000930B4001928DF800306B4603CBEA
:10D5B800C4F801000920C4F8051003B030BD00BF4D
:10D5C8002FC904F76FDB008038B5DB04154604D596
:10D5D800C37C13B10023036338BD046B01340463B7
:10D5E80007F066FF436B9C42F6D3002303490363AD
:10D5F8002846BDE8384007F007BC00BF475405007F
:10D6080038B54468054694F88530012B02D0A36FDD
:10D6180098073AD494F8C5309A0713D44A78D807AB
:10D6280084F8CF204A88A4F8D0208A88A4F8D22089
:10D6380043F0020284F8C5200FD5154904F1C6004D
:10D6480007F0E2FB94F8C530D90711D4A36F9A0705
:10D6580008D558214020FCF7B5FF94F82A31002B53
:10D66800EBD1EFE743F002032846A36707F0D9FCA4
:10D6780094F88530012B4FF0000301D0002038BD0D
:10D6880084F8853084F8BE30F8E70120F7E700BF5A
:10D69800D954050070B54568044602F0D3F9054B26
:10D6A800014685F883001B681BB12046BDE8704021
:10D6B800184770BDD4130120024B1B6803B11847EB
:10D6C800704700BFD0130120F0B51F4D00242B7800
:10D6D80014709BB1013B6D68DBB21E1B012E0FDC81
:10D6E80005EBC40655F8347076688E4208BF874249
:10D6F80027D0B84271EB060612D214700020F0BD94
:10D708001E197710C6F3470655F837C005EBC70E44
:10D718008445DEF804708F412CBF33463446DCE77D
:10D7280005EBC30455F8335064688C4208BF854242
:10D7380006D0A84271EB040428BF01331370DDE75B
:10D748001C4601201470DAE7FC0D012010F00702D6
:10D7580008B503D063214820FCF734FF18B1034B08
:10D76800197258601A70C80008BD00BFFC0D01206E
:10D77800014B00221A707047FC0D0120FF23084A54
:10D788000B700D234B7082238B701368C1F8033024
:10D798005368C1F807309368C1F80B30704700BF71
:10D7A800120E012016220021014808F0DEBF00BF3A
:10D7B800120E012082B002AB03E903000D48437D3D
:10D7C800B3B1530614D50A880C30B1F87E3020F86E
:10D7D8000C2CD1F8402220F80A3C40F8082CD1F84B
:10D7E8004422054940F8042C022202B0FFF736BB58
:10D7F80002B07047120E012085D70400094B53F878
:10D80800203003F5224370B5B13316464FF47A72CF
:10D818000C46B3FBF2F5344402F0B0FF2C4420442C
:10D8280070BD00BF60C306002DE9F04F8BB0044601
:10D8380098460F46039290F8699006F0F5FD8246E7
:10D8480094F87300FFF7AEF8824407F096FE94F858
:10D85800863000F13C061FFA8AFA0293039B83BBC9
:10D8680094F88430032B2CD1029B0D2B29D1B4F8CA
:10D878005C32BB4225D1D4F8E0312046B4F8B4215B
:10D88800C4F8D031A369C4F8D431B4F8523213447F
:10D89800C4F8D83102F088F8D4E99823A262B4F821
:10D8A8005E22A361A285D4F86822226241F64B5217
:10D8B80093428CBF0023012384F87230022384F83A
:10D8C8008430B4F8505204F50873B4F87EE07D1B38
:10D8D8000493A7EB0E0E2DB20FFA8EFE002D10DA70
:10D8E8007546D4E98E23C4E99223012294F8843042
:10D8F800032B00F26F81DFE813F00600FE005500ED
:10D9080020014246F2E70121002007F02EF8814667
:10D91800A06A5146484403F08BFE5146C4F8DC0126
:10D92800A06903F085FE07A9C4F8E00108A802F081
:10D9380047FE079B0093DDE90823D4E9920108F02C
:10D9480069FC8346204607F030FEA26AD4F85432B8
:10D9580094F86900D51802F019FFD4F8DC1100F525
:10D968002240203D4FF47A73B13032466D1A30317F
:10D97800AD1BB0FBF3F04D44A38DA5EB0B0503EBFA
:10D9880041012D1A94F86900FFF738FFD4F8543292
:10D99800C4F8E401EB1ACC2B59D840F2C741302027
:10D9A800FCF710FEA36A5146D4F8D401184403F0DA
:10D9B8003FFE5146C4F8DC01A06903F039FEC4F803
:10D9C800E001204607F0F1FDA36AD4F8D4511D44C4
:10D9D800B4F8B431002B40F08A80B8F1000F00F0A1
:10D9E800868094F8690002F0D1FED4F8DC11D4F8EE
:10D9F800403200F522406D1A94F86920B130203D7C
:10DA08001D448F4B53F822204FF47A7302F2E73209
:10DA1800D4E98E9AB2FBF3F2A5EB0905B0FBF3F05B
:10DA28001544AD1B2D1AD4F8D821D4F8D03194F868
:10DA3800690002FB0313A18D3246303301EB430129
:10DA4800FFF7DCFE0123C4F8E40184F88430A369FD
:10DA5800D4F8E021A93B9B1A9E1B0023864284F838
:10DA68002032D4E9923228BF064604F130005B190F
:10DA7800C4F8B06142F10002C4E98C3207F03BFA05
:10DA880004233044A4F8507284F82932C4F82402DC
:10DA9800D4E98C23C4E99223B4F8A031DB1B1BB270
:10DAA800002BD4BF00220122520084F82822029AB7
:10DAB8000D2A00F09280B8F1000F40F0918094F8A0
:10DAC8008430002B00F0A880A16904F50870D4F810
:10DAD800E031C91A06F0F7FE80B2002800F09C80F9
:10DAE800149B03B1188001200BB0BDE8F08FD4F867
:10DAF800DC116D1A97E7D4F8E021A369B4F8B4C132
:10DB08009B1AD4F8D811F444D4F8D0015D43D4F862
:10DB1800DC31ACEB010C30330CF1FF3C00FB013382
:10DB2800A18D94F8690002FB0C33324601EB4301E6
:10DB3800FFF764FEC4F8E40189E7D4F8E0A1A3691B
:10DB4800A3EB0A035D4394F88530292B03D094F89E
:10DB58008630292B09D1B4F85C32FB1A1B0404D493
:10DB680094F85F32002B18BF9946B4F8B4C142B399
:10DB7800BCF1000F25D1D4E99023D4E98E0190425D
:10DB880071EB030302D340F21B5108E794F86910C4
:10DB98004FF47A7B2A4B203A53F82130D4E98E018E
:10DBA800CDE9040103F2E73103F522430498B133C8
:10DBB800121AB1FBFBF1B3FBFBF30A44D21A921B16
:10DBC80015440CEB0E01324648460AFB01F1303190
:10DBD8004900ADE740F23351E1E6B8F1000F1BD040
:10DBE800B4F8C80110B3B4F8CA1194F8CC214D1C8C
:10DBF800A4F8CA1101FB022290420DDD002B0BDDB7
:10DC08000023A4F8CA5184F82832FFF7ABF900F0D2
:10DC18000700013084F8CC0104F5087104F5FC70A4
:10DC280004F044FD20B940F27D51B8E60146DCE736
:10DC3800039B83F0010384F8F031002054E700BF10
:10DC480060C306002DE9F8430E46044618B9D521ED
:10DC58003020FCF7B7FC052900F2A780DFE801F0C7
:10DC68000376413DA52E08F088FBC4E9460120460D
:10DC780000F05EFFD4F80C01A43808F0C5FA20467D
:10DC880008F02DF8054600BB0146204607F064FF62
:10DC980000F1AE06D4F80C01B04209D2301A0321C3
:10DCA800192838BF192008F03AFB60B108F0AEFA1D
:10DCB800C4F80C61204608F022F845B12046BDE8BA
:10DCC800F84308F01DB80125F2E70025F2E7D4E98A
:10DCD8004623C4E94023BDE8F883BDE8F84302F0D1
:10DCE8007BBC07F044FF04238146884684F8113141
:10DCF80008F088FA07220F46A9FB023102FB081137
:10DD0800D4E940525B1941EB0205D4F8E8203AB156
:10DD180059EA080204D0984277EB050228BF012689
:10DD280084F81061D4E94826121A66EB070694F8BD
:10DD3800301139B9012A76F100010BDA204600F0DA
:10DD4800FFFE03E0012A76F10006F7DB002384F8E2
:10DD58002831C0E7984277EB05010FD259EA080845
:10DD68000CD01B1A65EB07019A4276EB010005DB24
:10DD7800012B71F10000A4BF1A460E460C4901237D
:10DD880004F1C000914284F829314FF0000384F86F
:10DD98000831B341B8BF0A4604F5847104F0FEFCAB
:10DDA800002898D140F2BA6152E7F12150E700BF4C
:10DDB8000040420F2DE9F84304460E46154690F8F8
:10DDC800283103F0FF07002B40F0948000F1C008D1
:10DDD80039467822404608F0C8FC22464649404663
:10DDE80008F048FBC4F8E860FF2384F8283166B1DE
:10DDF800FFF7D0F800F0070032464049013086F8B6
:10DE0800CC0106F5FC7008F035FB40F202434FF0F8
:10DE18000009A4F8103184F8089103F05FFC00F1C0
:10DE28004906204607F05BFF0146B6B2C0B306F0CC
:10DE3800FBFA00F5CD61284689B203F0F9FB2844C6
:10DE4800AE3DC4F80C0108F0DDF93018A4F81E90B6
:10DE580041F10001C4E94601012084F8EC0007F013
:10DE6800E9FF2D1AC4F8F0504FF0FF356FF000416C
:10DE78004046D4E94623C4E94851002504F5847195
:10DE8800C4E93E23C4E9402384F8295142F21072C0
:10DE980004F084FC38BB40F2BB113020FCF792FB45
:10DEA8002046DFF85C9007F057FEAE30C4F80C014E
:10DEB800B9F8000048B1E08B38B1FFF76BF8B9F852
:10DEC8000030B0FBF3F202FB1300064408F09AF9A5
:10DED800361841F10001C4E94661002DC4D0AD19DE
:10DEE80041F10001C4E72946204607F00BFF3846F8
:10DEF800BDE8F8830C27FAE74DDC0400CD55050092
:10DF0800280E0120F0B5002385B0CDE900330123A8
:10DF18008DF806306846FCF7DFFE70B10123114E1C
:10DF2800B3700023CDE9023302A8FCF7D5FE0446FE
:10DF380038B10023B37005B0F0BD009807F038FC85
:10DF4800E8E7029D95F88430002BEDD005F5FC77C5
:10DF5800384604F00BFC384608F0B2FA85F88440DD
:10DF6800E2E700BF280E0120044B0022DA709A7005
:10DF780042F210721A80FFF7C5BF00BF280E0120B9
:10DF8800014BD870704700BF280E012008B502F079
:10DF98005DF8044B5A6882422ABF9878002080F0C6
:10DFA800010008BD280E0120F7B5044606297AD8D5
:10DFB800DFE801F0042715252B3074003B4B9B78D4
:10DFC80003F0FF025BB900920123B0F8A411FFF738
:10DFD8002BFC38B140F2D6613020FCF7F3FA042369
:10DFE80084F8843002F0D6F904F04CFB0023B4F82E
:10DFF8007E20A4F85232A4F8EE2184F8F13103B05F
:10E00800F0BD032380F88430F9E708F084F8C4E908
:10E018009001F4E790F8690007F0B7FA7730D4F880
:10E02800E0319528A569214F8CBF0020C0F19600EA
:10E03800C218954288BFED1AFB7894BF00252D1AA7
:10E048001BB9236B9D4228BF1D46D4F8B06104F16B
:10E05800300006F050FF0644022008F036F902218D
:10E06800AD1B25EAE575854228BF0546284608F018
:10E0780056F910B12E4408F0C9F801234FF4807204
:10E088003146204606F094FFD4F8B0317860A06994
:10E09800184403B0BDE8F04008F0B6B803B0BDE8D6
:10E0A800F04007F082BA40F2A47195E7280E0120EB
:10E0B800014B1880704700BF280E01200346074A0D
:10E0C8001068D3F84920C0F80320B3F84D20A0F811
:10E0D800072093F8481006F0A6BD00BF300E0120B7
:10E0E80070B504460E461346807D6588324615F0A5
:10E0F800040118BF04F15701FEF79EFB41070546CE
:10E1080021D4C2070BD50123A07D84F84830FEF73F
:10E11800F7FB0368C4F849308388A4F84D30AB078F
:10E1280001D4012070BD094B01211868D4F857307B
:10E1380084F85610C0F80930B4F85B30A0F80D30F8
:10E1480006F07AFDEDE70020ECE700BF300E012075
:10E1580038B5C38C04460F4D0133C3F30E03C38493
:10E168002B7C2BB102F0F8F901F008FD00232B7489
:10E1780000232B7194F869302BB101212046BDE8AA
:10E18800384007F0E3BB637C13B1E28C9A42F4D2C7
:10E198000021F3E7300E012010B5074C2379012B3D
:10E1A80005D1237C1BB102F0D7F901F0E7FCA06987
:10E1B800BDE81040FFF7CCBF300E012070B5254CEC
:10E1C8002379012B04D04FF448612D20FCF7FAF98C
:10E1D80098B90125237C1BB102F0BEF901F0CEFCF1
:10E1E800002D36D0A06907F0FEFA68B302F07EF879
:10E1F800E369BDE870409B6818472168A26911F877
:10E20800095B02F1490392F84820E80906F001FB8E
:10E218000028DED00021206806F033FD0028D8D081
:10E228002379A069012B02D040F65A41CDE7237922
:10E2380005F00F01E26903F180435269013B52F88E
:10E24800233098470546C5E7A069BDE87040FFF749
:10E258007FBF70BD300E01200346074A906903B99D
:10E2680009B9FFF775BF1379D26903F180431269C1
:10E27800023B52F823301847300E012003292DE9BC
:10E28800F043054685B0174607D14388980723D43D
:10E298000024204605B0BDE8F083428890F8683035
:10E2A800D107DBB2F4D5002BF2D14FF00108DFF82B
:10E2B800D49099F81060C6B106F0EFFA08283870C3
:10E2C80016D002AA0DF10701FEF78CFA38B940F60C
:10E2D800F5612D20FCF776F94FF00208E7E702A96F
:10E2E8009DF8070007F031F906463B78082B08D15E
:10E2F800D9F8001011F8030BC0F3801007F025F9C6
:10E308000646D9F8001005F1500395F84F2011F88A
:10E31800030BC0F3801006F07CFAD9F8001004460D
:10E3280011F8030BC0F3801006F0ADFA8146FEF732
:10E33800F9FA40B1B9F1080F1BD04846FEF77EF94B
:10E3480080F00103D8B23A78082A14D01CB9AC7D01
:10E35800A21A544254416A8853079AD4002897D184
:10E3680076B9EC7C444518BF002C0CBF012400246E
:10E378008FE70020E7E780F001022240D4B2EAE705
:10E38800344686E7300E01202DE9F04F85B008238A
:10E39800052104460DF107028DF80730FFF76EFFDF
:10E3A800064620B90026304605B0BDE8F08F734F09
:10E3B800396807F112037A7C11F8030BC0F3801057
:10E3C80006F027FA80460028ECD13B6840F2E24983
:10E3D800A169184691F88D2010F8035B02EA5512DE
:10E3E8001D4602F0010281F88D20D3F80320C1F800
:10E3F80003208288A1F8072015F81F1BA269C1F322
:10E408008011917002A9D3F81F0002902879087131
:10E41800D3F80F00D061587D1D7D000440EA052027
:10E42800DD7C28435062B3F8190082F8728009FB3A
:10E4380000F090619D7DC5EB451005EB800505EB6F
:10E4480085056D009585B3F8170009FB00F090620B
:10E45800B3F81B001084B3F81D00508493F82430DF
:10E4680003F01F005B0982F8990082F87330A569F0
:10E4780094F912A005F18D0006F032FB40F2011369
:10E48800A5F868304FF0FF0B85F86AB0414605F1F2
:10E498003000FEF7EFFC51462846FEF779FAA369EB
:10E4A80084F8738004F17E011A8884F891B0A4F886
:10E4B80074204FF6FF729DF80700A4F892209A691D
:10E4C800B2FBF9F2A4F88A201A8CA4F88C205A8C92
:10E4D800A4F88E2093F8732084F89020627D5AB3B4
:10E4E80094F84820012A27D194F84E2002F0C0025F
:10E4F800402A21D1D4F84920C4F87E20B4F84D2010
:10E508008A8008289A7803F1030504F1840184F8C5
:10E51800772004F17802D3F8033027D0C4F8843088
:10E52800AB888B8004F17701FEF75CF940B94FF4B2
:10E538003E612D20FCF746F80022C4F87E20DFE774
:10E5480094F8773043F0020384F8773004F16A00D6
:10E558000B4906F050FC0B4B0022A0691B683A716E
:10E56800002B3FF420AF214698471CE7A367AB88F0
:10E5780093800023C4F884308B80E7E7300E0120B5
:10E588007D5A0500DC130120032937B5044604D061
:10E59800052957D0012003B030BD08230DF107022B
:10E5A8008DF80730FFF76AFE0028F3D0237C2A4D48
:10E5B80003B39DF8070094F8B630DBB92378082830
:10E5C80004F1B90284F8B7302DD004F1B801FEF790
:10E5D80009F920B940F66E712D20FBF7F3FF94F886
:10E5E800B83043F0020384F8B8301C4904F1AE0097
:10E5F80006F001FC2B68042220461A7006225A7085
:10E60800FFF75CFD616B94F83820286806F02AFB58
:10E61800032328682B7101F023FF0021286807F0E5
:10E6280084FD0020B7E72868034613F8031BC1F3ED
:10E63800801184F8B810D0F80310C4F8B9109B887A
:10E648009380D2E7064B1B68002BEAD0984780F0EE
:10E658000100C0B29FE700BF300E0120655A0500D7
:10E66800D8130120F8B504460F4619B300F1200568
:10E67800284607F0BCFBA0B963881A072ED52846A0
:10E6880007F0CAFB0646284607F0B1FB301AC0B2AD
:10E6980007F0D0FB494A936803442846936007F083
:10E6A80085FB284607F087FB01F08EFD21792520A0
:10E6B80001F0F0FC414E002394F8562030680370B6
:10E6C80043706388103B0D2B68D8DFE803F063675D
:10E6D8005F0C674467676767676767442046BDE8FC
:10E6E800F840FFF735BD062343702023037020460A
:10E6F800FFF7E4FC638823F008039BB2152B05D0D1
:10E7080094F83020E16A306806F09DFA306801F02C
:10E71800A7FE0021306807F008FD022321790020B8
:10E72800337101F05FFD054607B9F06063881B0788
:10E7380004D507F07CFB0544C4F8F4506388103B0B
:10E748000D2B36D8DFE803F038352F2F352F353528
:10E7580035353535352F0C2321214370034603F811
:10E76800091B52B1D4F857200121C0F80920B4F888
:10E778005B209A8006F060FAB9E7226DC0F809209C
:10E78800B4F854209A8094F84F10F3E706230370E6
:10E798004370ACE7022303700623F9E740F259619E
:10E7A8002D20FBF70FFF21790120BDE8F84001F08B
:10E7B800EDBE40F6F341F3E7F8BD00BF300E01208F
:10E7C80038B543880446102B04D10121BDE83840F0
:10E7D800FFF748BF0B4D2B7C23B101F0A9F940206E
:10E7E80001F0AEFE286801F03BFE608810F00400DE
:10E7F80002D1217901F0CAFE002001F07FFE012339
:10E808002B7138BD300E0120024B01219869FFF7AA
:10E8180029BF00BF300E012010B5124C237C1BB15C
:10E8280001F09AFE01F0AAF9A06906F0DCFF38B100
:10E838002379012B09D040F684312D20FBF7C2FE45
:10E84800A069BDE81040FFF783BC2379E26903F1B2
:10E858008043A069D268013BBDE8104052F82330DC
:10E86800184700BF300E0120074810B5037903F0A0
:10E87800FF0433B914222146043007F076FF2046FE
:10E8880010BD0C24FBE700BF300E012010B500239B
:10E89800094C2371FDF798FC2060FFF7E5FF20B1D4
:10E8A8004FF442712D20FBF78DFEE36913B940F256
:10E8B8000B31F7E710BD00BF300E0120014B024AB3
:10E8C800DA617047300E01208CEB0400034B044AD8
:10E8D8001A60044B044A1A60704700BFD81301201D
:10E8E80091E30400DC13012005590500F8B5057D06
:10E8F8000446AF1EFFB2002D3AD0012F2DD800F1EB
:10E90800500190F84F0005F0BEFF0828064624D0B5
:10E91800FDF7A0FE10BB023D18BF0125012F84F8AA
:10E928004850A6758CBF002701276775FDF754FF6F
:10E93800054607F067FC0022144B84F85620E5FBD7
:10E948000301C4E9100111462046FFF7C9FB70B95D
:10E9580040F2A3412D20FBF735FE0826022D09D1F0
:10E9680004F149010020FDF703FD60B90020F8BD5E
:10E978000826F5E704F149010120FDF7F9FC002814
:10E98800F4D00125CAE70025C8E700BF40420F00C0
:10E99800F0B5444E85B00446327902F0FF0312B94F
:10E9A8000278FF2A04D140F6DC112D20FBF70AFE7D
:10E9B800B36080F869303C4B684604F12005009349
:10E9C8003A4B01933A4B0293F3695B68039301F066
:10E9D8003FFD01F08BFB01F0BFFD01F0CFF835489A
:10E9E80001F0E8FB344801F02DFD284607F0DEF978
:10E9F800284607F0E0F901F0E7FB2179252001F02E
:10EA080049FB94F9120001F0CFFB04F12C01A06A34
:10EA180004F0E2FF074604F13401A06A05F003F8A8
:10EA28000546DFB1237FCBB1B4F92650ED43ED0F96
:10EA3800637D13B963885B0709D56FF00043D4E998
:10EA480010129A4208BFB1F1FF3F0DD19DB930684D
:10EA58000330FDF7DFFE307405B0F0BD002DE7D0C0
:10EA6800657F002DE0D1E3E707F0CCFBD4E9102364
:10EA780090429941EAD3012229462046FFF730FB0C
:10EA880050B1FDF7A9FE054607F0BCFB0B4BE5FBB3
:10EA98000301C4E91001DAE7002DD8D040F61A21A5
:10EAA80083E700BF300E012021E80400C5E104001F
:10EAB80061E20400D6BE898E5555550040420F00CC
:10EAC80073B50446FFF764FF00212046FFF7CAFD2F
:10EAD800236E0BB101221A606388DB0721D500235E
:10EAE800114EA569CDE90033FF2373746846FCF71E
:10EAF800F3F8B0B9009CA542F8D005F10A036A7A88
:10EB080004F10A01607A05F084FE0028EED0A378AB
:10EB18007374D4F80330C6F81230044BB4F80720E5
:10EB28009A8002B070BD00BF300E0120420E012055
:10EB3800024B9861DB691B68184700BF300E012043
:10EB480043881B0710B504460ED583693C22084943
:10EB58006A3042721B884381FF2380F827304FF6C2
:10EB6800FF73038506F047F9FF2384F8693010BD69
:10EB78007D5A0500C95A0500C9E70400CF5A0500A7
:10EB880091E50400C9EA0400A1E1040011E80400C9
:10EB98007CEB040080EB040088EB040001380228B9
:10EBA80008B503D9C4212F20FBF70CFD13290A4B04
:10EBB80005D811290CD8102907D0D221F3E7152937
:10EBC800FBD103EB4003D88801E033F8100008BDFF
:10EBD80003EB40039889FAE7DEC206000C4A0346B5
:10EBE800117889B9906833B9B0F85810828F91427A
:10EBF8000AD8FFF7CBB993891B0707D590F8870088
:10EC0800073818BF0120704700207047012070475F
:10EC1800500E01202D4A38B50346948990681C434C
:10EC2800402B948104D10421BDE83840FFF7BCB9DA
:10EC3800802B01D10521F7E703F00304032C04D14D
:10EC480040F62E313120FBF7BDFCDD0706D50C68F8
:10EC580011612478062C0FD00B2C19D09C0706D5EF
:10EC680009680978052911751DD00B2927D09B063D
:10EC780044BF0823137038BD90F886401C2CEDD192
:10EC880000240025C0E93845012480F88A40E5E7DA
:10EC980090F88640122C01BF002480F88A40012495
:10ECA80080F8C440DAE790F886101829DFD10024EC
:10ECB80000250121C0E93A4580F88B10D7E790F884
:10ECC80086101129D3D10021F6E700BF500E01208C
:10ECD80073B5044640680D46836F13F0300F4AD170
:10ECE800B1F805101A2904D9B5F80730B3F5A47F8F
:10ECF80006D22978204602B0BDE8704006F0C3B9B4
:10ED0800B5F801201A2AF4D9B5F80360B6F5A47F3E
:10ED1800EFD33030009606F000F9184B9A89920725
:10ED28000DD51B7D142B0AD16268936F43F0100335
:10ED38009367204606F075F9002002B070BD63683D
:10ED480093F88520212AEFD093F81B31002BEBD1C3
:10ED5800636893F81A31002BE6D16268936F114605
:10ED680002F59F7243F0200331F8300B42F8C63C9D
:10ED7800FEF7E4F8DDE70120DFE700BF500E0120D1
:10ED880013B5044601A8FDF79DFA20B940F61711FE
:10ED98003120FBF717FC22220021019807F0E5FC3F
:10EDA80001992246064801F8034FFEF7B1F9FDF72D
:10EDB80095FA10B940F61E11EAE702B010BD00BF7F
:10EDC800540E0120254B70B59C6894F85E5294F857
:10EDD8005F62002D3ED194F86810002E3CD194F863
:10EDE800693084F8681084F86930FF2384F86A3041
:10EDF8001B4B1B680BB12046984794F82431012B14
:10EE080001D0354303D000211648FDF719FA04F163
:10EE18003006304606F06FF804F2351105462046F4
:10EE2800FEF73EF820460621FFF7BEF8304606F00A
:10EE380062F8854204460BD207F0A3FA0146601B2C
:10EE4800192838BF192007F06AFA10B107F0DEF95F
:10EE5800012070BD2946C0E73346C2E7500E0120A5
:10EE6800EC130120540E01202DE9F8436A4D0646A3
:10EE7800AC68002840F08C80AB891A072DD594F82F
:10EE88000E31FE2B04D140F2F7513120FBF79AFBEB
:10EE9800FE2384F80E3194F886301E2B06D184F8B0
:10EEA800C300281D06F0C7F884F8866094F88530FA
:10EEB800242B0AD194F88630A3F12402062A2AD9F1
:10EEC800322B28D0252384F8853094F88730072BF7
:10EED80002BF02236B7584F80E31AB89DB071CD4A3
:10EEE800AB895F077CD4990740F18480287D012293
:10EEF800AB680D2883F80F2179D0112800F08580A0
:10EF0800072800F08480FEF7B3F9034600286FD184
:10EF180040F2EA51B9E73223D5E7D5F808802969E4
:10EF280098F88630D1F80090113B99F800700F2BB3
:10EF380009D8BB1EDBB2092B6BD840F2333222FA58
:10EF480003F3D80765D509793846FDF75FFD20B981
:10EF58003946324806F097F83AE0012F01D9162FC2
:10EF680022D198F8850006F07BF840B198F88530F2
:10EF7800242B04D0252B07D1322388F88530384636
:10EF8800FEF76CF903461CE0162F14BF0226202654
:10EF98002B781B0705D594F88630113B0F2B98BFAB
:10EFA80008263046BDE8F883112F15D005D8072F5D
:10EFB80014D00D2FE3D11A4B05E0142FDFD1194BD4
:10EFC8001B68002BC4D02A6949461448127998470F
:10EFD800002885D00646DBE7134BF4E7134BF2E72E
:10EFE80094F88720062A04BF01226A757BE7104B34
:10EFF8000A489847AB89DA06CAD594F886300A2BAE
:10F00800C6D10B2384F88630C2E70A4BF0E70A4BD7
:10F01800EEE70826BCE700BF500E0120540E012081
:10F02800C75F0500E01301200F60050045F00400EC
:10F03800155F0500335F0500635F050070B54D7807
:10F048000446A5F10E03DBB2152B0DD8012140F2C1
:10F05800512201FA03F6164208D14268152B92F89C
:10F06800852027D0082B07D0002070BD02462846EF
:10F07800BDE8704006F0E2BE252A01D0322AF3D15D
:10F08800204605F0C5FF636893F88620262AEBD052
:10F0980093F8D5201A21204622F0010283F8D520C2
:10F0A800626892F8D53023F0080382F8D530FDF76E
:10F0B800C7F8D9E72C2AD7D1024B1B68002BD3D02D
:10F0C8009847D1E7E81301202DE9F041A0F10E049B
:10F0D80000291346E4B208BF1F21172C0AD80126BD
:10F0E80040F25127A6403E4207D116F4600F23D1C3
:10F0F800082C07D00020BDE8F0810021BDE8F041D0
:10F1080006F09CBE546894F88520252A08D1184634
:10F11800FDF796F8002384F8853084F8BE30E9E7D7
:10F12800322AE7D194F88620A2F124010629F1D9E0
:10F13800322AEFD02A21EAE7054A1468002CD9D0F0
:10F148000A46014618462346BDE8F041184700BF65
:10F15800E41301202DE9F84FB54F0E468046B989D2
:10F16800BC688D0504F1780A54BFB4F8B4200023B4
:10F17800504653BF0132A4F8B43084F8AF31A4F834
:10F18800B42006F00BFF30B10B4604F59672214609
:10F198005046FEF719FABB8903F4C0632BB194F803
:10F1A8008930002B46D0032B4BD094F88920BB899B
:10F1B800012A04D1180544BF022284F88920B8F135
:10F1C800000F40F09480590657BFB4F8C821424652
:10F1D800013292B2A4F8C82103F00A020A2A0CD11B
:10F1E8003A7D022A09D123F008033046BB81FFF794
:10F1F8003BFE30430823C6B2BB813046FFF734FEDE
:10F20800BD68304395F80E31C6B2FE2B3CD1DEBB4B
:10F2180095F88730063B012B36D995F81831ABB1F4
:10F2280095F8193101220221A5F8B86085F8103146
:10F2380028462EE1012184F889102046FEF7B4FE05
:10F24800B3E70223012184F88930F6E795F886B000
:10F25800ABF1100B5FFA8BFBBBF1100F40F2EC80A7
:10F26800AB6FDA0702D532460921E1E7980740F18A
:10F27800928032460C21284606F02FFE95F8C530BC
:10F2880043F0010385F8C530B4F8A83194F8AC51BF
:10F298000133A4F8A831002D00F0F281FCF768FBD7
:10F2A80010B10023A4F8A83194F88910012940F27C
:10F2B8001C8294F88730072B40F0FA81B4F8B430F8
:10F2C800022B40F21282B4F8B6500135ADB2B4F850
:10F2D8007E302B44A4F8A03194F8AD31002B00F017
:10F2E80008820123B4F87E201344A4F8A431BB8912
:10F2F800BD685B0657BFB5F8B4310023B5F8A62141
:10F308009B1858BF9BB2A5F8B43195F8183123B9AA
:10F3180095F88730063B012B06D8B5F8B830B5F814
:10F32800A6211344A5F8B83095F8BE1031B1B5F848
:10F33800BA30B5F8A6211344A5F8BA3095F9C22019
:10F34800002AC1BFB5F8C030B5F8A6011B18A5F84A
:10F35800C03095F8A73063B9B8F1000F40F05B8270
:10F368007B7D022B40F00C8295F81031062B18BFDC
:10F37800162395F8A62022B92E4885F8A730FDF760
:10F3880081FF284606F06DFE002384F8AB31BDE806
:10F39800F84FFCF7BFBF590702D53246132147E79C
:10F3A8001A0706D595F80831324685F81031072135
:10F3B8003EE713F0300F35D095F81B31002B5BD1A9
:10F3C80095F81A31CBB195F8863005F58D7105F2AF
:10F3D8005E22292B24D095F88530A3F129004342D9
:10F3E8004341284605F08BFDAB6F23F0200343F023
:10F3F8001003AB67002385F81A31AB6FDA063BD5EB
:10F4080005F235112846FDF74BFDB5F852300022BC
:10F418001521A5F81031B5F85630A5F8123107E7CF
:10F428000123DEE75B0627D50022242100E700BF81
:10F43800500E0120540E0120D7F8089099F8863014
:10F44800182B32D013D8112B20D0162B24D095F896
:10F458008530002B67D195F88630103B102B6AD980
:10F4680095F8B230002B66D001221221E0E6202B5D
:10F47800EDD1324606210BE0B86890F88630262B8D
:10F4880041D0352BE3D10022112102E032460B2175
:10F49800484606F022FDF7E64846FDF765FF0028D6
:10F4A8003FF4F2AE00220421F2E799F85832012B1A
:10F4B80007D132460521484606F00FFD89F8586203
:10F4C800E2E699F85832022BD9B27FF4DDAE99F80A
:10F4D800C43053B10623324689F81031484606F045
:10F4E800FCFC002389F85832EAE703210622B148D8
:10F4F80005F0B0FD99F8D430324613F0040F0CBF74
:10F508000D211121EAE790F82431022B02D10022C3
:10F518001721BEE790F82431012B98D190F82531B6
:10F52800002BF4D093E7092B05D195F80931012276
:10F5380085F810313BE7BBF1100F7FF6A5AEBD682B
:10F5480095F88590B9F1000F7FF49EAE95F82B31B0
:10F558003BB101220E21284606F0BFFC85F82B910D
:10F56800AEE795F82A3183B195F8C59019F0030BE9
:10F578000BD149F0010901220C21284606F0ADFC07
:10F5880085F8C59085F82AB19AE795F81A3133B30A
:10F5980095F81B311BBB95F8863005F58D7105F282
:10F5A8005E22292B19D095F88530A3F12900434212
:10F5B8004341284605F0A3FC002385F81A310122AF
:10F5C8001421284606F089FCB5F85230A5F8103108
:10F5D800B5F85630A5F8123156E60123E9E795F853
:10F5E8002431012B3FD195F82531002B3BD195F8DB
:10F5F8008630A3F12402062A35D9322B33D095F868
:10F608006800012806D0022804D040F211310620F3
:10F61800FAF7D8FF95F86910012901D00229F4D129
:10F62800022895F826210BD0012A14BF00220122B6
:10F6380042B90A3B042B7FF627AE01221621F7E5D3
:10F64800022AF2E7022995F827210AD0012A14BFD5
:10F6580000220122002AECD000215648FCF7F0FDD8
:10F6680012E6022AF3E7544B1B68002B3FF40CAE5A
:10F6780050489847FE2801463FF406AE0122D7E5D8
:10F68800FCF770F908B1A4F8A851FCF779F900283B
:10F698003FF40AAE94F8AF310133DBB2022B84F8A1
:10F6A800AF3182BF0023A4F8A83184F8AF31FBE55D
:10F6B80094F8B2301BB194F885300F2B15D1B4F8FB
:10F6C800B6505046B4F8B430ED1A033D06F066FC67
:10F6D80068B1D4F8AC30D4F8A820033B9B1A9D42FB
:10F6E800A8BF1D46012D3FF7F1AD0125EFE52B46DB
:10F6F800F5E7012D7FF6F5AD94F8863013B10B2BA5
:10F708007FF4EFAD94F88530002B7FF4EAAD94F8E0
:10F718008730002B7FF4E5AD02297FF4E2AD94F841
:10F72800AF31002B7FF4DDAD2069B4F82E9003F0E3
:10F73800A5FF00283FF4D5AD94F80E31FE2B7FF4D9
:10F74800D0ADB4F8A231012B7FF6CBADB4F8A82127
:10F75800238C9A42BFF4C5AD013D9B1AADB29BB252
:10F76800B5FBF9F59D4228BF1D4605FB09F3003D91
:10F7780003F1010318BF01259BB284F8AA51B1E532
:10F78800012B09D195F88830002B7FF4F2AD0021C8
:10F798002846FEF709FCF7E586B1F00639D43107AB
:10F7A80039D4B20639D4B30739D140F6AF21312064
:10F7B8002EE700BF540E0120F013012039B1B5F82F
:10F7C800BA10B5F8BC30994201D32223D1E5002AFA
:10F7D80005DDB5F8C020B5F8BC309A42F5D2B5F8C9
:10F7E800B820B5F8B6309A420AD295F88920B5F80B
:10F7F800B43052B1B5F8B6209A42C8D80823B8E553
:10F8080095F81831002BE0D1EFE7052BBFD93E233F
:10F81800AFE51E23ADE53D23ABE52323A9E52A2368
:10F82800A7E500BF73B55B4B00250122044698602D
:10F838001A719D811D705D75FF2380F8AB31B0F89A
:10F84800A231D3B190F80E31FE2B16D190F81831B1
:10F858009BB190F88730063B93420ED990F8193146
:10F868000221A0F8B85080F8103106F036FB0220CB
:10F8780084F8AA51FFF784FA03E094F80E01FE28F1
:10F88800F8D1B4F8A61104F17806E38D0139B4F87B
:10F89800A821304689B2B1FBF3F31344A4F8A83188
:10F8A800B4F8B4300B44A4F8B43006F077FB20B1B8
:10F8B800D4F8A8300B44C4F8A830B4F8A231002515
:10F8C800012B9CBF0133A4F8A23109B184F8AF51D0
:10F8D80094F8863084F8AA51A3F10A02012A29D89B
:10F8E800B4F87E30B4F85C229B1A19043BD404F2B5
:10F8F8005E2104F18D0005F0F3F884F88650FF23AB
:10F9080084F8BF30B4F8A6212146304605F02FF917
:10F9180094F886302049113B204A0F2B8CBF0023D6
:10F92800012301931E4B00931E4B03C9FBF740FFB5
:10F9380002B070BD292B16D1B4F85C22B4F87E3021
:10F948009B1A1A040FD484F88650FFF73BFA014635
:10F9580030B984F8240102B0BDE87040FFF7FABB63
:10F9680084F82451CEE794F8853003F0FD03292B61
:10F97800C8D1B4F87E30B4F85C229B1A1B04C1D4F9
:10F98800002384F88530FFF71DFA01460028B9D115
:10F99800E1E700BF500E0120540E01201DEC0400C9
:10F9A8005DF10400E5EB0400D0F86432826993420B
:10F9B80010B5044604D1D0F86812026A914215D0F5
:10F9C800228804F5C0700F49A4F88A2140F2E24267
:10F9D800B3FBF2F3A4F88C31B4F86832A4F88E3192
:10F9E800B4F86A32A4F8903105F00EFA02212046E4
:10F9F80004F0FBFF002384F88630032384F8893061
:10FA080010BD00BF9951050008B5FDF755FB024B25
:10FA1800024A1A6008BD00BFE0130120D9EC0400B7
:10FA2800074B93F900301844142804DC10F17F0FB9
:10FA380003DB40B27047142070476FF07E007047B8
:10FA4800680E01207F2307B50DF107008DF80730F8
:10FA580000F090FD03469DF9070053B1094B5B7810
:10FA68005B425BB21844142806DC10F17F0F05DBFB
:10FA780040B203B05DF804FB1420FAE76FF07E0093
:10FA8800F7E700BF680E0120024B00221A705A7077
:10FA9800704700BF680E0120064BD3F8000138B14B
:10FAA800D3F8040120B1D3F80801B0FA80F0400976
:10FAB800704700BF00A00440034B00221A705A7020
:10FAC80010229A70704700BF6C0E0120F8B50646E8
:10FAD800022014460D4600F0CDF8114B114A0127BB
:10FAE8005C60191D9A6002F1807203342D011F7049
:10FAF800DC601D83C3E904260022243303F80A2CA2
:10FB08000D2203F8092C084AC2F83015074903C921
:10FB180083E80300C2F80875C2F83835F8BD00BF9D
:10FB28006C0E01200300000B00A00440F0C2060088
:10FB380008B5022000F09EF80D4B01221A70002231
:10FB48000C4BC3F80021C3F80421C3F808210A4A62
:10FB5800C3F8802003F56433C3F88C20A3F57C3305
:10FB6800C3F88C21A3F500530822C3F8042508BD67
:10FB78006C0E012000A0044003000080154A08B55F
:10FB88001378FBB100231449C1F8803001F56431C2
:10FB9800C1F88C30A1F57C31C1F88C3108210F4BAC
:10FBA800C3F80815FFF778FF88B101235370938EC7
:10FBB800FF2B03D9BC213B20FAF704FDDBB293707D
:10FBC800002313700020BDE8084000F053B810234C
:10FBD8005070F4E76C0E012000A00440002004409F
:10FBE800094B1A7862B1094BD3F8002152B1D3F806
:10FBF800040140B1D3F80801B0FA80F04009704719
:10FC080058787047022070476C0E012000A004400D
:10FC1800064A08B513782BB1FFF73EFF20B192F8DA
:10FC2800340008BD9078FCE71020FAE76C0E01203C
:10FC380038B5084C0025D4F80035032B04BF012340
:10FC48006360C4F80055C4F8005500F0C7FFC4F855
:10FC5800805038BD00A00440054B4FF48062C3F8C3
:10FC68008820BFF34F8FBFF36F8FFFF7E1BF00BF4F
:10FC780000E100E010B50446FFF7DAFF012C06D0DA
:10FC8800022C09D03CB18C213D20FAF79BFC074B94
:10FC98000222C3F8002510BD044B0322C3F8002537
