:10000000F0050120E12C00003D8B0000CD2C00000C
:10001000CD2C0000CD2C0000CD2C0000CD2C0000FC
:10002000000000000000000000000000412E000061
:10003000CD2C000000000000E52D0000CD2C0000BC
:10004000CD2F0000CD2F0000CD2F0000CD2F0000C0
:10005000CD2F0000CD2F0000CD2F0000CD2F0000B0
:10006000CD2F0000CD2F0000CD2F0000CD2F0000A0
:10007000CD2F0000CD2F0000CD2F0000CD2F000090
:1004C80053B94AB9002908BF00281CBF4FF0FF31B3
:1004D8004FF0FF3000F00CB8ADF1080C6DE904CE18
:1004E80000F010F8DDF804E0DDE9022304B07047FD
:1004F800704700BF034613F8012B002AFBD1181AD6
:10050800013870472DE9F04786468C460846089E14
:10051800154674461946002B40F0C1808542B2FA50
:1005280082F245D94AB1C2F1200300FA02FC954093
:1005380094402EFA03F343EA0C0C4FEA154EA8B286
:10054800230CBCFBFEF80EFB18CC08FB00F943EAB1
:100558000C43994528D9EB1808F1FF3704D299457F
:1005680002D9A8F102072B44A3EB0903A4B2B3FBF9
:10057800FEFC0EFB1C330CFB00F044EA0344A042D3
:1005880014D92C190CF1FF3304D2A04202D9ACF1D2
:1005980002032C44241A43EA07401EB1D440002326
:1005A80034607360BDE8F0874746DDE76346F1E7EE
:1005B80092BB431B01214FEA154EAFB2200CB3FB8F
:1005C800FEFC0EFB1C330CFB07F840EA034398457E
:1005D80061D9EB180CF1FF3004D2984502D9ACF17F
:1005E80002002B44A3EB0803A4B2B3FBFEFC0EFBF2
:1005F8001C330CFB07F744EA0344A7424DD92C19D6
:100608000CF1FF3304D2A74202D9ACF102032C4407
:10061800E41B43EA0040C0E7C2F120039540944040
:1006280020FA03F12EFA03F34FEA154E9040AFB2C9
:100638000343B1FBFEFC0EFB1C10190C0CFB07F866
:1006480041EA0041884522D969180CF1FF3004D2EB
:10065800884502D9ACF102002944A1EB08019BB2FC
:10066800B1FBFEFC0EFB1C110CFB07F743EA014330
:100678009F420ED9EB180CF1FF3104D29F4202D9E8
:10068800ACF102012B44DB1B41EA004193E76046D1
:10069800E3E76146F7E76046A4E76346B8E78342C5
:1006A80006D916B9002108467CE7C6E900E0F9E753
:1006B800B3FA83F78FB9834201D3724508D8BEEBEA
:1006C800020460EB030301209C461EB9002169E780
:1006D8003846FAE7C6E9004CF8E7C7F1200CBB40FA
:1006E8000EFA07F522FA0CF42EFA0CF1BA401C4364
:1006F80020FA0CF3B8404FEA144901431FFA84FE6C
:10070800B3FBF9F809FB18300B0C08FB0EFA43EAA7
:1007180000439A4540D9E31808F1FF3004D29A45BE
:1007280002D9A8F102002344A3EB0A0389B2B3FB60
:10073800F9F809FB183308FB0EFE41EA03418E4520
:100748002CD9611808F1FF3304D28E4502D9A8F1DB
:100758000203214443EA0040A1EB0E01A0FB0298EA
:100768004145CE46434602D306D14D4504D2013811
:10077800B9EB020E68EB0403002EA7D0B5EB0E020E
:1007880061EB030101FA0CFC22FA07F3F9404CEA89
:100798000303C6E9003199E74046C5E74346D9E770
:1007A8002DE9F04F9B4DA5B01FAC0FCD0FC42B68A2
:1007B8009948236007F0A4FC20234FF4C851642211
:1007C800CDE90031954802234FF4FA5107F098FC1F
:1007D800934807F095FC934807F092FC924807F07D
:1007E8008FFC924E304608F085FF30B9904807F0EC
:1007F80087FC002025B0BDE8F08F8E4D284608F014
:1008080079FF08B98C48F2E72A69A968136828466D
:1008180023F0007313600B684FF4C0221921984726
:10082800011E03DA854807F06BFCE2E7B468002193
:10083800304623681FAA9847011E01DA8048F2E76C
:1008480000223046114623699847011E14DB7D4F6C
:100858000023CDE90D33B3680DA930469B680EAA75
:100868009847011E0ADA784807F04AFC002140F64A
:10087800354009F085F8EBE77448D4E70D9808B1DE
:100888000E9C1CB9724807F03BFCE1E741F60713E0
:100898009C4288BF4FF448744FF0000200F10403F3
:1008A800DFF8B0A1DFF8B0E1DFF8B091DFF8B08190
:1008B80098BFE4080B9394427AD1214665480FAA61
:1008C80007F059FA2146644813AA07F054FA21465A
:1008D800624817AA07F04FFA21461BAA604807F09A
:1008E8004AFA3B68179C03F11402944205D2E21AB3
:1008F80048BF0F3203EB22133B60DFF868913B6877
:1009080099F80020DFF86081002A6ED128339C42D4
:1009180004D90123C8F8002089F800301A9BBDF9D2
:1009280040200893199B0F990793BDF960304F48F1
:10093800CDE90543169B0493159B0393BDF95030ED
:100948000293139B0193129B0093119B07F0D8FB12
:100958001E9BBDF970201B99454800931D9B07F00D
:10096800CFFB314807F0CCFB2A6999F800301268B0
:10097800920148BF83F00103002B48D0AB68DB68C5
:100988004FF000712B489847D8F800303968029327
:1009980099F8003001F12802CDE90043354801F10A
:1009A800140307F0ADFB0D99334808F0D0FE4FE76C
:1009B8000B9B50F832C053F832104FEA2C4B0B12F5
:1009C80009142EF8021B03EB2C21C3EB2C2301EB9B
:1009D800D17103EBD37349125B122AF802BB29F8D1
:1009E800021B28F8023B013265E714339C420CD203
:1009F800D8F800300133042BC8F800308ED9002312
:100A080089F80030C8F8003088E70023FAE7AB68B7
:100A18001B69B5E7F0AB0000C4AE000005AF0000ED
:100A280043AF000090AF00004BB20000A8A1000047
:100A3800A8AF000054A10000C8AF0000E8AF000054
:100A48000CB00000F00000204AB000002DB00000FB
:100A580066B0000060EF002020E90020E0E20020FE
:100A6800A0DC0020A0F50020900B00207DB0000045
:100A7800AAB00000BAB000000C0300202DE9F04F26
:100A880091B0009302F004030293C2F3C20301334E
:100A9800840705460E46DDF868800392059340F00A
:100AA800BB81041D30B1072909D86FF01B0011B0B4
:100AB800BDE8F08F01F007063444C6F10806009B34
:100AC8004FF000094FF0040A591E4FF0FF334F460C
:100AD8000193CB465346CDF810900DB1009A226091
:100AE8000598002800F3E8809848009A824203D3CA
:100AF80097488242C0F0E080039AA4EB050E920763
:100B08004FEA9E0000F103810F2F00F2B180002D03
:100B180000F0058107F140020DEB020C019A0CF878
:100B2800200C0CF8102C049801300490E7E07A2887
:100B38005DD84B280ED8472859D829282DD82528DC
:100B480052D054D820287AD02338D0F1000B4BEB60
:100B5800000B74E04C382E2849D8DFE800F07048C4
:100B6800484848484848484848484B4848484848FA
:100B780048484859484B4B595959704B6D4870482B
:100B8800184B184848827F4B48484B487F00002044
:100B98004FF0000B4FF0040A38E001222A38C0B2A7
:100BA80002FA00F010EA0E0F49D110F0625C2FD162
:100BB80010EA020B43D06046013C5444B4FBFAF4FB
:100BC8000AFB04F4002D61D0A3EB050CA444B44542
:100BD8003FF66BAF002868D1042B47D158F8043B87
:100BE8002360042304342AE0019A013A01924FF069
:100BF800000B24E011F8010C6C2834D1002011F806
:100C0800023C83466C2BC5D14FF0080A5346D3E704
:100C180008F1070828F00708073424F00704F8E863
:100C280002AB35B106982044B0423FF63EAFC4E966
:100C380000AB4FF0000B08344FF0080A534611F888
:100C4800010F002878D0BBF1000F7FF470AF252882
:100C5800F5D14FF0010B019B013301934FF0040ACA
:100C6800ECE7584694E700208346A5E7082B02D016
:100C78006FF015001BE708F1070828F00708F8E8E7
:100C88000223C4E9002308230834D8E768B9042BF1
:100C980002D108F10408A4E7082BE9D108F10708F4
:100CA80028F0070808F10808EDE7059A013A0592C7
:100CB80058F8042B009210E7039A900720D54FF0BC
:100CC800010CA4EB050E4FEA9E00BEF5007FCFD2C3
:100CD8000F2FCDD8F5B107F140020DEB020E019AA6
:100CE800C0B20EF8200C0EF8102CBCF1000F3FF427
:100CF8001AAF60F07F000EF8200C09F101090137E6
:100D0800C5F108024FF6DA7E0434069297E74FF0F1
:100D1800000CDAE7BCF1000F01D00136EFE70298CA
:100D280002360028EBD10098CDE90631FFF7E2FB47
:100D3800DDE906310644E2E7631BB3F5806F97D21D
:100D480045B9A6F10804E018B1E600BF78A0000094
:100D5800C8BD0000029A9B0828602B709DF81030CF
:100D6800C2B1EB7085F80290B9F1000F05D00022EE
:100D780008A8C5F1010C97420ED14FF0000AC5F141
:100D880001030DF1200801930DF1300B574512D1E5
:100D9800601B8CE66B70E5E710F8013B190608D577
:100DA8000CEB040EB64503F07F033FF67EAE04F865
:100DB800013B0132DFE7B9F1000F03D098F90020B9
:100DC800002A17DB029BD3B11AF80B2004F8012B79
:100DD8000022019B18191044B0423FF666AE98F8FD
:100DE8000000009904F8010B2046039209F008F965
:100DF800039A14440AF1010A08F10108C6E798F8B1
:100E0800002055F822300093029B009845F82230C4
:100E1800FFF770FB421CDCE76FF00D0047E600BFF0
:100E28002DE9F04F97B000AFD7F880B03B62CBF315
:100E3800C0030446894690F802A0FA62BB6141B932
:100E4800457800780AEB800020444D4517D8A0EB80
:100E58000409E378FB61BAF1000F02D01BF0010F1F
:100E680016D1FB6953BBFB6A1BB1494620463A6A57
:100E780098474D4628465C37BD46BDE8F08F461C6E
:100E88003046FFF737FB0130304409F10109DCE750
:100E9800626823787A62FA6A9900796104EB8301BF
:100EA800002A40F001810E464FF000084D4601EB44
:100EB8000A094E454CD101EB0A0610E01BF0020F5F
:100EC800D1D023789A007A61626804EB83017A6250
:100ED800FA6A002A77D14D46904601EB0A061BF0C4
:100EE800050F0CBF02230123FB62FB6906EB430AD3
:100EF8000BF00203BB625645BCD016F8021B16F86D
:100F0800013C54F82390994B994502D3984B994545
:100F180036D3BB69002B40D0786A07F0B8F80028B0
:100F28003BD0E9468AB06A46924B53617B6AC2E974
:100F380006314FF4007313848F4B42F8103F00239F
:100F48004FF412518D4801F029F9023DCD46D2E700
:100F580016F8013BF96254F82300FFF7CBFAD7F8EB
:100F68008430F96A01304BB1D7F8883098453EBFD4
:100F7800D7F8843023F8180008F10108054498E7E9
:100F8800BB6923B1786A07F082F80028C9D11BF041
:100F9800010F05D1FB6AED1AADE7BB6A002BAAD099
:100FA8004846FFF7A7FAD7F8843053B1D7F8883006
:100FB80098453FBFD7F88420431C22F8183008F121
:100FC8000108054497E7BAF1000F73D01BF0040637
:100FD80073D0D046002607F1480052463B61B962FB
:100FE80009F00EF8B96A3B6901EB0A02BA62FA69BC
:100FF800F9695200FA60BA6A02EB41023A610BF0F1
:101008000202BA603A69B96A8A4258D162781BF01A
:10101800020F18BF00217A6208BF4FEA5801B218C0
:101028001BF0010FD2B240F09F801BF0040F14BFD9
:1010380040460020BB616270A070E17020463A6AA9
:101048007969FB6A9847051EFFF614AFBB694146EC
:1010580023707B6A3A6A6370FB6984F802A0E370C4
:1010680007F14800FB6A9847B0F10008C0F2BA805F
:101078007B69A9EB0A01C91AFB683A6AC91AD7E958
:101088000A0398470028C0F2AF804FF0000BA8442D
:1010980008EB000507F1380AB34571D300213A6A15
:1010A8000846FB6A9847E5E656464FF0000807F100
:1010B800380092E75646D04696E7B04694E7BA6AB3
:1010C80012F8021B12F8015CBA6254F82500274A8C
:1010D800904202D3264A90421ED3BA6932B1786A46
:1010E8007B6006F0D4FF7B6800288BD1BA6802BB0E
:1010F80008F1280207F1300C08F10100944407F1C7
:10110800580208F1020852FA80F00CF8101C5FFA35
:1011180088F800F8105C75E7BA693AB1786A7B60BC
:1011280006F0B5FF7B6800287FF46CAF1BF0010F59
:1011380009D006F1280207F13000711C161806F8CC
:10114800205CCEB25EE71BF0040F3FF45BAF08F102
:10115800280207F1300008F1010102EB000808F845
:10116800105C5FFA81F84DE7002063E778A0000083
:10117800C8BD0000F9B00000040000013CAB00004D
:101188001BF80A3054F8239087F83730D7F88430A2
:101198002BB3D7F888309B4521D2D7F8843033F861
:1011A8001B8001213A6AFB6A07F13700984700283B
:1011B8001ADB0544B8F1000F06D14846FFF79AF943
:1011C80000F101081FFA88F8414648463A6AFB6A66
:1011D8009847002808DB05440BF1010B5CE74FF04A
:1011E8000008DEE7454645E6054643E6014B18603C
:1011F800704700BFF400002030B5002587B0CDE966
:1012080003010446009503A90548059500F06EF80A
:10121800DDE904309842B8BF255407B030BD00BF9F
:10122800E5800000F0B5024601680A270020074E55
:101238000B461C780131355D6D0701D41360F0BD94
:1012480007FB0043A3F13000F2E700BFC6BC000073
:101258002DE9F84F15469A46D378234A6F2B12F892
:1012680003B081460F460BF0030B2BD026D8582B22
:101278000CBF10260A26DDF828803246002348468F
:101288003946FFF71DF9092A08F1FF38D4B21ED8EC
:101298003034B145E4B277F1000788F8004001D353
:1012A800D04511D82B789B0605D5082E15D1AB78DB
:1012B80043F00803AB704046BDE8F88F03F0F7032E
:1012C800702BD5E70826D6E781460F46D5E7BBF150
:1012D800010F0CBF37345734DBE7102EEBD1AB7856
:1012E80043F01003E6E700BFC6BC00002DE9F04F4D
:1012F8008A4616461C46002597B00390307808B9F0
:10130800284655E325280AD05146039B98470028CC
:10131800C0F24E83731C01350493049EEEE7182235
:10132800002110A808F079FE7378252B00F0A3801F
:10133800002398469E469C461846711C0F4611F895
:10134800012B2B2A00F0C68000F2BD80202A00F075
:10135800C480232A00F0C4802BB19DF8483043F0A4
:1013680040038DF84830B8F1000F05D09DF848309B
:1013780043F020038DF84830BEF1000F05D09DF8EA
:10138800483043F010038DF84830BCF1000F05D009
:101398009DF8483043F008038DF8483028B19DF88F
:1013A800483043F004038DF848309DF8483003F086
:1013B8004401442903D16FF386138DF848309DF812
:1013C80048302A2A43F0800309978DF8483040F0C6
:1013D8008C809DF8493043F001038DF849307B1C1F
:1013E8001A782E2A0CBF012100219DF8492061F3AB
:1013F80041028DF849200CD15A1C09925A782A2AA0
:1014080040F083809DF84920023342F004028DF8B1
:1014180049201A786C2A00F0A48000F28680682A95
:1014280000F08C806A2A00F0A5804C2A00F0AA807F
:101438001A4612F8013B782B04928DF84B309DF830
:10144800492000F217816D2B00F2A980692B00F268
:101458001181572B00F2BE80412B03D0453B022B54
:1014680000F2088104229DF84A3062F302038DF8E5
:101478004A300123CAE08DF84B30B31C04939DF821
:101488004930D90740F1FD8054F8048BB8F1000FBA
:1014980007DA9DF84820C8F1000842F004028DF8E8
:1014A80048205A0740F1F68054F804BBBBF1000FFE
:1014B80080F2F5809DF849306FF341038DF849308B
:1014C8004FF0FF3BEBE02D2A0DD0302A7FF444AFDC
:1014D800012333E74FF0010C30E74FF0010E2DE701
:1014E8004FF001082AE7012028E709A8FFF79AFE2C
:1014F800099BBB423FF474AF9DF848201390C00F7E
:1015080060F341028DF848206AE709A8FFF78AFED0
:101518009DF848301490C3F3400242EAD07262F357
:1015280041038DF84830099B73E7742A26D07A2A3C
:101538007FF47EAF06219DF849200CE05A78682A8E
:101548009DF8492006D1012161F3C6028DF8492092
:1015580002336DE7022161F3C6028DF84920013399
:1015680066E75A786C2A9DF8492001D10421EBE7F7
:101578000321F0E705219DF84920ECE707219DF8B4
:101588004920E8E7BDF8482022F4F04222F00202A0
:1015980042F4804242F00202ADF84820DFE76E3B99
:1015A800D9B201238B4040F282410B4238D113F06B
:1015B800240F52D1DF075DD503219DF84A3061F32E
:1015C80002038DF84A3002F07803A3F14000434249
:1015D80043411BE00120A3F15801C9B200FA01F10F
:1015E80011F4624F7FF43EAF40F6010739421DD136
:1015F80011F4043F3ED09DF84A3060F3020302F034
:101608007802402A8DF84A3034D000239DF84820CB
:10161800C2F340010B4363F341028DF848202EE7E3
:1016280002219DF84A3061F30203E8E702209DF8A1
:101638004A1002F0780260F30201402A8DF84A103D
:1016480002BF9DF8481041F001018DF84810632B46
:10165800DBD1131E18BF0123D8E703219DF84A30B8
:1016680012F0780F61F302038DF84A3014BF01239A
:101678000023CBE79DF8483043F001038DF848304C
:10168800C3E79DF94820002AACBF4FF0FF38DDF8CA
:101698004C8006E79F077FF513AFDDF850B00023B5
:1016A800CDE913339DF84A309DF8491003F007033C
:1016B800012BC1F3C30132D1CB1E042B04D8DFE8C0
:1016C80003F0204545202000236801294FEAE372F2
:1016D800CDE910321BD19DF94030DA17CDE910322F
:1016E80004349DF8483013F003074FD03246514672
:1016F800049B039806F028FD0028C0F25981054490
:101708000BE654F8043BDA17CDE91032E9E7022971
:10171800E6D11AB243F3C033CDE91023E0E7022B38
:1017280024D1CB1E042B04D8DFE803F018101018BE
:10173800180001294FF0000254F8043B14D0022984
:10174800CDE91032CDD19BB21093CAE7073424F00B
:101758000704F4E80223CDE91023C2E754F8043B58
:10176800109300231193BCE7DBB2CDE7042B08D11B
:10177800073424F00704D4E900230834CDE9102302
:10178800AFE7032BADD154F8043BDDE79DF84B00E0
:1017980078283FF6C2AD62281ED8252850D0582890
:1017A8007FF4BBADDDE910010DF13E03009312AAF1
:1017B8000AABFFF74DFDBBF1000F814680F2C180F7
:1017C800B9F1000F3FF4A9AD0DF13E06A6EB0903F0
:1017D800002F7BD0013379E0633815283FF69DADA3
:1017E80001A252F820F000BFC31800002119000020
:1017F8002313000023130000231300002313000009
:1018080021190000231300002313000023130000F4
:10181800231300006D19000045190000811800000D
:10182800231300002313000059180000231300009D
:101838004519000023130000231300004519000078
:101848005146039B98470028C0F2B280013564E5F1
:10185800BBF1000FDDF840900ADB5946484608F016
:10186800F7FBB9F1000F3FF458AD09EB000620E093
:101878004846FEF73FFEF8E71098002800F08680FB
:101888000DF13E060AAB0021009612AAFFF7E0FC14
:10189800BDF84A30BBF1000F03F0EF0343F4F04307
:1018A80043F010038146ADF84A3049DA00283FF486
:1018B80034AD0027A6EB090308E0109B00278DF83C
:1018C800283001230DF129060DF128099DF84A1049
:1018D80011F0100206925FD00233139A1344059256
:1018E8004A0644BF14995B18B8F1000F6DDDA8EBE8
:1018F80003089DF848305807C3F3800B65D4590690
:1019080059D53FB151463846039B984700284FDBCD
:101918005F46013530234FE01E075ABFC3F300135B
:101928005F012B27DDE91023002BBFF63BAF5242A6
:1019380063EB43032D27CDE9102333E7002731E775
:1019480000279DF848100DF13E03A3EB09036FF340
:1019580086119B458DF848107FF632AFABEB030339
:1019680013932DE7109B07293FF6D7ACDFE801F06A
:101978000C04060C08080C0C1D70CEE41D80CCE489
:10198800EA17C3E90052C8E41D60C6E4304E0746B2
:101998000523A6F1050999E7080748BF01339CE725
:1019A800184607935146039B98470028079B04DA7B
:1019B80017B0BDE8F08F2023C346594600290BF124
:1019C800FF3BEDDC4544D8466D1A37B151463846E1
:1019D800039B98470028EBDB01359DF84A30DA066F
:1019E80001D41B0706D551463020039B9847002891
:1019F800DEDB0135069B3BB151469DF84B00039B4E
:101A080098470028D4DB0135059F2F4406E051464E
:101A18003020039B98470028CADB01357B1B002B2D
:101A2800F5DC33464A465146039806F08DFB0028FC
:101A3800BEDB0544A844A8EB0503002B7FF76DAC7B
:101A480051462020039B98470028B1DB0135F2E777
:101A5800B2B100002DE9F047058B044628079046EF
:101A680011D4022905F0070540F0CC80204606F085
:101A7800F5FD78B10138218B042811D8DFE800F092
:101A8800C2106D85950001290CBF45F0100545F081
:101A98002005258388F31188BFF36F8FBDE8F08791
:101AA80001F0070AAA4500F0A5800027B9463E467E
:101AB800A368002B00F0BC8041F00801218388F363
:101AC8001188BFF36F8FA168002900F0BA800D68F4
:101AD800002900F0B680334652462046D1F80480EB
:101AE800C047002D76D02B6829461D46F0E701F047
:101AF80007035A1F012A1BD8002221F00701062BD1
:101B0800276889B2C4E9002209D13B4603E0628B09
:101B1800013262831B68002BF9D141F00201204693
:101B2800218306F09BFD00287AD041F0200176E061
:101B3800042B0AD121F0070189B22046218306F03F
:101B48008DFD10B141F020012183218B01F0070A9E
:101B5800AA454FD00027B946AAE7236921F0070113
:101B680041F00601062DD3F8009021832DD1B9F15B
:101B7800000F3FD041F00801218388F31188BFF39B
:101B88006F8F20463949C84729E021F007012369AA
:101B980041F0040189B2042DD3F804902183E6D0E2
:101BA80000274FF0040A3E4682E721F00701236927
:101BB80041F0050189B2052DD3F808902183D6D0CC
:101BC80000274FF0050A3E4672E700274FF0060A45
:101BD8003E466DE72B4687E7B9F1000FD1D1EFF309
:101BE8001188202383F31288BFF36F8F238B23F090
:101BF80008032383258BEA062ED525F010032383BB
:101C080005F007056669218B002EBFF670AF00232B
:101C18002768C4E9003321F0070141F0010121835D
:101C2800218B4FF0000901F0070AAA457FF440AF65
:101C3800002F9CD041F00801218388F31188BFF35D
:101C48006F8F002FC8D03D6839463346524620462C
:101C580006F030FD2F46F4E7AB067FF51BAF25F005
:101C68002003238305F0070500E700BFE98600008D
:101C78002DE9F047044607464FF00109DFF8508088
:101C880014B93846BDE8F08794FAA4F5B5FA85F595
:101C980009FA05F32E0108EB05156FEA030A24EA91
:101CA80003042B7B002BEBD058F806301B694BB98B
:101CB8004644736804222846196807EA0A0706F0AA
:101CC800F9FDDDE7284698470028D9D1F0E700BF9D
:101CD8009CAB000030B5002289B00F490F4807F0CF
:101CE800E4FE002200230024CDE906230E230C4D38
:101CF800CDE903344FF440722846CDE90144094B3D
:101D08000949009404F03AFA0849284604F0C2F94F
:101D1800204609B030BD00BF391D000090080020E2
:101D2800C803002051200000B0F50020BEB100001B
:101D3800014804F055B900BFA00300202DE9F04781
:101D4800804621480F4606F099FD0646002833D004
:101D580000252846BDE8F087237B83B12368DB682C
:101D68000BB120469847636883F8069023681B697F
:101D7800D3B9636804222046196806F09BFD013632
:101D880010345445E8D3B8F1000FE2D0002DDFD06D
:101D98002846FFF76DFF0546002FF7D0002140F2D7
:101DA800391007F0EDFDF1E7204698470028E0D00C
:101DB80009FA06F31D43E2E705464FF00109034C13
:101DC800DFF80CA0DDE700BFA4D300209CAB000027
:101DD800ACAB0000014B53F8200070474CAC00003E
:101DE80008B5034608462BB1044A136000F070FC9E
:101DF800002008BD6FF01500FBE700BFF8000020C9
:101E080010B5044C237813B9034804F0E9F801230A
:101E1800237010BDA1F50020A003002010B50446D2
:101E2800094806F02BFD3CB1084BD3E8EF1F0139F8
:101E3800C3E8E21F002AF8D1054807F042FEBDE8D2
:101E48001040044804F0CCB89CD30020A0D3002054
:101E580090080020A003002000200146034BD3E88F
:101E6800EF0FC3E8E21F002AF9D170479CD3002086
:101E780070B5FFF7F1FF0546074C084EB44200D392
:101E880070BD63685B792BB123685B6813B1294621
:101E9800204698471034F1E79CAB0000ACAB00003B
:101EA80010B5044C0449204606F06AFA034B1C603E
:101EB80010BD00BFD002002038AC000094D3002031
:101EC80000230D4A10B513700C4A0D4913600D4AD2
:101ED8000D481360FFF784FFFFF7E2FF0B4B0C4937
:101EE80018468B4200D310BD1A1A5C6812110132D1
:101EF80022711033F5E700BFA2F500209CD3002023
:101F080040420F00A0D30020818800009CAB000055
:101F1800ACAB0000014600220023014806F051BA8C
:101F2800D0020020014806F0EABA00BFD002002023
:101F3800024B0146186806F03DBB00BF94D3002051
:101F4800014806F072BB00BFD002002070B5274BD5
:101F58001878002849D0FFF7E5FF0546002841D149
:101F6800234B244C1B68002B19DD07F09CFD4FF414
:101F78007A75A0FB050647F61222002305FB0161CE
:101F8800FEF79EFAD4E90032C01A40F2E93361EB59
:101F98000201984271F1000101D3FFF769FFD4E90A
:101FA800003213F57A7342F10002C4E90032BDE849
:101FB8007040FFF7C5BF63685B7923B12368294682
:101FC80020461B6898471034B442F4D32846FFF7DC
:101FD800AFFF094BD3E8EF1F0139C3E8E21F002A1E
:101FE800BED0F7E7054C064EEEE770BDA1F5002020
:101FF8009CD3002088080020A0D300209CAB0000C0
:10200800ACAB000070B50D4D297861B90120FFF720
:1020180095FE0B4C0B4EB44206D3FFF797FF0028F2
:10202800FBD101232B7070BD63685B791BB12368FA
:1020380020469B6898471034EDE700BFA2F50020C2
:102048009CAB0000ACAB000000212DE9F04708462E
:10205800FFF774FE044648B340F21B684FF00009CE
:1020680004F040FB1A4B186030B11A4B1B68092B5F
:1020780002DD194803F0B4FF0025184FDFF858A017
:1020880044B12046FFF7F4FD044618B94FF0FF3875
:102098004FF0FF39FFF75AFF064628B9B5B942464F
:1020A8004B46504603F0D0FF3546E9E74FF0FF387E
:1020B8004FF0FF39D4E72B689B691BB100222846F3
:1020C800114698471035BD42F5D3E8E7044DFAE7C5
:1020D80098D30020A0D30020A0030020ACAB0000C0
:1020E8009CAB000013B5184806F0C8FB174B1B78CB
:1020F80073B1EFF31184202383F31288BFF36F8F3A
:10210800FFF724FF84F31188BFF36F8F02B010BD6F
:102118000F4B1B68002BF9D050B9002200230D4843
:10212800CDE9002347F61222002304F0DDFDEDE798
:102138000928EBD1074807F0C4FC074802B0BDE8FE
:10214800104003F04DBF00BFA0D30020A2F500202F
:1021580098D3002090080020A003002010B5064B5B
:1021680004461B6898472146A060044806F0A8F971
:10217800BDE81040FFF7B6BFF8000020D0020020ED
:10218800044A054B9B1AB1EBD30F34BF52F8310008
:102198000020704734AB00009CAB00002DE9F04FE5
:1021A8008FB0C1F34A2804AF0D469146B8607B60F2
:1021B8000C0DB8F1000F63D000264FF0040B4FF060
:1021C8000A0A07F11403C7F80C80C7E907667E629C
:1021D8000193CDF808B0CDF800A007F11C033246F2
:1021E8004846F968FEF71CFEB0F5006F03461CD39D
:1021F8006C468AB0D9F8041004AB26481A46C3E9DD
:10220800050140F2FF71D9614FF400711984224B26
:1022180042F8103F4FF4125133462048FFF7BEFFF3
:10222800A5462C37BD46BDE8F08FC0F30A0804F177
:102238001700184420F0070080083B60FFF76AFE8B
:1022480068F35325044690B13B6800F11001C7E9D3
:10225800083607F11403F961CDE900A3CDF808B0F9
:1022680048460F4AF96807F11C03FEF7D9FD68F3E1
:1022780053252A4620467B68B96806F03BFBD0E721
:1022880004F1170020F007008008FFF743FE04461A
:10229800EDE700BFD3B100000400000154AB00001B
:1022A800CF8800002DE9F04F87B00446DDE9105AC9
:1022B800DDE91279934698460391BFB13B465246F1
:1022C80010210020CDF80090CDF81490FEF7D6FB31
:1022D800B0F5006F06460AD340F2FF730221174A91
:1022E800174807B0BDE8F04F06F05DBB3E4605F164
:1022F8001700304420F007008008FFF70BFE04F0B9
:1023080007040BF0070BE40044EA8B1444EA462464
:1023180044EA0554054640B13FB13B465246314672
:10232800CDF800901030FEF7A9FB43462246284618
:10233800039907B0BDE8F04F06F0DCBA12B200000E
:1023480054AB0000406820B1034BC01A40F3CF00E3
:1023580070474FF0FF30704734AB00000EB403B540
:1023680003AB53F8042B01460448019306F040FBE5
:1023780002B05DF804EB03B0704700BF078A0000A5
:10238800CA0605D48B064CBF02490349FFF7E6BFCE
:10239800704700BF4BB200004AB200002DE9F04F71
:1023A80089B09A46149B9DF84CB00693159B044639
:1023B8000593169B0D469046179E0493BBF1000F9C
:1023C80000F09D8006F48073079306F071FA06F01A
:1023D8000209024600283ED020469249FFF7BEFF78
:1023E8000746B9F1000F08D016F0440F35D12A4638
:1023F80020468D49FFF7B2FF074406F0010353B1A9
:102408008A4B204653F82B20894B8A49002A08BF5B
:102418001A46FFF7A3FF06F48073002B49D006F095
:102428000803002B63D1B8F1000F66D0424620465E
:102438008149FFF793FF0546069B3D44002B6DD16C
:10244800049B002B73D1F30700F1E5803146204649
:10245800FFF796FFD9E00746C3E7784B18680028CE
:10246800CAD0774B4FF47A791B684FF03C0CB5FB18
:10247800F3F5B5FBF0F14FF4616300FB115509FB6F
:1024880005F5B1FBF3F2B5FBF0FE03FB121100FBFF
:102498001E55B1FBFCF309FB05F5B5FBF0F50CFB8C
:1024A800131120460091CDE901E56649FFF756FF73
:1024B800A2E706F00803EBB1634B204653F82B2044
:1024C8006249FFF74BFF0546B8F1000F05D04246B9
:1024D80020465949FFF742FF0544BAF1000FABD037
:1024E800524620465A49FFF739FF0544A4E74FF002
:1024F800000AE1E706F00805E6E745469CE7BAF179
:10250800010F069B06D1002B65D1049B002B7CD0C4
:1025180000250CE0002BF8D04E485DE04E48069BA5
:1025280022464E4905F082FD049B002B69D0DFF856
:102538003081DFF83091049F3146102F204628BFA4
:1025480010274FF0000AFFF71BFF554546DC059B97
:10255800494620461A78FFF701FF4FF0010A1AF0A2
:10256800070F03D141462046FFF7F8FE57453CD9EF
:10257800059B4946204613F80A20FFF7EFFE0AF1AB
:10258800010ABAF1100FEAD14FF0000A2046364985
:10259800FFF7E4FE5246059B20469A5C334B995C54
:1025A80011F0970F08BF2E223149FFF7D7FE0AF125
:1025B800010ABAF1100F1DD01AF0070F03D14146D6
:1025C8002046FFF7CBFE57455246E4D84146204601
:1025D800FFF7C4FEEBE720485D46A0E741462046EA
:1025E800FFF7BCFE0AF1010AAFE720462149FFF7D1
:1025F800B5FEC4E7059B3B440593049BDB1B049392
:1026080099D1BBF1000F7FF41EAF204609B0BDE899
:10261800F04F06F0E0B92046054A0649FFF79EFE4E
:1026280014E700BF52B2000056B200005CAC0000D4
:102638004DB200007BB200007EB20000ACD3002097
:10264800A8D300205FB2000070AC000082B2000086
:1026580088B20000358A0000078A0000F989000066
:1026680095B200008DB2000097B20000C6BC000011
:1026780099B2000093B2000042F20F7373B58B4217
:1026880028BF0B4605680446052168460D4A05F033
:1026980044FD0646636828460B225B680A4906F033
:1026A8008CF963683246694628465B6806F085F906
:1026B80063681B2228465B68044906F07EF902B06D
:1026C80070BD00BF5ABB0000B8B200009CB2000049
:1026D80000210123064A904206D8064A01B901237F
:1026E8001360054B18607047012140085B00F2E752
:1026F80040420F00A8D30020ACD30020F8B50D4607
:102708000446064F4618B44201D12846F8BD14F8CD
:10271800011BBB6801485B689847F4E78CA100007F
:10272800014B036000207047B8AC000008B50448AE
:1027380005F0E6FC034805F0E3FC002008BD00BFF7
:10274800FEB2000033B3000008B50348034A002175
:10275800121A06F0E7F908BDC8030020ACF50020FE
:10276800074808B5074A0849121A06F0DDF9BDE816
:1027780008400648064A0749121A06F0D5B900BFAC
:1027880060000020C8030020C8BD000060000020D1
:1027980060000020C8BD00002DE9F04706460C4641
:1027A80000AF002936D0D1E90012E9468AB06D465B
:1027B800A3684FF0050AA8461F48C5E90723C5E9DD
:1027C800050148F810AF002342464FF421511B4839
:1027D800FFF7E4FCD4E90312CD466369AD46184817
:1027E800C5E90723C5E90501C5F810A0002342463D
:1027F8004FF421511148FFF7D1FCCD46E36901217F
:10280800104A0E4806F0CFF8A36901210E4A0B487A
:1028180006F0C9F8012E07D1EFF305830B4A3146BC
:102828000648103B06F0BFF82146304603F076F81C
:10283800BD46BDE8F08700BF61B3000074AB00007F
:1028480090B30000BFB30000CEB30000FCB300009B
:1028580030BFFFF7FDBF00BF054B5A699B689A421E
:102868001FBF044A536843F080535360704700BF4A
:1028780034D6002000ED00E070B52A4C06460D461F
:1028880029482A4906F05DF9A36ADB0647D5264898
:10289800274906F056F91120A36A1C0704D52248D7
:1028A800244906F04EF912201E4CA36A990712D546
:1028B80021491D4806F045F9636BA26A120609D53D
:1028C80001211E4A184806F06EF81EB1A36A23F0CB
:1028D8008003A3621320134CA36ADE0704D51248B1
:1028E800174906F02EF91420A36A9C0604D50E4851
:1028F800144906F026F915200A4B9A6AD10658BFE2
:102908009A6A9A6A920642BF5A6A22F400525A6236
:102918009A6A42F0FF029A6200232B7070BD102061
:10292800BAE700BF00ED00E074AB00000FB4000090
:1029380025B4000058B400006BB4000083B4000054
:1029480099B40000B8B4000010B5244C24492548B7
:1029580006F0F7F8A36A99013ED52248224906F005
:10296800F0F81E20A36ADA0104D51E481F4906F0B4
:10297800E8F81F20194CA36ADB0204D519481C4942
:1029880006F0DFF80220A36A1C0304D5154819498C
:1029980006F0D7F82120114CA36A590304D5114831
:1029A800154906F0CEF82220A36A9A0304D50D48EB
:1029B800124906F0C6F82320084CA36ADB0304D5A5
:1029C80008480F4906F0BDF82420A36A6FEA0343BC
:1029D8006FEA1343A36210BD1D20C3E700ED00E0BA
:1029E800E7B4000074AB0000FFB4000012B50000AB
:1029F8002CB5000056B5000074B5000099B500006C
:102A0800B3B5000070B5294C06460D46284829493B
:102A180006F097F8A36AD9043CD52548264906F05C
:102A280090F81720A36A1A0504D52148234906F00F
:102A380088F818201D4CA36A9B0512D51C4820490C
:102A480006F07FF8A36BA26A100409D501211D4A7C
:102A5800174805F0A8FF1EB1A36A23F40043A36238
:102A68001920124CA36A590504D51148164906F0D5
:102A780068F81A20A36ADA050ED50D48134906F03E
:102A880060F81B20094A936A43F47F43936200234A
:102A98002B7070BD1620C5E7A36A9B04F2D50448C5
:102AA8000B4906F04EF81C20ECE700BF00ED00E0F3
:102AB80074AB0000DEB50000F4B5000058B40000A7
:102AC80005B600001EB6000033B600004EB6000082
:102AD800B8B400002DE9F0418AB0654B0446D3F83C
:102AE8000480002600AFC8F3080586F31188BFF3F9
:102AF8006F8F02F07F43B3F17F4F07D102F00C03D1
:102B0800082B12D15B495C4806F01BF800263446B6
:102B18000023FB71EB1E092B00F28980DFE803F02C
:102B28000A7F827B87878787878510074CBF0C467B
:102B38000126EDE75149504806F003F800234C4DB3
:102B4800FB71EB6A9A0705D54D494B4805F0F9FF2B
:102B5800002331E0EB6A002B01DA4A49F5E7EB6A1A
:102B68005B00F5D54849444805F0EBFF6B69A2695D
:102B780043F480736B61BFF34F8FBFF36F8F6B6943
:102B880032F8022C23F480736B61BFF34F8FBFF3CD
:102B98006F8F4DF602739A4207D0AB6ADBB26BB304
:102BA8000120F91DFFF768FE37E023680121374A45
:102BB800314805F0F8FE2368FA79DAB907F1080513
:102BC80004F1200C2A4620686168083403C2644571
:102BD8001546F7D17A6A002E45D0C2F3080121B90B
:102BE8006FEA52226FEA42227A62184607F1080118
:102BF800FFF7D2FD2837BD46BDE8F081AB6A13F474
:102C08007F4F04D00120F91DFFF7FCFE05E0AB6AF9
:102C1800B3F5803F9CD3FFF797FE0346CCE700202F
:102C2800F91DBFE70020F91DEEE719498DE7194A9C
:102C380018F4F87FE8468AB0174B18BF13466A465F
:102C48001649103DC2E905134FF400731384144B61
:102C5800D56142F8103F00234FF411510648FFF7A1
:102C68009DFAC54674E722F4FF7222F00102BBE721
:102C780000ED00E094B6000074AB0000BFB60000A1
:102C8800D6B60000F7B6000005B7000024B700006C
:102C980040B700007BB6000066B6000064B70000CD
:102CA80004000001064B5A6942F010025A615A6941
:102CB80042F480625A615A6922F008025A617047E8
:102CC80000ED00E0EFF30880EFF3098101B57246EB
:102CD800FFF700FF01BD00BF002080F31488BFF399
:102CE8006F8F002080F30A8880F30B88104880F3E8
:102CF800088800200F49087001F05AFF00200E498B
:102D08000860BFF34F8F00F02DF8202080F3118862
:102D18000A484FF40061401880F30988EFF31480E3
:102D28000221084380F31488BFF36F8F00F0EAF89C
:102D3800F0050120A7F5002094ED00E0B0F8002090
:102D4800002318460649D1F89020C2F3072293427F
:102D580000DB7047C1F89830C1F8A0000133F6E7EE
:102D680000ED00E010B572B6002484F31388FFF775
:102D7800E7FF23464FF0FF300C4A03F120010133EF
:102D8800102B42F82100F8D100234FF0FF30074AFA
:102D980003F160010133102B42F82100F8D162B62B
:102DA800BFF34F8FBFF36F8F10BD00BF00E100E08E
:102DB800084B9B6883420BD1EFF3058343B1064B65
:102DC8005A6842F080525A605A6A22F400425A62A3
:102DD80003F08EBC34D6002000ED00E014498A6868
:102DE8004FF030001044EFF3098C80E8F01F2020EA
:102DF80080F31288BFF36F8F0E4F4FF000664A6959
:102E08008A603E60D2F8B8000023C2F8B83080F378
:102E1800118802F1300090E8F01F8CF3098802F164
:102E2800000004B505F095FEBDE8044070470000B9
:102E380034D6002004ED00E01EF0040F0CBFEFF3C1
:102E48000880EFF30980816911F8021C0229FFD07C
:102E580001B5724605F06AFE01BD00BF00B2002848
:102E680007DB01234109034A00F01F00834042F8B1
:102E78002130704700E100E000B200280CDB01229D
:102E88000649430900F01F008240203341F82320FF
:102E9800BFF34F8FBFF36F8F704700BF00E100E0B3
:102EA800054B420953F82220012300F01F0003FAC2
:102EB80000F01040704700BF00E100E000B20028B9
:102EC80001F10101ACBF00F16040064B4FEA41112E
:102ED800C9B2ABBF00F5614000F00F0080F80013E5
:102EE8001954704714ED00E0044B054A23F07F03A2
:102EF8009360BFF34F8FBFF36F8F704700000000E0
:102F080000ED00E008B5FFF7EFFF074AD2F8883078
:102F180023F47003C2F88830FFF716FCFFF720FC93
:102F280000F042F802F01EFE00ED00E042F8203CFE
:102F3800009B0B4942F81C3C019B21F0010142F81F
:102F4800183C029B42F8081C42F8143C4FF080736E
:102F580042F8043C0023203A0265C0F8B8307047B4
:102F68003D81000000B50C4B0E4698601546D0F820
:102F7800A83083F30B882C4686F309880020044B7D
:102F880098472046002100220023024C20470000D9
:102F98006B8B00003D81000034D600201022014BCD
:102FA8001A61704700ED00E0002320210448C21890
:102FB8000133B3F5917F82F80013F8D1704700BF51
:102FC80000E100E008B5EFF30583064A103B02EB89
:102FD800C30152F8330049688847BDE80840FFF745
:102FE8003BBC00BFC4A100001FB5094C094A2346D9
:102FF8000121094800F012F900230393074B01212E
:10300800E41A01A80193029400F012F904B010BD6B
:1030180000FC072000000020B8AC0000C803002016
:1030280010B50C7A0B6804F01F0223F01F031A4333
:10303800CB68640923F01F03054943EA440343F0BE
:103048000103C1F89800C1F89C20C1F8A03010BD58
:1030580000ED00E010B50A4BD3F89030C3F3072316
:10306800013B984208D901210346064A064805F063
:103078009AFC6FF0150010BDFFF7D2FFFBE700BF09
:1030880000ED00E07BB700006CAB00002DE9F04FCD
:103098008946144606464FF00008514D85B0C8458C
:1030A80027DAD6F804A0BAF1000F44D0BAF11F0FFE
:1030B80017D91AF01F0F14D1D6F800B01BF01F0F44
:1030C8000FD1584605F070FD07460AEB0B00013892
:1030D80005F06AFD874210D06FF01507414A3B465C
:1030E80001E04346404A0121404805F05CFC6FF08E
:1030F8001504204605B0BDE8F08F17F1160FEDD086
:10310800BC42EBDDC5F89870D5F89C10C5F89870EE
:10311800D5F8A03021F01F0143F01F0BD6E900328B
:103128001A44994202F1FF3A1DD1D34507D13146DD
:10313800F8B205F042FD08F101080C36AFE7314658
:10314800C5F89870D5F89C3022F01F0203F01F03D1
:103158001343C5F89C30E0B205F02FFD10F1160FAF
:10316800C5D0441CE7E7C5F89870D5F8A020013B06
:1031780023F01F0302F01F021343D3453146E0B288
:10318800C5F8A030E8D005F018FD10F1160FAED044
:10319800C5F89870D5F89C209DF808300BF1FF3BD6
:1031A80062F304038DF80830D5F8A0309DF80820A4
:1031B8005B0863F347128DF80820D6E90032134400
:1031C800009323F01F035B44A3EB0A03013023F0B1
:1031D8001F036946C0B20393FFF73CFFBEE700BF79
:1031E80000ED00E0C4B70000A1B700006CAB000020
:1031F8000522044BC3F89420BFF34F8FBFF36F8FA2
:10320800704700BF00ED00E0BFF35F8F0022024B64
:10321800C3F89420704700BF00ED00E010B5034CE0
:103228002278FFF733FF207010BD00BFA4F50020FF
:103238002DE9F74F294D8A4606464FF00008AB4660
:10324800274FD0451BDAD6F80490B9F1000F3FD0CC
:1032580031680846019105F0A7FC0199044609EB7D
:103268000100013805F0A0FC84424FF014021D4B08
:1032780008D002FB08F36FF015024BF8032003B0E7
:10328800BDE8F08F14F1160F2C60F8D01978A14220
:10329800F5DD02FB08B0C7F89840C7F89840D7F8A2
:1032A8009C4000F10801007B64F304000871D7F822
:1032B800A0000C79400860F347140C71D7F89C10F3
:1032C80021F01F016960D7F8A01021F01F012961C2
:1032D80008F1010814350C36B3E700BFD4D3002039
:1032E80000ED00E0A4F50020F0B55249524CD1F8A9
:1032F80090302568C3F307239D4287B000F296807B
:103308000020FFF781FF4D4BC1F8C030854216D130
:103318004B4C01A82570FFF703FA00250646494FD4
:10332800AE4213D1002023784249D1F89020C2F34D
:103338000722934274DBFFF75BFF002043E06168DC
:1033480001EB0011FFF76CFE0130DFE7019928015E
:1033580001EB0513DA683A40B2F5800F42D007D87E
:10336800B2F5801F15D0B2F5001F2ED00135D7E772
:10337800B2F1006F43D0B2F1805FF7D15A689B6811
:103388000958013B22F01F00034423F01F030120CA
:1033980032E05A689B680958013B22F01F00034439
:1033A8000120844623F01F0340EA4C10CDE9022196
:1033B8008DF8100002A920780593FFF74BFE00282E
:1033C8002ADA6FF0150007B0F0BD5A689B680958F3
:1033D800013B22F01F0003444FF0020C012023F0B0
:1033E8001F03E1E75A689B680958013B22F01F0058
:1033F8000344062023F01F034FF0000CD4E75A685B
:103408009B680958013B22F01F0003444FF0030C4E
:10341800012023F01F03C7E7237801332370A5E7B2
:10342800C1F89830C1F8A00001337EE74FF0FF30B3
:10343800C9E700BF00ED00E0C4AC0000AAFF4400EB
:10344800A4F500200000F0FF014B1860704700BF92
:103458000401002008B5244A244B1A6000F060F8E3
:103468004FF47A612248D0F82436C3F30802C3F334
:1034780009434B4382F480721E49883201FB0233B0
:103488004FF4FA215B00B3FBF1F201FB12331A4946
:10349800B3F57A3F28BF0132C1F80429D0F82036A5
:1034A8004FF47A60C3F30802C3F30943434342F27B
:1034B8001C5082F4807202F2172200FB02334FF490
:1034C8007A701B0AB3FBF0F200FB12330020B3F54D
:1034D800FA7F4FF0010328BF0132C1F81C27C1F859
:1034E8000009C1F8003608BD0020A1077C020020B1
:1034F80000C0FF00F82A00800000125048B1054BB8
:10350800054A1B68B3FBF2F35843044B43F001032D
:10351800184770477C02002040420F0020AC000092
:103528000122024BC3F80424704700BF002008E0C2
:10353800084B70B5C31A0D4607499B1004465943FA
:103548004022064805F060FB2B4601462046BDE8B0
:1035580070401847FCD30020B76DDBB600A100000F
:10356800402373B50B4C0093041B0B460D460A49C8
:10357800A41061430646094A094805F070FB011E7C
:1035880005DA30462B4602B0BDE87040184702B055
:1035980070BD00BFFCD30020B76DDBB6CF8C000038
:1035A80000A100002DE9F0470022012107464FF451
:1035B8008770FFF783FC124801F07AFB0446D0B904
:1035C80001F0A0FB25464FF01C0A4FF00C08DFF86D
:1035D80034903E6949460AFB056005F08EF8031EE3
:1035E8000CDB012308FB05661D44032DF365F0D1B0
:1035F8002046BDE8F0876FF00404F9E71C46F7E7BA
:103608003D370000ECAC00001FB500220123CDE9D6
:1036180002236B46084ACDF800D0CDF804D005F057
:103628004BFB002805DB43F609520023684602F0ED
:103638000BFD05B05DF804FBED8C000010B5EFF351
:103648001184202383F31288BFF36F8F074A13680E
:1036580023F00201DB07116002D4012005F0DAFD36
:1036680084F31188BFF36F8F10BD00BF74D400209E
:103678000C22104B014602FB0033002030B4D3E982
:1036880015525865EFF31180202484F31288BFF394
:103698006F8FDC6D04F0C00444F00204DC6580F335
:1036A8001188BFF36F8F1DB12B4630BC02481847F5
:1036B80030BC7047FCD3002000A1000010B4EFF329
:1036C8001182202383F31288BFF36F8F1648016895
:1036D80041F002040460C80707D482F31188BFF3DD
:1036E8006F8F012010BC05F089BD1049D1F80C146A
:1036F800C903F2D5EFF3118083F31288BFF36F8FFC
:103708000B49CB6D03F0C00343F00203CB6580F394
:103718001188BFF36F8F82F31188BFF36F8F00207A
:1037280010BCFFF7A5BF00BF74D4002000E0105004
:10373800FCD30020042805D007280AD002280AD183
:10374800012004E0044BD86D10F0070003D1FFF707
:103758008FBF0220FBE77047FCD30020C3B21C20B8
:10376800014A03FB00207047FCD300202DE9F041FB
:10377800012207463449D1E8EF3FC1E8E02F00288D
:10378800F9D133B9314932484B60CB608A6004F0D3
:10379800C7FF7B1E012B28D8012F06D12D4BD3F84C
:1037A800503403F00303012B1FD006F04AF80546F6
:1037B800E8B9294B1B78D3B104220646254BC3F838
:1037C8000823244CDFF89480D4F84C24D4F84C34E3
:1037D800D20315D503F00303012B01D0012F0FD11C
:1037E8006DB386F31188BFF36F8FBDE8F081EFF3F7
:1037F8001186202383F31288BFF36F8F0125E0E73A
:10380800C5B1304605F0C1F9D4F8403413F0FF03D0
:10381800DAD1D4F80821002AD6D0C4F80831D4F86F
:1038280008314FF480420123C4F84034C8F8A0217D
:103838002361C9E70021202006F0A2F8E4E704226A
:10384800044BC3F80423D0E7F8D30020E8D30020C2
:1038580018D4002000E01050A7F5002000E100E097
:1038680008B5074805F046FF38B10648FFF7ECFDF4
:103878000448FDF7BBFC002008BD6FF01200FBE711
:103888008CA10000913800000A2838B50446074D7D
:1038980004D1AB680D2128465B689847AB6803489C
:1038A8005B68E1B29847204638BD00BF8CA1000094
:1038B8002DE9F04340F206354768D00648BF4FF07F
:1038C800030C3B7C02EA050558BFC2F3401C87B0D5
:1038D80001F01F06B5F5837F144646EA43168DF8B6
:1038E80003C046D00DD8062D45D005D8A5B1022D68
:1038F80012D06FF0150039E0B5F5807FF9D10125B8
:103908000AE040F20222954237D0B5F5407F36D022
:10391800B5F5007FEDD104250123220303FA01F157
:103928002FD57B685960B86880BB7F2E06F01F03CF
:103938004FEA561173D83C4A52F8212084F480315A
:1039480002EB8302D2F88030C1F30041C4F3404453
:1039580023F4706344EA410423F00F031C4344EA50
:103968008C0444EA0524C2F88040002007B0BDE872
:10397800F0830925D0E70825CEE70625CCE70525FD
:10398800CAE7630344BF7B689960CCE731460DF111
:10399800020205F021FE14F4403F80460CD1314666
:1039A800B86805F032FEB8F1000FDED19DF80210BC
:1039B800B86801F09DFCD8E74FF0000901ABCDE9EC
:1039C8000199CDE90439CDF80C903146B86803AABD
:1039D80005F046FD4845C8DB14F4003314D09DF8C3
:1039E800033084F48034C4F300448DF80E308DF82D
:1039F8000C508DF80D404B463146B86803AA01F0CB
:103A0800C5FB0028CFDAB0E7CDE904330DF1030395
:103A180003933146B86803AA05F022FDF1E7203385
:103A280050F82330FFDE00BF2CAD00007F2870B5B2
:103A38004FEA50110CD80D4A52F8216046B132694C
:103A4800516829B1012500F01F030C689D4001B998
:103A580070BD8A682A4002D030464B6898471CB12E
:103A6800236821461C46F2E72346FAE71CAD00000E
:103A780038B54568A868C0B105F0C1FD0146A0B9D0
:103A8800A86801F0FDFB044688B902460949A86800
:103A980005F09FFD22460121DB20FFF70FFA2246A1
:103AA800012140F20D10FFF709FA002038BD6FF030
:103AB8000400FBE7353A0000F0B544681646A068F4
:103AC800227C01F01F0587B045EA421500286CD01A
:103AD800B6F5001F04D1294605F0EBFD002055E09E
:103AE8006268607CB6F5800F50624FF0000001AA52
:103AF8000190506039D1B3F1007F14BF052304232E
:103B08008DF804300023CDE904230393E3680DF115
:103B1800030723FA01F111F0010139D1B6F1A07FB1
:103B280036D105F01F037F2D4FEA551003F120030E
:103B38003ED8214A52F8202052F82330DB0727D4F8
:103B48003A462946A06805F047FD163018D0029776
:103B58002946A06803AA05F083FC002816DB012289
:103B68002946A06805F053FDB8E7B3F1C06F05D04A
:103B7800B3F1007F14BF01230223C1E70323BFE78A
:103B88003946A06801F0BEFB0028E0DA07B0F0BDB6
:103B98003A462946A06805F01FFD0028D8D19DF8AF
:103BA8000310A06801F0A4FBD2E76FF08500EDE7F1
:103BB80051F82330FFDE00BF2CAD000010B5002205
:103BC8000C460023006F0C3102F046F8021E05DA9D
:103BD8000448054905F013F9002010BDE3680120E9
:103BE8002360FAE78CAB000062B80000F7B5044622
:103BF80000220121E820FFF761F9012325696668A1
:103C080085F8C83077680021384601AA05F00DFA12
:103C180000281BDB019B3A681979186800F058FDE9
:103C2800002813DB04230C2209490A48C5F8BC60A4
:103C380005F0DDFD04230C220749084805F0D7FDEF
:103C480002202469FFF78AFD2060002003B0F0BD40
:103C5800A8D50020E8D4002078D500203CD5002045
:103C680013460022F0B5056989B0029295F8CD2077
:103C78000C46D207CDE9001304D43149314805F088
:103C880009F908E095F8C820511E012906D92E49DE
:103C98002C4805F0B4F86FF004002CE02A6A9A4228
:103CA80001D22A49F4E713F0030101D1082B02D805
:103CB80008222749ECE702946C6A05F14006631C68
:103CC8001BD047F6122740F2E73024EAE4744FF499
:103CD8007A720023C4FB0701FCF7F2FB02460B468D
:103CE8006946304605F092FD002804DB95F8C83097
:103CF800022B06D0002009B0F0BD4FF0FF3213466A
:103D0800EEE795F8CC30002BF4D00021142203A85C
:103D180006F083F9284603A905F05CF820B90D4997
:103D2800084805F0B7F8E5E70023284685F8CC30C1
:103D380003A905F069F80028DCD107499EE700BF10
:103D480088B800008CAB0000A1B80000BBB8000028
:103D5800ECB8000030B900004FB90000F0B50446D7
:103D680087B01422002101A806F057F994F8C93049
:103D78000BBB204601A9FFF721FF00287BD1204675
:103D880005F01CF894F8CD305B0702D5206804F0E4
:103D98001EFD029B1BB10399E06905F0D8FC019B4D
:103DA8001BB10499206F05F0D2FC04236FF00B00BF
:103DB80084F8C8305DE0204601A905F00BF820B969
:103DC8003149324805F066F8D9E794F8C930012B33
:103DD800CFD1DDF804C0029BBCF1000218BF01225C
:103DE800C4F8C030039B01ADC4F8C430D4F8BC306B
:103DF8001E699C68337906F1080762F30003337182
:103E0800029B1A1E18BF0122337923F03E0343EAAE
:103E1800420333710FCD0FC7002001212B68029D8B
:103E28003B60C6E90700C4F80015C4F804018542E0
:103E3800D4F80431C4F81801D4F8183107BF0A4679
:103E4800022342230246844504BF4023022243F052
:103E58000C03C4F80433BDF814309B00C4F8483789
:103E6800C4F84457C4F80837C4F804C7C4F8082588
:103E7800216007B0F0BD94F8C930002BA9D1636F59
:103E88009B08ADF81430A4E764B900008CAB0000BF
:103E98000023F0B589B00F460446CDE900330293FC
:103EA80001F0020280B9764D95F8C83022BB744BF8
:103EB80093F8C820032A6AD14222724BC3F8082318
:103EC80001225A6009B0F0BD038A9B000193002AC1
:103ED8003FD06B4D95F8C820D5F8C030032A04BFF1
:103EE800012285F8C820EBB9284604F067FF95F849
:103EF800CD305A072DD50FE0032B04BF012385F8D9
:103F0800C830D5F8C030002B33D15D4804F056FFD7
:103F180095F8CD305907CAD5594B186804F057FCA5
:103F2800BCB9C4E742689A4206D0D5F8C410E8691B
:103F38000293009105F00BFC00235148C5F8C030EE
:103F480004F03CFF95F8CD305E0702D5286804F0F0
:103F58003EFC2568FDB9636853B3494AA168D2F8A5
:103F6800C0000091984202936AD1012382F8CB30B5
:103F7800A2E700234248C5F8C03004F01FFF95F8B7
:103F8800CD30580793D5286804F021FC8FE7042228
:103F980083F8C82090E73A4EE168029596F8CB502E
:103FA800009115B3306F05F0D2FB6368002B45D143
:103FB800FB0787D5324C1422002103A806F02DF800
:103FC80094F8C93063B194F8CA30002B3FD0D4F8C4
:103FD800C0300493D4F8C43005930123ADF81C30E5
:103FE80003A9274804F010FF6CE700220023694664
:103FF80006F1940005F00AFC002810DA224923484B
:1040080004F048FF04230099306F86F8C83005F0A3
:104018009EFB6368002B3FF44FAF01259DE796F8A0
:10402800C930002B97D196F8CA50002D93D00123A0
:1040380086F8CB306368002B8FD13DE700258CE7ED
:10404800D06905F084FB002D7FF436AFB0E7204639
:1040580003A904F0BFFE0028C2D194F8C830032B8E
:104068004FF0010308D1D4F8C02084F8CA30049274
:10407800D4F8C4200592B1E784F8CC3022E700BF19
:10408800A8D4002000800E507BB900008CAB000043
:104098002DE9F04F04698B4694F8C8801546B8F1AD
:1040A800010FD0F804908DB009D04246A049A1482C
:1040B80004F0A5FE6FF015000DB0BDE8F08F536851
:1040C800029343BB204604F088FF0BF1FF33012B1A
:1040D8001DD894F8CD30029A029962F3000384F84F
:1040E800CD302C2204F1140005F097FFBBF1020F2C
:1040F8000BD194F8CD302C226FF34103002184F8C2
:10410800CD3004F1680005F088FF0020D4E7BBF14A
:10411800000FEED0F9E7D36813F0030701D1082B9D
:1041280002D808228449C2E71678182E0BD006D880
:10413800082E0BD0102E26D032468049B7E7202E05
:10414800FAD1032300E00223019300E00197AA7843
:1041580002F00703042B19D879487A49C05CC95C76
:1041680005907948C05C06907848C05C079078480C
:10417800C05C08907748C35C039312F0380304933B
:1041880006D0754993E7CDF80480E0E773498EE7D8
:1041980095F801A0BAF1010F02D1039B012B04D0BD
:1041A800514504D252466E4981E7039B0493049A11
:1041B8000AF1FF331344DBB20B930123EA7803FAC5
:1041C8000AF3013B0A9302F00603062B03D00BB156
:1041D80064496CE7984699F81D30012BD9F80830E6
:1041E80018BFD9F81820D3F8703508BF5E4A002BDD
:1041F8000ADBD9F814703FB102EB57023805390BC6
:104208000023FCF75DF90703B8F1000F14D10299F8
:10421800049B71435344594399F81C300805012BFA
:1042280014BFD9F81820504A002302EB5102090B99
:10423800FCF746F903030993B9F81C3094F8CD202C
:10424800003B18BF012363F3820284F8CD2095F95F
:104258000330EA78002B01DB530601D5434926E7F2
:104268000BF1FF33012B30D9BBF1000F7FF44DAFB9
:104278000FCD04F168060FC62B683360059B84F8E0
:104288007C8084F87D30019BC4F8887084F87E3087
:104298009DF82830C4F880300B9B84F88430069B46
:1042A80084F88530099BC4F88C30079B84F89030DB
:1042B800089B84F89130039B84F8923094F8CD30B1
:1042C80043F0020384F8CD301FE7AC4604F114062E
:1042D800BCE80F000FC6DCF80030BBF1020F3360FA
:1042E800059B84F8288084F82930019B676384F84B
:1042F8002A300A9B4FEA034303F47F03E3620B9BD4
:1043080084F83030069B84F83130099BA363079BFF
:1043180084F83C30089B84F83D30039B84F83E3099
:1043280094F8CD3043F0010384F8CD30A0D0ECE60A
:104338008FB900008CAB0000ADB90000F4B90000E3
:104348008DBB000092BB000088BB000083BB00004F
:104358007EBB000079BB00002EBA00000EBA000038
:1043680050BA000073BA000000366E0196BA000019
:104378002DE9F843022906460D4690460469D0F80F
:10438800049000AF0CD194F8CD3003F00303032B55
:104398001CD09D499D4804F07DFD6FF004005FE04E
:1043A80001290CD194F8CD3013F0010FF1D0B8F1F8
:1043B800040F4ED8DFE808F0252B2B5741000029C1
:1043C800E7D194F8CD3013F0020FEFE7E36AD4F8A1
:1043D800801081EA1342D2B20AB18D49DAE70B4361
:1043E8001822E362C4F8803004F17C0104F128004B
:1043F80005F0F6FD18B9226A636F9A42D7D085494D
:10440800C8E794F8C830012B4AD08349C2E794F82A
:10441800C830022BF9D194F8C9309D422DD1B8F19A
:10442800020F4FF0030340F0DB80B5FA85F56D0904
:1044380084F8C83084F8CA50D7E094F8C830042B00
:10444800E3D12946306904F0C8FD012384F8C83057
:10445800CBE0424671496D4804F0D1FC6FF015007D
:10446800BD46BDE8F88394F8C830022B40F0BF8001
:1044780094F8C9309D4200F0BD806C468AB06A4607
:10448800C2E9075305236649C2E9051842F8103FF7
:1044980000234FF421515D48FDF780FEA546DDE776
:1044A800002384F8C950A4F8CA3084F8CC303569A0
:1044B800766895F8C9303268012BD5F8BC300CBF46
:1044C80005F1280405F17C049868196923784FF0F0
:1044D8000008C0F804356378C0F82835A378C0F818
:1044E80024356368C0F82C35237AC0F83035637AF0
:1044F800C0F834352369C0F81835A37DC0F83C35B9
:10450800E368C0F81035237D003B18BF0123C0F8CD
:104518002035637DB3FA83F35B09C0F83835D0F8EA
:104528000C35D4F80CC023F00103BCF1000F18BF00
:1045380043F00103C0F80C350A60C0F80481D0F8D4
:104548000431C0F81881D0F81831C0F80881D0F8C3
:104558000831C0F30830FEF781FC022385F8C83023
:104568002369B268B3F1004F94BF00210121337F62
:10457800581E4342434143EA0123C2F81C35E2680E
:10458800737FB2F1004F94BF002201225C1E634288
:10459800B168634143EA0223C1F8143595F8CD3078
:1045A8005E0717D51F4B2868AB600323C5F810803A
:1045B800EB60291D04F0B4F8041E16DA284604F04E
:1045C800FDFB012322461849104885F8C83004F03D
:1045D80016FCE2E62846FFF7C1FB00EAE0703FE779
:1045E80084F8C830012384F8CA30002038E7012B4A
:1045F8003FF427AF0122422184F8CB20D9F80830B4
:10460800C3F808139A601CE788B800008CAB000058
:10461800B2BA0000E2BA00001DBB000009BB0000EE
:1046280029BB0000BB8F00005DBB0000F0B503692B
:10463800144693F8CD200D46920785B007D41A4941
:104648001A4804F027FC6FF0040005B0F0BD93F899
:10465800C82003F19407042A24D09E6F731C1DD030
:1046680047F6122C40F2E730002126EAE6764FF4AE
:104678007A720023C6FB0C01FBF722FF02460B46A9
:10468800384601A901F080FB10F1230FDBD0002888
:10469800DBD1019B2B60029B2360D6E74FF0FF32F2
:1046A8001346EDE70022FBE788B800008CAB00005A
:1046B800036803F01F027F2B02604FEA53129ABF70
:1046C800024B53F822000020704700BFCCAD000019
:1046D8002DE9F04F1546074640F2FF19DFF84CA2C6
:1046E800DFF84CB285B000EB8101B94203D100205C
:1046F80005B0BDE8F08F3A68C2F3C323082BC2F3B4
:10470800080400F20F814C4508BF4FF0FF34B2F1A6
:10471800D05F1AF803804FEA126339D3383B162B5F
:1047280002D96FF08500E3E7162BFAD801A252F8F8
:1047380023F000BF034900002B4700002B4700006F
:104748002B4700002B4700002B4700002B47000099
:104758002B4700002B4700002B4700002B47000089
:104768002B4700002B4700002B4700002B47000079
:10477800D9480000DF480000E5480000EB48000089
:10478800F1480000F7480000FD480000AD4800006F
:10479800192BC6D801A252F823F000BF0D4800001B
:1047A80029480000AD480000A7480000374800002D
:1047B80043480000A74800002B4700002B47000093
:1047C8002B4700002B4700002B4700002B47000019
:1047D8002B4700002B4700002B4700002B47000009
:1047E8002B4700002B4700002B4700002B470000F9
:1047F8002B470000B3480000C7480000CD48000020
:10480800D3480000C5F80446661C14D0012603A846
:104818000394FFF74DFF039B06FA03F3436004E09C
:10482800C5F80C46621C06D00026324613E0631C0D
:10483800C5F8004674D1043757E7C5F80446621C2A
:10484800F9D0012603A80394FFF732FF0122039B46
:1048580002FA03F383603B68039403F400400028E2
:1048680018BF002203A818BF012601930092FFF782
:104878001FFF039C019B00EB8400D0F88040C3F32A
:10488800412C009A4FEA082343EA8C03134304EAB5
:104898000B04234343EA4603C0F88030CBE7C5F84E
:1048A8000846BFE7C5F81046AEE7C5F86045601C86
:1048B8003B68C0D0C3F30043002BA7D1C1E7C5F8BC
:1048C8006445F4E7C5F86845F1E7C5F86C45EEE7D7
:1048D800C5F87445B3E7C5F87445A3E7C5F8784546
:1048E800ADE7C5F878459DE7C5F87C459AE7C5F872
:1048F8008045A4E7C5F87045A1E703A80394FFF72E
:10490800D7FE039B00EB8300D0F8803023F0E04310
:1049180043F08043C0F88030631C8CD0012684E7C4
:1049280000268FE76FF01500E2E600BFA9BB000084
:10493800F0F0FCFF2DE9F04104460D46476804F00D
:1049480080FF88B12021EFF311831A4681F3128882
:10495800BFF36F8F60680068D0F83001D0B983F377
:104968001188BFF36F8FEEE71E4B1B78002BE9D041
:104978004FF02008642663681B68D3F83031FBB910
:10498800012004F004FC013EF5D10021202004F0B0
:10499800F7FFEFE77B6A00201D706368796A1B6880
:1049A800C3F83C170121C3F84017C3F83001D3F806
:1049B8003001196582F31188BFF36F8FBDE8F0816C
:1049C800EFF311831A4688F31288BFF36F8F61687B
:1049D8000968D1F830110029DCD183F31188BFF3BD
:1049E8006F8FD2E7A7F5002070B40D4CD4E90065AD
:1049F800901B63EB0501400940EAC1604101891938
:104A080045EBD065C4E90015002400250549C1E936
:104A18000023054BC3E9004570BC02F06DB800BF28
:104A2800E8080020D0080020E008002008B500228F
:104A38000121E420FEF742FA164A0020D2F818377E
:104A480023F44033C2F8183700F0BEFD002820DBFD
:104A58000120114900F044FE00281ADB00F08CFD0B
:104A68000E4B20F01F00C3E900010D4B0022C3E9E3
:104A780000014FF0FF304FF0FF310A4BC3E900014E
:104A8800094B0A49187A00F089FD67220020084B73
:104A98001A6008BD00200E5078020020E8080020A7
:104AA800C8080020D008002070020020F14900004A
:104AB80010D6002008B500F05FFD064AD2E90032A2
:104AC800C01A054B61EB0201C3E90001400940EA45
:104AD800C16008BDE8080020E0080020F7B5224BB7
:104AE8000146224F187A224BD7E90056D3E9002312
:104AF8009E4208BF954211D1B1F1806F0ED2490193
:104B0800012938BF012101224D1946F10006C7E9E4
:104B1800005603B0BDE8F04000F06CBE154BDFF85E
:104B280058C0D3E90043DCE9002CA41843EB0C0C73
:104B38004FF0200E22466346C1FB0E23954276EBCA
:104B48000301C7E900230DD2291B66EB0C04C82911
:104B580074F10004B4BF01210021009100F012FE9D
:104B680003B0F0BD0021F8E770020020D80800204B
:104B7800D0080020E8080020E008002003689A0711
:104B88000CD50368DB070DD50922074BC3F80C25A4
:104B98000F22C3F8042501221A60FEE7034B0360C5
:104BA800EF3B0360704700BF00801050F000FA50E0
:104BB80008B50123304AC2F80038A2F55722D2F8C6
:104BC80000242E4AD2F84023292A01D0332A02D1C0
:104BD8002B4AC2F80C342B48FFF7D0FF0830FFF7F8
:104BE800CDFF0830FFF7CAFF0830FFF7C7FF00F511
:104BF800F470FFF7C3FF244AD2F88C3043F44063C3
:104C0800C2F88C300022D30003F57F0303F540433C
:104C1800D3F8001401310AD0D3F8001439B1D3F80D
:104C280000140132D3F80434402A0B60EBD1174B3F
:104C3800D3F80026D2071AD4154B1349D3F81825F0
:104C480022F00302C3F81825D3F81825C3F818254D
:104C5800D1F88C2042F44062C1F88C200022C3F8BD
:104C6800A0250C4AD2F80034012BFBD008BD6FF008
:104C78000102C3F80026DFE70000125000C0FF0061
:104C88000030055000F50E5000ED00E000E0105037
:104C980000E0045000900450014B1B68184700BF07
:104CA80014D60020014B07201B68184714D6002093
:104CB80010B5104C2379D3B9012323710E4B00286A
:104CC800206018BF184600F0FFF890B923680B4819
:104CD800002B08BF184600F041F850B9236808486F
:104CE800002B08BF1846BDE8104000F085B96FF0EA
:104CF800770010BD14D60020A14C000001920000DE
:104D0800AD4C000008B5074B1B6853B14FF48770D2
:104D1800FEF7C6F828B9BDE808404FF48770FEF7DB
:104D28009DB808BD14D6002038B504230A4C42F2B9
:104D38001075C4F80833012363610023C4F80831EF
:104D4800D4F80831D4F84C34DB0304D5012004F03E
:104D58001EFA013DF6D138BD00E01050064A13791D
:104D68003BB9012110601171044A1846C2F8403459
:104D780070476FF0770070471CD6002000E0105095
:104D880010B51D4B1D4CD3F84C14D3F84C2411F41A
:104D9800803F18D002F00302012A03D00AB1FFF7BE
:104DA800C3FF0022144BC3F840240022C3F8082193
:104DB800D3F8082101221A61226872B9D3F80821B0
:104DC800002AFBD011E0D3F84824D107E9D5D3F85D
:104DD80050249207E3D422681AB10422C3F80423AA
:104DE80010BDD3F80821002AFBD00022C3F80821FF
:104DF800D3F80831F4E700BF00E010501CD60020BB
:104E0800F8B50125184C194ED4F80C3303F00C03EF
:104E180003B9F8BDB3FA83F30027C3F11F039A005F
:104E280002F5807292B202F1A04202F58712176071
:104E380005FA03F1022B1268D8B2C4F8081310D18E
:104E4800D4F84C34D4F84C349B070AD10423C4F862
:104E58004054C4F804332561D4F80C3303F00C0330
:104E6800D6E733689847F7E700E010501CD60020D3
:104E7800712238B5114B0021C3F8082301225A606A
:104E8800C3F80011D3F800110D49D1F840132929AE
:104E980001D0332900D1DA6042F21074074DD5F8F9
:104EA8000C3413F4803305D0012004F070F9013C70
:104EB800F5D138BD034A5371FBE700BF00E010503D
:104EC80000C0FF0024D60020054B0246187918B907
:104ED8001A6001221A7170476FF07700704700BF9F
:104EE80024D600200022174BC3F81021D3F8101144
:104EF800C3F81821D3F81811C3F81421D3F81421D2
:104F0800114AD2F84023292A01D0332A01D101229B
:104F18009A600022C3F80021D3F8002101221A6008
:104F28000A4A126852B9074BD3F80021002AFBD06D
:104F38000022C3F80021D3F8003170477122C3F86A
:104F48000423704700E0105000C0FF0024D6002062
:104F5800F8B50126194C1A4DD4F80C3303F0710337
:104F680003B9F8BDB3FA83F30021C3F11F039A0014
:104F780002F5807292B202F1A04202F58712116026
:104F880006FA03F7042B1268D8B2C4F8087308D0DD
:104F9800062B10D02B689847D4F80C3303F0710314
:104FA800DEE702236B71C4F81411D4F814312023FE
:104FB800C4F80433EEE76971ECE700BF00E0105075
:104FC80024D6002038B580230A4C42F21075C4F864
:104FD80008330123A3620023C4F81C31D4F81C3120
:104FE800D4F86C34DB0304D5012004F0D0F8013D7B
:104FF800F6D138BD00E01050054B0246187918B9B3
:105008001A6001221A7170476FF07700704700BF6D
:105018002CD6002000220C4BC3F81C21D3F81C21ED
:1050280001225A62094A12681AB18022C3F804237D
:105038007047D3F81C21002AFBD00022C3F81C219A
:10504800D3F81C31704700BF00E010502CD6002068
:10505800094BD3F8042312060DD5D3F81C2152B1FD
:105068000022C3F81C21D3F81C218022C3F808238E
:10507800024B1B681847704700E010502CD60020E0
:10508800036803F01F027F2B02604FEA53129ABF96
:10509800024B53F822000020704700BF2CAE0000DE
:1050A800034A4309D35C00F01F001844C0B270479C
:1050B800CDBB0000F0B58446002587B0DFF848E096
:1050C800124F019102AE1EF8013B06AA02EBD30271
:1050D80012F8144C03F00703DC4014F0010406D165
:1050E8000135042DEFD10024204607B0F0BD97E824
:1050F8000F0086E80F0056F82520136A4CF8253073
:105108001362002BECD0EFE7DDBB000004AC00001D
:10511800F7B504460846FFF7C3FF06B204EB460698
:10512800B38A0D46DB072BD5204604F076F92946CD
:10513800204604F0E2F858B1204604F0F4F80022C2
:10514800276800B207EB8003C3F81025C3F81025C1
:105158002946204604F010F9002101A8B1820195E2
:10516800FFF78EFF019B00EB8300D0F88020064BF1
:10517800134043F00203C0F88030084603B0F0BD86
:105188006FF01500FAE700BFF0F0FCFF2DE9F043DF
:10519800044685B0084616461D46FFF781FF0F46B0
:1051A800804636B3204604F0B3F818B9204604F018
:1051B800A4F828BB0FFA88F904EB4909B9F81430A8
:1051C80013F01C0F02D07378012B19D001238DF82E
:1051D8000F3000233846CDE90063721CB31C0DF173
:1051E8000F0104F032F8B9F8143043F00303A9F8BA
:1051F8001430002D40D03946204604F089F820B9F3
:105208006FF0150005B0BDE8F08300222978236807
:105218004FEA810C03EB8103C3F81025C3F810256E
:105228000FFA88F204EB4202938A23F4604323F0D6
:10523800200393826E78FEB12468A8786444D4F879
:1052480010550E4B36042B40C4F8103541F6F07358
:1052580006F4403603EA07130005D4F81055334323
:1052680000F4801003432B43C4F81035938A43EAB3
:10527800413343F0200393820020C3E70FE0ECFFA3
:1052880070B590F8B040054690F8B1604CBB8422E8
:105298002146143004F0C1FE2146134A2B6852F807
:1052A80036608E4213D1002440F20D10C3F84441F9
:1052B800D3F844210D4A934208BFDB20FDF7CEFD09
:1052C8000123204685F8B030C5F89C3070BDCAB2BD
:1052D800920002F58070442A04BF1C501A5801310C
:1052E800DFE76FF07700F1E73CAE000000A00D505B
:1052F80090F8B100024B03EB800003F064BF00BFDD
:105308008002002010B5064B90F8B1000C4603EB64
:10531800800003F03EFF0028A4BF2070002010BDCD
:10532800800200202DE9F04F814659F8043B8DB0EA
:10533800D3F8141390F8B14000936C4BC9B241F400
:105348000031804653F83420009804F03FF8810378
:1053580005463BD51022002108A804F05EFE634BE9
:1053680008A803EBC4035B6819460193FFF7A2FE84
:10537800042303EBC40303934FF0000B5C4B0DF1C4
:10538800200A0293029A594912F8013B0292039AA1
:1053980002EBD3028A5C03F0070322FA03F3DA076D
:1053A8001AD40BF1010BBBF1040F0AF1040AE9D17D
:1053B8004FF400310022009804F008F8019908A879
:1053C800FFF778FE0028D7D125F400350124002DF9
:1053D80075D10DB0BDE8F08F464B5B440493DAF805
:1053E80000100029DDD091FAA1F1B1FA81F1049BF6
:1053F8001C7841EA44142046FFF752FE08EB4000AF
:10540800878AC808BB08059301231AF8002001F011
:10541800070103FA01F122EA01020AF8002007A8AD
:105428000794FFF72DFE079A059B203250F822209B
:10543800C7F382065B073746C2F3014223D54846C5
:10544800D6B221463A4603F078FF07A80794FFF73B
:1054580017FE079B203350F82330C3F301439E42C5
:1054680007D10021204603F039FF3146204603F0DA
:1054780035FF07A80794FFF703FE0122079B02FAEE
:1054880003F30362ABE7022A0DD10321204603F0A0
:1054980025FF06F00503012BEBD13A462146484685
:1054A80003F04BFFE5E702212046059203F016FFC3
:1054B800032EF2D0059A032ADBD1022EECE795FAE7
:1054C800A5F3B3FA83F3009904FA03F225EA020577
:1054D80003F5A27251F8222008EB43034846B3F8BB
:1054E800A010C2F3014203F028FF70E73CAE0000B1
:1054F800DDBB0000DDBB00000123034A03FA00F016
:1055080093680343936070476000002073B50446B6
:105518000191EFF31186202383F31288BFF36F8F75
:105528000B4D019B6A6801A81340019303F031FEFB
:10553800002807DB01226B68824023EA02036B60C4
:105548002070002086F31188BFF36F8F02B070BD02
:1055580060000020074B027AD3F8101521F00101F2
:105568000A43C3F810250268C3F8A4264268C3F8A2
:10557800AC26704700200E504FF0FF306FF04041CE
:1055880030B5054CD4E90023904271EB0305F9D3FB
:105598001046C3F3130130BD40270E5030B50C251B
:1055A800074B1C1894F8544005FB0433C3E9031255
:1055B80018750123034A8340C2F8243330BD00BF65
:1055C8006000002000200E50F0B53D4D85B02C78CD
:1055D800002C6FD13B4A01AB07CA83E807003A4960
:1055E8001846D1F8102522F00202C1F81025FFF75D
:1055F800B1FF0723672202F001012144013BCCB22D
:105608004FEA5202F7D1052C57D119464FF0010C39
:105618002B4E00246720CFB204E00CFA02F220EAF5
:105628000200013490FAA0F25FFA84FEBE45B2FA95
:1056380082F2F2D30131327505292A4482F8547076
:1056480006F10C06E5D10121002420489A0801FA48
:1056580002F212F0670F18BF1C500433302BF5D13B
:10566800E420FDF7FBFB184B1949D3F8102503F587
:10567800C07322F00202C3F8902340F6FF72C3F809
:10568800A82100221A60A3F5807004338B420260BF
:10569800F8D101240C4B0F4A1C660F4B5D201B6888
:1056A800B3FBF2F358430D4B2343984700202C706B
:1056B80005B0F0BD6FF07700FAE76FF08B00F7E701
:1056C8006000002014AC000000200E5000210E5095
:1056D800B0210E5040420F007C02002030AC000088
:1056E80038B5254B0C46D3F8102595073DD4D3F88B
:1056F800102542F00202C3F81025C0B1D3F848279C
:1057080012F0010202BFD3F8481741F00101C3F8B3
:105718004817194BD3F84017D3F844174900F9D460
:105728002AB9D3F8482722F00102C3F84827134BB7
:10573800134A1B681049B3FBF2F303EB4313BBB1E5
:10574800D1F84027D1F8445715F080450BD14FF0D8
:10575800FF312046FFF7DAFE002803DB2078FFF749
:10576800CBFE284638BD013BE9E76FF07700F9E743
:105778006FF07300F6E700BF00200E507C02002097
:1057880040420F0070B51D461446184A9DF8106037
:10579800131893F8543000B20C3302EBC30142F8EB
:1057A80033404D60C5F31301AEB10201104E02F152
:1057B800A04202F562228000C2F820450644C2F8E1
:1057C8002415336833B1FFF7D7FEA042A94101D2AF
:1057D8000023336070BD030103F1A04303F5622386
:1057E800C3F82045C3F82415F4E700BF6000002083
:1057F80000210E50F0B50E4D2B1893F854300001CF
:105808000C3355F8334005EBC3077E68641800F184
:10581800A04021F0004146F1000641EAC27100F5BE
:10582800622045F833407E60C0F82815F0BD00BFFF
:1058380060000020F7B5284B284CD3F82C6304F1FE
:1058480088070EB903B0F0BD96FAA6F00123B0FAA6
:1058580080F08340DA43224926EA0306231893F8A6
:105868005450830019440C2303FB0543DB6873B3CE
:10587800D7E8EF3F03EA020CC7E8EECFBEF1000F0E
:10588800F6D1C340DB0719D5020102F1A04202F5A7
:105898006222D2F82435D2F82025D1F800C0BCF114
:1058A800000FCED04FF0000CC1F800C00C2101FB56
:1058B800054529690091E9688847C2E705F10C03A5
:1058C80004EBC30C54F83320DCF80430E5E70A682D
:1058D800002AB6D00B60B4E700200E50600000200C
:1058E80000210E50044B40EA0120C3F80005D3F80C
:1058F8000024D207FBD5704700E0045010B50446D9
:10590800FCF780FB03480121034A03F043F82046D3
:1059180003F0FBFE74AB0000E1BB00002DE9F84387
:1059280004460D4600AFEFF31188202383F3128855
:10593800BFF36F8F0428294A98BF294BE9468AB0DC
:105948009668117C98BF53F820306A4688BF254B6B
:10595800C2E9073140F2013323489384234BC2E95B
:10596800050442F8103F00234FF431512048FCF75A
:1059780015FCCD4645B1EB69C3F3080323B10121FA
:105988001C4A1B4803F006F82EB1304603F05FFFAF
:1059980008B1037803B91848E9468AB06A46174B34
:1059A800D061C2E9053640F201331384144B42F842
:1059B800103F00234FF411510D48FCF7EFFB294627
:1059C800CD462046FFF79AFF88F31188BFF36F8F03
:1059D8003046FDF7EDF9BD46BDE8F88334D6002022
:1059E8004CAE0000F0BB000006BC00000500000142
:1059F80074AB00002EBC0000FEBB00004FBC0000D2
:105A08000400000138B50A4B53F82040013053F820
:105A18002050A54200D838BD606830B1037EDB074E
:105A280001D403F04FFE0834F3E723689847FAE7F8
:105A380060AE0000012270B5294B032086B01A70B1
:105A4800FFF7E0FF04F059F80420FFF7DBFF254CCF
:105A5800254D2646AE4204F1300410D300F04EFD29
:105A6800204C224EAC4226D300F05CFDFAF798FE9B
:105A78001F4A137B23F00103137306B070BD54F85B
:105A88000C3C059354F8103C049354F8143C0393CD
:105A980054F8183C029354F81C3C019354F8203CE9
:105AA800009354E90A2354E90C0100F003FB54F86D
:105AB800303C5E65CDE7D4E90A23B3F1FF3F08BF68
:105AC800B2F1FF3F05D052EA0301206803D100F08C
:105AD800E5FD3034C6E73146183000F07DFFF8E7C1
:105AE800A7F50020D4AA0000D4AA00005599000008
:105AF800B0090020C02370B5144E86B003FB0066C1
:105B0800134B012205930F23CDE903320023CDE97E
:105B1800013314234FF4A0720E4D0F4903FB0055B7
:105B2800044602FB00110D4B3046009500F0C2FA06
:105B3800737B2C7423F004037373094B013403EB58
:105B4800C423EE606B6006B070BD00BFF008002093
:105B5800B1BC000034D60020B0000120C797000077
:105B6800B0F80020BFB50020FFF74CFF294B03F524
:105B7800006282F3088883F30A880024E023264D14
:105B8800264F85F82230EC772C766C76AC7685F843
:105B980020406B6A43F4E0236B6285F82340FDF7ED
:105BA80081F8FDF7FBF94FF0FF33AB62EB62FDF7CD
:105BB8009BFBFDF719FAFCF783F9194800F00AFB7B
:105BC8000120FFF71FFF0220164DFFF71BFF00F013
:105BD800DDFC154B15495D61154B4FF4806205934B
:105BE80001232846CDE90343CDE901443B4600940F
:105BF80000F060FA06466A7B284622F004026A73BF
:105C080003F061FE2046FFF775FF3A463146284605
:105C1800FDF7A8F9B0F8002000ED00E03D5A0000BB
:105C2800700A0020B009002034D60020F0010120BD
:105C3800B6BC0000002038B5054C064DAC4200D378
:105C480038BD204603F069FD0028F9DB1C34F5E770
:105C58000C0300202803002073B50C46EFF31181D4
:105C6800202585F31288BFF36F8FC5685DB1256065
:105C78002B68C360836901338361002081F3118835
:105C8800BFF36F8F11E052EA030603D16FF00B00E8
:105C98002560F3E7CDE900230246083000F074FBE5
:105CA80018B9034B9B681B69236002B070BD00BF25
:105CB80034D600202DE9F34104460E469DF8200015
:105CC80004F10808EFF31187202181F31288BFF34C
:105CD8006F8F256AE1688D4243D22568AC421AD09D
:105CE800CDB1284603F076FD05F1180003F0AFFEAC
:105CF800A26800243146286904F082F92846C5F8CC
:105D0800BC4003F0E0FD4046394600F0D1FB204698
:105D180002B0BDE8F081A268A8B13146E06904F09C
:105D28006FF9E369A26813446269E361934201D1A0
:105D38002369E3610020236A0133236287F3118812
:105D4800BFF36F8FE4E7A1692369994208BF6369CC
:105D5800314608BFA361A069801AA06104F050F918
:105D6800E8E752EA03010AD00649404689680E610D
:105D7800CDE900233946224600F006FBC8E76FF05C
:105D88002200DBE734D60020F7B50446084604F1C4
:105D98000807EFF31186202181F31288BFF36F8F74
:105DA800216A00293AD0A268A16904F029F9A369F7
:105DB800A268256813446269A361934204BF2369FA
:105DC800A361236AAC4203F1FF33236234D028462F
:105DD800002D32D003F0FEFC05F1180003F037FE69
:105DE800A2682969E06904F00BF9E369A26828460A
:105DF80013446269E361934204BF2369E361236A40
:105E0800013323620024C5F8BC4003F05CFD38462A
:105E1800314600F04DFB204603B0F0BD52EA0301C5
:105E280010D00A4989680861CDE900233146224625
:105E3800384600F0A9FAEFE7002086F31188BFF38F
:105E48006F8FE9E76FF02200F7E700BF34D6002034
:105E58002DE9F341044617461E46EFF31188202327
:105E680083F31288BFF36F8FC368334A7BB18068AE
:105E78009168884219D057EA060318D188F3118827
:105E8800BFF36F8F6FF00F0002B0BDE8F08191682B
:105E980091F90E100133E36093682161A36088F3E0
:105EA8001188BFF36F8F0020EEE72169F2E791F9BF
:105EB8000E1090F90E306FF07E029942A8BF194675
:105EC8009142B8BF11468B422DDD03F0A6FC054672
:105ED80022464146CDE90076184800F055FA0028D8
:105EE800E1D0EFF31186202383F31288BFF36F8F7D
:105EF800A068D0B1236821699C420AD04BB193F9BC
:105F08000E309942A8BF19466FF07E039942B8BF78
:105F1800194603F082FC40B13146084800F0C8FA3F
